:020000040000fa
:080000000002040000000000f2
:020000040000fa
:10000800b2020000b2020000b2020000b202000018
:10001800b2020000b2020000b2020000b202000008
:10002800b2020000b2020000b20200009a02000010
:10003800b2020000b2020000b2020000a6020000f4
:10004800b2020000b2020000b2020000c80d0000b7
:10005800ee0d0000b2020000b2020000b202000081
:10006800b2020000b2020000b2020000b2020000b8
:10007800b2020000b2020000b2020000b2020000a8
:10008800b2020000b2020000b2020000b202000098
:10009800b2020000b2020000b2020000b202000088
:1000a800b2020000b2020000b2020000b202000078
:1000b800b2020000b2020000b2020000b202000068
:1000c800b2020000b2020000b2020000b202000058
:1000d800b2020000b2020000b2020000b202000048
:1000e800b2020000b2020000b2020000b202000038
:1000f800b2020000b2020000b2020000b202000028
:10010800b2020000b2020000b2020000b202000017
:10011800b2020000b2020000b2020000b202000007
:10012800b2020000b2020000b2020000b2020000f7
:10013800b2020000b2020000b2020000b2020000e7
:10014800b2020000b2020000b2020000b2020000d7
:10015800b2020000b2020000b2020000b2020000c7
:10016800b2020000b2020000b2020000b2020000b7
:10017800b2020000b2020000b2020000b2020000a7
:10018800b2020000b2020000b2020000b202000097
:10019800b2020000b2020000b2020000b202000087
:1001a800b2020000b2020000b2020000b202000077
:1001b800b2020000b2020000b2020000b202000067
:1001c800b2020000b2020000b2020000b202000057
:1001d800b2020000b2020000b2020000b202000047
:1001e800b2020000b2020000b2020000b202000037
:0801f800b2020000b202000097
:020000040000fa
:10020800b2020000b2020000b2020000b202000016
:10021800b2020000b2020000b2020000b202000006
:10022800b2020000b2020000b20200009a0200000e
:10023800b2020000b2020000b2020000a6020000f2
:10024800b2020000b2020000b2020000c80d0000b5
:10025800ee0d0000b2020000b2020000b20200007f
:10026800b2020000b2020000b2020000b2020000b6
:10027800b2020000b2020000b2020000b2020000a6
:10028800b2020000b2020000b2020000b202000096
:10029800b2020000b2020000b2020000b202000086
:1002a800b2020000b2020000b2020000b202000076
:1002b800b2020000b2020000b2020000b202000066
:1002c800b2020000b2020000b2020000b202000056
:1002d800b2020000b2020000b2020000b202000046
:1002e800b2020000b2020000b2020000b202000036
:1002f800b2020000b2020000b2020000b202000026
:10030800b2020000b2020000b2020000b202000015
:10031800b2020000b2020000b2020000b202000005
:10032800b2020000b2020000b2020000b2020000f5
:10033800b2020000b2020000b2020000b2020000e5
:10034800b2020000b2020000b2020000b2020000d5
:10035800b2020000b2020000b2020000b2020000c5
:10036800b2020000b2020000b2020000b2020000b5
:10037800b2020000b2020000b2020000b2020000a5
:10038800b2020000b2020000b2020000b202000095
:10039800b2020000b2020000b2020000b202000085
:1003a800b2020000b2020000b2020000b202000075
:1003b800b2020000b2020000b2020000b202000065
:1003c800b2020000b2020000b2020000b202000055
:1003d800b2020000b2020000b2020000b202000045
:1003e800b2020000b2020000b2020000b202000035
:0803f800b2020000b202000095
:020000040000fa
:10040000efcc20000e7f24000e01880000000000c9
:10041000000020000000e000020032000001200087
:10042000200288000c00070040f32000010020009b
:1004300011000700000020000000e0000200320070
:100440000000020000000000780f02000000000021
:100450000040da000000fe004440a9000000200037
:100460000000e0000300320000002000a00188002e
:100470004440a80000000600910188008000780038
:100480000000eb0015003700e280400032a0b4000d
:100490009101ba00e280400032a0b4009102ba009b
:1004a000e280400032a0b4000002eb00472bde00e7
:1004b000f507b200602ce10004003a000059eb009f
:1004c0008301e900fdff3e00040037006128e100e0
:1004d000010032000082eb00040007001101ba00a5
:1004e0000200e000e8ff3a00000006003159ba00bf
:1004f0008301e9000c0032002159ba008301e900b0
:10050000080032000400e00003003a00e2804000ee
:1005100032a0b400f5ff370011d9ba008301e90019
:10052000faff3a008100e800e180400032a0b40008
:1005300000000600801f78000000fa008460a90017
:100540000080fa004f00780000400600801f78000d
:100550000000fa0084e0a9000080fa004f00780053
:10056000004006000040da000000fe00889fbe0048
:1005700080047800c0568000e00f500004003a006c
:100580000e0007000084eb00e00f5000080035006b
:10059000c8568000e08f5400050032000900440076
:1005a00006000700e00f500001003d000084eb0052
:1005b000080078004f04be0000000600e00f500065
:1005c00004003a00a4ad2000c45688000002780060
:1005d000060037000082eb00e5cc2000850f5000bc
:1005e00002003e00c05688000002eb0004007800c4
:1005f0000000060084ac2000e487470045568000d8
:10060000889fbe008a9fbe008c9fbe008e1f780010
:10061000e08f52000b003a0024029800e4024200ee
:10062000845688004556880095568800a44290005c
:100630000504a00025429800e44290000504a000b3
:100640006542980067044000a4ad2000250020000a
:100650004244de00e9cc20004244dd0084845400a2
:1006600005074400110009008504d8001ccd2000b6
:10067000825680000406560080bf9f000e07470088
:100680000003eb00e40544000806460002003700c2
:10069000160020000d0178002242900061026200e5
:1006a000020032000a003700150978009202780033
:1006b0002542900061026200fbff32000802410007
:1006c000848f520002003900e00f54003f003d00cb
:1006d000920678000d00a100828f5600edff3e00cb
:1006e000e10f5300eaff3a000fba9700840f54005d
:1006f00002003600890f540010003900614ab90029
:10070000b0ff2f00010020006143b8000402500038
:1007100085825800840f5300858f5b0002003500ee
:100720000b05780006003700110009000986d80083
:100730000982b90004057800010037000e05780031
:100740000a00780089ff0700e10f400005003a0029
:100750000b0578000b00780084ff0700e10f4000d4
:100760002b00320094568000000a780094568000d6
:1007700064034200a4429000860f50000200320041
:100780000504a000010037000504a10025429800df
:100790006405550084ac20000a0540000a08780072
:1007a0009a568800040d7800955680000003eb00ef
:1007b000254290000404a000a4429800204290002a
:1007c0000404a10024409800b2ff3700845688003a
:1007d000848f5200070036001403be008042eb00f5
:1007e000a6568800b7568800120a78008456800002
:1007f0002542980022429000875680000404a00001
:100800000709780024419800640041000100370086
:100810000000eb004f0778004f06be004f05be00fa
:100820004f04be004f00b10000000600e00f500072
:10083000080032006400500084568000840f50008d
:100840000100310080568800204290000404a1007d
:100850002440980000000600889fbe000004780035
:100860008a9fbe0081047800e08f540005003a00a2
:10087000e00f54003200320008007800ebff070060
:1008800030003700e00f540004003a0009007800ff
:1008900058ff0700800478002a00370064025400e3
:1008a0009405780068fa9700610262000200320045
:1008b00008007800ddff0700090078004dff070001
:1008c00080047800e08f54001e003200888f5400ae
:1008d0001b00320069bd9700888555000905550049
:1008e000c2ddde0042d5de000a0178008b0f550024
:1008f000010036000b0178004211dd00880078000d
:100900000900780013000700888f54000d003100a3
:100910004255dd000a854400880f55000900360065
:1009200008045500a4568000b556800042c4de007d
:100930004244dd0008844400048cbe0001003700fe
:1009400088047800090078004f05be004f04be00ff
:10095000000006000002780002003700315a7800db
:100960000201e900e00f5100fcff3a000000060020
:100970000002780002003700015a78000201e90005
:0c098000e00f5100fcff3a0000000600f0
:020000040000fa
:10098c000e00fa00000f78002147980032479800bb
:10099c00434798003407980045079800560798007d
:1009ac00670798001e007800604d88003e4090005c
:1009bc00a9e9b7003e029000e44c88005e0090006c
:1009cc00004d88006e029000144d88004e0090007f
:1009dc00f04c88002e4290000482fb000402d100ef
:1009ec000442780004007800abe9b700c49b2000f7
:1009fc00744d88004e409000b0e9b7000002eb0047
:100a0c00944d88000080fa00000006000800fa00ef
:100a1c0020079800614798000042eb00044f7800d3
:100a2c00200037002e029000944278001547980061
:100a3c002e0290000402e8002407980084c0b30042
:100a4c0024479800140037001e4290001e426a0092
:100a5c0061426200344798009e4278000582fb0098
:100a6c000402d100044f78003e429000e04f520047
:100a7c0002003200c4c8b3001e4f6a001e42900030
:100a8c000482fb000402d100144798002e4290000f
:100a9c000442e900244798002e429000e04f520097
:100aac00e9ff3a006e4290000482fb000402ea0067
:100abc004f22de0004427800ee4290008542e900ad
:100acc0065479800e04f5200d6ff3a001e4278006e
:100adc00044078000080fa00000006000600fa00ce
:100aec00404798004454800004427800754d8000c3
:100afc008440780005007800c4ff070000427800ad
:100b0c0024479800e44c800060c0b300040001004e
:100b1c00e44c800050c8b30004000100e44c800099
:100b2c004e40900004000100e54c8000949a200097
:100b3c00144278000440780005000100e54c800068
:100b4c004454800004427800044078000500010001
:100b5c000002eb00040f780008003700e54c800021
:100b6c00764d80001e027800040243001442780087
:100b7c0004407800050001001e0fe800445480007a
:100b8c009e0f5200f5ff3c00e44c80002e4090007c
:100b9c00040001008041eb002e419000ce409000fb
:100bac00c0a820004502070011002000c09b2000b7
:100bbc00ea0107000080fa00000006000c00fa00b1
:100bcc00889fbe00749a200014427800e04f5200b7
:100bdc0050003a00044d800004000100000278002f
:100bec00e40f52004b0034000a003700944d800093
:100bfc000402e800944d8800044d800004000100bc
:100c0c0000027800e40f520002003c000042eb00ae
:100c1c005e013700f44c80000400010000427800b3
:100c2c00e64f5200f1ff3a00f44c80000400010042
:100c3c000042780055c8b300854f520035003a0089
:100c4c00f44c800004000100004278000002fd001a
:100c5c00bae9b7000002fd00f44c8000040001006a
:100c6c00004278000002fd00aae9b7000002fd0076
:100c7c00f44c800004000100004278000002fd00ea
:100c8c00a7e9b7000002fd00a59b20009542780063
:100c9c00949a20001442780084cf52001500320040
:100cac00b44d80000402e800b44d88000002eb0053
:100cbc00040f780003003700f44c8000040001009e
:100ccc001e0fe800749a2000144278000482fb0086
:100cdc000402e8009e0f5200f7ff3d000042eb00bb
:100cec000002fd00a7e9b7000002fd000042eb0086
:100cfc0026013700749a2000144278000482fb000d
:100d0c000402e8000400780037fe070000027800b7
:100d1c00244d8800749a200014427800e04f520051
:100d2c0019013200649a200014427800e04f5200fe
:100d3c0026003a0000000000044d80000400010071
:100d4c0000027800e00f5200fbff3400144d8000cd
:100d5c000400010000427800e14f42001d003a00ff
:100d6c00580207000042eb0004007800a7e9b70026
:100d7c000042eb0004007800a6e9b700244d800087
:100d8c0004007800a6fe07008cff070000427800e4
:100d9c00fe003700254d8000689a2000184478002a
:100dac000882fb0084844200f44c800004000100a3
:100dbc0000427800844c78000842e8000002fd00f4
:100dcc00a6e9b7000002fd00030037000000000098
:100ddc000100370000000000044d800004000100f9
:100dec0000027800e00f520006003200659a2000e5
:100dfc0095427800749a20001442780084cf5200f7
:100e0c00e4ff3600749a2000144278008482fb00c0
:100e1c00649a2000144278000482fb000402e9006a
:100e2c00848f5200d8003a00749a20001442780043
:100e3c00254d80008440780005007800f3fe070003
:100e4c00004278000002fd00a8e9b7000002fd0096
:100e5c00254d8000649a2000144278000482fb0027
:100e6c000402e9000482420094427800849a200033
:100e7c001442780084cf520079003a000002eb0053
:100e8c001407980029003700254d80001e029000a1
:100e9c000482420094427800b49a200014427800f4
:100eac0084cf52001b003100254d80001e029000a3
:100ebc000402e80004824200144278000002fd00a3
:100ecc008aeab7000002fd00254d80001e0290004a
:100edc000482e80004824200144278000002fd0003
:100eec008beab7000002fd00654d8000264d8000a6
:100efc001e02900004024300144278000482fb009e
:100f0c00040242000482420055548000050a780015
:100f1c0003003700c44d80000402e800c44d880073
:100f2c001e0290006302420014079800749a20007d
:100f3c00144278008482fb001e029000848f5200c1
:100f4c00d1ff3c00049b200014427800e04f52007b
:100f5c003800320000c2eb006447980014c0b300a4
:100f6c0074479800254d8000649a20001442780044
:100f7c000482fb000402e90004824200144278005f
:100f8c00044f98006602470031c0b300040078009b
:100f9c009efe07000042780044479800e44c800015
:100fac0060c0b30004000100e44c800050c8b300e2
:100fbc0004000100e54c8000a49a20001442780043
:100fcc000440780005000100e54c8000949a200054
:100fdc00144278000440780005000100e44c8000c5
:100fec0030c0b30004000100e44c800000c0eb00f2
:100ffc0004000100e44c800010c0b30004000100a8
:10100c00e54c8000264d8000649a20001442780044
:10101c000482fb000402e90004024300144278003d
:10102c000440780005000100e44c80004e40900024
:10103c00040001000042eb0004007800a7e9b700af
:10104c000042eb0004007800a6e9b700244d8000b4
:10105c0004007800f2fd070014c0b3004b00370009
:10106c00a44d80000402e800a44d8800049b2000dd
:10107c0014427800e04f52003800320000c2eb00fe
:10108c00144f980024c0b300244f9800254d8000c5
:10109c00649a2000144278000482fb000402e900e8
:1010ac000482420014427800344f980069024700d1
:1010bc0031c0b3000400780054fe070000427800f1
:1010cc0054479800e44c800060c0b3000400010059
:1010dc00e44c800050c8b30004000100e54c8000d3
:1010ec00a49a200014427800044078000500010006
:1010fc00e54c8000949a200014427800044078005b
:10110c0005000100e44c800030c0b3000400010075
:10111c00e44c800000c0eb0004000100e44c8000b3
:10112c0020c0b30004000100e54c8000264d800077
:10113c00649a2000144278000482fb000402e90047
:10114c0004024300144278000440780005000100ba
:10115c00e44c80005e409000040001000042eb0073
:10116c0004007800a7e9b7000042eb000400780007
:10117c00a6e9b700244d800004007800a8fd070004
:10118c000042eb00010037000042eb000440780005
:10119c004f04be000080fa00000006000400fa00b4
:1011ac00004f7800110798001e0190009e407800b7
:1011bc00c09b2000020007000080fa00000006001f
:1011cc000600fa00000f78002147980022079800cb
:1011dc002e029000545488001e027800e4a2900065
:1011ec00440c2000848f52003b003c001e0278000f
:1011fc0044a290009e0278002e43900086727a00e2
:10120c001e02780044a29000810c2000040078009b
:10121c006800070000027800840278001e02780043
:10122c0045a298001e02780064a290008402e80097
:10123c001e02780065a298001e027800c4a29000dd
:10124c00a4a82000144278001e03780004f37a004e
:10125c001e02780044a29000810c2000040078004b
:10126c005400070000027800840278001e02780007
:10127c0045a298001e02780064a290008402e80047
:10128c001e02780065a298001e027800c4a290008d
:10129c00b4a82000144278001e03780004f37a00ee
:1012ac001e02780044a29000810c200004007800fb
:1012bc004000070000027800840278001e027800cb
:1012cc0045a298001e02780064a290008402e800f7
:1012dc001e02780065a298000080fa00000006004b
:1012ec000400fa00100798001e02900064a29000ff
:1012fc00e00f5200130034001e02900054a2900024
:10130c009e029000654f7a001e02900054a290003d
:10131c00810c2000040078002600070000027800f1
:10132c00840278001e02900055a298001e029000c4
:10133c0064a290008402e9001e02900065a298004d
:10134c00020037000042eb00044f78001e42780088
:10135c00044078000080fa00000006000400fa0047
:10136c00000f7800110798001e0278008002eb0035
:10137c0065a298001e0278008002eb0045a298003e
:10138c001e0278008002eb0055a298001e0290000d
:10139c00e00f5200050032001e027800820c200083
:1013ac008000eb00040078006efd07000080fa005e
:1013bc00000006000600fa001007980021079800ac
:1013cc001e029000040fe8002e0290009e0278008e
:1013dc00848f5200020039000002eb00040f7800e9
:1013ec001e027800040078000080fa00000006005d
:1013fc000400fa00204798000002eb00040f78006c
:10140c00130037001e027800044278000041eb0004
:10141c0084407800c0a820007b00070000427800c0
:10142c00ae429000854f520008003a001e02780030
:10143c000442780022c0b30084407800c0a8200089
:10144c007100070000427800050037001e0fe8000d
:10145c001e027800e40f5200eaff340044c0b300cf
:10146c00044078000080fa00000006000000fa003a
:10147c00944d8000040078000080fa000000060003
:10148c000000fa00a44d8000040078000080fa00ef
:10149c00000006000000fa00b44d80000400780043
:1014ac000080fa00000006000000fa00c44d800025
:1014bc00040078000080fa00000006000600fa0024
:1014cc00000f780021479800324798004347980056
:1014dc001e027800040a90009e0278002e439000b1
:1014ec0086727a001e027800040a90008402e800da
:1014fc001e027800050a98001e027800040a90006b
:10150c009e0278003e43900086727a001e0278009c
:10151c00040a90008402e8001e027800050a980074
:10152c001e027800040a90009e0278004e43900040
:10153c0086727a001e027800040a90008402e80089
:10154c001e027800050a98001e027800040a90001a
:10155c00ee0f5200030034001e0278008002eb00f4
:10156c00050a98000080fa00000006000600fa0048
:10157c001007980041479800524798004e4290003f
:10158c00e44f52000200360044c0b30044479800b8
:10159c004e4290000442e800444798004e429000ae
:1015ac000482fb006322b90004027800040f780067
:1015bc001e029000040a90009e0f520009003d008c
:1015cc001e029000040a90001e0252006f0f42008f
:1015dc001e82e8009e0290005e43900086727a00a4
:1015ec00070037001e029000040a90001e025200f1
:1015fc000482e8009e0290005e43900086727a009e
:10160c000080fa00000006000600fa00100798009f
:10161c0041479800524798004e429000e44f5200c8
:10162c000200360044c0b300444798005e4290006c
:10163c00e24f52000200360024c0b3005447980019
:10164c004e4290000442e800444798004e429000fd
:10165c000482fb006322b90004027800040f7800b6
:10166c001e029000040a90009e0f52000a003d00da
:10167c001e029000040a90001e0252006f0f4200de
:10168c005e4290000482fb001e0242009e0290000b
:10169c0065427a00080037001e029000040a900090
:1016ac009e0252005e4290000482fb0004824200c3
:1016bc009e02900065427a00044078000080fa0097
:1016cc00000006000800fa00881f780000000000e7
:1016dc00044d80000400010000027800e30f52006a
:1016ec00fbff3400f44c8000040001000042780041
:1016fc0044479800f44c800004000100004278003c
:10170c0054479800f44c800004000100004278001b
:10171c0064479800f44c80000400010000427800fb
:10172c00244798006402470031c0b30004007800dd
:10173c00b6fc07000042780034479800ae42900097
:10174c003e42900084cf520032003a000002eb007f
:10175c00040f78002b0037001e027800044278003a
:10176c000041eb0084407800c0a82000a6ff0700d1
:10177c0000427800a59a200095427800854f5200cf
:10178c001f003a006e4490001e027800044278005c
:10179c0012c0b30084407800c0a820009aff070054
:1017ac0000427800844f540015003a005e429000cd
:1017bc00e14f520007003a001e0278000442780004
:1017cc0012c0b30084407800c0a8200067ff070057
:1017dc00130037005e429000e24f520008003a00be
:1017ec001e0278000442780022c0b30084407800c6
:1017fc00c0a820005dff07000000000008003700b3
:10180c001e0fe8001e027800e40f5200d2ff3400d5
:10181c0003003700a44d80000402e800a44d8800aa
:10182c004f0478000080fa00000006000000fa0067
:10183c002002a900041180000410a1000420a100c2
:10184c000411880020a2a90004042000441188007f
:10185c00141180000460a0000470a1001411880011
:10186c00141180000460a1000470a1001411880000
:10187c008560a9008580a9009560a8009580a800c6
:10188c0021e2a8002342a8000080200004000700e9
:10189c00e08c2000020007000080fa000000060027
:1018ac000200fa00000f7800e20c20008000eb0030
:1018bc001e0078002bfc07000080fa0000000600d8
:1018cc000400fa00000f7800214798001e027800ef
:1018dc00e4a29000740c2000848f520014003c0091
:1018ec001e02780044a290009e0278002e439000c5
:1018fc0086727a001e02780044a29000810c2000af
:10190c00040078005f000700000278008402780071
:10191c001e02780045a298001e02780064a2900076
:10192c008402e8001e02780065a2980017003700b8
:10193c001e02780044a290009e0278002e43900074
:10194c0086727a001e02780044a29000810c20005e
:10195c00040078004b000700000278008402780035
:10196c001e02780045a298001e02780054a2900036
:10197c00810c20000400780042000700000278006f
:10198c00840278001e02780055a298000080fa00ac
:10199c00000006000400fa00100798001e029000d8
:1019ac0064a29000e00f5200130034001e0290005d
:1019bc0054a290009e029000654f7a001e02900087
:1019cc0054a29000810c2000040078002d00070028
:1019dc0000027800840278001e02900055a2980044
:1019ec001e02900064a290008402e9001e02900086
:1019fc0065a29800020037000042eb00044f78000b
:101a0c001e427800044078000080fa0000000600b6
:101a1c000400fa00000f7800110798001e027800ed
:101a2c008002eb0065a298001e0278008002eb0099
:101a3c0045a298001e0278008002eb0055a2980087
:101a4c001e029000e00f5200050032001e027800ca
:101a5c00820c20008000eb0004007800c1fb070022
:101a6c000080fa00000006000200fa00000f780067
:101a7c001e02780064a29000040078000080fa0036
:101a8c00000006000600fa001007980021079800d5
:101a9c001e029000040fe8002e0290009e027800b7
:101aac00848f5200020039000002eb00040f780012
:101abc001e027800040078000080fa000000060086
:101acc000200fa00000f78001e02780054a2900069
:101adc009e02780065427a00044078000080fa008b
:101aec00000006000000fa0000802000f4ff070050
:101afc0000427800044078000080fa0000000600e4
:101b0c000000fa0000802000d7ff070000027800d8
:101b1c00040078000080fa00000006000000fa00c3
:101b2c00008020009bff07000042780004407800f2
:101b3c000080fa00000006000200fa00004f780056
:101b4c009e407800e08c20005dff070064ac200014
:101b5c0014427800e04f5200080032000042eb00c3
:101b6c0004007800c6eab700e08c200089ff07006b
:101b7c00004278000482fb00241188000080fa00e7
:101b8c00000006003600f800809fbe00829fbe0059
:101b9c00849fbe00869fbe000200fa0034118000b4
:101bac00044f78009e4078000080200044ff07001e
:101bbc008560a9000080fa004f03be004f02be00f2
:101bcc004f01be004f00be003600f9000040060079
:101bdc003600f800809fbe00829fbe00849fbe002e
:101bec00869fbe000000fa00e08c20009eff0700dc
:101bfc0000027800e00f520006003400e08c200058
:101c0c0064ff0700004278000482fb002411880066
:101c1c000300370014c0b30004007800c6eab70014
:101c2c008580a9000080fa004f03be004f02be0061
:101c3c004f01be004f00be003600f9000040060008
:101c4c000000fa00041980000002eb00041988005f
:101c5c00041980000002eb0014198800041980009c
:101c6c000002eb0024198800041980000002eb002c
:101c7c009419880021a3a900041980000480a100f4
:101c8c000490a10004198800041980000450a000dd
:101c9c000460a0000470a000041988002143a8006f
:101cac002063a9001419800004d0a00004e0a00057
:101cbc0004f0a000141988002223a9001419800034
:101ccc000480a1000490a1001419880025e3a80049
:101cdc00f4c1b3000400780024e3b7004519800078
:101cec0004fe2f00048262004419880028e3a90036
:101cfc00141980000420a1000430a1000440a100ac
:101d0c000450a10014198800c4f02f006419880035
:101d1c000002eb0044198800340f2000841988005d
:101d2c0021e3a8002003a9002023a80085a0a90076
:101d3c0095a0a8000080fa00000006000000fa0040
:101d4c000080fa00000006000000fa000080fa0093
:101d5c00000006000000fa00253a800004fe2f0067
:101d6c0004826200243a880064012000343a88001e
:101d7c00243a80000460a1000470a100243a880079
:101d8c0000000000153a800004022000048262006a
:101d9c00e00f5200fbff3200153a8000f40b2000dc
:101dac000483620064042000750520002774200061
:101dbc00844b7800854b7800864b7800153a800070
:101dcc00040420000403780005037300640420005d
:101ddc007505200027742000844b7800854b780013
:101dec00864b7800090007000080fa00000006000e
:101dfc000000fa002062a9000404200044118800ad
:101e0c0021e2a8000080fa00000006000000fa00a1
:101e1c00cb22a900d302a9000080fa000000060022
:101e2c000400fa00100798000002eb00040f780081
:101e3c000400370000ee2200010020001b00070008
:101e4c001e0fe8001e0290009e027800848f520044
:0c1e5c00f8ff35000080fa0000000600ce
:020000040000fa
:101e68009c09000002010000000000009e0a00001a
:101e78002800000000000000000800009c0100008d
:101e880000000000c60a0000020000000200000076
:101e980001000000c80a0000100000000000000057
:101ea800d80a000002000000000000000000000046
:020000040000fa
:101eb800f03fb1000180b10006003500ee030900d3
:101ec80000000000403fb1000180b100fbff3d0071
:101ed8001000b000203fb00002003500008009006b
:081ee8000000000000000600ec
:020000040000fa
:101ef0000000fa009aff0700401f2000cbff0700f8
:101f0000cd22a900401f2000c8ff0700cd22a80055
:041f1000f9ff37009e
:020000040000fa
:0200000401f009
:04000000cf0000002d
:020000040000fa
:0200000401f009
:04000400cf00000029
:020000040000fa
:0200000401f009
:0400080007000000ed
:020000040000fa
:0200000401f009
:04000c00830000006d
:020000040000fa
:0200000401f009
:0400100001000000eb
:020000040000fa
:0200000401f009
:04001400df00000009
:020000040000fa
:0200000401f009
:04001800f7000000ed
:020000040000fa
:0200000401f009
:04001c00dfff000002
:00000001FF
