:020000040000fa
:080000000002040000000000f2
:020000040000fa
:100008009a0200009a0200009a0200009a02000078
:100018009a0200009a0200009a0200009a02000068
:100028009a0200009a0200009a0200009a02000058
:100038009a0200009a0200009a0200009a02000048
:020000040000fa
:020000040000fa
:100400000f8020000e7f24000e01880000000000f5
:10041000000020000000e000020032000001200087
:10042000200288000c000700402f2000010020005f
:1004300011000700000020000000e0000200320070
:1004400000000200000000009e0202000000000008
:100450000040da000000fe004440a9000000200037
:100460000000e0000300320000002000a00188002e
:100470004440a80000000600910188008000780038
:100480000000eb0015003700e280400032a0b4000d
:100490009101ba00e280400032a0b4009102ba009b
:1004a000e280400032a0b4000002eb00472bde00e7
:1004b000f507b200602ce10004003a000059eb009f
:1004c0008301e900fdff3e00040037006128e100e0
:1004d000010032000082eb00040007001101ba00a5
:1004e0000200e000e8ff3a00000006003159ba00bf
:1004f0008301e9000c0032002159ba008301e900b0
:10050000080032000400e00003003a00e2804000ee
:1005100032a0b400f5ff370011d9ba008301e90019
:10052000faff3a008100e800e180400032a0b40008
:0c053000000006000040da000000fe00a1
:020000040000fa
:10053c000400fa00000f780011079800c922a900e6
:10054c00cd22a800a00f200007000700cd22a80094
:10055c00a00f200004000700cd22a900a00f20004e
:10056c0001000700f7ff37000400fa00100798009d
:10057c000002eb00040f78000400370060e6200056
:10058c0001002000070007001e0fe8001e0290006b
:10059c009e027800848f5200f8ff35000080fa002c
:0405ac000000060045
:020000040000fa
:1005b000f03fb1000180b10006003500ee030900f4
:1005c00000000000403fb1000180b100fbff3d0092
:1005d0001000b000203fb00002003500008009008c
:0805e00000000000000006000d
:020000040000fa
:0405e800000000000f
:00000001FF
