:020000040000fa
:080000000002040000000000f2
:020000040000fa
:10000800ca020000ca020000ca020000ca020000b8
:10001800ca020000ca020000ca020000ca020000a8
:10002800ca020000ca020000ca020000aa020000b8
:10003800ca020000ca020000ca020000c202000090
:10004800ca020000ca020000ca020000f40d000043
:100058001a0e0000ca020000ca020000ca0200000c
:10006800ca020000ca020000ca020000ca02000058
:10007800ca020000ca020000ca020000ca02000048
:10008800ca020000ca020000ca020000ca02000038
:10009800ca020000ca020000021000002810000076
:1000a800ca020000ca020000ca020000ca02000018
:1000b800ca020000ca020000ca020000ca02000008
:1000c800ca020000ca020000ca020000ca020000f8
:1000d800ca020000ca020000ca020000ca020000e8
:1000e800ca020000ca020000ca020000ca020000d8
:1000f800ca020000ca020000ca020000ca020000c8
:10010800ca020000ca020000ca020000ca020000b7
:10011800ca020000ca020000ca020000ca020000a7
:10012800ca020000ca020000ca020000ca02000097
:10013800ca020000ca020000ca020000ca02000087
:10014800ca020000ca020000ca020000ca02000077
:10015800ca020000ca020000ca020000ca02000067
:10016800ca020000ca020000ca020000ca02000057
:10017800ca020000ca020000ca020000ca02000047
:10018800ca020000ca020000ca020000ca02000037
:10019800ca020000ca020000ca020000ca02000027
:1001a800ca020000ca020000ca020000ca02000017
:1001b800ca020000ca020000ca020000ca02000007
:1001c800ca020000ca020000ca020000ca020000f7
:1001d800ca020000ca020000ca020000ca020000e7
:1001e800ca020000ca020000ca020000ca020000d7
:0801f800ca020000ca02000067
:020000040000fa
:10020800ca020000ca020000ca020000ca020000b6
:10021800ca020000ca020000ca020000ca020000a6
:10022800ca020000ca020000ca020000aa020000b6
:10023800ca020000ca020000ca020000c20200008e
:10024800ca020000ca020000ca020000f40d000041
:100258001a0e0000ca020000ca020000ca0200000a
:10026800ca020000ca020000ca020000ca02000056
:10027800ca020000ca020000ca020000ca02000046
:10028800ca020000ca020000ca020000ca02000036
:10029800ca020000ca020000021000002810000074
:1002a800ca020000ca020000ca020000ca02000016
:1002b800ca020000ca020000ca020000ca02000006
:1002c800ca020000ca020000ca020000ca020000f6
:1002d800ca020000ca020000ca020000ca020000e6
:1002e800ca020000ca020000ca020000ca020000d6
:1002f800ca020000ca020000ca020000ca020000c6
:10030800ca020000ca020000ca020000ca020000b5
:10031800ca020000ca020000ca020000ca020000a5
:10032800ca020000ca020000ca020000ca02000095
:10033800ca020000ca020000ca020000ca02000085
:10034800ca020000ca020000ca020000ca02000075
:10035800ca020000ca020000ca020000ca02000065
:10036800ca020000ca020000ca020000ca02000055
:10037800ca020000ca020000ca020000ca02000045
:10038800ca020000ca020000ca020000ca02000035
:10039800ca020000ca020000ca020000ca02000025
:1003a800ca020000ca020000ca020000ca02000015
:1003b800ca020000ca020000ca020000ca02000005
:1003c800ca020000ca020000ca020000ca020000f5
:1003d800ca020000ca020000ca020000ca020000e5
:1003e800ca020000ca020000ca020000ca020000d5
:0803f800ca020000ca02000065
:020000040000fa
:100400004ff620000e7f24000e018800000000003f
:10041000000020000000e000020032000001200087
:10042000200288000c000700a02f210001002000fe
:1004300011000700000020000000e0000200320070
:100440000000020000000000621002000000000036
:100450000040da000000fe004440a9000000200037
:100460000000e0000300320000002000a00188002e
:100470004440a80000000600910188008000780038
:100480000000eb0015003700e280400032a0b4000d
:100490009101ba00e280400032a0b4009102ba009b
:1004a000e280400032a0b4000002eb00472bde00e7
:1004b000f507b200602ce10004003a000059eb009f
:1004c0008301e900fdff3e00040037006128e100e0
:1004d000010032000082eb00040007001101ba00a5
:1004e0000200e000e8ff3a00000006003159ba00bf
:1004f0008301e9000c0032002159ba008301e900b0
:10050000080032000400e00003003a00e2804000ee
:1005100032a0b400f5ff370011d9ba008301e90019
:10052000faff3a008100e800e180400032a0b40008
:1005300000000600a20d040000000000b00d040041
:1005400000000000be0d040000000000cc0d0400ff
:1005500000000000841f78000000fa00a46a8000f8
:100560000402e800a46a8800b46a80000402e8007b
:10057000b46a88008460a9000080fa004f02780005
:10058000004006000000fa0084e0a9000080fa00a4
:10059000004006000040da000000fe00889fbe0018
:1005a00080047800706b8000e00f500004003a0077
:1005b0000e0007000084eb00e00f5000080035003b
:1005c000786b8000e08f5400050032000900440081
:1005d00006000700e00f500001003d000084eb0022
:1005e000080078004f04be0000000600e00f500035
:1005f00004003a0004d72000746b880000027800e1
:10060000060037000082eb0045f62000850f500001
:1006100002003e00706b88000002eb0004007800ce
:1006200000000600e4d52000e4874700f56a80005a
:10063000889fbe008a9fbe008c9fbe008e1f7800e0
:10064000e08f52000b003a0024029800e4024200be
:10065000546b8800f56a8800656b8800a44290009e
:100660000504a00025429800e44290000504a00083
:10067000654298006704400004d720002500200050
:100680004244de0049f620004244dd0084845400e8
:1006900005074400110009008504d8007cf62000fd
:1006a000526b80000406560080bf9f000e07470073
:1006b0000003eb00e4054400080646000200370092
:1006c000160020000d0178002242900061026200b5
:1006d000020032000a003700150978009202780003
:1006e0002542900061026200fbff320008024100d7
:1006f000848f520002003900e00f54003f003d009b
:10070000920678000d00a100828f5600edff3e009a
:10071000e10f5300eaff3a000fba9700840f54002c
:1007200002003600890f540010003900614ab900f8
:10073000b0ff2f00010020006143b8000402500008
:1007400085825800840f5300858f5b0002003500be
:100750000b05780006003700110009000986d80053
:100760000982b90004057800010037000e05780001
:100770000a00780089ff0700e10f400005003a00f9
:100780000b0578000b00780084ff0700e10f4000a4
:100790002b003200646b8000000a7800646b8000dc
:1007a00064034200a4429000860f50000200320011
:1007b0000504a000010037000504a10025429800af
:1007c00064055500e4d520000a0540000a087800b9
:1007d0006a6b8800040d7800656b80000003eb00f5
:1007e000254290000404a000a442980020429000fa
:1007f0000404a10024409800b2ff3700546b880025
:10080000848f5200070036001403be008042eb00c4
:10081000366b8800476b8800120a7800546b8000a2
:100820002542980022429000576b80000404a000eb
:100830000709780024419800640041000100370056
:100840000000eb004f0778004f06be004f05be00ca
:100850004f04be004f00b10000000600e00f500042
:100860000800320064005000546b8000840f500078
:1008700001003100506b8800204290000404a10068
:100880002440980000000600889fbe000004780005
:100890008a9fbe0081047800e08f540005003a0072
:1008a000e00f54003200320008007800ebff070030
:1008b00030003700e00f540004003a0009007800cf
:1008c00058ff0700800478002a00370064025400b3
:1008d0009405780068fa9700610262000200320015
:1008e00008007800ddff0700090078004dff0700d1
:1008f00080047800e08f54001e003200888f54007e
:100900001b00320069bd9700888555000905550018
:10091000c2ddde0042d5de000a0178008b0f5500f3
:10092000010036000b0178004211dd0088007800dc
:100930000900780013000700888f54000d00310073
:100940004255dd000a854400880f55000900360035
:1009500008045500346b8000456b800042c4de0003
:100960004244dd0008844400048cbe0001003700ce
:1009700088047800090078004f05be004f04be00cf
:10098000000006000002780002003700315a7800ab
:100990000201e900e00f5100fcff3a0000000600f0
:1009a0000002780002003700015a78000201e900d5
:0c09b000e00f5100fcff3a0000000600c0
:020000040000fa
:1009bc000e00fa00000f780021479800324798008b
:1009cc00434798003407980045079800560798004d
:1009dc00670798001e027800044388003e4390008d
:1009ec00d5852000864a78003e029000844288001b
:1009fc00de029000a54288006e039000b64288008b
:100a0c004e029000944288002e4290000482fb001b
:100a1c000402d1000442780004437800f5852000dc
:100a2c00864a78000487200014438800ce42900048
:100a3c0044862000054a78000002eb00344388000d
:100a4c000080fa00000006000800fa002007980059
:100a5c00614798000042eb00044f780020003700fb
:100a6c002e02900094427800154798002e029000b8
:100a7c000402e8002407980084c0b30024479800bf
:100a8c00140037001e4290001e426a006142620050
:100a9c00344798009e4278000582fb000402d10086
:100aac00044f78003e429000e04f520002003200aa
:100abc00c4c8b3001e4f6a001e4290000482fb00a3
:100acc000402d100144798002e4290000442e90021
:100adc00244798002e429000e04f5200e9ff3a0064
:100aec006e4290000482fb000402ea004f22de00fa
:100afc0004427800ee4290008542e9006547980078
:100b0c00e04f5200d6ff3a001e42780004407800b5
:100b1c000080fa00000006000600fa00404798002a
:100b2c002450800084427800144380008540780073
:100b3c0004007800c4ff07000042780024479800a6
:100b4c008442800060c0b300040001008442800035
:100b5c0050c8b30004000100844280004e40900055
:100b6c000400010085428000d485200014427800e6
:100b7c00044078000500010085428000245080006c
:100b8c000442780004407800050001000002eb00ec
:100b9c00040f78000800370085428000164380005f
:100bac001e027800040243001442780004407800ce
:100bbc00050001001e0fe800245080009e0f52001b
:100bcc00f5ff3c00844280002e40900004000100a0
:100bdc008041eb002e419000ce40900080a0200080
:100bec004b0207001100200000872000f0010700d5
:100bfc000080fa00000006000c00fa00889fbe007e
:100c0c00b485200014427800e04f520050003a00a6
:100c1c00a44280000400010000027800e40f52009e
:100c2c004b0034000a003700344380000402e80013
:100c3c0034438800a44280000400010000027800c4
:100c4c00e40f520002003c000042eb00640137004c
:100c5c00944280000400010000427800e64f5200ec
:100c6c00f1ff3a0094428000040001000042780039
:100c7c0055c8b300854f520035003a0094428000ad
:100c8c00040001000042780004437800e58620004f
:100c9c00864a7800944280000400010000427800eb
:100cac0004437800e5852000864a78009442800051
:100cbc00040001000042780004437800b585200050
:100ccc00864a7800e586200095427800d48520007d
:100cdc001442780084cf5200150032005443800037
:100cec000402e800544388000002eb00040f780073
:100cfc000300370094428000040001001e0fe8003e
:100d0c00b4852000144278000482fb000402e80041
:100d1c009e0f5200f7ff3d000042eb0004437800a9
:100d2c00b5852000864a78000042eb002c01370084
:100d3c00b4852000144278000482fb000402e80011
:100d4c000400780034fe070000027800c4428800da
:100d5c00b485200014427800e04f52001f0132008d
:100d6c00a485200014427800e04f520028003a007d
:100d7c0000000000a4428000040001000002780082
:100d8c00e00f5200fbff3400b4428000040001006d
:100d9c0000427800e14f42001f003a005e0207005b
:100dac000042eb0004437800b5852000864a7800a9
:100dbc000042eb0004437800a5852000864a7800a9
:100dcc00c442800004007800a1fe07008aff0700df
:100ddc000042780002013700c5428000a88520003f
:100dec00184478000882fb008484420094428000fe
:100dfc000400010000427800844c78000842e800ae
:100e0c0004437800a5852000864a7800030037004b
:100e1c00000000000100370000000000a442800028
:100e2c000400010000027800e00f520006003200be
:100e3c00a585200095427800b485200014427800e6
:100e4c0084cf5200e4ff3600b485200014427800b1
:100e5c008482fb00a4852000144278000482fb00ed
:100e6c000402e900848f5200dc003a00b5852000b2
:100e7c0095427800c44280008540780004007800d8
:100e8c00f1fe07000042780004437800c58520007d
:100e9c00864a7800c5428000a48520001442780060
:100eac000482fb000402e9000482420094427800b0
:100ebc00c48520001442780084cf52007b003a0095
:100ecc000002eb001407980029003700c54280008f
:100edc001e0290000482420094427800f4852000a7
:100eec001442780084cf52001b003100c5428000b0
:100efc001e0290000402e8000482420014427800b2
:100f0c000443780065a02000864a7800c542800022
:100f1c001e0290000482e800048242001442780011
:100f2c000443780075a02000864a780005438000b1
:100f3c00c64280001e029000040243001442780056
:100f4c000482fb00040242000482420035508000ff
:100f5c00050a780003003700644380000402e800af
:100f6c00644388001e02900063024200140798003c
:100f7c00b4852000144278008482fb001e0290008d
:100f8c00848f5200d1ff3c0044862000144278002c
:100f9c00e04f52003800320000c2eb00644798006a
:100fac0014c0b30074479800c5428000a48520008b
:100fbc00144278000482fb000402e900048242001f
:100fcc0014427800044f98006602470031c0b30009
:100fdc00040078009cfe070000427800444798000b
:100fec008442800060c0b300040001008442800091
:100ffc0050c8b3000400010085428000e485200045
:10100c0014427800044078000500010085428000fd
:10101c00d4852000144278000440780005000100bb
:10102c008442800030c0b300040001008442800080
:10103c0000c0eb00040001008442800010c0b3002b
:10104c000400010085428000c6428000a485200077
:10105c00144278000482fb000402e90004024300fd
:10106c00144278000440780005000100844280009e
:10107c004e409000040001000042eb000443780055
:10108c00b5852000864a78000042eb0004437800c6
:10109c00a5852000864a7800c442800004007800b0
:1010ac00ebfd070014c0b3004d0037004443800033
:1010bc000402e8004443880044862000144278006f
:1010cc00e04f52003800320000c2eb00144f980081
:1010dc0024c0b300244f9800c5428000a485200092
:1010ec00144278000482fb000402e90004824200ee
:1010fc0014427800344f98006902470031c0b300a5
:10110c000400780050fe0700004278005447980015
:10111c008442800060c0b30004000100844280005f
:10112c0050c8b3000400010085428000e485200013
:10113c0014427800044078000500010085428000cc
:10114c00d48520001442780004407800050001008a
:10115c008442800030c0b30004000100844280004f
:10116c0000c0eb00040001008442800020c0b300ea
:10117c000400010085428000c6428000a485200046
:10118c00144278000482fb000402e90004024300cc
:10119c00144278000440780005000100844280006d
:1011ac005e409000040001000042eb000443780014
:1011bc00b5852000864a78000042eb000443780095
:1011cc00a5852000864a7800c4428000040078007f
:1011dc009ffd07000042eb00010037000042eb00ce
:1011ec00044078004f04be000080fa0000000600a6
:1011fc000400fa00004f7800110798001e019000bf
:10120c009e40780000872000020007000080fa0052
:10121c00000006000600fa00000f78002147980035
:10122c00220798002e029000345088001e0278008d
:10123c00a48a9100c4182000848f52003b003c000b
:10124c001e027800048a91009e0278002e439000c2
:10125c0086727a001e027800048a9100011920001f
:10126c00040078006800070000027800840278000f
:10127c001e027800058a99001e027800248a9100cb
:10128c008402e8001e027800258a99001e0278006c
:10129c00048a910066a02000164378009e02780014
:1012ac0086727a001e027800048a910001192000cf
:1012bc0004007800540007000002780084027800d3
:1012cc001e027800058a99001e027800248a91007b
:1012dc008402e8001e027800258a99001e0278001c
:1012ec00048a910076a02000164378009e027800b4
:1012fc0086727a001e027800048a9100011920007f
:10130c000400780040000700000278008402780096
:10131c001e027800058a99001e027800248a91002a
:10132c008402e8001e027800258a99000080fa00e9
:10133c00000006000400fa00100798001e0290003e
:10134c00248a9100e00f5200130034001e0290001a
:10135c00148a91009e029000654f7a001e02900044
:10136c00148a91000119200004007800260007005f
:10137c0000027800840278001e029000158a990001
:10138c001e029000248a91008402e9001e02900043
:10139c00258a9900020037000042eb00044f7800c8
:1013ac001e427800044078000080fa00000006001d
:1013bc000400fa00000f7800110798001e02780054
:1013cc008002eb00258a99001e0278008002eb0057
:1013dc00058a99001e0278008002eb00158a99009c
:1013ec001e029000e00f5200050032001e02780031
:1013fc00021920008000eb000400780065fd070056
:10140c000080fa00000006000600fa0010079800a1
:10141c00210798001e029000040fe8002e02900095
:10142c009e027800848f5200020039000002eb000b
:10143c00040f78001e027800040078000080fa0087
:10144c00000006000400fa00204798000002eb00a0
:10145c00040f7800130037001e0278000442780055
:10146c000041eb008440780080a020007b00070046
:10147c0000427800ae429000854f520008003a00be
:10148c001e0278000442780022c0b3008440780029
:10149c0080a0200071000700004278000500370092
:1014ac001e0fe8001e027800e40f5200eaff340021
:1014bc0044c0b300044078000080fa00000006002d
:1014cc000000fa0034438000040078000080fa0029
:1014dc00000006000000fa0044438000040078007d
:1014ec000080fa00000006000000fa00544380005f
:1014fc00040078000080fa00000006000000fa00ea
:10150c0064438000040078000080fa0000000600ac
:10151c000600fa00000f7800214798003247980027
:10152c00434798001e027800040a90009e0278003f
:10153c002e43900086727a001e027800040a9000f6
:10154c008402e8001e027800050a98001e0278004a
:10155c00040a90009e0278003e43900086727a0046
:10156c001e027800040a90008402e8001e02780033
:10157c00050a98001e027800040a90009e0278006a
:10158c004e43900086727a001e027800040a900086
:10159c008402e8001e027800050a98001e027800fa
:1015ac00040a9000ee0f5200030034001e02780073
:1015bc008002eb00050a98000080fa00000006008b
:1015cc000600fa001007980041479800524798000f
:1015dc004e429000e44f52000200360044c0b3006b
:1015ec00444798004e4290000442e800444798005b
:1015fc004e4290000482fb006322b9000402780082
:10160c00040f78001e029000040a90009e0f5200f6
:10161c0009003d001e029000040a90001e025200b8
:10162c006f0f42001e82e8009e0290005e43900005
:10163c0086727a00070037001e029000040a9000a0
:10164c001e0252000482e8009e0290005e4390004d
:10165c0086727a000080fa00000006000600fa008c
:10166c001007980041479800524798004e4290004e
:10167c00e44f52000200360044c0b30044479800c7
:10168c005e429000e24f52000200360024c0b300cc
:10169c00544798004e4290000442e800444798009a
:1016ac004e4290000482fb006322b90004027800d1
:1016bc00040f78001e029000040a90009e0f520046
:1016cc000a003d001e029000040a90001e02520007
:1016dc006f0f42005e4290000482fb001e0242002b
:1016ec009e02900065427a00080037001e029000ae
:1016fc00040a90009e0252005e4290000482fb009d
:10170c00048242009e02900065427a0004407800f8
:10171c000080fa00000006000800fa00881f78001c
:10172c0000000000a44280000400010000027800c8
:10173c00e30f5200fbff34009442800004000100d0
:10174c000042780044479800944280000400010055
:10175c000042780054479800944280000400010035
:10176c000042780064479800944280000400010015
:10177c0000427800244798006402470031c0b3004f
:10178c0004007800b0fc0700004278003447980051
:10179c00ae4290003e42900084cf520032003a009c
:1017ac000002eb00040f78002b0037001e027800bb
:1017bc00044278000041eb008440780080a02000b7
:1017cc00a6ff070000427800e585200095427800ce
:1017dc00854f52001f003a006e4490001e027800a4
:1017ec000442780012c0b3008440780080a020002e
:1017fc009aff070000427800844f540015003a000d
:10180c005e429000e14f520007003a001e02780041
:10181c000442780012c0b3008440780080a02000fd
:10182c0067ff0700130037005e429000e24f520042
:10183c0008003a001e0278000442780022c0b3006f
:10184c008440780080a020005dff070000000000ad
:10185c00080037001e0fe8001e027800e40f52004b
:10186c00d2ff340003003700444380000402e80038
:10187c00444388004f0478000080fa000000060002
:10188c000000fa002002a900041180000410a1003d
:10189c000420a1000411880020a2a90064022000e9
:1018ac0044118800141180000460a0000470a10091
:1018bc0014118800141180000460a1000470a100b0
:1018cc00141188008560a9008580a9009560a80086
:1018dc009580a80021e2a8002342a800a0a1200026
:1018ec000400070080ae2000020007000080fa0010
:1018fc00000006000200fa00000f7800e20c200045
:10190c008000eb001e00780022fc07000080fa002b
:10191c00000006000400fa00000f78002147980030
:10192c001e027800e4a29000740c2000848f5200f8
:10193c0014003c001e02780044a290009e02780025
:10194c002e43900086727a001e02780044a290000a
:10195c00810c2000040078005f0007000002780072
:10196c00840278001e02780045a298001e027800be
:10197c0064a290008402e8001e02780065a2980020
:10198c00170037001e02780044a290009e027800d7
:10199c002e43900086727a001e02780044a29000ba
:1019ac00810c2000040078004b0007000002780036
:1019bc00840278001e02780045a298001e0278006e
:1019cc0054a29000810c2000040078004200070013
:1019dc0000027800840278001e02780055a298005c
:1019ec000080fa00000006000400fa0010079800be
:1019fc001e02900064a29000e00f5200130034000d
:101a0c001e02900054a290009e029000654f7a0036
:101a1c001e02900054a29000810c2000040078005b
:101a2c002d00070000027800840278001e0290004e
:101a3c0055a298001e02900064a290008402e90056
:101a4c001e02900065a29800020037000042eb00d5
:101a5c00044f78001e427800044078000080fa00a1
:101a6c00000006000400fa00000f7800110798002f
:101a7c001e0278008002eb0065a298001e0278001e
:101a8c008002eb0045a298001e0278008002eb0059
:101a9c0055a298001e029000e00f52000500320083
:101aac001e027800820c20008000eb0004007800fd
:101abc00b8fb07000080fa00000006000200fa00e4
:101acc00000f78001e02780064a2900004007800d9
:101adc000080fa00000006000600fa0010079800cb
:101aec00210798001e029000040fe8002e029000bf
:101afc009e027800848f5200020039000002eb0035
:101b0c00040f78001e027800040078000080fa00b0
:101b1c00000006000200fa00000f78001e02780098
:101b2c0054a290009e02780065427a00044078002e
:101b3c000080fa00000006000000fa00a0a12000be
:101b4c00f4ff070000427800044078000080fa009f
:101b5c00000006000000fa00a0a12000d7ff07003b
:101b6c0000027800040078000080fa0000000600f3
:101b7c000000fa00a0a120009bff070000427800a3
:101b8c00044078000080fa00000006000200fa0011
:101b9c00004f78009e40780080ae20005dff07006b
:101bac00a4d5200014427800e04f52000900320006
:101bbc000042eb0004437800a5d52000864a78004b
:101bcc0080ae200088ff0700004278000482fb00f2
:101bdc00241188000080fa00000006003600f8008e
:101bec00809fbe00829fbe00849fbe00869fbe0069
:101bfc000200fa0034118000044f78009e407800f7
:101c0c00a0a1200043ff07008560a9000080fa0016
:101c1c004f03be004f02be004f01be004f00be007e
:101c2c003600f900004006003600f800809fbe0028
:101c3c00829fbe00849fbe00869fbe000000fa00fb
:101c4c0080ae20009dff070000027800e00f5200dc
:101c5c000600340080ae200063ff070000427800cd
:101c6c000482fb00241188000400370014c0b30068
:101c7c0004437800a5d52000864a78008580a90009
:101c8c000080fa004f03be004f02be004f01be00a1
:101c9c004f00be003600f900004006000000fa00bc
:101cac003002a900841180000410a1000420a100be
:101cbc008411880030a2a90064022000c41188009d
:101ccc00941180000460a0000470a100941188009d
:101cdc00941180000460a1000470a100941188008c
:101cec0087c0a90087e0a90097c0a80097e0a800ca
:101cfc0031e2a8003342a80060bb200004000700ba
:101d0c0040c82000020007000080fa000000060016
:101d1c000200fa00000f7800e20c20008000eb00bb
:101d2c001e0078001bfb07000080fa000000060074
:101d3c000400fa00000f7800214798001e0278007a
:101d4c00e4a29000740c2000848f520014003c001c
:101d5c001e02780044a290009e0278002e43900050
:101d6c0086727a001e02780044a29000810c20003a
:101d7c00040078005f0007000002780084027800fd
:101d8c001e02780045a298001e02780064a2900002
:101d9c008402e8001e02780065a298001700370044
:101dac001e02780044a290009e0278002e43900000
:101dbc0086727a001e02780044a29000810c2000ea
:101dcc00040078004b0007000002780084027800c1
:101ddc001e02780045a298001e02780054a29000c2
:101dec00810c2000040078004200070000027800fb
:101dfc00840278001e02780055a298000080fa0038
:101e0c00000006000400fa00100798001e02900063
:101e1c0064a29000e00f5200130034001e029000e8
:101e2c0054a290009e029000654f7a001e02900012
:101e3c0054a29000810c2000040078002d000700b3
:101e4c0000027800840278001e02900055a29800cf
:101e5c001e02900064a290008402e9001e02900011
:101e6c0065a29800020037000042eb00044f780096
:101e7c001e427800044078000080fa000000060042
:101e8c000400fa00000f7800110798001e02780079
:101e9c008002eb0065a298001e0278008002eb0025
:101eac0045a298001e0278008002eb0055a2980013
:101ebc001e029000e00f5200050032001e02780056
:101ecc00820c20008000eb0004007800b1fa0700bf
:101edc000080fa00000006000200fa00000f7800f3
:101eec001e02780064a29000040078000080fa00c2
:101efc00000006000600fa00100798002107980061
:101f0c001e029000040fe8002e0290009e02780042
:101f1c00848f5200020039000002eb00040f78009d
:101f2c001e027800040078000080fa000000060011
:101f3c000200fa00000f78001e02780054a29000f4
:101f4c009e02780065427a00044078000080fa0016
:101f5c00000006000000fa0060bb2000f4ff070040
:101f6c0000427800044078000080fa00000006006f
:101f7c000000fa0060bb2000d7ff070000027800c9
:101f8c00040078000080fa00000006000000fa004f
:101f9c0060bb20009bff07000042780004407800e3
:101fac000080fa00000006000200fa00004f7800e2
:101fbc009e40780040c820005dff0700c4d520007b
:101fcc0014427800e04f5200090032000042eb004e
:101fdc0004437800c5d52000864a780040c820000c
:101fec0088ff0700004278000482fb00a4118800df
:101ffc000080fa00000006003600f800809fbe004a
:10200c00829fbe00849fbe00869fbe000200fa0025
:10201c00b4118000044f78009e40780060bb200013
:10202c0043ff070087c0a9000080fa004f03be00e1
:10203c004f02be004f01be004f00be003600f9003b
:10204c00004006003600f800809fbe00829fbe0054
:10205c00849fbe00869fbe000000fa0040c820008e
:10206c009dff070000027800e00f520006003400cc
:10207c0040c8200063ff0700004278000482fb0088
:10208c00a41188000400370014c0b3000443780086
:10209c00c5d52000864a780087e0a9000080fa00a8
:1020ac004f03be004f02be004f01be004f00be00ea
:1020bc003600f900004006000000fa009500070009
:1020cc00cd22a900030037000000000001003700fa
:1020dc000000000016000700c7fa07000042780055
:1020ec00e04f52000100320027000700a4d5200069
:1020fc00144278000404a200e04f520003003200a6
:10210c000002eb00b46a8800d302a800a4d520001a
:10211c0014427800e04f5200ebff3200b46a8000aa
:10212c00e10f5200eaff3600d302a900e9ff3700a5
:10213c000000fa00a56a8000843e2000848f5200c3
:10214c000f003600641680004922de0061426200f6
:10215c000404a200614262000482fb00610262007e
:10216c004922dd0066168000f5df2f008502630032
:10217c0005027200641688000002eb00a46a880055
:10218c000080fa00000006000000fa00c46a80001b
:10219c00840278000402e800c46a88008500780094
:1021ac0010c0b30012fc0700c46a800084027800df
:1021bc000402e800c46a88008500780020c0b300df
:1021cc000bfc0700c46a8000840278000402e8005b
:1021dc00c46a88008500780030c0b30004fc070096
:1021ec00c46a8000840278000402e800c46a880093
:1021fc008500780040c0b300fdfb0700c46a800076
:10220c00840278000402e800c46a88008500780023
:10221c0050c0b300f6fb0700c46a8000840278004b
:10222c000402e800c46a88008500780060c0b3002e
:10223c00effb0700c46a8000840278000402e80007
:10224c00c46a88008500780070c0b300e8fb070002
:10225c00c46a8000840278000402e800c46a880022
:10226c008500780080c0b300e1fb0700c46a8000e1
:10227c00840278000402e800c46a880085007800b3
:10228c0090c0b300dafb0700c46a800084027800b7
:10229c000402e800c46a880085007800a0c0b3007e
:1022ac00d3fb0700c46a8000840278000402e800b3
:1022bc00c46a880085007800b0c0b300ccfb07006e
:1022cc00c46a8000840278000402e800c46a8800b2
:1022dc0085007800c0c0b300c5fb0700c46a80004d
:1022ec00840278000402e800c46a88008500780043
:1022fc00d0c0b300befb0700d302a8000002eb0065
:10230c00b46a880010c0b30003fa07000080fa001a
:10231c00000006000000fa0057000700253a800074
:10232c0004fe2f0004826200243a8800243a8000c4
:10233c0004c0a10004d0a10004e0a100243a88004c
:10234c0064012000343a8800243a80000460a10023
:10235c000470a100243a880000000000153a8000a7
:10236c000402200004826200e00f5200fbff3200e6
:10237c00153a8000f40b20000483620064042000f2
:10238c007505200027742000844b7800854b78005d
:10239c00864b7800b5368000f40f2e0084826200e4
:1023ac000430200005027200b43688002535800008
:1023bc0004fe2f00048262006401b30024358800ff
:1023cc004536800004fe2f00048262005400b300e6
:1023dc00443688003535800004fe2f0004826200ec
:1023ec007400b30034358800153a800004042000d2
:1023fc00050372006404200075052000277420007a
:10240c00844b7800854b7800864b78001cfd0700c8
:10241c0027da200006db2000e5db2000c4dc2000ee
:10242c008041eb0022c0b30081c2b30000802000c9
:10243c005ff90700020007000080fa0000000600a8
:10244c000000fa0005e1a9000421a900240880007d
:10245c000440a1000450a10024088800c4272900ce
:10246c00140888008460a9009460a80005e1a80005
:10247c000080fa00000006000000fa00c922a90042
:10248c00cb22a900d102a900d302a8000080fa0037
:10249c00000006000400fa00100798000002eb0090
:1024ac00040f78000400370000ca28000100200047
:1024bc00740007001e0fe8001e0290009e027800b8
:1024cc00848f5200f8ff35000080fa0000000600ef
:1024dc000000fa00041980000002eb0004198800c7
:1024ec00041980000002eb00141988000419800004
:1024fc000002eb0024198800041980000002eb0094
:10250c009419880021a3a900041980000480a1005b
:10251c000490a10004198800041980000450a00044
:10252c000460a0000470a000041988002143a800d6
:10253c002063a9001419800004d0a00004e0a000be
:10254c0004f0a000141988002223a900141980009b
:10255c000480a1000490a1001419880025e3a800b0
:10256c00f4c1b3000443780045322000864a780059
:10257c004519800004fe2f00048262004419880073
:10258c0028e3a900141980000420a1000430a10044
:10259c000440a1000450a10014198800c4f02f00bd
:1025ac00641988000002eb0044198800340f2000e5
:1025bc008419880021e3a8002003a9002023a80087
:1025cc0085a0a90095a0a8000080fa0000000600d4
:1025dc000000fa000080fa00000006000000fa007b
:0825ec000080fa000000060067
:020000040000fa
:1025f400520d00000600000000000000580d00000d
:102604000200000000000000000800001a020000a0
:10261400000000001a0a00009c01000000000000f5
:102624005a0d00000200000002000000010000003a
:10263400b60b00009c010000000000005c0d0000cf
:102644000200000002000000010000005e0d000016
:1026540008000000000000006a0d000002000000f5
:10266400000000006c0d00000200000000000000eb
:10267400660d000004000000000000006e0d000064
:0c26840002000000000000000000000048
:020000040000fa
:10269000f03fb1000180b10006003500ee030900f3
:1026a00000000000403fb1000180b100fbff3d0091
:1026b0001000b000203fb00002003500008009008b
:0826c00000000000000006000c
:020000040000fa
:0200000401f009
:04000000ffff0000fe
:020000040000fa
:0200000401f009
:04000400ffff0000fa
:020000040000fa
:0200000401f009
:04000800ffff0000f6
:020000040000fa
:0200000401f009
:04000c00830000006d
:020000040000fa
:0200000401f009
:0400100002000000ea
:020000040000fa
:0200000401f009
:04001400df00000009
:020000040000fa
:0200000401f009
:04001800f7000000ed
:020000040000fa
:0200000401f009
:04001c00dfff000002
:00000001FF
