:020000040000fa
:080000000002040000000000f2
:020000040000fa
:100008001203000012030000120300001203000094
:100018001203000012030000120300001203000084
:1000280012030000120300001203000070350000e4
:10003800120300001203000012030000e63500005e
:10004800120300001203000012030000ac29000094
:10005800dc29000012030000120300001203000054
:100068001203000012030000120300001203000034
:100078001203000012030000120300001203000024
:100088001203000012030000120300001203000014
:100098001203000012030000d02b0000002c000007
:1000a80012030000120300001203000012030000f4
:1000b80012030000120300001203000012030000e4
:1000c80012030000120300001203000012030000d4
:1000d80012030000120300001203000012030000c4
:1000e80012030000120300001203000012030000b4
:1000f80012030000120300001203000012030000a4
:100108001203000012030000120300001203000093
:100118001203000012030000120300001203000083
:100128001203000012030000120300001203000073
:100138001203000012030000120300001203000063
:100148001203000012030000120300001203000053
:100158001203000012030000120300001203000043
:100168001203000012030000f42d0000242e0000ea
:100178001203000012030000120300001203000023
:100188001430000044300000120300001203000085
:100198001203000012030000120300001203000003
:1001a80012030000120300001203000012030000f3
:1001b80012030000120300001203000012030000e3
:1001c80012030000120300001203000012030000d3
:1001d80012030000120300001203000012030000c3
:1001e80012030000120300001203000012030000b3
:1001f80012030000120300001203000012030000a3
:100208001203000012030000120300001203000092
:100218001203000012030000120300001203000082
:100228001203000012030000120300001203000072
:100238001203000012030000120300001203000062
:100248001203000012030000120300001203000052
:100258001203000012030000120300001203000042
:100268001203000012030000120300001203000032
:0c0278001203000012030000120300003b
:020000040000fa
:100400006ff521000eff28000e018800000000009b
:10041000000020000000e000020032000001200087
:10042000200288000c000700202d2300010020007e
:100430000f000700000020000000e0000200320072
:10044000000002000000000042380200000000002e
:100450000040da000000fe00200020000000e00064
:100460000200320010002000900188000000060009
:10047000a1028800800078000000eb001a0037001d
:10048000e280400054a0b4009101ba00e280400034
:1004900054a0b4009102ba00e280400054a0b4001d
:1004a0000002eb00472bde00f507b200a601880032
:1004b000602ce10008003a000049eb000201e8006e
:1004c000020039003420ec0002f0a0008301e900b2
:1004d000f9ff3e00040037006128e100010032000e
:1004e0000082eb00040007001101ba000200e000e6
:1004f000e3ff3a000000060004d0a300e20f490029
:100500001c003900810278003549ba000201e80078
:10051000020039003420ec0002f0a0008301e90061
:100520000f0032002549ba000201e800020039003c
:100530003420ec0002f0a0008301e9000800320042
:100540000400e0000600320015c9ba000201e8000c
:10055000020039003420ec0002f0a0008301e90021
:100560008180e80054a0b4000300e000e2ff3a00fc
:10057000000006009102ba00055978008301e900e5
:10058000f7ff3200c82ade00055978008301e90030
:10059000f3ff32000400e000f1ff320011d9ba008d
:1005a000eeff37005a29040000000000682904000b
:1005b00000000000762904000000000084290400e7
:1005c000000000007e2b0400000000008c2b0400c3
:1005d000000000009a2b040000000000a82b04007b
:1005e00000000000a22d040000000000b02d040057
:1005f00000000000be2d040000000000cc2d04000f
:1006000000000000c22f040000000000d02f0400f2
:1006100000000000de2f040000000000ec2f0400aa
:10062000000000000040da000000fe000000fa00b8
:10063000889fbe0080047800a0f68000e00f500084
:1006400004003a000f0007000084eb00e00f5000a8
:1006500008003500a8f68000e08f54000500320045
:100660000900440007000700e00f500001003d00b2
:100670000084eb00080078004f04be000080fa0000
:10068000000006000000fa00e00f500004003a00ed
:1006900064ed2100a4f6880000027800060037000f
:1006a0000082eb0065f52100850f500002003e003e
:1006b000a0f688000002eb00040078000080fa0039
:1006c000000006000001be001b0007000470a70028
:1006d00003f0a10003f8a30013003a006509b1007c
:1006e00010003200090035006928e10002003500e1
:1006f0000100280000000500000040008180480043
:100700008502e900fcff3a0000000600f88f420075
:10071000050035008100d1000080d3008502e8008b
:10072000fcff3a00000006008000eb00000005001e
:100730006011b80049003700c70ade00f107b200b7
:10074000f50fb20008003200e1cf42000200320093
:100750000170a00024000500810f7000010032002c
:100760000408050044000500810f700002003a00f3
:10077000140005008502e9000000400081c0480027
:10078000fcff3b000170a00024000500889fbe0014
:100790008a9fbe008c1f7800850007008c00330004
:1007a00003866c006450e100240032006420e10004
:1007b000270032006150e100220032006120e10098
:1007c000210032008b854200eb07b1000134b800f4
:1007d000003ab8000804420089844a00013ab8008f
:1007e0000030b8008880400009014a00040033004e
:1007f0000000400081804800020149008b05e900ab
:10080000c909dd00830170000100320013002000df
:10081000c814de004814dd004709de001200b200f3
:10082000c808de00088470003b00070001f0a1004a
:100830000cf0a70001f0a0006e0037006120e1007d
:10084000700032000801be000200be00f7ff370052
:100850006150e100fcff3a006a003700889fbe004b
:100860008a9fbe0000827000040271000482710041
:10087000260032000004be000200be006011b80075
:100880006b092000950220000182cf000a00390088
:100890000541b1000082cf00070039000541b100d9
:1008a0000982cf00040039000541b1000882cf0061
:1008b000010039000541b10005425200120032002a
:1008c0000a003b0082817100610164008100d10057
:1008d0000080d3008984d3000884d3008b05e8000e
:1008e0000442e800f7ff3a0007003700080444001c
:1008f00089844c0000004800818048008b05e90095
:100900000442e900f9ff3a00030007004f05be006a
:100910004f04be00000006008100200061805500e9
:100920000b003d000b00200061fe2f000100e100e4
:100930001d00340082817100610164008904d100ce
:100940000884d3000000e800faff3a00710020009c
:1009500061006400030070000200600009003200c2
:1009600061044400e0844c000988a50005003200c1
:100970008b05e8006808e10002003a008904d10014
:100980000884d300f20f20000258e10005003d006a
:10099000c75ddd00f907b2008980750008007800a6
:1009a000000006000bf827008b007800000005000f
:1009b0000004be0060ff07000003be000405be0087
:1009c0000200be005cff0700844f750000000600b7
:1009d0000200be006450e100050036006420e10022
:1009e000020036000968a30001003a000800be00ba
:1009f0000160a0004f0678004f05be004f04be0006
:100a000000000600f0ff2f00f1ff2700f9ff37007c
:100a100084eb21000400fa00c5f58000889fbe0029
:100a20008a9fbe008c9fbe00e08f52000b003a00f0
:100a300024029800e402420024f68800c5f58800ec
:100a400035f68800a44290000504a00025429800d5
:100a5000e44290000504a00065429800670440004d
:100a600064ed2100250020004244de0069f52100ec
:100a70004244dd00848454009cf5210011000900eb
:100a80008504d800040656008502440022f6800042
:100a900085824200000f7800150798000003eb00e4
:100aa000e405440008064600020037001600200056
:100ab0000d017800224290006102620002003200c3
:100ac0000a0037001509780092027800254290004c
:100ad00061026200fbff320008024100848f520075
:100ae00002003900e00f54003e003d0092067800fd
:100af0000d00a100828f5600edff3e00e10f530074
:100b0000eaff3a001e027800840f5400020036000b
:100b1000890f54000f003900614ab900b0ff2f005f
:100b2000010020006143b800040250008582580093
:100b3000840f5300858f5b00020035000b057800a1
:100b400005003700110009000986d8008985b90021
:100b5000010037001e0590000a007800b3fe070070
:100b6000e10f400005003a000b0578000b0078000b
:100b7000aefe0700e10f40002b00320034f680008b
:100b8000000a780034f6800064034200a44290001a
:100b9000860f5000020032000504a000010037005b
:100ba0000504a100254298006405550084eb21004e
:100bb0000a0540000a0878003af68800040d78001b
:100bc00035f680000003eb00254290000404a000ed
:100bd000a4429800204290000404a1002440980000
:100be000b3ff370024f68800848f520007003600d8
:100bf0001403be008042eb0006f6880017f688005a
:100c0000120a780024f680002542980022429000c3
:100c100027f680000404a00007097800244198000a
:100c200064004100010037000000eb004f06be00e9
:100c30004f05be004f04be000080fa000000060011
:100c40000000fa00e00f500008003200640050007d
:100c500024f68000840f50000100310020f6880047
:100c6000204290000404a100244098000080fa0073
:100c7000000006000000fa00889fbe000004780013
:100c80008a9fbe0081047800e08f540005003a007e
:100c9000e00f54003200320008007800e8ff07003f
:100ca00030003700e00f540004003a0009007800db
:100cb00057ff0700800478002a00370064025400c0
:100cc0009405780068fa9700610262000200320021
:100cd00008007800daff0700090078004cff0700e1
:100ce00080047800e08f54001e003200888f54008a
:100cf0001b00320069bd9700888555000905550025
:100d0000c2ddde0042d5de000a0178008b0f5500ff
:100d1000010036000b0178004211dd0088007800e8
:100d20000900780014000700888f54000d0031007e
:100d30004255dd000a854400880f55000900360041
:100d40000804550004f6800015f6800042c4de0059
:100d50004244dd0008844400048cbe0001003700da
:100d6000880478004f05be00090078004f04be00db
:100d70000080fa00000006000000fa00000278007f
:100d800002003700315a78000201e900e00f5100fb
:100d9000fcff3a000080fa00000006000000fa00a4
:100da0000002780002003700015a78000201e900d1
:100db000e00f5100fcff3a000080fa00000006003e
:100dc0000000fa00889fbe000004780082047800ca
:100dd000e48f54000600320004102000848f540079
:100de00014003200e08f5400120032002c00370053
:100df000380290006802620004003a002800900067
:100e0000e00f500001003200430007000002eb0039
:100e10003803900075ef2f00040c78008502630002
:100e2000240498000520a00054049800350498007c
:100e300018003700e08f50000400320038029000a4
:100e40000430a000340498000b003700a800900084
:100e5000e08f500002003200d801900006003700f9
:100e60001e000700800078000080eb00e08f50003b
:100e70000c00320023002000b8029000b4ef2f00d5
:100e800021049800048262005304980089047200cf
:100e9000390498000000eb001004980001003700ae
:100ea0000080eb004f04be000080fa000000060046
:100eb000230020000000fa000001eb00e08f50004a
:100ec00003003a008101780042002000830078008e
:100ed000bbff07000080fa000000060080f68000db
:100ee0000000fa00e00f500003003200100278000a
:100ef00084f688000200370020002000cbfd0700a8
:100f0000e10f400002003a00946e260094f688003b
:100f10000080fa000000060084f680000000fa005d
:100f20000408780080f688000080fa0000000600bf
:020000040000fa
:100f30000e00fa00000f7800214798003247980011
:100f400043479800340798004507980056079800d3
:100f5000670798001e027800c48188003e43900015
:100f600055032100864a78003e02900044818800a3
:100f7000de029000658188006e0390007681880013
:100f80004e029000548188002e4290000482fb00a3
:100f90000402d10004427800044378007503210064
:100fa000864a780084042100d4818800ce429000d3
:100fb000c4032100054a78000002eb00f481880098
:100fc0000080fa00000006000800fa0020079800e0
:100fd000614798000042eb00044f78002000370082
:100fe0002e02900094427800154798002e0290003f
:100ff0000402e8002407980084c0b3002447980046
:10100000140037001e4290001e426a0061426200d6
:10101000344798009e4278000582fb000402d1000c
:10102000044f78003e429000e04f52000200320030
:10103000c4c8b3001e4f6a001e4290000482fb0029
:101040000402d100144798002e4290000442e900a7
:10105000244798002e429000e04f5200e9ff3a00ea
:101060006e4290000482fb000402ea004f22de0080
:1010700004427800ee4290008542e90065479800fe
:10108000e04f5200d6ff3a001e427800044078003c
:101090000080fa00000006000600fa0040479800b1
:1010a000e48e800084427800d481800085407800fe
:1010b00004007800c4ff070000427800244798002d
:1010c0004481800060c0b3000400010044818000be
:1010d00050c8b30004000100448180004e409000dd
:1010e000040001004581800054032100144278006f
:1010f000044078000500010045818000e48e8000f6
:101100000442780004407800050001000002eb0072
:10111000040f78000800370045818000d6818000e8
:101120001e02780004024300144278000440780054
:10113000050001001e0fe800e48e80009e0f5200a3
:10114000f5ff3c00448180002e4090000400010027
:101150008041eb002e419000ce409000001e210007
:10116000430207001100200080042100e80107006d
:101170000080fa00000006000a00fa00889fbe0006
:101180003403210014427800e04f520046003a0038
:10119000648180000400010000027800e40f520026
:1011a000410034000a003700f48180000402e800a6
:1011b000f48188006481800004000100000278004e
:1011c000e40f520002003c000042eb0058013700df
:1011d000548180000400010000427800e64f520074
:1011e000f1ff3a00548180000400010000427800c1
:1011f00055c8b300854f52002b003a00548180003f
:1012000004000100004278000443780065042100d6
:10121000864a780054818000040001000042780072
:101220000443780065032100864a780054818000d9
:1012300004000100004278000443780035032100d7
:10124000864a780065042100954278005403210005
:101250001442780084cf52000b00320014828000c8
:101260000402e80014828800548180000400010018
:101270000042eb000443780035032100864a7800e1
:101280000042eb002a0137003403210014427800a9
:101290000482fb000402e80004007800dcfd070083
:1012a0000002780084818800340321001442780011
:1012b000e04f52001d013200240321001442780047
:1012c000e04f520028003a000000000064818000d6
:1012d0000400010000027800e00f5200fbff340020
:1012e000748180000400010000427800e14f420058
:1012f0001f003a00650207000042eb00044378003b
:1013000035032100864a78000042eb000443780050
:1013100025032100864a780084818000040078003b
:1013200047fe070094ff07000042780000013700e5
:101330008581800028032100184478000882fb0082
:10134000848442005481800004000100004278003f
:10135000844c78000842e80004437800250321000b
:10136000864a7800030037000000000001003700c3
:101370000000000064818000040001000002780089
:10138000e00f52000600320025032100954278004c
:10139000340321001442780084cf5200e4ff360069
:1013a00034032100144278008482fb0024032100ce
:1013b000144278000482fb000402e900848f52008a
:1013c000da003a00350321009542780084818000dc
:1013d0008540780004007800fbfe0700004278009a
:1013e0000443780045032100864a78008581800007
:1013f00024032100144278000482fb000402e90067
:101400000482420094427800440321001442780090
:1014100084cf520079003a000002eb00040f7800fc
:1014200028003700858180001e0278000482420077
:1014300094427800740321001442780084cf520053
:101440001b003100858180001e0278000402e80044
:10145000048242001442780004437800e51d210014
:10146000864a7800858180001e0278000482e800a8
:10147000048242001442780004437800f51d2100e4
:10148000864a7800c5818000868180001e0278002f
:1014900004024300144278000482fb00040242006c
:1014a00004824200f58e8000050a780003003700b0
:1014b000248280000402e800248288001e02780052
:1014c000630f420034032100144278000482fb00c1
:1014d0009e0f5200d3ff3c00c40321001442780049
:1014e000e04f52003800320000c2eb004447980041
:1014f00014c0b30054479800858180002403210064
:10150000144278000482fb000402e90004824200d5
:1015100014427800644798006402470031c0b30069
:1015200004007800a8fe07000042780024479800d5
:101530004481800060c0b300040001004481800049
:1015400050c8b300040001004581800064032100fd
:1015500014427800044078000500010045818000b5
:101560005403210014427800044078000500010073
:101570004481800030c0b300040001004481800039
:1015800000c0eb00040001004481800010c0b300e3
:101590000400010045818000868180002403210031
:1015a000144278000482fb000402e90004024300b4
:1015b0001442780004407800050001004481800056
:1015c0002e409000040001000042eb00044378002c
:1015d00035032100864a78000042eb00044378007e
:1015e00025032100864a7800848180000400780069
:1015f00093fd070014c0b3004d0037000482800043
:101600000402e80004828800c40321001442780028
:10161000e04f52003800320000c2eb0074479800df
:1016200024c0b300044f980085818000240321006a
:10163000144278000482fb000402e90004824200a4
:1016400014427800144f98006702470031c0b3007d
:10165000040078005cfe07000042780034479800e0
:101660004481800060c0b300040001004481800018
:1016700050c8b300040001004581800064032100cc
:101680001442780004407800050001004581800084
:101690005403210014427800044078000500010042
:1016a0004481800030c0b300040001004481800008
:1016b00000c0eb00040001004481800020c0b300a2
:1016c0000400010045818000868180002403210000
:1016d000144278000482fb000402e9000402430083
:1016e0001442780004407800050001004481800025
:1016f0003e409000040001000042eb0004437800eb
:1017000035032100864a78000042eb00044378004c
:1017100025032100864a7800848180000400780037
:1017200047fd07000042eb00010037000042eb00dc
:10173000044078004f04be000080fa00000006005c
:101740000400fa00004f7800110798001e01900075
:101750009e40780080042100020007000080fa000b
:10176000000006000600fa00000f780021479800ec
:10177000220798002e029000f48e88001e02780046
:10178000a48a9100c4182000848f52003e003c00bf
:101790001e027800048a91009e02780004824200b2
:1017a000ae429000054a78001e027800048a91003b
:1017b00001192000040078006b0007000002780087
:1017c000840278001e027800058a99001e027800c3
:1017d000248a91008402e8001e027800258a99007c
:1017e0001e027800048a9100e51d210095427800d0
:1017f0001e03780004024300054a78001e027800a8
:10180000048a9100011920000400780056000700a6
:1018100000027800840278001e027800058a990090
:101820001e027800248a91008402e8001e027800db
:10183000258a99001e027800048a9100f51d210076
:10184000954278001e03780004024300054a7800a0
:101850001e027800048a910001192000040078001b
:101860004100070000027800840278001e02780020
:10187000058a99001e027800248a91008402e800fb
:101880001e027800258a99000080fa0000000600f8
:101890000400fa00100798001e029000248a9100ac
:1018a000e00f5200140034001e029000148a9100d0
:1018b0009e02900004824200144f78001e029000a5
:1018c000148a910001192000040078002600070006
:1018d00000027800840278001e029000158a9900a8
:1018e0001e029000248a91008402e9001e029000ea
:1018f000258a9900020037000042eb00044f78006f
:101900001e427800044078000080fa0000000600c3
:101910000400fa00000f7800110798001e027800fa
:101920008002eb00258a99001e0278008002eb00fd
:10193000058a99001e0278008002eb00158a990042
:101940001e029000e00f5200050032001e027800d7
:10195000021920008000eb00040078000ffd070052
:101960000080fa00000006000600fa001007980048
:10197000210798001e029000040fe8002e0290003c
:101980009e027800848f5200020039000002eb00b2
:10199000040f78001e027800040078000080fa002e
:1019a000000006000400fa00204798000002eb0047
:1019b000040f7800130037001e02780004427800fc
:1019c0000041eb0084407800001e21007f000700ea
:1019d00000427800ae429000854f520008003a0065
:1019e0001e0278000442780022c0b30084407800d0
:1019f000001e210075000700004278000500370036
:101a00001e0fe8001e027800e40f5200eaff3400c7
:101a100044c0b300044078000080fa0000000600d3
:101a20000000fa00f4818000040078000080fa00d1
:101a3000000006000000fa00048280000400780024
:101a40000080fa00000006000000fa001482800006
:101a5000040078000080fa00000006000000fa0090
:101a600024828000040078000080fa000000060054
:101a70000600fa00000f78002147980032479800ce
:101a8000434798001e027800040a90009e027800e6
:101a900004824200ae429000054a78001e0278009f
:101aa000040a90008402e8001e027800050a9800eb
:101ab0001e027800040a90009e0278000482420010
:101ac000be429000054a78001e027800040a900089
:101ad0008402e8001e027800050a98001e027800c1
:101ae000040a90009e02780004824200ce429000d8
:101af000054a78001e027800040a90008402e8007b
:101b00001e027800050a98001e027800040a900060
:101b1000ee0f5200030034001e0278008002eb003a
:101b2000050a98000080fa00000006000600fa008e
:101b30001007980041479800524798004e42900085
:101b4000e44f52000200360044c0b30044479800fe
:101b50004e4290000442e800444798004e429000f4
:101b60000482fb00e322b900040f78001e029000fb
:101b7000040a90009e0f52000a003d001e029000d1
:101b8000040a90001e0252006f0f42001e82e800fd
:101b90009e02900004824200de429000054a7800d6
:101ba000080037001e029000040a90001e02520036
:101bb0000482e8009e02900004824200de4290000f
:101bc000054a78000080fa00000006000600fa00ce
:101bd0001007980041479800524798004e429000e5
:101be000e44f52000200360044c0b300444798005e
:101bf0005e429000e24f52000200360024c0b30063
:101c0000544798004e4290000442e8004447980030
:101c10004e4290000482fb00e322b900040f7800da
:101c20001e029000040a90009e0f52000b003d001f
:101c30001e029000040a90001e0252006f0f420024
:101c40005e4290000482fb001e0242009e02900051
:101c50000482420014427800090037001e029000fe
:101c6000040a90009e0252005e4290000482fb0033
:101c7000048242009e0290000482420014427800d6
:101c8000044078000080fa00000006000800fa0016
:101c9000881f7800000000006481800004000100bb
:101ca00000027800e30f5200fbff340054818000f3
:101cb00004000100004278004447980054818000ed
:101cc00004000100004278005447980054818000cd
:101cd00004000100004278006447980054818000ad
:101ce0000400010000427800244798006402470085
:101cf00031c0b30004007800b3fc07000042780054
:101d000034479800ae4290003e42900084cf52008b
:101d100032003a000002eb00040f78002b0037007d
:101d20001e027800044278000041eb0084407800f5
:101d3000001e2100a5ff0700004278006503210076
:101d400095427800854f52001f003a006e44900083
:101d50001e0278000442780012c0b300844078006c
:101d6000001e210099ff070000427800844f5400b4
:101d700015003a005e429000e14f520007003a0021
:101d80001e0278000442780012c0b300844078003c
:101d9000001e210065ff0700130037005e4290001f
:101da000e24f520008003a001e0278000442780018
:101db00022c0b30084407800001e21005bff0700b2
:101dc00000000000080037001e0fe8001e02780027
:101dd000e40f5200d2ff3400030037000482800079
:101de0000402e800048288004f0478000080fa00b2
:101df000000006000e00fa00000f7800214798004e
:101e000032479800434798003407980045079800e8
:101e100056079800670798001e02780054918800c2
:101e20003e43900075222100864a78003e029000d1
:101e3000d4908800de029000f59088006e03900038
:101e4000069188004e029000e49088002e42900097
:101e50000482fb000402d1000442780004437800ad
:101e600095222100864a7800a423210064918800ed
:101e7000ce429000e4222100054a78000002eb00e7
:101e8000849188000080fa00000006000800fa0033
:101e900020079800614798000042eb00044f78004b
:101ea000200037002e0290009442780015479800d9
:101eb0002e0290000402e8002407980084c0b300ba
:101ec00024479800140037001e4290001e426a000a
:101ed00061426200344798009e4278000582fb0010
:101ee0000402d100044f78003e429000e04f5200bf
:101ef00002003200c4c8b3001e4f6a001e429000a8
:101f00000482fb000402d100144798002e42900086
:101f10000442e900244798002e429000e04f52000e
:101f2000e9ff3a006e4290000482fb000402ea00de
:101f30004f22de0004427800ee4290008542e90024
:101f400065479800e04f5200d6ff3a001e427800e5
:101f5000044078000080fa00000006000600fa0045
:101f600040479800749e800084427800649180000d
:101f70008540780004007800c4ff07000042780024
:101f800024479800d490800060c0b3000400010092
:101f9000d490800050c8b30004000100d4908000a9
:101fa0004e40900004000100d59080007422210072
:101fb000144278000440780005000100d5908000ac
:101fc000749e8000044278000440780005000100ff
:101fd0000002eb00040f780008003700d590800065
:101fe000669180001e0278000402430014427800cb
:101ff00004407800050001001e0fe800749e800078
:102000009e0f5200f5ff3c00d49080002e409000bf
:10201000040001008041eb002e419000ce40900072
:10202000203d21004302070011002000a0232100d1
:10203000e80107000080fa00000006000a00fa002c
:10204000889fbe005422210014427800e04f5200c5
:1020500046003a00f490800004000100000278007d
:10206000e40f5200410034000a00370084918000e0
:102070000402e80084918800f490800004000100cc
:1020800000027800e40f520002003c000042eb0026
:1020900058013700e49080000400010000427800fd
:1020a000e64f5200f1ff3a00e49080000400010086
:1020b0000042780055c8b300854f52002b003a000b
:1020c000e49080000400010000427800044378009e
:1020d00085232100864a7800e490800004000100f6
:1020e000004278000443780085222100864a780067
:1020f000e49080000400010000427800044378006e
:1021000055222100864a78008523210095427800d7
:10211000742221001442780084cf52000b00320058
:10212000a49180000402e800a4918800e49080005b
:10213000040001000042eb00044378005522210016
:10214000864a78000042eb002a0137005422210021
:10215000144278000482fb000402e80004007800c6
:102160002bfa070000027800149188005422210005
:1021700014427800e04f52001d0132004422210039
:1021800014427800e04f520028003a00000000009e
:10219000f49080000400010000027800e00f52007b
:1021a000fbff34000491800004000100004278002d
:1021b000e14f42001f003a00650207000042eb00b9
:1021c0000443780055222100864a78000042eb0043
:1021d0000443780045222100864a7800149180004b
:1021e0000400780096fa070094ff07000042780088
:1021f0000001370015918000482221001844780022
:102200000882fb0084844200e49080000400010006
:1022100000427800844c78000842e80004437800cb
:1022200045222100864a78000300370000000000a4
:102230000100370000000000f4908000040001005d
:1022400000027800e00f5200060032004522210013
:1022500095427800542221001442780084cf520025
:10226000e4ff360054222100144278008482fb00ef
:1022700044222100144278000482fb000402e90099
:10228000848f5200da003a005522210095427800ee
:10229000149180008540780004007800fbfe070060
:1022a000004278000443780065222100864a7800c5
:1022b0001591800044222100144278000482fb0022
:1022c0000402e90004824200944278006422210062
:1022d0001442780084cf520079003a000002eb00eb
:1022e000040f780028003700159180001e02780046
:1022f0000482420094427800942221001442780023
:1023000084cf52001b003100159180001e0278001e
:102310000402e8000482420014427800044378007a
:10232000053d2100864a7800159180001e02780044
:102330000482e800048242001442780004437800da
:10234000153d2100864a7800559180001691800045
:102350001e02780004024300144278000482fb004d
:102360000402420004824200859e8000050a780033
:1023700003003700b49180000402e800b4918800a3
:102380001e027800630f420054222100144278009c
:102390000482fb009e0f5200d3ff3c00e422210088
:1023a00014427800e04f52003800320000c2eb00c7
:1023b0004447980014c0b30054479800159180001a
:1023c00044222100144278000482fb000402e90048
:1023d0000482420014427800644798006402470077
:1023e00031c0b30004007800a8fe07000042780066
:1023f00024479800d490800060c0b300040001001e
:10240000d490800050c8b30004000100d590800033
:102410008422210014427800044078000500010065
:10242000d590800074222100144278000440780086
:1024300005000100d490800030c0b300040001000a
:10244000d490800000c0eb0004000100d490800014
:1024500010c0b30004000100d590800016918000e8
:1024600044222100144278000482fb000402e900a7
:102470000402430014427800044078000500010083
:10248000d49080002e409000040001000042eb0038
:102490000443780055222100864a78000042eb0070
:1024a0000443780045222100864a78001491800078
:1024b00004007800e2f9070014c0b3004d003700b3
:1024c000949180000402e80094918800e4222100a5
:1024d00014427800e04f52003800320000c2eb0096
:1024e0007447980024c0b300044f980015918000f1
:1024f00044222100144278000482fb000402e90017
:102500000482420014427800144f9800670247008a
:1025100031c0b300040078005cfe07000042780080
:1025200034479800d490800060c0b30004000100dc
:10253000d490800050c8b30004000100d590800002
:102540008422210014427800044078000500010034
:10255000d590800074222100144278000440780055
:1025600005000100d490800030c0b30004000100d9
:10257000d490800000c0eb0004000100d4908000e3
:1025800020c0b30004000100d590800016918000a7
:1025900044222100144278000482fb000402e90076
:1025a0000402430014427800044078000500010052
:1025b000d49080003e409000040001000042eb00f7
:1025c0000443780055222100864a78000042eb003f
:1025d0000443780045222100864a78001491800047
:1025e0000400780096f907000042eb000100370074
:1025f0000042eb00044078004f04be000080fa0067
:10260000000006000400fa00004f7800110798004f
:102610001e0190009e407800a023210002000700c8
:102620000080fa00000006000600fa00000f7800a3
:1026300021479800220798002e029000849e88006f
:102640001e027800a48a9100c4182000848f5200d2
:102650003e003c001e027800048a91009e02780031
:1026600004824200ae429000054a78001e027800c3
:10267000048a910001192000040078006b00070013
:1026800000027800840278001e027800058a990012
:102690001e027800248a91008402e8001e0278005d
:1026a000258a99001e027800048a9100053d2100c8
:1026b000954278001e03780004024300054a780022
:1026c0001e027800048a910001192000040078009d
:1026d0005600070000027800840278001e0278008d
:1026e000058a99001e027800248a91008402e8007d
:1026f0001e027800258a99001e027800048a910043
:10270000153d2100954278001e0378000402430025
:10271000054a78001e027800048a91000119200001
:10272000040078004100070000027800840278006d
:102730001e027800058a99001e027800248a910002
:102740008402e8001e027800258a99000080fa00c1
:10275000000006000400fa00100798001e02900016
:10276000248a9100e00f5200140034001e029000f1
:10277000148a91009e02900004824200144f780057
:102780001e029000148a91000119200004007800b4
:102790002600070000027800840278001e029000e4
:1027a000158a99001e029000248a91008402e90093
:1027b0001e029000258a9900020037000042eb00bb
:1027c000044f78001e427800044078000080fa0030
:1027d000000006000400fa00000f780011079800be
:1027e0001e0278008002eb00258a99001e02780004
:1027f0008002eb00058a99001e0278008002eb003f
:10280000158a99001e029000e00f52000500320068
:102810001e027800021920008000eb0004007800fe
:102820005ef907000080fa00000006000600fa00ca
:1028300010079800210798001e029000040fe8007e
:102840002e0290009e027800848f52000200390010
:102850000002eb00040f78001e02780004007800ec
:102860000080fa00000006000400fa0020479800eb
:102870000002eb00040f7800130037001e027800fe
:10288000044278000041eb0084407800203d2100a4
:102890007f00070000427800ae429000854f520052
:1028a00008003a001e0278000442780022c0b300fb
:1028b00084407800203d2100750007000042780028
:1028c000050037001e0fe8001e027800e40f5200da
:1028d000eaff340044c0b300044078000080fa00ee
:1028e000000006000000fa008491800004007800d7
:1028f0000080fa00000006000000fa0094918000b9
:10290000040078000080fa00000006000000fa00d1
:10291000a4918000040078000080fa000000060006
:102920000000fa00b4918000040078000080fa00f2
:10293000000006000600fa00000f7800214798000a
:1029400032479800434798001e027800040a90001e
:102950009e02780004824200ae429000054a780050
:102960001e027800040a90008402e8001e0278002b
:10297000050a98001e027800040a90009e02780062
:1029800004824200be429000054a78001e02780090
:10299000040a90008402e8001e027800050a9800ec
:1029a0001e027800040a90009e0278000482420011
:1029b000ce429000054a78001e027800040a90007a
:1029c0008402e8001e027800050a98001e027800c2
:1029d000040a9000ee0f5200030034001e0278003b
:1029e0008002eb00050a98000080fa000000060053
:1029f0000600fa00100798004147980052479800d7
:102a00004e429000e44f52000200360044c0b30032
:102a1000444798004e4290000442e8004447980022
:102a20004e4290000482fb00e322b900040f7800bc
:102a30001e029000040a90009e0f52000a003d0002
:102a40001e029000040a90001e0252006f0f420006
:102a50001e82e8009e02900004824200de42900046
:102a6000054a7800080037001e029000040a900012
:102a70001e0252000482e8009e029000048242007e
:102a8000de429000054a78000080fa00000006004f
:102a90000600fa0010079800414798005247980036
:102aa0004e429000e44f52000200360044c0b30092
:102ab000444798005e429000e24f52000200360008
:102ac00024c0b300544798004e4290000442e800ee
:102ad000444798004e4290000482fb00e322b90074
:102ae000040f78001e029000040a90009e0f52000e
:102af0000b003d001e029000040a90001e025200ce
:102b00006f0f42005e4290000482fb001e024200f2
:102b10009e029000048242001442780009003700af
:102b20001e029000040a90009e0252005e42900035
:102b30000482fb00048242009e0290000482420054
:102b400014427800044078000080fa00000006007b
:102b50000800fa00881f780000000000f490800050
:102b60000400010000027800e30f5200fbff340074
:102b7000e49080000400010000427800444798007f
:102b8000e49080000400010000427800544798005f
:102b9000e49080000400010000427800644798003f
:102ba000e49080000400010000427800244798006f
:102bb0006402470031c0b30004007800b3fc070092
:102bc0000042780034479800ae4290003e429000a8
:102bd00084cf520032003a000002eb00040f78006c
:102be0002b0037001e027800044278000041eb0001
:102bf00084407800203d2100a5ff070000427800b6
:102c00008522210095427800854f52001f003a002e
:102c10006e4490001e0278000442780012c0b30097
:102c200084407800203d210099ff07000042780091
:102c3000844f540015003a005e429000e14f52006c
:102c400007003a001e0278000442780012c0b30068
:102c500084407800203d210065ff07001300370005
:102c60005e429000e24f520008003a001e027800d7
:102c70000442780022c0b30084407800203d210047
:102c80005bff070000000000080037001e0fe8008f
:102c90001e027800e40f5200d2ff34000300370018
:102ca000949180000402e800949188004f04780019
:102cb0000080fa00000006000e00fa00000f780005
:102cc00021479800324798004347980034079800fe
:102cd0004507980056079800670798001e0278007d
:102ce000e4a088003e43900095412100864a780088
:102cf0003e02900064a08800de02900085a088005b
:102d00006e03900096a088004e02900074a0880088
:102d10002e4290000482fb000402d100044278009d
:102d200004437800b5412100864a7800c44221005e
:102d3000f4a08800ce42900004422100054a7800a9
:102d40000002eb0014a188000080fa0000000600d9
:102d50000800fa0020079800614798000042eb0045
:102d6000044f7800200037002e0290009442780033
:102d7000154798002e0290000402e80024079800ee
:102d800084c0b30024479800140037001e4290000e
:102d90001e426a0061426200344798009e427800f9
:102da0000582fb000402d100044f78003e429000ef
:102db000e04f520002003200c4c8b3001e4f6a0048
:102dc0001e4290000482fb000402d10014479800c8
:102dd0002e4290000442e900244798002e429000c1
:102de000e04f5200e9ff3a006e4290000482fb007f
:102df0000402ea004f22de0004427800ee42900016
:102e00008542e90065479800e04f5200d6ff3a003e
:102e10001e427800044078000080fa00000006009e
:102e20000600fa004047980004ae80008442780013
:102e3000f4a080008540780004007800c4ff0700fb
:102e4000004278002447980064a0800060c0b3006e
:102e50000400010064a0800050c8b3000400010019
:102e600064a080004e4090000400010065a0800036
:102e700094412100144278000440780005000100cc
:102e800065a0800004ae8000044278000440780011
:102e9000050001000002eb00040f78000800370075
:102ea00065a08000f6a080001e02780004024300a6
:102eb0001442780004407800050001001e0fe8006d
:102ec00004ae80009e0f5200f5ff3c0064a080001d
:102ed0002e409000040001008041eb002e41900044
:102ee000ce409000405c210043020700110020000a
:102ef000c0422100e80107000080fa00000006003f
:102f00000a00fa00889fbe00744121001442780034
:102f1000e04f520046003a0084a080000400010007
:102f200000027800e40f5200410034000a0037002c
:102f300014a180000402e80014a1880084a080008d
:102f40000400010000027800e40f520002003c007f
:102f50000042eb005801370074a08000040001001b
:102f600000427800e64f5200f1ff3a0074a0800062
:102f7000040001000042780055c8b300854f52009c
:102f80002b003a0074a08000040001000042780089
:102f900004437800a5422100864a780074a080008e
:102fa000040001000042780004437800a54121009c
:102fb000864a780074a08000040001000042780076
:102fc0000443780075412100864a7800a54221001b
:102fd00095427800944121001442780084cf520039
:102fe0000b00320034a180000402e80034a1880004
:102ff00074a08000040001000042eb00044378004c
:1030000075412100864a78000042eb002a01370012
:1030100074412100144278000482fb000402e8009d
:10302000040078007af6070000027800a4a0880067
:103030007441210014427800e04f52001d0132001b
:103040006441210014427800e04f520028003a0009
:103050000000000084a0800004000100000278004d
:10306000e00f5200fbff340094a080000400010038
:1030700000427800e14f42001f003a00650207005d
:103080000042eb000443780075412100864a780035
:103090000042eb000443780065412100864a780035
:1030a000a4a0800004007800e5f6070094ff070064
:1030b0000042780000013700a5a08000684121008f
:1030c000184478000882fb008484420074a08000c9
:1030d0000400010000427800844c78000842e800b7
:1030e0000443780065412100864a780003003700d8
:1030f00000000000010037000000000084a08000f4
:103100000400010000027800e00f520006003200c7
:1031100065412100954278007441210014427800f5
:1031200084cf5200e4ff360074412100144278003d
:103130008482fb0064412100144278000482fb0079
:103140000402e900848f5200da003a007541210040
:1031500095427800a4a080008540780004007800a3
:10316000fbfe0700004278000443780085412100ff
:10317000864a7800a5a080006441210014427800ae
:103180000482fb000402e9000482420094427800b9
:10319000844121001442780084cf520079003a0023
:1031a0000002eb00040f780028003700a5a0800083
:1031b0001e0278000482420094427800b44121004b
:1031c0001442780084cf52001b003100a5a080007b
:1031d0001e0278000402e8000482420014427800d3
:1031e00004437800255c2100864a7800a5a0800071
:1031f0001e0278000482e800048242001442780033
:1032000004437800355c2100864a7800e5a0800000
:10321000a6a080001e027800040243001442780039
:103220000482fb00040242000482420015ae8000ca
:10323000050a78000300370044a180000402e8007a
:1032400044a188001e027800630f420074412100ef
:10325000144278000482fb009e0f5200d3ff3c0012
:103260000442210014427800e04f5200380032003e
:1032700000c2eb004447980014c0b30054479800c4
:10328000a5a0800064412100144278000482fb0064
:103290000402e90004824200144278006447980066
:1032a0006402470031c0b30004007800a8fe0700a4
:1032b000004278002447980064a0800060c0b300fa
:1032c0000400010064a0800050c8b30004000100a5
:1032d00065a08000a44121001442780004407800d9
:1032e0000500010065a0800094412100144278008f
:1032f000044078000500010064a0800030c0b300e5
:103300000400010064a0800000c0eb000400010084
:1033100064a0800010c0b3000400010065a080001c
:10332000a6a0800064412100144278000482fb00c2
:103330000402e900040243001442780004407800cb
:103340000500010064a080002e40900004000100f0
:103350000042eb000443780075412100864a780062
:103360000042eb000443780065412100864a780062
:10337000a4a080000400780031f6070014c0b30058
:103380004d00370024a180000402e80024a1880039
:103390000442210014427800e04f5200380032000d
:1033a00000c2eb007447980024c0b300044f98009b
:1033b000a5a0800064412100144278000482fb0033
:1033c0000402e9000482420014427800144f98007d
:1033d0006702470031c0b300040078005cfe0700bc
:1033e000004278003447980064a0800060c0b300b9
:1033f0000400010064a0800050c8b3000400010074
:1034000065a08000a44121001442780004407800a7
:103410000500010065a0800094412100144278005d
:10342000044078000500010064a0800030c0b300b3
:103430000400010064a0800000c0eb000400010053
:1034400064a0800020c0b3000400010065a08000db
:10345000a6a0800064412100144278000482fb0091
:103460000402e9000402430014427800044078009a
:103470000500010064a080003e40900004000100af
:103480000042eb000443780075412100864a780031
:103490000042eb000443780065412100864a780031
:1034a000a4a0800004007800e5f507000042eb00ce
:1034b000010037000042eb00044078004f04be00da
:1034c0000080fa00000006000400fa00004f7800b7
:1034d000110798001e0190009e407800c042210014
:1034e000020007000080fa00000006000600fa0053
:1034f000000f780021479800220798002e029000c4
:1035000014ae88001e027800a48a9100c41820001e
:10351000848f52003e003c001e027800048a910015
:103520009e02780004824200ae429000054a780074
:103530001e027800048a910001192000040078001e
:103540006b00070000027800840278001e027800f9
:10355000058a99001e027800248a91008402e800fe
:103560001e027800258a99001e027800048a9100c4
:10357000255c2100954278001e0378000402430078
:10358000054a78001e027800048a91000119200083
:1035900004007800560007000002780084027800da
:1035a0001e027800058a99001e027800248a910084
:1035b0008402e8001e027800258a99001e02780025
:1035c000048a9100355c2100954278001e03780042
:1035d00004024300054a78001e027800048a910024
:1035e0000119200004007800410007000002780063
:1035f000840278001e027800058a99001e02780075
:10360000248a91008402e8001e027800258a99002d
:103610000080fa00000006000400fa00100798007d
:103620001e029000248a9100e00f52001400340022
:103630001e029000148a91009e02900004824200b3
:10364000144f78001e029000148a91000119200086
:103650000400780026000700000278008402780049
:103660001e029000158a99001e029000248a910083
:103670008402e9001e029000258a990002003700aa
:103680000042eb00044f78001e42780004407800ae
:103690000080fa00000006000400fa00000f780025
:1036a000110798001e0278008002eb00258a99001d
:1036b0001e0278008002eb00058a99001e02780045
:1036c0008002eb00158a99001e029000e00f520064
:1036d000050032001e027800021920008000eb0075
:1036e00004007800adf507000080fa000000060035
:1036f0000600fa0010079800210798001e029000ab
:10370000040fe8002e0290009e027800848f520081
:10371000020039000002eb00040f78001e0278005e
:10372000040078000080fa00000006000400fa009f
:10373000204798000002eb00040f780013003700c8
:103740001e027800044278000041eb0084407800bb
:10375000405c21007f00070000427800ae429000ec
:10376000854f520008003a001e027800044278009b
:1037700022c0b30084407800405c2100750007003f
:1037800000427800050037001e0fe8001e02780096
:10379000e40f5200eaff340044c0b3000440780054
:1037a0000080fa00000006000000fa0014a180006a
:1037b000040078000080fa00000006000000fa0013
:1037c00024a18000040078000080fa0000000600b8
:1037d0000000fa0034a18000040078000080fa00a4
:1037e000000006000000fa0044a1800004007800f8
:1037f0000080fa00000006000600fa00000f7800c2
:103800002147980032479800434798001e027800ed
:10381000040a90009e02780004824200ae429000aa
:10382000054a78001e027800040a90008402e8002d
:103830001e027800050a98001e027800040a900013
:103840009e02780004824200be429000054a780041
:103850001e027800040a90008402e8001e0278002c
:10386000050a98001e027800040a90009e02780063
:1038700004824200ce429000054a78001e02780081
:10388000040a90008402e8001e027800050a9800ed
:103890001e027800040a9000ee0f5200030034006c
:1038a0001e0278008002eb00050a98000080fa00f2
:1038b000000006000600fa00100798004147980033
:1038c000524798004e429000e44f520002003600ea
:1038d00044c0b300444798004e4290000442e800c0
:1038e000444798004e4290000482fb00e322b90056
:1038f000040f78001e029000040a90009e0f5200f0
:103900000a003d001e029000040a90001e025200b0
:103910006f0f42001e82e8009e0290000482420067
:10392000de429000054a7800080037001e02900031
:10393000040a90001e0252000482e8009e029000d9
:1039400004824200de429000054a78000080fa00be
:10395000000006000600fa00100798004147980092
:10396000524798004e429000e44f52000200360049
:1039700044c0b300444798005e429000e24f5200ba
:103980000200360024c0b300544798004e42900015
:103990000442e800444798004e4290000482fb0035
:1039a000e322b900040f78001e029000040a900080
:1039b0009e0f52000b003d001e029000040a900072
:1039c0001e0252006f0f42005e4290000482fb0014
:1039d0001e0242009e0290000482420014427800bf
:1039e000090037001e029000040a90009e02520057
:1039f0005e4290000482fb00048242009e0290001e
:103a00000482420014427800044078000080fa00ea
:103a1000000006000800fa00881f7800000000007f
:103a200084a080000400010000027800e30f52002f
:103a3000fbff340074a08000040001000042780005
:103a40004447980074a08000040001000042780000
:103a50005447980074a080000400010000427800e0
:103a60006447980074a080000400010000427800c0
:103a7000244798006402470031c0b3000400780076
:103a8000b3fc07000042780034479800ae42900033
:103a90003e42900084cf520032003a000002eb0018
:103aa000040f78002b0037001e02780004427800d3
:103ab0000041eb0084407800405c2100a5ff070036
:103ac00000427800a541210095427800854f5200c0
:103ad0001f003a006e4490001e02780004427800f5
:103ae00012c0b30084407800405c210099ff0700b9
:103af00000427800844f540015003a005e42900066
:103b0000e14f520007003a001e027800044278009c
:103b100012c0b30084407800405c210065ff0700bc
:103b2000130037005e429000e24f520008003a0056
:103b30001e0278000442780022c0b300844078005e
:103b4000405c21005bff0700000000000800370018
:103b50001e0fe8001e027800e40f5200d2ff34006e
:103b60000300370024a180000402e80024a188009b
:103b70004f0478000080fa00000006000e00fa00f2
:103b8000000f78002147980032479800434798007b
:103b90003407980045079800560798006707980073
:103ba0001e02780074b088003e439000b56021008a
:103bb000864a78003e029000f4af8800de02900052
:103bc00015b088006e03900026b088004e02900069
:103bd00004b088002e4290000482fb000402d10051
:103be0000442780004437800d5602100864a7800ba
:103bf000e461210084b08800ce429000246121005d
:103c0000054a78000002eb00a4b088000080fa00aa
:103c1000000006000800fa0020079800614798009d
:103c20000042eb00044f7800200037002e02900085
:103c300094427800154798002e0290000402e80094
:103c40002407980084c0b30024479800140037006c
:103c50001e4290001e426a00614262003447980092
:103c60009e4278000582fb000402d100044f7800d8
:103c70003e429000e04f520002003200c4c8b30040
:103c80001e4f6a001e4290000482fb000402d10015
:103c9000144798002e4290000442e90024479800ff
:103ca0002e429000e04f5200e9ff3a006e42900031
:103cb0000482fb000402ea004f22de000442780086
:103cc000ee4290008542e90065479800e04f5200bf
:103cd000d6ff3a001e427800044078000080fa00c7
:103ce000000006000600fa004047980094bd8000de
:103cf0008442780084b08000854078000400780019
:103d0000c4ff07000042780024479800f4af800009
:103d100060c0b30004000100f4af800050c8b300dd
:103d200004000100f4af80004e4090000400010048
:103d3000f5af8000b46021001442780004407800a0
:103d400005000100f5af800094bd800004427800ba
:103d500004407800050001000002eb00040f780029
:103d600008003700f5af800086b080001e027800a2
:103d7000040243001442780004407800050001006a
:103d80001e0fe80094bd80009e0f5200f5ff3c001e
:103d9000f4af80002e409000040001008041eb0051
:103da0002e419000ce409000607b2100430207002e
:103db00011002000e0612100e80107000080fa0006
:103dc000000006000a00fa00889fbe0094602100ef
:103dd00014427800e04f520046003a0014b08000d0
:103de0000400010000027800e40f5200410034009a
:103df0000a003700a4b080000402e800a4b08800e4
:103e000014b080000400010000027800e40f5200aa
:103e100002003c000042eb005801370004b0800073
:103e20000400010000427800e64f5200f1ff3a0022
:103e300004b08000040001000042780055c8b300bf
:103e4000854f52002b003a0004b0800004000100ae
:103e50000042780004437800c5612100864a78005a
:103e600004b08000040001000042780004437800a0
:103e7000c5602100864a780004b08000040001007b
:103e8000004278000443780095602100864a78005b
:103e9000c561210095427800b46021001442780089
:103ea00084cf52000b003200c4b080000402e8004e
:103eb000c4b0880004b08000040001000042eb00a0
:103ec0000443780095602100864a78000042eb00a8
:103ed0002a01370094602100144278000482fb001c
:103ee0000402e80004007800c9f20700000278002c
:103ef00034b088009460210014427800e04f5200f2
:103f00001d0132008460210014427800e04f52000d
:103f100028003a000000000014b0800004000100f6
:103f200000027800e00f5200fbff340024b0800054
:103f30000400010000427800e14f42001f003a00f7
:103f4000650207000042eb00044378009560210001
:103f5000864a78000042eb00044378008560210027
:103f6000864a780034b080000400780034f30700fb
:103f700094ff0700004278000001370035b0800050
:103f800088602100184478000882fb008484420085
:103f900004b080000400010000427800844c7800e6
:103fa0000842e8000443780085602100864a7800d2
:103fb000030037000000000001003700000000008f
:103fc00014b080000400010000027800e00f5200ed
:103fd000060032008560210095427800946021003f
:103fe0001442780084cf5200e4ff36009460210030
:103ff000144278008482fb0084602100144278001f
:104000000482fb000402e900848f5200da003a00c7
:10401000956021009542780034b08000854078009a
:1040200004007800fbfe070000427800044378009b
:10403000a5602100864a780035b0800084602100a8
:10404000144278000482fb000402e900048242006a
:1040500094427800a46021001442780084cf52007a
:1040600079003a000002eb00040f780028003700c6
:1040700035b080001e02780004824200944278002d
:10408000d46021001442780084cf52001b0031001c
:1040900035b080001e0278000402e800048242006d
:1040a0001442780004437800457b2100864a78005a
:1040b00035b080001e0278000482e80004824200cd
:1040c0001442780004437800557b2100864a78002a
:1040d00075b0800036b080001e02780004024300f4
:1040e000144278000482fb00040242000482420071
:1040f000a5bd8000050a780003003700d4b0800019
:104100000402e800d4b088001e027800630f420069
:1041100094602100144278000482fb009e0f52003c
:10412000d3ff3c002461210014427800e04f52008c
:104130003800320000c2eb004447980014c0b300be
:104140005447980035b08000846021001442780004
:104150000482fb000402e900048242001442780059
:10416000644798006402470031c0b300040078003f
:10417000a8fe07000042780024479800f4af8000b2
:1041800060c0b30004000100f4af800050c8b30069
:1041900004000100f5af8000c460210014427800e3
:1041a0000440780005000100f5af8000b4602100f4
:1041b000144278000440780005000100f4af80004c
:1041c00030c0b30004000100f4af800000c0eb0079
:1041d00004000100f4af800010c0b300040001002f
:1041e000f5af800036b08000846021001442780072
:1041f0000482fb000402e900040243001442780038
:104200000440780005000100f4af80002e409000cb
:10421000040001000042eb00044378009560210097
:10422000864a78000042eb00044378008560210054
:10423000864a780034b080000400780080f20700dd
:1042400014c0b3004d003700b4b080000402e80091
:10425000b4b088002461210014427800e04f52007d
:104260003800320000c2eb007447980024c0b3004d
:10427000044f980035b0800084602100144278001b
:104280000482fb000402e900048242001442780028
:10429000144f98006702470031c0b3000400780053
:1042a0005cfe07000042780034479800f4af8000bd
:1042b00060c0b30004000100f4af800050c8b30038
:1042c00004000100f5af8000c460210014427800b2
:1042d0000440780005000100f5af8000b4602100c3
:1042e000144278000440780005000100f4af80001b
:1042f00030c0b30004000100f4af800000c0eb0048
:1043000004000100f4af800020c0b30004000100ed
:10431000f5af800036b08000846021001442780040
:104320000482fb000402e900040243001442780006
:104330000440780005000100f4af80003e4090008a
:10434000040001000042eb00044378009560210066
:10435000864a78000042eb00044378008560210023
:10436000864a780034b080000400780034f20700f8
:104370000042eb00010037000042eb0004407800ef
:104380004f04be000080fa00000006000400fa009e
:10439000004f7800110798001e0190009e407800a1
:1043a000e0612100020007000080fa000000060022
:1043b0000600fa00000f78002147980022079800b5
:1043c0002e029000a4bd88001e027800a48a9100ed
:1043d000c4182000848f52003e003c001e0278006a
:1043e000048a91009e02780004824200ae4290004e
:1043f000054a78001e027800048a91000119200005
:10440000040078006b000700000278008402780046
:104410001e027800058a99001e027800248a910005
:104420008402e8001e027800258a99001e027800a6
:10443000048a9100457b2100954278001e03780094
:1044400004024300054a78001e027800048a9100a5
:1044500001192000040078005600070000027800cf
:10446000840278001e027800058a99001e027800f6
:10447000248a91008402e8001e027800258a9900af
:104480001e027800048a9100557b21009542780035
:104490001e03780004024300054a78001e027800db
:1044a000048a9100011920000400780041000700ef
:1044b00000027800840278001e027800058a9900c4
:1044c0001e027800248a91008402e8001e0278000f
:1044d000258a99000080fa00000006000400fa0016
:1044e000100798001e029000248a9100e00f5200ed
:1044f000140034001e029000148a91009e02900065
:1045000004824200144f78001e029000148a910029
:10451000011920000400780026000700000278003e
:10452000840278001e029000158a99001e029000f5
:10453000248a91008402e9001e029000258a9900d5
:10454000020037000042eb00044f78001e42780062
:10455000044078000080fa00000006000400fa0021
:10456000000f7800110798001e0278008002eb000f
:10457000258a99001e0278008002eb00058a9900c6
:104580001e0278008002eb00158a99001e0290003e
:10459000e00f5200050032001e02780002192000d0
:1045a0008000eb0004007800fcf107000080fa00b6
:1045b000000006000600fa00100798002107980086
:1045c0001e029000040fe8002e0290009e02780068
:1045d000848f5200020039000002eb00040f7800c3
:1045e0001e027800040078000080fa000000060037
:1045f0000400fa00204798000002eb00040f780046
:10460000130037001e027800044278000041eb00de
:1046100084407800607b21007f0007000042780022
:10462000ae429000854f520008003a001e0278000a
:104630000442780022c0b30084407800607b2100ef
:104640007500070000427800050037001e0fe800e3
:104650001e027800e40f5200eaff340044c0b300a9
:10466000044078000080fa00000006000000fa0014
:10467000a4b08000040078000080fa00000006006a
:104680000000fa00b4b08000040078000080fa0056
:10469000000006000000fa00c4b0800004007800aa
:1046a0000080fa00000006000000fa00d4b080008c
:1046b000040078000080fa00000006000600fa00fe
:1046c000000f780021479800324798004347980030
:1046d0001e027800040a90009e02780004824200c4
:1046e000ae429000054a78001e027800040a90004d
:1046f0008402e8001e027800050a98001e02780075
:10470000040a90009e02780004824200be4290009b
:10471000054a78001e027800040a90008402e8002e
:104720001e027800050a98001e027800040a900014
:104730009e02780004824200ce429000054a780032
:104740001e027800040a90008402e8001e0278002d
:10475000050a98001e027800040a9000ee0f52002d
:10476000030034001e0278008002eb00050a980066
:104770000080fa00000006000600fa00100798000a
:1047800041479800524798004e429000e44f520033
:104790000200360044c0b300444798004e429000e7
:1047a0000442e800444798004e4290000482fb0017
:1047b000e322b900040f78001e029000040a900062
:1047c0009e0f52000a003d001e029000040a900055
:1047d0001e0252006f0f42001e82e8009e029000ef
:1047e00004824200de429000054a7800080037004b
:1047f0001e029000040a90001e0252000482e8008b
:104800009e02900004824200de429000054a780039
:104810000080fa00000006000600fa001007980069
:1048200041479800524798004e429000e44f520092
:104830000200360044c0b300444798005e42900036
:10484000e24f52000200360024c0b30054479800e3
:104850004e4290000442e800444798004e429000c7
:104860000482fb00e322b900040f78001e029000ce
:10487000040a90009e0f52000b003d001e029000a3
:10488000040a90001e0252006f0f42005e42900028
:104890000482fb001e0242009e029000048242003d
:1048a00014427800090037001e029000040a9000ac
:1048b0009e0252005e4290000482fb00048242008d
:1048c0009e02900004824200144278000440780066
:1048d0000080fa00000006000800fa00881f780037
:1048e0000000000014b08000040001000002780005
:1048f000e30f5200fbff340004b08000040001000d
:10490000004278004447980004b080000400010091
:10491000004278005447980004b080000400010071
:10492000004278006447980004b080000400010051
:1049300000427800244798006402470031c0b30069
:1049400004007800b3fc0700004278003447980068
:10495000ae4290003e42900084cf520032003a00b6
:104960000002eb00040f78002b0037001e027800d5
:10497000044278000041eb0084407800607b210015
:10498000a5ff070000427800c5602100954278002d
:10499000854f52001f003a006e4490001e027800be
:1049a0000442780012c0b30084407800607b21008c
:1049b00099ff070000427800844f540015003a0028
:1049c0005e429000e14f520007003a001e0278005c
:1049d0000442780012c0b30084407800607b21005c
:1049e00065ff0700130037005e429000e24f52005f
:1049f00008003a001e0278000442780022c0b3008a
:104a000084407800607b21005bff0700000000000d
:104a1000080037001e0fe8001e027800e40f520065
:104a2000d2ff340003003700b4b080000402e80075
:104a3000b4b088004f0478000080fa00000006003f
:104a40000000fa00c4e62100144278000404a20029
:104a5000e04f5200070032008000eb0000ea210026
:104a600013f1070014c0b30004437800c5e6210029
:104a7000864a7800750007000d0107000300070053
:104a8000b80007000080fa00000006000000fa00ed
:104a900044f380000500200056002000070020009d
:104aa000860f5200878f5a0066003e000406010000
:104ab000050037001a0037002f0037004400370088
:104ac00055003700580037003c06070000427800c8
:104ad000e04f5200090032008c06070000427800c7
:104ae000e04f52005200320044f380000402e8001c
:104af00044f38800610007005200370014c0b3007f
:104b000004437800e5e62100864a780044f38000fb
:104b10000402e80044f38800580007004900370009
:104b20008f07070000427800e04f52000900320072
:104b3000c507070000427800e04f52003e003200f7
:104b400044f380000402e80044f388004b000700af
:104b50003c00370014c0b3000443780065e721002f
:104b6000864a780044f380000402e80044f3880099
:104b70004200070033003700a40807000042780015
:104b8000e04f520009003200ce08070000427800d2
:104b9000e04f52002a00320044f380000402e80093
:104ba00044f38800350007002600370014c0b30026
:104bb00004437800a5e72100864a780044f380008a
:104bc0000402e80044f388002c0007001d003700b1
:104bd00064e7210014427800e04f520008003a00d8
:104be000e4e6210014427800e04f520004003a004d
:104bf000a4e7210014427800e04f52000300320085
:104c00004400200044f388000e0037000002eb004f
:104c100044f388000b003700320007000002eb006d
:104c200044f388000700370000000000050037004b
:104c30000000000003003700000000000100370002
:104c4000000000000080fa00000006000000fa00ea
:104c500024e8210014427800e04f520005003200a1
:104c600034f28000e40f5200020036000000eb0036
:104c70000b0007000080fa00000006000000fa00a8
:104c80000002eb00c4f188000002eb00d4f18800c0
:104c90000002eb00f4f188000080fa00000006003a
:104ca0000200fa00000f78001e027800044278002b
:104cb000614262000482fb00610262004222dd0068
:104cc00026718000b5ff2f00850263000502720087
:104cd000247188000002eb0034f288000080fa00a2
:104ce000000006000200fa000002eb00040f78004a
:104cf00064e7210014427800e04f520005003200c2
:104d00001e00a0000042eb000443780065e721008c
:104d1000864a7800e4e6210014427800e04f520011
:104d2000050032001e10a0000042eb000443780092
:104d3000e5e62100864a7800a4e7210014427800c5
:104d4000e04f5200050032001e20a0000042eb00a0
:104d500004437800a5e72100864a78000080fa0025
:104d6000000006000000fa0054f380000500200057
:104d70004600200007002000860f5200878f5a004f
:104d800049003e0004060100040037001900370006
:104d90002e0037003b0037003e0037008a06070030
:104da00000427800e04f520009003200d6060700aa
:104db00000427800e04f52003800320054f3800087
:104dc0000402e80054f388004c0007003600370066
:104dd00014c0b3000443780025e72100864a780018
:104de00054f380000402e80054f3880043000700f5
:104df0002d0037004908070000427800e04f5200bc
:104e0000090032007308070000427800e04f5200aa
:104e10002400320054f380000402e80054f38800b8
:104e2000360007002000370014c0b30004437800a8
:104e3000e5e72100864a780054f380000402e80088
:104e400054f388002d0007001700370024e72100e5
:104e500014427800e04f520004003a00e4e72100d9
:104e600014427800e04f520003003200340020006a
:104e700054f388000c0037000002eb0054f3880064
:104e800009003700350007000002eb0054f38800ea
:104e9000050037000000000003003700000000009c
:104ea00001003700000000000080fa00000006004a
:104eb0000000fa0044e82100144278000404a20033
:104ec000e04f5200020032000002eb0044f2880082
:104ed00044e8210014427800e04f520005003200ff
:104ee00044f28000e40f5200020036000000eb00a4
:104ef000090007000080fa00000006000000fa0028
:104f00000002eb00e4f188000002eb0004f28800ec
:104f10000080fa00000006000200fa00000f78008e
:104f20001e02780004427800614262000482fb00a5
:104f30006102620004024200a6728000d5ff2f00c9
:104f40008502630005027200a47288000002eb0073
:104f500044f288000080fa00000006000200fa0017
:104f60000002eb00040f780024e7210014427800cf
:104f7000e04f5200050032001e00a0000042eb008e
:104f80000443780025e72100864a7800e4e7210001
:104f900014427800e04f5200050032001e10a000bd
:104fa0000042eb0004437800e5e72100864a7800e0
:104fb0000080fa00000006000000fa00ef0207007f
:104fc00000427800044078000080fa0000000600eb
:104fd0000200fa00004f78001e427800044078007a
:104fe000ed0207000080fa00000006000000fa0051
:104ff0002002a900041180000410a1000420a100d7
:105000000411880020a2a900940320004411880004
:10501000141180000460a0000470a1001411880025
:10502000141180000460a1000470a1001411880014
:105030000168a9000188a9002168a8002188a800aa
:10504000807c210006000700608921000400070021
:1050500021e2a8002342a8000080fa000000060018
:105060000200fa00000f7800e20c20008000eb0044
:105070001e00780049ef07000080fa0000000600db
:105080000400fa00000f7800214798001e02780003
:10509000e4a29000740c2000848f520015003c00a4
:1050a0001e02780044a290009e0278000482420012
:1050b000ae429000054a78001e02780044a290009b
:1050c000810c2000040078006100070000027800d5
:1050d000840278001e02780045a298001e02780023
:1050e00064a290008402e8001e02780065a2980085
:1050f000180037001e02780044a290009e0278003b
:1051000004824200ae429000054a78001e027800f8
:1051100044a29000810c2000040078004c0007009d
:1051200000027800840278001e02780045a29800f0
:105130001e02780054a29000810c20000400780028
:105140004300070000027800840278001e02780005
:1051500055a298000080fa00000006000400fa0042
:10516000100798001e02900064a29000e00f520009
:10517000140034001e02900054a290009e02900081
:1051800004824200144f78001e02900054a2900046
:10519000810c2000040078002d0007000002780038
:1051a000840278001e02900055a298001e02900012
:1051b00064a290008402e9001e02900065a298009b
:1051c000020037000042eb00044f78001e427800d6
:1051d000044078000080fa00000006000400fa0095
:1051e000000f7800110798001e0278008002eb0083
:1051f00065a298001e0278008002eb0045a298008c
:105200001e0278008002eb0055a298001e0290005a
:10521000e00f5200050032001e027800820c2000d0
:105220008000eb0004007800dcee07000080fa004c
:10523000000006000200fa00000f78001e0278004d
:1052400064a29000040078000080fa0000000600cc
:105250000600fa0010079800210798001e0290002f
:10526000040fe8002e0290009e027800848f520006
:10527000020039000002eb00040f78001e027800e3
:10528000040078000080fa00000006000200fa0026
:10529000000f78001e02780054a290009e02780051
:1052a0000482420014427800044078000080fa0032
:1052b000000006000000fa00807c2100f3ff0700d8
:1052c00000427800044078000080fa0000000600e8
:1052d0000000fa00807c2100d6ff07000002780061
:1052e000040078000080fa00000006000000fa00c8
:1052f000807c210099ff070000427800044078007c
:105300000080fa00000006000200fa00004f78005a
:105310009e4078006089210059ff070024e82100a1
:1053200014427800e04f5200090032000042eb00c6
:105330000443780025e82100864a7800608921002e
:1053400086ff0700004278000482fb0024118800d9
:105350000080fa00000006003600f800809fbe00c2
:10536000829fbe00849fbe00869fbe000200fa009e
:105370001411800062026200e00f5200010032004e
:105380002222a90034118000044f78009e4078004a
:10539000807c21003aff07000168a9000080fa0024
:1053a0004f03be004f02be004f01be004f00be00c3
:1053b0003600f900004006003600f800809fbe006d
:1053c000829fbe00849fbe00869fbe000000fa0040
:1053d0000002eb0034f288006089210095ff07008d
:1053e00000027800e00f52000600340060892100be
:1053f0005aff0700004278000482fb002411880055
:105400000400370014c0b3000443780025e82100ed
:10541000864a78000188a9000080fa004f03be0088
:105420004f02be004f01be004f00be003600f90023
:10543000004006000000fa003002a900841180003c
:105440000410a1000420a1008411880030a2a9004a
:1054500094032000c4118800941180000460a0000f
:105460000470a10094118800941180000460a100d0
:105470000470a1009411880003c8a90003e8a900e2
:1054800023c8a80023e8a8004096210006000700d2
:1054900020a321000400070031e2a8003342a80045
:1054a0000080fa00000006000200fa00000f7800f9
:1054b000e20c20008000eb001e00780037ee0700b1
:1054c0000080fa00000006000400fa00000f7800d7
:1054d000214798001e027800e4a29000740c20007e
:1054e000848f520015003c001e02780044a29000f8
:1054f0009e02780004824200ae429000054a780085
:105500001e02780044a29000810c20000400780064
:105510006100070000027800840278001e02780013
:1055200045a298001e02780064a290008402e80060
:105530001e02780065a29800180037001e0278004d
:1055400044a290009e02780004824200ae42900085
:10555000054a78001e02780044a29000810c2000c9
:10556000040078004c0007000002780084027800f4
:105570001e02780045a298001e02780054a29000f6
:10558000810c20000400780043000700000278002e
:10559000840278001e02780055a298000080fa006c
:1055a000000006000400fa00100798001e02900098
:1055b00064a29000e00f5200140034001e0290001c
:1055c00054a290009e02900004824200144f780082
:1055d0001e02900054a29000810c2000040078006c
:1055e0002d00070000027800840278001e0290005f
:1055f00055a298001e02900064a290008402e90067
:105600001e02900065a29800020037000042eb00e5
:10561000044f78001e427800044078000080fa00b1
:10562000000006000400fa00000f7800110798003f
:105630001e0278008002eb0065a298001e0278002e
:105640008002eb0045a298001e0278008002eb0069
:1056500055a298001e029000e00f52000500320093
:105660001e027800820c20008000eb00040078000d
:10567000caed07000080fa00000006000200fa00f0
:10568000000f78001e02780064a2900004007800e9
:105690000080fa00000006000600fa0010079800db
:1056a000210798001e029000040fe8002e029000cf
:1056b0009e027800848f5200020039000002eb0045
:1056c000040f78001e027800040078000080fa00c1
:1056d000000006000200fa00000f78001e027800a9
:1056e00054a290009e027800048242001442780086
:1056f000044078000080fa00000006000000fa0074
:1057000040962100f3ff0700004278000440780033
:105710000080fa00000006000000fa004096210018
:10572000d6ff070000027800040078000080fa002d
:10573000000006000000fa004096210099ff0700d3
:1057400000427800044078000080fa000000060063
:105750000200fa00004f78009e40780020a321004c
:1057600059ff070044e8210014427800e04f52003e
:10577000090032000042eb000443780045e82100b4
:10578000864a780020a3210086ff070000427800a7
:105790000482fb00a41188000080fa0000000600cb
:1057a0003600f800809fbe00829fbe00849fbe002e
:1057b000869fbe000200fa0094118000620262001f
:1057c000e00f5200010032003222a900b411800023
:1057d000044f78009e407800409621003aff070071
:1057e00003c8a9000080fa004f03be004f02be00ac
:1057f0004f01be004f00be003600f9000040060019
:105800003600f800809fbe00829fbe00849fbe00cd
:10581000869fbe000000fa000002eb0044f2880000
:1058200020a3210095ff070000027800e00f52003e
:105830000600340020a321005aff07000042780030
:105840000482fb00a41188000400370014c0b300d8
:105850000443780045e82100864a780003e8a9005f
:105860000080fa004f03be004f02be004f01be0091
:105870004f00be003600f900004006000000fa00ac
:105880005002a900841280000410a1000420a1008d
:105890008412880050a2a90024012000c4128800ac
:1058a000941280000460a0000470a100941288008b
:1058b000941280000460a1000470a100941288007a
:1058c0000a48a9000a68a9002a48a8002a68a8006e
:1058d00000b0210006000700e0bc21000400070022
:1058e00051e2a8005342a8000080fa000000060020
:1058f0000200fa00000f7800e20c20008000eb00ac
:105900001e00780025ed07000080fa000000060068
:105910000400fa00000f7800214798001e0278006a
:10592000e4a29000740c2000848f520015003c000b
:105930001e02780044a290009e0278000482420079
:10594000ae429000054a78001e02780044a2900002
:10595000810c20000400780061000700000278003c
:10596000840278001e02780045a298001e0278008a
:1059700064a290008402e8001e02780065a29800ec
:10598000180037001e02780044a290009e027800a2
:1059900004824200ae429000054a78001e02780060
:1059a00044a29000810c2000040078004c00070005
:1059b00000027800840278001e02780045a2980058
:1059c0001e02780054a29000810c20000400780090
:1059d0004300070000027800840278001e0278006d
:1059e00055a298000080fa00000006000400fa00aa
:1059f000100798001e02900064a29000e00f520071
:105a0000140034001e02900054a290009e029000e8
:105a100004824200144f78001e02900054a29000ad
:105a2000810c2000040078002d000700000278009f
:105a3000840278001e02900055a298001e02900079
:105a400064a290008402e9001e02900065a2980002
:105a5000020037000042eb00044f78001e4278003d
:105a6000044078000080fa00000006000400fa00fc
:105a7000000f7800110798001e0278008002eb00ea
:105a800065a298001e0278008002eb0045a29800f3
:105a90001e0278008002eb0055a298001e029000c2
:105aa000e00f5200050032001e027800820c200038
:105ab0008000eb0004007800b8ec07000080fa00da
:105ac000000006000200fa00000f78001e027800b5
:105ad00064a29000040078000080fa000000060034
:105ae0000600fa0010079800210798001e02900097
:105af000040fe8002e0290009e027800848f52006e
:105b0000020039000002eb00040f78001e0278004a
:105b1000040078000080fa00000006000200fa008d
:105b2000000f78001e02780054a290009e027800b8
:105b30000482420014427800044078000080fa0099
:105b4000000006000000fa0000b02100f3ff07008b
:105b500000427800044078000080fa00000006004f
:105b60000000fa0000b02100d6ff07000002780014
:105b7000040078000080fa00000006000000fa002f
:105b800000b0210099ff070000427800044078002f
:105b90000080fa00000006000200fa00004f7800c2
:105ba0009e407800e0bc210059ff070064e8210016
:105bb00014427800e04f5200090032000042eb002e
:105bc0000443780065e82100864a7800e0bc2100a3
:105bd00086ff0700004278000482fb00a4128800c0
:105be0000080fa00000006003600f800809fbe002a
:105bf000829fbe00849fbe00869fbe000200fa0006
:105c00009412800062026200e00f52000100320034
:105c10005222a900b4128000044f78009e40780000
:105c200000b021003aff07000a48a9000080fa00ee
:105c30004f03be004f02be004f01be004f00be002a
