:020000040000fa
:080000000002040000000000f2
:020000040000fa
:100008001203000012030000120300001203000094
:100018001203000012030000120300001203000084
:10002800120300001203000012030000b44f000086
:1000380012030000120300001203000030500000f9
:10004800120300001203000012030000883e0000a3
:10005800b83e000012030000120300001203000063
:100068001203000012030000120300001203000034
:100078001203000012030000120300001203000024
:100088001203000012030000120300001203000014
:100098001203000012030000ac400000dc40000026
:1000a80012030000120300001203000012030000f4
:1000b80012030000120300001203000012030000e4
:1000c80012030000120300001203000012030000d4
:1000d80012030000120300001203000012030000c4
:1000e80012030000120300001203000012030000b4
:1000f80012030000120300001203000012030000a4
:100108001203000012030000120300001203000093
:100118001203000012030000120300001203000083
:100128001203000012030000120300001203000073
:100138001203000012030000120300001203000063
:100148001203000012030000120300001203000053
:100158001203000012030000120300001203000043
:100168001203000012030000d04200000043000008
:100178001203000012030000120300001203000023
:10018800f0440000204500001203000012030000a4
:100198001203000012030000120300001203000003
:1001a80012030000120300001203000012030000f3
:1001b80012030000120300001203000012030000e3
:1001c80012030000120300001203000012030000d3
:1001d80012030000120300001203000012030000c3
:1001e80012030000120300001203000012030000b3
:1001f80012030000120300001203000012030000a3
:100208001203000012030000120300001203000092
:100218001203000012030000120300001203000082
:100228001203000012030000120300001203000072
:100238001203000012030000120300001203000062
:100248001203000012030000120300001203000052
:100258001203000012030000120300001203000042
:100268001203000012030000120300001203000032
:0c0278001203000012030000120300003b
:020000040000fa
:100400008f0922000eff28000e0188000000000066
:10041000000020000000e000020032000001200087
:10042000200288000c0007006075240001002000f5
:100430000f000700000020000000e0000200320072
:1004400000000200000000007c51020000000000db
:100450000040da000000fe00c01b20000000e000a9
:1004600002003200002020009001880000000600f9
:10047000a1028800800078000000eb001a0037001d
:10048000e280400054a0b4009101ba00e280400034
:1004900054a0b4009102ba00e280400054a0b4001d
:1004a0000002eb00472bde00f507b200a601880032
:1004b000602ce10008003a000049eb000201e8006e
:1004c000020039003420ec0002f0a0008301e900b2
:1004d000f9ff3e00040037006128e100010032000e
:1004e0000082eb00040007001101ba000200e000e6
:1004f000e3ff3a000000060004d0a300e20f490029
:100500001c003900810278003549ba000201e80078
:10051000020039003420ec0002f0a0008301e90061
:100520000f0032002549ba000201e800020039003c
:100530003420ec0002f0a0008301e9000800320042
:100540000400e0000600320015c9ba000201e8000c
:10055000020039003420ec0002f0a0008301e90021
:100560008180e80054a0b4000300e000e2ff3a00fc
:10057000000006009102ba00055978008301e900e5
:10058000f7ff3200c82ade00055978008301e90030
:10059000f3ff32000400e000f1ff320011d9ba008d
:1005a000eeff3700363e040000000000443e040029
:1005b00000000000523e040000000000603e040005
:1005c000000000005a4004000000000068400400e1
:1005d0000000000076400400000000008440040099
:1005e000000000007e420400000000008c42040075
:1005f000000000009a42040000000000a84204002d
:10060000000000009e44040000000000ac44040010
:1006100000000000ba44040000000000c8440400c8
:10062000000000000040da000000fe000000fa00b8
:10063000889fbe0080047800b0fc8000e00f50006e
:1006400004003a000f0007000084eb00e00f5000a8
:1006500008003500b8fc8000e08f5400050032002f
:100660000900440007000700e00f500001003d00b2
:100670000084eb00080078004f04be000080fa0000
:10068000000006000000fa00e00f500004003a00ed
:1006900084f92100b4fc88000002780006003700cd
:1006a0000082eb0085092200850f500002003e0009
:1006b000b0fc88000002eb00040078000080fa0023
:1006c0000000060003f0a200889fbe008a9fbe00c3
:1006d0008c1f7800fa000700010133006450e1002c
:1006e0004f0032006420e1005200320003826c00af
:1006f00007003b000905d0000306d000820f54001c
:100700000c065d0002003900020032008901780009
:10071000030678008582550004003d000003fd00bb
:100720008103fd008502ea008b854200840f720080
:1007300002003b0060001000e08018006011b8006b
:100740000005eb007a28e1000a0039000600780075
:10075000c75ddd00f707b200878075002d00370008
:10076000828171000a017800610560008180d100fa
:100770000080d3008502e900f9ff3b000604400039
:100780008784480002003b0060041400e0841c00e1
:100790000988a300070032008a81710082817100fc
:1007a000610164008904d1000884d3008b05e8004e
:1007b000170037000978a30013003a000b00e0008f
:1007c000130034008b05e9000804440089844c00c0
:1007d0000a4474000978a3000d003a000b00e00001
:1007e000070034008b05e9000804440089844c00ac
:1007f00001003a000b0020000978a300f7ff320047
:100800000001eb0002003700828171000a017800cc
:10081000700007000cf0a70001f0a000b90037003d
:100820006420e10002003a00838f6c00b9003300bd
:100830000801be000200be00b2003700889fbe0063
:100840008a9fbe008c1f78009d000700a400330023
:1008500003866c006450e1002e0032006420e10049
:10086000330032006150e1002f0032006120e100ce
:100870003100320085855500eb07b00009002000eb
:1008800008042000050037000804440089844c0057
:100890000a0031000603430087834b000001530028
:1008a00081815b00f8ff33000203be000800a00056
:1008b0000804440089844c00f6ff3900c639dd0085
:1008c0008301730001003200130020008904d1006d
:1008d0000884d3000998a300050032000800a7008f
:1008e0000300a0008904d1000884d3008b05e80030
:1008f0008904d1000884d3000001eb000281d200fa
:100900003400070001f0a1000cf0a70001f0a000e6
:100910007c0037006420e1007e0032000801be0048
:100920000200be00f7ff37006120e10079003200cd
:100930006000b800f3ff37000000200001f8270036
:10094000f0ff370014002000a9003700f4ff2f004b
:10095000a70037000001be00440007000470a70094
:1009600003f0a10003f8a30013003a006509b100e9
:1009700010003200090035006928e100020035004e
:1009800001002800000005000000400081804800b0
:100990008502e900fcff3a0000000600f88f4200e3
:1009a000050035008100d1000080d3008502e800f9
:1009b000fcff3a00000006008000eb00000005008c
:1009c0004f89de0082017800a40037006011b80072
:1009d000b200370081002000618055000b003d000f
:1009e0000b00200061fe2f000100e1001d0034001b
:1009f00082817100610164008904d1000884d30000
:100a00000000e800faff3a00710020006100640075
:100a1000030070000200600009003200610444001d
:100a2000e0844c000988a500050032008b05e80031
:100a30006808e10002003a008904d1000884d3006c
:100a4000f20f20000258e10005003d00c75ddd0007
:100a5000f907b200898075000800780000000600e0
:100a60000bf827008b00780000000500c70ade00a5
:100a7000f107b200f50fb20008003200e1cf4200ea
:100a8000020032000170a00024000500810f7000f8
:100a9000010032000408050044000500810f7000c9
:100aa00002003a00140005008502e9000000400041
:100ab00081c04800fcff3b000170a000240005003d
:100ac0000004be00e9ff07000003be000405be00ed
:100ad0000200be00e5ff0700844f7500000006001d
:100ae0000200be006450e100050036006420e10011
:100af000020036000968a30001003a000800be00a9
:100b00000160a0004f0678004f05be004f04be00f4
:100b100000000600f0ff2f00f1ff2700f9ff37006b
:100b2000889fbe008a9fbe008c1f7800e4ff0700ec
:100b3000ebff330003866c006450e10024003200b8
:100b40006420e100270032006150e1002200320001
:100b50006120e100210032008b854200eb07b100eb
:100b60000134b800003ab8000804420089844a0001
:100b7000013ab8000030b8008880400009014a00fe
:100b80000400330000004000818048000201490059
:100b90008b05e900c909dd00830170000100320006
:100ba00013002000c814de004814dd004709de00f1
:100bb0001200b200c808de000884700085ff07003c
:100bc00001f0a1000cf0a70001f0a000cdff37005c
:100bd0006120e100cfff32000801be000200be002c
:100be000f7ff37006150e100fcff3a00c9ff370012
:100bf000889fbe008a9fbe00841f7800b0ff070058
:100c00004f00780011003300f0ff2f00838f6c003d
:100c100006003b00040565000a00a7000800370035
:100c200009f0a6001000200008003700820f5400d1
:100c3000838f5c00030039001000200001003e009b
:100c40000000200009f0a7000000ea004f05be00e8
:100c50004f04be000000e00000000600881f78007e
:100c6000030478000300e00007003d00600010006e
:100c7000e080180060011900e081190002003b00cb
:100c800001f02d00030037000400070008f0a70062
:100c900001f0a0004f04780000000600889fbe000d
:100ca0008a9fbe00008270000402710004827100fd
:100cb000260032000004be000200be006011b80031
:100cc0006b092000950220000182cf000a00390044
:100cd0000541b1000082cf00070039000541b10095
:100ce0000982cf00040039000541b1000882cf001d
:100cf000010039000541b1000542520012003200e6
:100d00000a003b0082817100610164008100d10012
:100d10000080d3008984d3000884d3008b05e800c9
:100d20000442e800f7ff3a000700370008044400d7
:100d300089844c0000004800818048008b05e90050
:100d40000442e900f9ff3a0022ff07004f05be0008
:100d50004f04be0000000600c4f721000400fa00a2
:100d6000e5fb8000889fbe008a9fbe008c9fbe006e
:100d7000e08f52000b003a0024029800e402420087
:100d800054fc8800e5fb880065fc8800a4429000c4
:100d90000504a00025429800e44290000504a0004c
:100da000654298006704400084f921002500200076
:100db0004244de00890922004244dd00848454005c
:100dc000bc092200110009008504d8000406560061
:100dd0008502440052fc800085824200000f7800aa
:100de000150798000003eb00e405440008064600e0
:100df00002003700160020000d017800224290000a
:100e000061026200020032000a0037001509780012
:100e1000920278002542900061026200fbff3200de
:100e200008024100848f520002003900e00f540094
:100e30003e003d00920678000d00a100828f560012
:100e4000edff3e00e10f5300eaff3a001e0278007a
:100e5000840f540002003600890f54000f0039003f
:100e6000614ab900b0ff2f00010020006143b800c3
:100e70000402500085825800840f5300858f5b0068
:100e8000020035000b05780005003700110009004d
:100e90000986d8008985b900010037001e05900039
:100ea0000a007800e1fd0700e10f400005003a006c
:100eb0000b0578000b007800dcfd0700e10f400017
:100ec0002b00320064fc8000000a780064fc800083
:100ed00064034200a4429000860f500002003200da
:100ee0000504a000010037000504a1002542980078
:100ef00064055500c4f721000a0540000a0878007f
:100f00006afc8800040d780065fc80000003eb009b
:100f1000254290000404a000a442980020429000c2
:100f20000404a10024409800b3ff370054fc88005b
:100f3000848f5200070036001403be008042eb008d
:100f400026fc880037fc8800120a780054fc8000d8
:100f5000254298002242900057fc80000404a00023
:100f6000070978002441980064004100010037001f
:100f70000000eb004f06be004f05be004f04be0050
:100f80000080fa00000006000000fa00e00f5000a8
:100f9000080032006400500054fc8000840f5000b0
:100fa0000100310050fc8800204290000404a100a0
:100fb000244098000080fa00000006000000fa00bb
:100fc000889fbe00000478008a9fbe0081047800dc
:100fd000e08f540005003a00e00f54003200320068
:100fe00008007800e8ff070030003700e00f5400e9
:100ff00004003a000900780057ff070080047800d9
:101000002a003700640254009405780068fa9700bb
:10101000610262000200320008007800daff070077
:10102000090078004cff070080047800e08f54002e
:101030001e003200888f54001b00320069bd9700eb
:101040008885550009055500c2ddde0042d5de0069
:101050000a0178008b0f5500010036000b01780063
:101060004211dd00880078000900780014000700b4
:10107000888f54000d0031004255dd000a85440080
:10108000880f5500090036000804550024fc800034
:1010900035fc800042c4de004244dd000884440088
:1010a000048cbe0001003700880478004f05be00a4
:1010b000090078004f04be000080fa00000006001e
:1010c0000000fa000002780002003700315a780070
:1010d0000201e900e00f5100fcff3a000080fa0035
:1010e000000006000000fa0000027800020037004d
:1010f000015a78000201e900e00f5100fcff3a00bc
:101100000080fa00000006000000fa00889fbe0080
:101110000004be00050037000000fb0089007800d5
:101120001c000700e10f4000040032003840780046
:10113000e04f5000f8ff3a000000eb004f04be0003
:101140000080fa000000060041f621000000fa00cd
:10115000881f7800ecff070041f6210000047800aa
:10116000a00020000b000700080078004f04780062
:101170000080fa000000060040f621000000fa009e
:1011800068015700ceb89700480007000080fa00b9
:10119000000006000000fa00889fbe0001047800ed
:1011a0008084eb0038029000e20262003b003200d3
:1011b00004037800980290000620b20002003a0072
:1011c000e08f520035003a000490a00080047800bf
:1011d00034049800f90fb200e08f520002003a0088
:1011e000a8029000050c7800ea8f540005003a0030
:1011f0000408b20003003a0088007800d000200004
:10120000e4ff070018029000d8029000850f5200fa
:101210000b0032000402e80015c0b300140498006b
:1012200018027800094a7800040ce80004f921004b
:10123000054a7800ea8f540018003a00050037008c
:101240000940780088007800a00307008004780037
:1012500012003700380290000410b2000f00320074
:1012600018019000a800900048009000591807004d
:1012700018029000840f50000400320038029000e1
:101280000403b300340498008084eb000002eb00f8
:101290001404980028029000040c780009007800db
:1012a0004f04be000080fa00000006003a00fa0079
:1012b000889fbe00011798008a9fbe0042179800c1
:1012c0008c9fbe00800678000000eb00601798003d
:1012d000730337008e10900054c2b3008100e80001
:1012e00001179800844f500006003a000102780070
:1012f0000006eb0001c3b30000c2b300b7c2b300e5
:10130000100037003d0290000404b20004003200d7
:101310001d027800004a7800840ee80005003700be
:101320000000fb008d0078009aff0700e10f4000ed
:101330005b0332006e1190000201e8006217980012
:101340005703370084027800d3c2b30034437800d7
:10135000834f53000900320005003c00804f5300ca
:1013600008003200874f53000c003a000700370096
:10137000814f530009003a00060037000c30a000ee
:10138000f0ff37000c00a000eeff37000c10a000ab
:10139000ecff37000c20a000eaff37006202660075
:1013a000010032000c00a10068026600010032005a
:1013b0000c20a1000602fb000403b100e90f52005b
:1013c0000c003e00050378000002eb00b602fb00b3
:1013d000ea22b9000503b1009603fb000482420033
:1013e0000703b10086027800e98f5300f7ff36004b
:1013f000080037000002eb00a7c2b300874f53007c
:1014000004003a004e1390008502e800460278007e
:10141000461798008003eb00e6c2b3005717980008
:10142000954f13000c003a000ce0a00064435300f9
:10143000d54f130003003200050378000700780041
:10144000090037004e1490008502e800c8047800b7
:1014500048179800591798000503780009003700cd
:10146000ea00b9000080430086027800b603fb0062
:101470000703b100e98f5300f9ff360050179800b9
:10148000f5ff3700b6427800cbc6b30006179800c8
:101490008bcf5200250032000f003c0036c6b3004f
:1014a00086cf5200a400320004003c00e0cf52007e
:1014b000000332006b4353000f00370046c6b300f1
:1014c00086cf5200170032006543430086cf52009a
:1014d000b7003a001300370036c7b30086cf52007a
:1014e0001f00320007003c006443530086cf5200c7
:1014f000140032000643e80086cf5200ac003a00e8
:101500001300370056c7b30086cf5200ad0032003b
:101510006343430086cf5200a5003a00054f780090
:101520000d003700054f7800a8003700f003660073
:101530000501200001003200050028000c86720021
:10154000d0ff3700054f78000c60a0009f003700e7
:10155000054f78000c50a0000c70a0009b003700d5
:101560004e109000054f7800c00278004017980098
:1015700075179800e08f520002003a0002f5210032
:10158000721798007e1390008002eb000100370074
:101590008502e800850343008041eb0097cf1100ee
:1015a000fbff3a00051f9800de129000e08f52000a
:1015b000050032000e1b9000868f520002003100a1
:1015c00085037800071f98008e1a90000004eb0036
:1015d000850f5200010036000504520068066600bf
:1015e00009c2b300110032002d0037003d02900007
:1015f0000404b200040032001d027800094a780099
:10160000840ee800050037008d00780000022000fd
:10161000e0fe0700e10f4000030032006e1590006d
:101620000a05e8006a1798000804e900e00f540072
:10163000eeff3a000084eb0019003700bd02900075
:101640000504b20009003200880278009d0378008a
:1016500035437800864b780005047800870ee80053
:10166000e04f53000a003a00130037008802780068
:101670008d0078003500fb00441f980005047800b9
:10168000c4fe07004e1a9000e10f40000a0032002d
:101690006e1090000000e800601798000600370008
:1016a0000c027800080678007e1490008e1c9000d2
:1016b0001e1d9000ae1d9000890278008504e9008f
:1016c000e08f5200ddff3a0078179800091f98005c
:1016d0001a1f98002b1f98000c047800040678004d
:1016e000e00f56006e02320009c2b3006e16900081
:1016f0000e0037003d0290000404b20004003200e6
:101700001d027800094a7800840ee80005003700c1
:101710008d007800000220009efe0700e10f4000cf
:10172000010032000c06e8000804e900e00f540054
:10173000f0ff3a0059023700ce10900070036600a7
:101740004104780041179800cfc4de0009057800f5
:101750008a0578000800be000a01be004800de00cd
:10176000c80add0000807200004f7800e00f5300cf
:1017700009003200e04f500007003200e14f400006
:1017800005003200260020001047980028479800e6
:10179000061f98000300370017002000071f98005d
:1017a000184798000e04e800781798007eff37006d
:1017b0001a002000054f78007e1798000a1f980035
:1017c00079ff3700054f78000c0cb3008c027800cd
:1017d000050cb2003b003a00e00f560005003d004a
:1017e000ce1290004501be004500be00451798008e
:1017f0000f003700f0026600120032004e14900015
:101800004803be00460798005707980048179800fd
:1018100098029000cfaade0065079800750798002f
:101820004e009000de0090006e019000fe019000de
:1018300070179800011f9800121f9800231f98002e
:101840000b003700ce109000c1027800050478002c
:10185000cfc4de00090578008a057800411798009a
:1018600078179800091f98001a1f98002b1f9800de
:101870007e1090008e1890001e199000ae199000f6
:10188000e00f5000e08f5800e00f5900e08f590042
:1018900032003d006000b8006011b8007e14900076
:1018a0008e1c90001e1d9000ae1d90003c00b300e9
:1018b00008045000898458000a0559008b85590096
:1018c00022003700e00f560005003d00ce129000c8
:1018d0004501be004500be00451798000f003700c7
:1018e000f0026600120032004e1490008004eb00fb
:1018f0004803be000005eb00460f9800570f980004
:10190000690f98007a0f98004e089000de0890004a
:101910006e099000fe099000481798007017980013
:10192000011f9800121f9800231f98000b0037001a
:10193000ce109000c102780041179800050478008d
:10194000090020000a0020000b00200078179800f2
:10195000091f98001a1f98002b1f9800de14900092
:10196000e08f54000d003a001a0020007e10900015
:101970008e1890001e199000ae1990005a1798000a
:10198000e00f5000e08f5800e00f5900e08f590041
:10199000020032008000eb00511798000c01780023
:1019a00005042000020cb20032179800850f510088
:1019b0003400320003003c00e00f51000800320008
:1019c0004800370005082000be119000858f5100a7
:1019d00014003200050c2000858f510041003a00b0
:1019e00066e9210015c0b3003600be003601be0016
:1019f0007e1490008e1c90001e1d9000ae1d900065
:101a00000040e10001c8e10002d0e10003d8e1009c
:101a1000330039008542e800f4cf5200f2ff3a006b
:101a20002f00370015c0b300000120000100200086
:101a30006011b8007e1490008e1c90001e1d900056
:101a4000ae1d90000040e10001c8e10002d0e100bd
:101a500003d8e10022003900490020000000d00036
:101a60008180d2000281d2008381d2008904e90002
:101a7000faff3a008542e800f0cf5200edff3a004d
:101a80001700370015c0b3008000200001002000bf
:101a90006011b8007e1490008e1c90001e1d9000f6
:101aa000ae1d90000040e10001c8e10002d0e1005d
:101ab00003d8e1000a003900390020000000d000fe
:101ac0008180d2000281d2008381d2008904e900a2
:101ad000faff3a008542e800f5cf5200edff3a00e8
:101ae000054f78009e02fb005e1590008a8f520021
:101af00002003d000a4f780004003700de15900018
:101b0000858f550001003d0055179800e00f5200e9
:101b100003003200e3026600010032000402e90023
:101b20000500240085026600060032005e10900069
:101b3000800f520002003400000252000100370002
:101b40000002eb008000eb009e02fb0021179800d2
:101b5000850f5200020034008502520025179800bc
:101b60006402660045003200e2026600610266001f
:101b7000e08f520017003200bd0290000504b20051
:101b8000080032009d027800b6c2b300e00f520098
:101b90000100320006c3e800864a7800850ee8009e
:101ba00008003700b0022000e00f520001003200b0
:101bb0000080e8008d00780076fd0700e10f40000e
:101bc000160032006e1190000201e80062179800c2
:101bd00012003700e00f5200100032003d0290006a
:101be0000404b200050032001d02780005c2b300f3
:101bf000054a7800840ee800050037008d00780063
:101c00000002200063fd0700e10f400003003200e6
:101c1000ee1190008301e800631798002e129000e7
:101c2000e00f52005b00320008c3b3008404780068
:101c30003d0290000404b200040032001d0278004e
:101c4000084a7800840ee800050037008d0078000f
:101c5000000320004ffd0700e10f400003003200a9
:101c6000ee1290008502e800651798008904e900eb
:101c7000efff3a0029179800460037002e13900016
:101c8000e00f5300160032006802660014003a00ac
:101c900008c2b300860478003d0290000404b2003c
:101ca000040032001d027800084a7800840ee80023
:101cb000050037008d0078000002200035fd070088
:101cc000e10f400003003200ee1390008703e800ac
:101cd000671798008904e900efff3a002917980078
:101ce000e202660061026600e08f520017003200d7
:101cf000bd0290000504b200080032009d02780089
:101d0000b6c2b300e00f52000100320006c3e80083
:101d1000864a7800850ee80008003700b0022000ef
:101d2000e00f5200010032000080e8008d007800d2
:101d300018fd0700e10f4000160032006e149000fd
:101d40000804e8006817980012003700e00f5200fe
:101d5000100032003d0290000404b2000500320081
:101d60001d02780005c2b300054a7800840ee80021
:101d7000050037008d0078000002200005fd0700f7
:101d8000e10f400003003200ee1490008904e800e7
:101d9000691798005e159000e4e821008a02e900c6
:101da000f0056600c32add000c00780004824200c2
:101db0000002b200141798003b0798002007980013
:101dc0009c003700de1090003e1190008100e90079
:101dd0000304200051179800830f51006f00320058
:101de00003003c00e00f5100080032007c00370087
:101df00004082000be129000848f5200510032006f
:101e0000040c2000848f520075003a00e00f560049
:101e10001b003d001e1390007e1090008e18900055
:101e20001e199000ae1990003604be002605be00b3
:101e30000802be000a03be00990107000802be00a6
:101e40000a03be00004f78000000fb00cf80de00d8
:101e50000101780082017800020207007e149000e0
:101e60008e1c90001e1d9000ae1d900000045400ba
:101e700081845c0002055d0083855d0020003700e1
:101e8000be049000e08f5400220032001e1090002b
:101e90007e1290008e1a90003004be002005be0015
:101ea000441f98000400be000801be00351f9800c2
:101eb000c60007000801be00004f78000000fb00cc
:101ec000cf80de00d10007004e1a9000be1a9000ad
:101ed0000001520081815a000002eb00020f9800bd
:101ee000130f9800340f98008001eb00230f980027
:101ef0000e0c90009e0c90002e0d9000be0d9000d8
:101f000078179800091f98001a1f98002b1f980037
:101f1000090037009e1490007e1590001902780089
:101f2000110009000485d800a40020001100090058
:101f30000480d800014f78000bc3b3001ecf4500ca
:101f400027003700f4f321002e009000e00f50002e
:101f500001003200e4f22100de109000c20add0030
:101f60007e1090008e1890001e199000ae199000ff
:101f70008502e900050033008301d1000281d3000e
:101f80008180d3000080d300f9ff3700ef026000aa
:101f900005024200144f7800110037005e119000d6
:101fa0007e1490008e1c90001e1d9000ae1d9000af
:101fb000e312b90001c3b300040078000000e90097
:101fc000050033008b05d1000a85d3008984d30036
:101fd0000884d300f9ff370067426400014f4200d4
:101fe0003d0290000404b200070032009d02780018
:101ff0001e427800844a7800850ee800e04f5200c7
:1020000006003a00080037001e00fb008d00780033
:1020100060fc0700e10f4000030032006e119000e9
:102020000201e800621798009e119000e8815100bb
:10203000131798005e129000e00f520061ff3a0003
:102040006806660016003200ae129000e08f520063
:10205000130034006e16900008c2b30085047800a7
:102060003d0290000404b200040032001d0278001a
:10207000084a7800840ee800050037008d007800db
:102080000002200043fc0700e10f40000100320085
:102090000c06e8008904e900f1ff3a006c1798008b
:1020a0000e13900016407800004f7800e04f50006b
:1020b00088fc3a004f06be006e1090004f05be002f
:1020c0004f04be000080fa00000006000200fa0083
:1020d000889fbe0001047800004f7800380290000d
:1020e000840278000504b200020032000000fb0008
:1020f00033003700e202620005003a000403b30037
:1021000015049800340498000080eb002c00370080
:10211000d8049000e08f540006003a00120020001e
:102120008e00780048009000aa1407001904980057
:1021300022003700a8029000e08f520008003a0009
:1021400045f921000430a00025049800050c780012
:1021500034049800250020005504980015049800c8
:1021600018019000a8009000480090009914070002
:10217000280290008082eb00150498001e4a780027
:10218000040ce800a4c0b3009e4f12000b003a00fc
:10219000380290000410b2000800320018019000cc
:1021a000a8009000480090008a1407000002eb008d
:1021b0001404980028029000040c78001e00fb0014
:1021c0004f04be000080fa00000006006022b80044
:1021d000060220000000d0008180d2000482d200dc
:1021e0008582d2000000a0000202520083825a00c1
:1021f000030031000202420083824a000000a10075
:102200000603e900f3ff3a0000000600020ab900e5
:10221000001bb9000200b8008100420081004300a9
:10222000000006000000fa00889fbe008a9fbe00e2
:102230003004be002005be000404440085844c0028
:1022400006054d0087854d000898be000a90be0027
:102250000440e10005c8e10006d0e10007d8e10034
:1022600002003100680040001008e8004f05be0081
:102270004f04be000080fa00000006001000fa00c3
:10228000889fbe008a9fbe000605be000404be00f3
:102290003002be002003be00049fbe000697be00b1
:1022a000110020000802520089825a000a035b00d4
:1022b0008b835b00440798005507980066079800d9
:1022c000770798000498be000698be003e02be0044
:1022d0002e03be000820e10009a8e1000ab0e100d9
:1022e0000bb8e100010039008000eb004f05be0093
:1022f000108810004f04be000080fa0000000600a5
:102300001400fa00889fbe005b0007008a9fbe0091
:102310008c9fbe000006eb004c0798003c0798001d
:102320002c0798001c0798000c0f78000605be00cb
:102330000404be000d0420004e039000be02900075
:10234000860343002e029000e00f530003003d007f
:102350002a000700b3ff070002003700270007002c
:10236000c6ff0700ce029000150f9800e08f5200c4
:10237000090035004500070014002000050020007a
:102380006033b800000072008180720002017300a7
:1023900083817300380007000c06e8008d0f56009b
:1023a000e5ff3a001e0a9000e00f520004003d00d5
:1023b0000802be000a03be000e00780099ff070065
:1023c0004eba9700e00f520006003a003e04be00ed
:1023d0002e05be0058079800690798007a079800f4
:1023e0000b0f98004f06be00280007004f05be00e7
:1023f0004f04be000080fa00000006004f2bde00f4
:102400002200070086837300858242004f23de008e
:102410004707980086827200040242003507980040
:102420009e0290004f2bde00858242000602720061
:10243000240798001e0278004f23de0004024200a9
:1024400086827200150798004f18de00000f720098
:102450000e0007000802be000a03be000000400094
:102460008180480002014900838149000200070081
:102470000e007800000006005007980061079800e1
:1024800072079800030f9800000006005e0090009d
:10249000ee0090007e0190008e0990000000060082
:1024a0000000fa00881f780018002000881f7800bc
:1024b00093ff07008f87e9004f0478000080fa003f
:1024c000000006000000fa00801feb008cff0700f0
:1024d0008f87e9000080fa00000006000000fa0083
:1024e000889fbe008a9fbe00e00f5000e08f58001a
:1024f000e00f5900e08f59000c003d006044b80027
:102500006055b8000000540081805c0002015d004d
:1025100083815d00180020001600070008003d00c0
:10252000190007000004eb00050037000004eb0071
:102530001000070002003d001300070018002000f3
:10254000d7ff0700e00f5400060032006022b800f9
:102550006033b8000000520081805a0002015b0025
:1025600083815b004f05be004f04be000080fa006f
:1025700000000600e00f5200e08f5a00e00f5b0001
:10258000e08f5b00000006006044b8006055b800b2
:102590000402540085825c0006035d0087835d00b1
:1025a000000006000000fa00889fbe008a9fbe005f
:1025b0008c1f7800e00f5000e08f5800e00f5900aa
:1025c000e08f59000d003d006044b8006055b80030
:1025d0001c0020000000540081805c0002015d00ae
:1025e00083815d000820e10009a8e1000ab0e10054
:1025f0000bb8e1000d003d00080037000006eb00bd
:10260000e00f5200e08f5a00e00f5b00e08f5b00ac
:1026100006003d006044b8006055b8000402540054
:1026200085825c0006035d0087835d00a5ff0700cf
:10263000e00f5600060032006022b8006033b80098
:102640000000520081805a0002015b0083815b0020
:102650004f0678004f05be004f04be000080fa0010
:10266000000006000000fa00889fbe008a9fbe009e
:102670008c1f78000006eb00e00f5000e08f580040
:10268000e00f5900e08f590007003d006044b8009a
:102690006055b8001c0020000000540081805c00e0
:1026a00002015d0083815d00e00f5200e08f5a005f
:1026b000e00f5b00e08f5b0007003d006044b80066
:1026c0006055b8000c00a2000402540085825c0032
:1026d00006035d0087835d000d000700e00f5600d4
:1026e000060032006022b8006033b80000005200db
:1026f00081805a0002015b0083815b004f067800f5
:102700004f05be004f04be000080fa000000060026
:10271000889fbe008a9fbe008c9fbe000404b80044
:102720000506b8008904460060854e000606b8001c
:102730000a054600e0854e000706b8008b054600f6
:10274000040eb800890446000a854e00e0854d005d
:10275000050eb8000a0546008b854e00060eb8002f
:102760008b0546000416b8000a0546008b854e000e
:102770000516b8008b054600041eb8008b05460000
:102780000800be000a01be004f06be004f05be0095
:082790004f04be00000006002a
:020000040000fa
:1027980054680000726f0000747400006c650000db
:1027a800313a0000202000002020000020200000f6
:1027b800256400000a00000054680000726f0000e1
:1027c800747400006c650000323a0000202000009c
:1027d8002020000020200000256400000a000000de
:1027e80042720000616b0000653a00002020000082
:1027f80020200000202000002020000020200000d1
:10280800256400000a000000536c00006176000097
:1028180065200000232500006420000042610000bc
:10282800747400006572000079200000566f000083
:102838006c7400006167000065200000496e0000ac
:10284800666f0000202000000a00000042310000ee
:102858003a200000256400005620000042320000a3
:102868003a20000025640000562000004233000092
:102878003a20000025640000562000004234000081
:102888003a20000025640000562000000a000000dd
:10289800423500003a200000256400005620000060
:1028a800423600003a20000025640000562000004f
:1028b800423700003a20000025640000562000003e
:1028c800423800003a20000025640000562000002d
:1028d8000a000000423900003a2000002564000088
:1028e8005620000042310000303a00002564000004
:1028f800562000002020000020200000202000009a
:1029080020200000202000002020000020200000bf
:10291800202000000a000000436f00006d6d0000d9
:1029280073200000776900007468000020420000ee
:102938004d4d00002061000072650000206e00000f
:102948006f2000006c6f00006e6700006572000069
:10295800206f00006e6c0000696e000065000000ca
:10296800536c0000617600006520000023250000fc
:102978006420000042610000747400006572000069
:1029880079200000546500006d7000006572000039
:10299800617400007572000065200000496e000037
:1029a800666f0000200a000000420000313a000073
:1029b800202000002564000046200000423200006c
:1029c8003a20000020250000644600002042000054
:1029d800333a000020200000256400004620000053
:1029e800423400003a200000202500006446000020
:1029f8000a000000423500003a20000020250000af
:102a08006446000020420000363a00002020000002
:102a18002564000046200000423700003a200000ec
:102a2800202500006446000020420000383a0000db
:102a38002020000025640000460a00000042000033
:102a4800393a0000202000002564000046200000dc
:102a580042310000303a00002025000064460000a2
:102a6800202000002020000020200000202000005e
:102a7800202000002020000020200000202000004e
:102a8800202000000a000000437500007272000058
:102a9800656e00007420000050610000636b000048
:102aa800203100003a20000020250000640a0000c0
:102ab8000043000075720000726500006e7400002b
:102ac80020500000616300006b200000323a0000d3
:102ad80020200000256400000a000000485600007d
:102ae80020700000616300006b200000766f00001a
:102af8006c74000061670000653a00002025000042
:082b0800640a00000000000057
:020000040000fa
:102b10000e00fa00000f7800214798003247980015
:102b200043479800340798004507980056079800d7
:102b3000670798001e027800a49888003e43900022
:102b400015312100864a78003e02900024988800c2
:102b5000de029000459888006e0390005698880029
:102b60004e029000349888002e4290000482fb00b0
:102b70000402d1000442780004437800353121007a
:102b8000864a780044322100b4988800ce429000f2
:102b900084312100054a78000002eb00d4988800b7
:102ba0000080fa00000006000800fa0020079800e4
:102bb000614798000042eb00044f78002000370086
:102bc0002e02900094427800154798002e02900043
:102bd0000402e8002407980084c0b300244798004a
:102be000140037001e4290001e426a0061426200db
:102bf000344798009e4278000582fb000402d10011
:102c0000044f78003e429000e04f52000200320034
:102c1000c4c8b3001e4f6a001e4290000482fb002d
:102c20000402d100144798002e4290000442e900ab
:102c3000244798002e429000e04f5200e9ff3a00ee
:102c40006e4290000482fb000402ea004f22de0084
:102c500004427800ee4290008542e9006547980002
:102c6000e04f5200d6ff3a001e4278000440780040
:102c70000080fa00000006000600fa0040479800b5
:102c8000849f800084427800b4988000854078005a
:102c900004007800c4ff0700004278002447980031
:102ca0002498800060c0b3000400010024988000d4
:102cb00050c8b30004000100249880004e409000ea
:102cc000040001002598800014312100144278008e
:102cd000044078000500010025988000849f800052
:102ce0000442780004407800050001000002eb0077
:102cf000040f78000800370025988000b6988000ff
:102d00001e02780004024300144278000440780058
:102d1000050001001e0fe800849f80009e0f5200f6
:102d2000f5ff3c00249880002e4090000400010034
:102d30008041eb002e419000ce409000403f2100aa
:102d4000430207001100200040322100e801070083
:102d50000080fa00000006000a00fa00889fbe000a
:102d6000f430210014427800e04f520046003a004f
:102d7000449880000400010000027800e40f520033
:102d8000410034000a003700d49880000402e800b3
:102d9000d498880044988000040001000002780064
:102da000e40f520002003c000042eb0058013700e3
:102db000349880000400010000427800e64f520081
:102dc000f1ff3a00349880000400010000427800ce
:102dd00055c8b300854f52002b003a00349880004c
:102de00004000100004278000443780025322100ed
:102df000864a780034988000040001000042780080
:102e00000443780025312100864a780034988000f8
:102e1000040001000042780004437800f5302100ee
:102e2000864a78002532210095427800143121002d
:102e30001442780084cf52000b003200f4988000d6
:102e40000402e800f498880034988000040001002f
:102e50000042eb0004437800f5302100864a7800f8
:102e60000042eb002a013700f430210014427800c0
:102e70000482fb000402e80004007800b6f70700b3
:102e80000002780064988800f43021001442780031
:102e9000e04f52001d013200e4302100144278005e
:102ea000e04f520028003a000000000044988000e3
:102eb0000400010000027800e00f5200fbff340024
:102ec000549880000400010000427800e14f420065
:102ed0001f003a00650207000042eb00044378003f
:102ee000f5302100864a78000042eb000443780068
:102ef000e5302100864a780064988000040078005c
:102f000021f8070094ff0700004278000001370015
:102f100065988000e8302100184478000882fb00a2
:102f2000848442003498800004000100004278004c
:102f3000844c78000842e80004437800e530210022
:102f4000864a7800030037000000000001003700c7
:102f50000000000044988000040001000002780096
:102f6000e00f520006003200e53021009542780063
:102f7000f43021001442780084cf5200e4ff360080
:102f8000f4302100144278008482fb00e4302100f8
:102f9000144278000482fb000402e900848f52008e
:102fa000da003a00f53021009542780064988000fc
:102fb0008540780004007800fbfe0700004278009e
:102fc0000443780005312100864a78006598800026
:102fd000e4302100144278000482fb000402e9007e
:102fe00004824200944278000431210014427800a7
:102ff00084cf520079003a000002eb00040f780001
:1030000028003700659880001e0278000482420084
:1030100094427800343121001442780084cf520069
:103020001b003100659880001e0278000402e80051
:10303000048242001442780004437800253f2100b6
:10304000864a7800659880001e0278000482e800b5
:10305000048242001442780004437800353f210086
:10306000864a7800a5988000669880001e02780045
:1030700004024300144278000482fb000402420070
:1030800004824200959f8000050a78000300370003
:10309000049980000402e800049988001e02780068
:1030a000630f4200f4302100144278000482fb00d8
:1030b0009e0f5200d3ff3c0084312100144278005f
:1030c000e04f52003800320000c2eb004447980045
:1030d00014c0b3005447980065988000e430210084
:1030e000144278000482fb000402e90004824200da
:1030f00014427800644798006402470031c0b3006e
:1031000004007800a8fe07000042780024479800d9
:103110002498800060c0b30004000100249880005f
:1031200050c8b3000400010025988000243121001c
:1031300014427800044078000500010025988000c2
:103140001431210014427800044078000500010089
:103150002498800030c0b30004000100249880004f
:1031600000c0eb00040001002498800010c0b300f0
:10317000040001002598800066988000e43021005a
:10318000144278000482fb000402e90004024300b8
:103190001442780004407800050001002498800063
:1031a0002e409000040001000042eb000443780030
:1031b000f5302100864a78000042eb000443780095
:1031c000e5302100864a7800649880000400780089
:1031d0006df7070014c0b3004d003700e49880007d
:1031e0000402e800e4988800843121001442780049
:1031f000e04f52003800320000c2eb0074479800e4
:1032000024c0b300044f980065988000e43021008a
:10321000144278000482fb000402e90004824200a8
:1032200014427800144f98006702470031c0b30081
:10323000040078005cfe07000042780034479800e4
:103240002498800060c0b30004000100249880002e
:1032500050c8b300040001002598800024312100eb
:103260001442780004407800050001002598800091
:103270001431210014427800044078000500010058
:103280002498800030c0b30004000100249880001e
:1032900000c0eb00040001002498800020c0b300af
:1032a000040001002598800066988000e430210029
:1032b000144278000482fb000402e9000402430087
:1032c0001442780004407800050001002498800032
:1032d0003e409000040001000042eb0004437800ef
:1032e000f5302100864a78000042eb000443780064
:1032f000e5302100864a7800649880000400780058
:1033000021f707000042eb00010037000042eb000c
:10331000044078004f04be000080fa000000060060
:103320000400fa00004f7800110798001e01900079
:103330009e40780040322100020007000080fa0021
:10334000000006000600fa00000f780021479800f0
:10335000220798002e029000949f88001e02780099
:10336000e4a29000440c2000848f52003e003c00f8
:103370001e02780044a290009e027800048242005f
:10338000ae429000054a78001e02780044a29000e8
:10339000810c2000040078006b0007000002780018
:1033a000840278001e02780045a298001e02780070
:1033b00064a290008402e8001e02780065a29800d2
:1033c0001e02780044a29000253f2100954278001b
:1033d0001e03780004024300054a78001e027800ac
:1033e00044a29000810c20000400780056000700e1
:1033f00000027800840278001e02780045a298003e
:103400001e02780064a290008402e8001e02780088
:1034100065a298001e02780044a29000353f21006a
:10342000954278001e03780004024300054a7800a4
:103430001e02780044a29000810c20000400780055
:103440004100070000027800840278001e02780024
:1034500045a298001e02780064a290008402e80051
:103460001e02780065a298000080fa0000000600a5
:103470000400fa00100798001e02900064a2900059
:10348000e00f5200140034001e02900054a290007d
:103490009e02900004824200144f78001e029000a9
:1034a00054a29000810c2000040078002600070040
:1034b00000027800840278001e02900055a2980055
:1034c0001e02900064a290008402e9001e02900097
:1034d00065a29800020037000042eb00044f78001c
:1034e0001e427800044078000080fa0000000600c8
:1034f0000400fa00000f7800110798001e027800ff
:103500008002eb0065a298001e0278008002eb00aa
:1035100045a298001e0278008002eb0055a2980098
:103520001e029000e00f5200050032001e027800db
:10353000820c20008000eb0004007800e9f6070010
:103540000080fa00000006000600fa00100798004c
:10355000210798001e029000040fe8002e02900040
:103560009e027800848f5200020039000002eb00b6
:10357000040f78001e027800040078000080fa0032
:10358000000006000400fa00204798000002eb004b
:10359000040f7800130037001e0278000442780000
:1035a0000041eb0084407800403f21007f0007008d
:1035b00000427800ae429000854f520008003a0069
:1035c0001e0278000442780022c0b30084407800d4
:1035d000403f2100750007000042780005003700d9
:1035e0001e0fe8001e027800e40f5200eaff3400cc
:1035f00044c0b300044078000080fa0000000600d8
:103600000000fa00d4988000040078000080fa00de
:10361000000006000000fa00e49880000400780032
:103620000080fa00000006000000fa00f498800014
:10363000040078000080fa00000006000000fa0094
:1036400004998000040078000080fa000000060061
:103650000600fa00000f78002147980032479800d2
:10366000434798001e027800040a90009e027800ea
:1036700004824200ae429000054a78001e027800a3
:10368000040a90008402e8001e027800050a9800ef
:103690001e027800040a90009e0278000482420014
:1036a000be429000054a78001e027800040a90008d
:1036b0008402e8001e027800050a98001e027800c5
:1036c000040a90009e02780004824200ce429000dc
:1036d000054a78001e027800040a90008402e8007f
:1036e0001e027800050a98001e027800040a900065
:1036f000ee0f5200030034001e0278008002eb003f
:10370000050a98000080fa00000006000600fa0092
:103710001007980041479800524798004e42900089
:10372000e44f52000200360044c0b3004447980002
:103730004e4290000442e800444798004e429000f8
:103740000482fb00e322b900040f78001e029000ff
:10375000040a90009e0f52000a003d001e029000d5
:10376000040a90001e0252006f0f42001e82e80001
:103770009e02900004824200de429000054a7800da
:10378000080037001e029000040a90001e0252003a
:103790000482e8009e02900004824200de42900013
:1037a000054a78000080fa00000006000600fa00d2
:1037b0001007980041479800524798004e429000e9
:1037c000e44f52000200360044c0b3004447980062
:1037d0005e429000e24f52000200360024c0b30067
:1037e000544798004e4290000442e8004447980035
:1037f0004e4290000482fb00e322b900040f7800df
:103800001e029000040a90009e0f52000b003d0023
:103810001e029000040a90001e0252006f0f420028
:103820005e4290000482fb001e0242009e02900055
:103830000482420014427800090037001e02900002
:10384000040a90009e0252005e4290000482fb0037
:10385000048242009e0290000482420014427800da
:10386000044078000080fa00000006000800fa001a
:10387000881f7800000000004498800004000100c8
:1038800000027800e30f5200fbff34003498800000
:1038900004000100004278004447980034988000fa
:1038a00004000100004278005447980034988000da
:1038b00004000100004278006447980034988000ba
:1038c0000400010000427800244798006402470089
:1038d00031c0b30004007800b3fc07000042780058
:1038e00034479800ae4290003e42900084cf520090
:1038f00032003a000002eb00040f78002b00370082
:103900001e027800044278000041eb0084407800f9
:10391000403f2100a5ff070000427800253121002b
:1039200095427800854f52001f003a006e44900087
:103930001e0278000442780012c0b3008440780070
:10394000403f210099ff070000427800844f540057
:1039500015003a005e429000e14f520007003a0025
:103960001e0278000442780012c0b3008440780040
:10397000403f210065ff0700130037005e429000c2
:10398000e24f520008003a001e027800044278001c
:1039900022c0b30084407800403f21005bff070055
:1039a00000000000080037001e0fe8001e0278002b
:1039b000e40f5200d2ff340003003700e498800087
:1039c0000402e800e49888004f0478000080fa00c0
:1039d000000006000e00fa00000f78002147980052
:1039e00032479800434798003407980045079800ed
:1039f00056079800670798001e02780074d5880063
:103a00003e439000b5aa2100864a78003e0290000d
:103a1000f4d48800de02900015d588006e03900073
:103a200026d588004e02900004d588002e429000d2
:103a30000482fb000402d1000442780004437800b1
:103a4000d5aa2100864a7800e4ab210084d58800fd
:103a5000ce42900024ab2100054a78000002eb0022
:103a6000a4d588000080fa00000006000800fa00d3
:103a700020079800614798000042eb00044f78004f
:103a8000200037002e0290009442780015479800dd
:103a90002e0290000402e8002407980084c0b300be
:103aa00024479800140037001e4290001e426a000e
:103ab00061426200344798009e4278000582fb0014
:103ac0000402d100044f78003e429000e04f5200c3
:103ad00002003200c4c8b3001e4f6a001e429000ac
:103ae0000482fb000402d100144798002e4290008b
:103af0000442e900244798002e429000e04f520013
:103b0000e9ff3a006e4290000482fb000402ea00e2
:103b10004f22de0004427800ee4290008542e90028
:103b200065479800e04f5200d6ff3a001e427800e9
:103b3000044078000080fa00000006000600fa0049
:103b40004047980054dc80008442780084d580008f
:103b50008540780004007800c4ff07000042780028
:103b600024479800f4d4800060c0b3000400010032
:103b7000f4d4800050c8b30004000100f4d48000e5
:103b80004e40900004000100f5d48000b4aa21004a
:103b9000144278000440780005000100f5d480004c
:103ba00054dc8000044278000440780005000100e5
:103bb0000002eb00040f780008003700f5d4800005
:103bc00086d580001e02780004024300144278006b
:103bd00004407800050001001e0fe80054dc80005e
:103be0009e0f5200f5ff3c00f4d480002e40900060
:103bf000040001008041eb002e419000ce40900077
:103c0000e0b821004302070011002000e0ab2100d2
:103c1000e80107000080fa00000006000a00fa0030
:103c2000889fbe0094aa210014427800e04f520001
:103c300046003a0014d5800004000100000278001c
:103c4000e40f5200410034000a003700a4d5800080
:103c50000402e800a4d5880014d580000400010007
:103c600000027800e40f520002003c000042eb002a
:103c70005801370004d5800004000100004278009c
:103c8000e64f5200f1ff3a0004d580000400010025
:103c90000042780055c8b300854f52002b003a000f
:103ca00004d580000400010000427800044378003d
:103cb000c5ab2100864a780004d5800004000100cd
:103cc0000042780004437800c5aa2100864a7800a3
:103cd00004d580000400010000427800044378000d
:103ce00095aa2100864a7800c5ab2100954278004c
:103cf000b4aa21001442780084cf52000b00320095
:103d0000c4d580000402e800c4d5880004d5800032
:103d1000040001000042eb000443780095aa210052
:103d2000864a78000042eb002a01370094aa21005d
:103d3000144278000482fb000402e80004007800ca
:103d400005f407000002780034d5880094aa210009
:103d500014427800e04f52001d01320084aa210075
:103d600014427800e04f520028003a0000000000a2
:103d700014d580000400010000027800e00f52001a
:103d8000fbff340024d580000400010000427800cd
:103d9000e14f42001f003a00650207000042eb00bd
:103da0000443780095aa2100864a78000042eb007f
:103db0000443780085aa2100864a780034d5800023
:103dc0000400780070f4070094ff070000427800b8
:103dd0000001370035d5800088aa210018447800fa
:103de0000882fb008484420004d5800004000100a6
:103df00000427800844c78000842e80004437800d0
:103e000085aa2100864a78000300370000000000e0
:103e1000010037000000000014d5800004000100fc
:103e200000027800e00f52000600320085aa21004f
:103e30009542780094aa21001442780084cf520061
:103e4000e4ff360094aa2100144278008482fb002b
:103e500084aa2100144278000482fb000402e900d5
:103e6000848f5200da003a0095aa2100954278002a
:103e700034d580008540780004007800fbfe070000
:103e80000042780004437800a5aa2100864a780001
:103e900035d5800084aa2100144278000482fb00fa
:103ea0000402e9000482420094427800a4aa21009e
:103eb0001442780084cf520079003a000002eb00ef
:103ec000040f78002800370035d580001e027800e6
:103ed0000482420094427800d4aa2100144278005f
:103ee00084cf52001b00310035d580001e027800bf
:103ef0000402e8000482420014427800044378007f
:103f0000c5b82100864a780035d580001e027800a9
:103f10000482e800048242001442780004437800de
:103f2000d5b82100864a780075d5800036d5800046
:103f30001e02780004024300144278000482fb0051
:103f4000040242000482420065dc8000050a780019
:103f500003003700d4d580000402e800d4d58800df
:103f60001e027800630f420094aa210014427800d8
:103f70000482fb009e0f5200d3ff3c0024ab2100c3
:103f800014427800e04f52003800320000c2eb00cb
:103f90004447980014c0b3005447980035d58000ba
:103fa00084aa2100144278000482fb000402e90084
:103fb000048242001442780064479800640247007b
:103fc00031c0b30004007800a8fe0700004278006a
:103fd00024479800f4d4800060c0b30004000100be
:103fe000f4d4800050c8b30004000100f5d4800070
:103ff000c4aa2100144278000440780005000100a2
:10400000f5d48000b4aa210014427800044078005e
:1040100005000100f4d4800030c0b30004000100aa
:10402000f4d4800000c0eb0004000100f4d4800050
:1040300010c0b30004000100f5d4800036d5800024
:1040400084aa2100144278000482fb000402e900e3
:104050000402430014427800044078000500010087
:10406000f4d480002e409000040001000042eb00d8
:104070000443780095aa2100864a78000042eb00ac
:104080000443780085aa2100864a780034d5800050
:1040900004007800bcf3070014c0b3004d003700e3
:1040a000b4d580000402e800b4d5880024ab210018
:1040b00014427800e04f52003800320000c2eb009a
:1040c0007447980024c0b300044f980035d5800091
:1040d00084aa2100144278000482fb000402e90053
:1040e0000482420014427800144f9800670247008f
:1040f00031c0b300040078005cfe07000042780085
:1041000034479800f4d4800060c0b300040001007c
:10411000f4d4800050c8b30004000100f5d480003e
:10412000c4aa210014427800044078000500010070
:10413000f5d48000b4aa210014427800044078002d
:1041400005000100f4d4800030c0b3000400010079
:10415000f4d4800000c0eb0004000100f4d480001f
:1041600020c0b30004000100f5d4800036d58000e3
:1041700084aa2100144278000482fb000402e900b2
:104180000402430014427800044078000500010056
:10419000f4d480003e409000040001000042eb0097
:1041a0000443780095aa2100864a78000042eb007b
:1041b0000443780085aa2100864a780034d580001f
:1041c0000400780070f307000042eb0001003700a4
:1041d0000042eb00044078004f04be000080fa006b
:1041e000000006000400fa00004f78001107980054
:1041f0001e0190009e407800e0ab21000200070005
:104200000080fa00000006000600fa00000f7800a7
:1042100021479800220798002e02900064dc880055
:104220001e027800e4a29000440c2000848f52000b
:104230003e003c001e02780044a290009e027800de
:1042400004824200ae429000054a78001e027800c7
:1042500044a29000810c2000040078006b0007004d
:1042600000027800840278001e02780045a29800bf
:104270001e02780064a290008402e8001e0278000a
:1042800065a298001e02780044a29000c5b82100e3
:10429000954278001e03780004024300054a780026
:1042a0001e02780044a29000810c200004007800d7
:1042b0005600070000027800840278001e02780091
:1042c00045a298001e02780064a290008402e800d3
:1042d0001e02780065a298001e02780044a2900099
:1042e000d5b82100954278001e03780004024300ef
:1042f000054a78001e02780044a29000810c20003c
:104300000400780041000700000278008402780071
:104310001e02780045a298001e02780064a2900058
:104320008402e8001e02780065a298000080fa006e
:10433000000006000400fa00100798001e0290001a
:1043400064a29000e00f5200140034001e0290009e
:1043500054a290009e02900004824200144f780004
:104360001e02900054a29000810c200004007800ee
:104370002600070000027800840278001e029000e8
:1043800055a298001e02900064a290008402e900e9
:104390001e02900065a29800020037000042eb0068
:1043a000044f78001e427800044078000080fa0034
:1043b000000006000400fa00000f780011079800c2
:1043c0001e0278008002eb0065a298001e027800b1
:1043d0008002eb0045a298001e0278008002eb00ec
:1043e00055a298001e029000e00f52000500320016
:1043f0001e027800820c20008000eb000400780090
:1044000038f307000080fa00000006000600fa00fa
:1044100010079800210798001e029000040fe80082
:104420002e0290009e027800848f52000200390014
:104430000002eb00040f78001e02780004007800f0
:104440000080fa00000006000400fa0020479800ef
:104450000002eb00040f7800130037001e02780002
:10446000044278000041eb0084407800e0b821006d
:104470007f00070000427800ae429000854f520056
:1044800008003a001e0278000442780022c0b300ff
:1044900084407800e0b821007500070000427800f1
:1044a000050037001e0fe8001e027800e40f5200de
:1044b000eaff340044c0b300044078000080fa00f2
:1044c000000006000000fa00a4d580000400780077
:1044d0000080fa00000006000000fa00b4d5800059
:1044e000040078000080fa00000006000000fa00d6
:1044f000c4d58000040078000080fa0000000600a7
:104500000000fa00d4d58000040078000080fa0092
:10451000000006000600fa00000f7800214798000e
:1045200032479800434798001e027800040a900022
:104530009e02780004824200ae429000054a780054
:104540001e027800040a90008402e8001e0278002f
:10455000050a98001e027800040a90009e02780066
:1045600004824200be429000054a78001e02780094
:10457000040a90008402e8001e027800050a9800f0
:104580001e027800040a90009e0278000482420015
:10459000ce429000054a78001e027800040a90007e
:1045a0008402e8001e027800050a98001e027800c6
:1045b000040a9000ee0f5200030034001e0278003f
:1045c0008002eb00050a98000080fa000000060057
:1045d0000600fa00100798004147980052479800db
:1045e0004e429000e44f52000200360044c0b30037
:1045f000444798004e4290000442e8004447980027
:104600004e4290000482fb00e322b900040f7800c0
:104610001e029000040a90009e0f52000a003d0006
:104620001e029000040a90001e0252006f0f42000a
:104630001e82e8009e02900004824200de4290004a
:10464000054a7800080037001e029000040a900016
:104650001e0252000482e8009e0290000482420082
:10466000de429000054a78000080fa000000060053
:104670000600fa001007980041479800524798003a
:104680004e429000e44f52000200360044c0b30096
:10469000444798005e429000e24f5200020036000c
:1046a00024c0b300544798004e4290000442e800f2
:1046b000444798004e4290000482fb00e322b90078
:1046c000040f78001e029000040a90009e0f520012
:1046d0000b003d001e029000040a90001e025200d2
:1046e0006f0f42005e4290000482fb001e024200f7
:1046f0009e029000048242001442780009003700b4
:104700001e029000040a90009e0252005e42900039
:104710000482fb00048242009e0290000482420058
:1047200014427800044078000080fa00000006007f
:104730000800fa00881f78000000000014d58000ef
:104740000400010000027800e30f5200fbff340078
:1047500004d580000400010000427800444798001e
:1047600004d58000040001000042780054479800fe
:1047700004d58000040001000042780064479800de
:1047800004d580000400010000427800244798000e
:104790006402470031c0b30004007800b3fc070096
:1047a0000042780034479800ae4290003e429000ac
:1047b00084cf520032003a000002eb00040f780070
:1047c0002b0037001e027800044278000041eb0005
:1047d00084407800e0b82100a5ff0700004278007f
:1047e000c5aa210095427800854f52001f003a006b
:1047f0006e4490001e0278000442780012c0b3009c
:1048000084407800e0b8210099ff0700004278005a
:10481000844f540015003a005e429000e14f520070
:1048200007003a001e0278000442780012c0b3006c
:1048300084407800e0b8210065ff070013003700ce
:104840005e429000e24f520008003a001e027800db
:104850000442780022c0b30084407800e0b8210010
:104860005bff070000000000080037001e0fe80093
:104870001e027800e40f5200d2ff3400030037001c
:10488000b4d580000402e800b4d588004f04780055
:104890000080fa00000006000e00fa00000f780009
:1048a0002147980032479800434798003407980002
:1048b0004507980056079800670798001e02780081
:1048c000c4de88003e43900055bd2100864a780032
:1048d0003e02900044de8800de02900065de880023
:1048e0006e03900076de88004e02900054de880051
:1048f0002e4290000482fb000402d10004427800a2
:104900000443780075bd2100864a780084be2100ea
:10491000d4de8800ce429000c4bd2100054a780054
:104920000002eb00f4de88000080fa0000000600c0
:104930000800fa0020079800614798000042eb0049
:10494000044f7800200037002e0290009442780037
:10495000154798002e0290000402e80024079800f2
:1049600084c0b30024479800140037001e42900012
:104970001e426a0061426200344798009e427800fd
:104980000582fb000402d100044f78003e429000f3
:10499000e04f520002003200c4c8b3001e4f6a004c
:1049a0001e4290000482fb000402d10014479800cc
:1049b0002e4290000442e900244798002e429000c5
:1049c000e04f5200e9ff3a006e4290000482fb0083
:1049d0000402ea004f22de0004427800ee4290001a
:1049e0008542e90065479800e04f5200d6ff3a0043
:1049f0001e427800044078000080fa0000000600a3
:104a00000600fa0040479800a4e580008442780040
:104a1000d4de80008540780004007800c4ff0700e1
:104a2000004278002447980044de800060c0b30054
:104a30000400010044de800050c8b30004000100ff
:104a400044de80004e4090000400010045de8000fe
:104a500054bd210014427800044078000500010094
:104a600045de8000a4e58000044278000440780020
:104a7000050001000002eb00040f78000800370079
:104a800045de8000d6de80001e027800040243006e
:104a90001442780004407800050001001e0fe80071
:104aa000a4e580009e0f5200f5ff3c0044de80002c
:104ab0002e409000040001008041eb002e41900048
:104ac000ce40900080cb210043020700110020005f
:104ad00080be2100e80107000080fa000000060007
:104ae0000a00fa00889fbe0034bd210014427800fd
:104af000e04f520046003a0064de800004000100ee
:104b000000027800e40f5200410034000a00370030
:104b1000f4de80000402e800f4de880064de800039
:104b20000400010000027800e40f520002003c0083
:104b30000042eb005801370054de80000400010001
:104b400000427800e64f5200f1ff3a0054de800048
:104b5000040001000042780055c8b300854f5200a0
:104b60002b003a0054de800004000100004278006f
:104b70000443780065be2100864a780054de800038
:104b800004000100004278000443780065bd210064
:104b9000864a780054de800004000100004278005c
:104ba0000443780035bd2100864a780065be2100a7
:104bb0009542780054bd21001442780084cf520001
:104bc0000b00320014df80000402e80014df8800cc
:104bd00054de8000040001000042eb000443780032
:104be00035bd2100864a78000042eb002a013700db
:104bf00034bd2100144278000482fb000402e80066
:104c00000400780054f007000002780084de880079
:104c100034bd210014427800e04f52001d013200e3
:104c200024bd210014427800e04f520028003a00d1
:104c30000000000064de8000040001000002780033
:104c4000e00f5200fbff340074de8000040001001e
:104c500000427800e14f42001f003a006502070061
:104c60000042eb000443780035bd2100864a7800fd
:104c70000042eb000443780025bd2100864a7800fd
:104c800084de800004007800bff0070094ff070076
:104c9000004278000001370085de800028bd210039
:104ca000184478000882fb008484420054de8000af
:104cb0000400010000427800844c78000842e800bb
:104cc0000443780025bd2100864a780003003700a0
:104cd00000000000010037000000000064de8000da
:104ce0000400010000027800e00f520006003200cc
:104cf00025bd21009542780034bd21001442780082
:104d000084cf5200e4ff360034bd21001442780005
:104d10008482fb0024bd2100144278000482fb0041
:104d20000402e900848f5200da003a0035bd210008
:104d30009542780084de8000854078000400780089
:104d4000fbfe0700004278000443780045bd2100c7
:104d5000864a780085de800024bd21001442780058
:104d60000482fb000402e9000482420094427800bd
:104d700044bd21001442780084cf520079003a00eb
:104d80000002eb00040f78002800370085de800069
:104d90001e027800048242009442780074bd210013
:104da0001442780084cf52001b00310085de800061
:104db0001e0278000402e8000482420014427800d7
:104dc0000443780065cb2100864a780085de8000a8
:104dd0001e0278000482e800048242001442780037
:104de0000443780075cb2100864a7800c5de800038
:104df00086de80001e027800040243001442780020
:104e00000482fb000402420004824200b5e58000f7
:104e1000050a78000300370024df80000402e80060
:104e200024df88001e027800630f420034bd210099
:104e3000144278000482fb009e0f5200d3ff3c0016
:104e4000c4bd210014427800e04f52003800320007
:104e500000c2eb004447980014c0b30054479800c8
:104e600085de800024bd2100144278000482fb000e
:104e70000402e9000482420014427800644798006a
:104e80006402470031c0b30004007800a8fe0700a8
:104e9000004278002447980044de800060c0b300e0
:104ea0000400010044de800050c8b300040001008b
:104eb00045de800064bd2100144278000440780083
:104ec0000500010045de800054bd21001442780039
:104ed000044078000500010044de800030c0b300cb
:104ee0000400010044de800000c0eb00040001006b
:104ef00044de800010c0b3000400010045de8000e5
:104f000086de800024bd2100144278000482fb006c
:104f10000402e900040243001442780004407800cf
:104f20000500010044de80002e40900004000100d6
:104f30000042eb000443780035bd2100864a78002a
:104f40000042eb000443780025bd2100864a78002a
:104f500084de8000040078000bf0070014c0b3006a
:104f60004d00370004df80000402e80004df880001
:104f7000c4bd210014427800e04f520038003200d6
:104f800000c2eb007447980024c0b300044f98009f
:104f900085de800024bd2100144278000482fb00dd
:104fa0000402e9000482420014427800144f980081
:104fb0006702470031c0b300040078005cfe0700c0
:104fc000004278003447980044de800060c0b3009f
:104fd0000400010044de800050c8b300040001005a
:104fe00045de800064bd2100144278000440780052
:104ff0000500010045de800054bd21001442780008
:10500000044078000500010044de800030c0b30099
:105010000400010044de800000c0eb000400010039
:1050200044de800020c0b3000400010045de8000a3
:1050300086de800024bd2100144278000482fb003b
:105040000402e9000402430014427800044078009e
:105050000500010044de80003e4090000400010095
:105060000042eb000443780035bd2100864a7800f9
:105070000042eb000443780025bd2100864a7800f9
:1050800084de800004007800bfef07000042eb00e0
:10509000010037000042eb00044078004f04be00de
:1050a0000080fa00000006000400fa00004f7800bb
:1050b000110798001e0190009e40780080be2100dc
:1050c000020007000080fa00000006000600fa0057
:1050d000000f780021479800220798002e029000c8
:1050e000b4e588001e027800e4a29000440c200081
:1050f000848f52003e003c001e02780044a29000c3
:105100009e02780004824200ae429000054a780078
:105110001e02780044a29000810c20000400780058
:105120006b00070000027800840278001e027800fd
:1051300045a298001e02780064a290008402e80054
:105140001e02780065a298001e02780044a290001a
:1051500065cb2100954278001e03780004024300cd
:10516000054a78001e02780044a29000810c2000bd
:1051700004007800560007000002780084027800de
:105180001e02780045a298001e02780064a29000da
:105190008402e8001e02780065a298001e027800d2
:1051a00044a2900075cb2100954278001e03780040
:1051b00004024300054a78001e02780044a29000d1
:1051c000810c2000040078004100070000027800f4
:1051d000840278001e02780045a298001e02780022
:1051e00064a290008402e8001e02780065a2980084
:1051f0000080fa00000006000400fa001007980082
:105200001e02900064a29000e00f520014003400cf
:105210001e02900054a290009e0290000482420060
:10522000144f78001e02900054a29000810c2000c0
:10523000040078002600070000027800840278004d
:105240001e02900055a298001e02900064a29000d9
:105250008402e9001e02900065a298000200370057
:105260000042eb00044f78001e42780004407800b2
:105270000080fa00000006000400fa00000f780029
:10528000110798001e0278008002eb0065a29800ca
:105290001e0278008002eb0045a298001e027800f2
:1052a0008002eb0055a298001e029000e00f520011
:1052b000050032001e027800820c20008000eb0006
:1052c0000400780087ef07000080fa000000060065
:1052d0000600fa0010079800210798001e029000af
:1052e000040fe8002e0290009e027800848f520086
:1052f000020039000002eb00040f78001e02780063
:10530000040078000080fa00000006000400fa00a3
:10531000204798000002eb00040f780013003700cc
:105320001e027800044278000041eb0084407800bf
:1053300080cb21007f00070000427800ae42900041
:10534000854f520008003a001e027800044278009f
:1053500022c0b3008440780080cb21007500070094
:1053600000427800050037001e0fe8001e0278009a
:10537000e40f5200eaff340044c0b3000440780058
:105380000080fa00000006000000fa00f4de800051
:10539000040078000080fa00000006000000fa0017
:1053a00004df8000040078000080fa00000006009e
:1053b0000000fa0014df8000040078000080fa008a
:1053c000000006000000fa0024df800004007800de
:1053d0000080fa00000006000600fa00000f7800c6
:1053e0002147980032479800434798001e027800f2
:1053f000040a90009e02780004824200ae429000af
:10540000054a78001e027800040a90008402e80031
:105410001e027800050a98001e027800040a900017
:105420009e02780004824200be429000054a780045
:105430001e027800040a90008402e8001e02780030
:10544000050a98001e027800040a90009e02780067
:1054500004824200ce429000054a78001e02780085
:10546000040a90008402e8001e027800050a9800f1
:105470001e027800040a9000ee0f52000300340070
:105480001e0278008002eb00050a98000080fa00f6
:10549000000006000600fa00100798004147980037
:1054a000524798004e429000e44f520002003600ee
:1054b00044c0b300444798004e4290000442e800c4
:1054c000444798004e4290000482fb00e322b9005a
:1054d000040f78001e029000040a90009e0f5200f4
:1054e0000a003d001e029000040a90001e025200b5
:1054f0006f0f42001e82e8009e029000048242006c
:10550000de429000054a7800080037001e02900035
:10551000040a90001e0252000482e8009e029000dd
:1055200004824200de429000054a78000080fa00c2
:10553000000006000600fa00100798004147980096
:10554000524798004e429000e44f5200020036004d
:1055500044c0b300444798005e429000e24f5200be
:105560000200360024c0b300544798004e42900019
:105570000442e800444798004e4290000482fb0039
:10558000e322b900040f78001e029000040a900084
:105590009e0f52000b003d001e029000040a900076
:1055a0001e0252006f0f42005e4290000482fb0018
:1055b0001e0242009e0290000482420014427800c3
:1055c000090037001e029000040a90009e0252005b
:1055d0005e4290000482fb00048242009e02900022
:1055e0000482420014427800044078000080fa00ef
:1055f000000006000800fa00881f78000000000084
:1056000064de80000400010000027800e30f520015
:10561000fbff340054de80000400010000427800eb
:105620004447980054de80000400010000427800e6
:105630005447980054de80000400010000427800c6
:105640006447980054de80000400010000427800a6
:10565000244798006402470031c0b300040078007a
:10566000b3fc07000042780034479800ae42900037
:105670003e42900084cf520032003a000002eb001c
:10568000040f78002b0037001e02780004427800d7
:105690000041eb008440780080cb2100a5ff07008b
:1056a0000042780065bd210095427800854f520088
:1056b0001f003a006e4490001e02780004427800f9
:1056c00012c0b3008440780080cb210099ff07000e
:1056d00000427800844f540015003a005e4290006a
:1056e000e14f520007003a001e02780004427800a1
:1056f00012c0b3008440780080cb210065ff070012
:10570000130037005e429000e24f520008003a005a
:105710001e0278000442780022c0b3008440780062
:1057200080cb21005bff070000000000080037006d
:105730001e0fe8001e027800e40f5200d2ff340072
:105740000300370004df80000402e80004df880063
:105750004f0478000080fa00000006000e00fa00f6
:10576000000f78002147980032479800434798007f
:105770003407980045079800560798006707980077
:105780001e02780014e888003e439000f5cf210007
:10579000864a78003e02900094e78800de0290007e
:1057a000b5e788006e039000c6e788004e029000bf
:1057b000a4e788002e4290000482fb000402d1007e
:1057c000044278000443780015d02100864a78000e
:1057d00024d1210024e88800ce42900064d021002a
:1057e000054a78000002eb0044e888000080fa00d7
:1057f000000006000800fa002007980061479800a2
:105800000042eb00044f7800200037002e02900089
:1058100094427800154798002e0290000402e80098
:105820002407980084c0b300244798001400370070
:105830001e4290001e426a00614262003447980096
:105840009e4278000582fb000402d100044f7800dc
:105850003e429000e04f520002003200c4c8b30044
:105860001e4f6a001e4290000482fb000402d10019
:10587000144798002e4290000442e9002447980003
:105880002e429000e04f5200e9ff3a006e42900035
:105890000482fb000402ea004f22de00044278008a
:1058a000ee4290008542e90065479800e04f5200c3
:1058b000d6ff3a001e427800044078000080fa00cb
:1058c000000006000600fa0040479800f4ee800051
:1058d0008442780024e88000854078000400780045
:1058e000c4ff0700004278002447980094e7800036
:1058f00060c0b3000400010094e7800050c8b3000a
:105900000400010094e780004e4090000400010074
:1059100095e78000f4cf210014427800044078001d
:105920000500010095e78000f4ee80000442780055
:1059300004407800050001000002eb00040f78002d
:105940000800370095e7800026e880001e027800f6
:10595000040243001442780004407800050001006e
:105960001e0fe800f4ee80009e0f5200f5ff3c0091
:1059700094e780002e409000040001008041eb007d
:105980002e419000ce40900020de2100430207000f
:105990001100200020d12100e80107000080fa005a
:1059a000000006000a00fa00889fbe00d4cf210044
:1059b00014427800e04f520046003a00b4e78000fd
:1059c0000400010000027800e40f5200410034009e
:1059d0000a00370044e880000402e80044e8880038
:1059e000b4e780000400010000027800e40f5200d8
:1059f00002003c000042eb0058013700a4e78000a1
:105a00000400010000427800e64f5200f1ff3a0026
:105a1000a4e78000040001000042780055c8b300ec
:105a2000854f52002b003a00a4e7800004000100db
:105a3000004278000443780005d12100864a7800ae
:105a4000a4e78000040001000042780004437800cd
:105a500005d02100864a7800a4e7800004000100f8
:105a60000042780004437800d5cf2100864a7800b0
:105a700005d1210095427800f4cf2100144278002e
:105a800084cf52000b00320064e880000402e8007a
:105a900064e88800a4e78000040001000042eb00f5
:105aa00004437800d5cf2100864a78000042eb00fd
:105ab0002a013700d4cf2100144278000482fb0071
:105ac0000402e80004007800a3ec0700000278005c
:105ad000d4e78800d4cf210014427800e04f520070
:105ae0001d013200c4cf210014427800e04f520063
:105af00028003a0000000000b4e780000400010024
:105b000000027800e00f5200fbff3400c4e7800081
:105b10000400010000427800e14f42001f003a00fb
:105b2000650207000042eb0004437800d5cf210056
:105b3000864a78000042eb0004437800c5cf21007c
:105b4000864a7800d4e78000040078000eed070054
:105b500094ff07000042780000013700d5e780007d
:105b6000c8cf2100184478000882fb0084844200da
:105b7000a4e780000400010000427800844c780013
:105b80000842e80004437800c5cf2100864a780027
:105b90000300370000000000010037000000000093
:105ba000b4e780000400010000027800e00f52001a
:105bb00006003200c5cf210095427800d4cf2100e5
:105bc0001442780084cf5200e4ff3600d4cf210085
:105bd000144278008482fb00c4cf21001442780074
:105be0000482fb000402e900848f5200da003a00cc
:105bf000d5cf210095427800d4e780008540780019
:105c000004007800fbfe070000427800044378009f
:105c1000e5cf2100864a7800d5e78000c4cf210077
:105c2000144278000482fb000402e900048242006e
:105c300094427800e4cf21001442780084cf5200cf
