:020000040000fa
:080000000002040000000000f2
:020000040000fa
:100008001203000012030000120300001203000094
:100018001203000012030000120300001203000084
:100028001203000012030000120300003651000002
:10003800120300001203000012030000b251000076
:100048001203000012030000120300001242000015
:1000580042420000120300001203000012030000d5
:100068001203000012030000120300001203000034
:100078001203000012030000120300001203000024
:100088001203000012030000120300001203000014
:10009800120300001203000036440000664400000a
:1000a80012030000120300001203000012030000f4
:1000b80012030000120300001203000012030000e4
:1000c80012030000120300001203000012030000d4
:1000d80012030000120300001203000012030000c4
:1000e80012030000120300001203000012030000b4
:1000f80012030000120300001203000012030000a4
:100108001203000012030000120300001203000093
:100118001203000012030000120300001203000083
:100128001203000012030000120300001203000073
:100138001203000012030000120300001203000063
:100148001203000012030000120300001203000053
:100158001203000012030000120300001203000043
:100168001203000012030000ec3f00001c400000d6
:100178001203000012030000120300001203000023
:100188005a4600008a4600001203000012030000cd
:100198001203000012030000120300001203000003
:1001a80012030000120300001203000012030000f3
:1001b80012030000120300001203000012030000e3
:1001c80012030000120300001203000012030000d3
:1001d80012030000120300001203000012030000c3
:1001e80012030000120300001203000012030000b3
:1001f80012030000120300001203000012030000a3
:100208001203000012030000120300001203000092
:100218001203000012030000120300001203000082
:100228001203000012030000120300001203000072
:100238001203000012030000120300001203000062
:100248001203000012030000120300001203000052
:100258001203000012030000120300001203000042
:100268001203000012030000120300001203000032
:0c0278001203000012030000120300003b
:020000040000fa
:100400002f0a22000eff28000e01880000000000c5
:10041000000020000000e000020032000001200087
:10042000200288000c000700008c2400010020003e
:100430000f000700000020000000e0000200320072
:100440000000020000000000fe5202000000000058
:100450000040da000000fe00202920000000e0003b
:1004600002003200002020009001880000000600f9
:10047000a1028800800078000000eb001a0037001d
:10048000e280400054a0b4009101ba00e280400034
:1004900054a0b4009102ba00e280400054a0b4001d
:1004a0000002eb00472bde00f507b200a601880032
:1004b000602ce10008003a000049eb000201e8006e
:1004c000020039003420ec0002f0a0008301e900b2
:1004d000f9ff3e00040037006128e100010032000e
:1004e0000082eb00040007001101ba000200e000e6
:1004f000e3ff3a000000060004d0a300e20f490029
:100500001c003900810278003549ba000201e80078
:10051000020039003420ec0002f0a0008301e90061
:100520000f0032002549ba000201e800020039003c
:100530003420ec0002f0a0008301e9000800320042
:100540000400e0000600320015c9ba000201e8000c
:10055000020039003420ec0002f0a0008301e90021
:100560008180e80054a0b4000300e000e2ff3a00fc
:10057000000006009102ba00055978008301e900e5
:10058000f7ff3200c82ade00055978008301e90030
:10059000f3ff32000400e000f1ff320011d9ba008d
:1005a000eeff3700c041040000000000ce4104000f
:1005b00000000000dc41040000000000ea410400eb
:1005c00000000000e443040000000000f2430400c7
:1005d0000000000000440400000000000e4404007d
:1005e000000000009a3f040000000000a83f040043
:1005f00000000000b63f040000000000c43f0400fb
:100600000000000008460400000000001646040038
:1006100000000000244604000000000032460400f0
:10062000000000000040da000000fe000000fa00b8
:10063000889fbe008004780000fd8000e00f50001d
:1006400004003a000f0007000084eb00e00f5000a8
:100650000800350008fd8000e08f540005003200de
:100660000900440007000700e00f500001003d00b2
:100670000084eb00080078004f04be000080fa0000
:10068000000006000000fa00e00f500004003a00ed
:1006900024fa210004fd88000002780006003700db
:1006a0000082eb00250a2200850f500002003e0068
:1006b00000fd88000002eb00040078000080fa00d2
:1006c0000000060003f0a200889fbe008a9fbe00c3
:1006d0008c1f7800fa000700010133006450e1002c
:1006e0004f0032006420e1005200320003826c00af
:1006f00007003b000905d0000306d000820f54001c
:100700000c065d0002003900020032008901780009
:10071000030678008582550004003d000003fd00bb
:100720008103fd008502ea008b854200840f720080
:1007300002003b0060001000e08018006011b8006b
:100740000005eb007a28e1000a0039000600780075
:10075000c75ddd00f707b200878075002d00370008
:10076000828171000a017800610560008180d100fa
:100770000080d3008502e900f9ff3b000604400039
:100780008784480002003b0060041400e0841c00e1
:100790000988a300070032008a81710082817100fc
:1007a000610164008904d1000884d3008b05e8004e
:1007b000170037000978a30013003a000b00e0008f
:1007c000130034008b05e9000804440089844c00c0
:1007d0000a4474000978a3000d003a000b00e00001
:1007e000070034008b05e9000804440089844c00ac
:1007f00001003a000b0020000978a300f7ff320047
:100800000001eb0002003700828171000a017800cc
:10081000700007000cf0a70001f0a000b90037003d
:100820006420e10002003a00838f6c00b9003300bd
:100830000801be000200be00b2003700889fbe0063
:100840008a9fbe008c1f78009d000700a400330023
:1008500003866c006450e1002e0032006420e10049
:10086000330032006150e1002f0032006120e100ce
:100870003100320085855500eb07b00009002000eb
:1008800008042000050037000804440089844c0057
:100890000a0031000603430087834b000001530028
:1008a00081815b00f8ff33000203be000800a00056
:1008b0000804440089844c00f6ff3900c639dd0085
:1008c0008301730001003200130020008904d1006d
:1008d0000884d3000998a300050032000800a7008f
:1008e0000300a0008904d1000884d3008b05e80030
:1008f0008904d1000884d3000001eb000281d200fa
:100900003400070001f0a1000cf0a70001f0a000e6
:100910007c0037006420e1007e0032000801be0048
:100920000200be00f7ff37006120e10079003200cd
:100930006000b800f3ff37000000200001f8270036
:10094000f0ff370014002000a9003700f4ff2f004b
:10095000a70037000001be00440007000470a70094
:1009600003f0a10003f8a30013003a006509b100e9
:1009700010003200090035006928e100020035004e
:1009800001002800000005000000400081804800b0
:100990008502e900fcff3a0000000600f88f4200e3
:1009a000050035008100d1000080d3008502e800f9
:1009b000fcff3a00000006008000eb00000005008c
:1009c0004f89de0082017800a40037006011b80072
:1009d000b200370081002000618055000b003d000f
:1009e0000b00200061fe2f000100e1001d0034001b
:1009f00082817100610164008904d1000884d30000
:100a00000000e800faff3a00710020006100640075
:100a1000030070000200600009003200610444001d
:100a2000e0844c000988a500050032008b05e80031
:100a30006808e10002003a008904d1000884d3006c
:100a4000f20f20000258e10005003d00c75ddd0007
:100a5000f907b200898075000800780000000600e0
:100a60000bf827008b00780000000500c70ade00a5
:100a7000f107b200f50fb20008003200e1cf4200ea
:100a8000020032000170a00024000500810f7000f8
:100a9000010032000408050044000500810f7000c9
:100aa00002003a00140005008502e9000000400041
:100ab00081c04800fcff3b000170a000240005003d
:100ac0000004be00e9ff07000003be000405be00ed
:100ad0000200be00e5ff0700844f7500000006001d
:100ae0000200be006450e100050036006420e10011
:100af000020036000968a30001003a000800be00a9
:100b00000160a0004f0678004f05be004f04be00f4
:100b100000000600f0ff2f00f1ff2700f9ff37006b
:100b2000889fbe008a9fbe008c1f7800e4ff0700ec
:100b3000ebff330003866c006450e10024003200b8
:100b40006420e100270032006150e1002200320001
:100b50006120e100210032008b854200eb07b100eb
:100b60000134b800003ab8000804420089844a0001
:100b7000013ab8000030b8008880400009014a00fe
:100b80000400330000004000818048000201490059
:100b90008b05e900c909dd00830170000100320006
:100ba00013002000c814de004814dd004709de00f1
:100bb0001200b200c808de000884700085ff07003c
:100bc00001f0a1000cf0a70001f0a000cdff37005c
:100bd0006120e100cfff32000801be000200be002c
:100be000f7ff37006150e100fcff3a00c9ff370012
:100bf000889fbe008a9fbe00841f7800b0ff070058
:100c00004f00780011003300f0ff2f00838f6c003d
:100c100006003b00040565000a00a7000800370035
:100c200009f0a6001000200008003700820f5400d1
:100c3000838f5c00030039001000200001003e009b
:100c40000000200009f0a7000000ea004f05be00e8
:100c50004f04be000000e00000000600881f78007e
:100c6000030478000300e00007003d00600010006e
:100c7000e080180060011900e081190002003b00cb
:100c800001f02d00030037000400070008f0a70062
:100c900001f0a0004f04780000000600889fbe000d
:100ca0008a9fbe00008270000402710004827100fd
:100cb000260032000004be000200be006011b80031
:100cc0006b092000950220000182cf000a00390044
:100cd0000541b1000082cf00070039000541b10095
:100ce0000982cf00040039000541b1000882cf001d
:100cf000010039000541b1000542520012003200e6
:100d00000a003b0082817100610164008100d10012
:100d10000080d3008984d3000884d3008b05e800c9
:100d20000442e800f7ff3a000700370008044400d7
:100d300089844c0000004800818048008b05e90050
:100d40000442e900f9ff3a0022ff07004f05be0008
:100d50004f04be000000060064f821000400fa0001
:100d600035fc8000889fbe008a9fbe008c9fbe001d
:100d7000e08f52000b003a0024029800e402420087
:100d8000a4fc880035fc8800b5fc8800a4429000d3
:100d90000504a00025429800e44290000504a0004c
:100da000654298006704400024fa210025002000d5
:100db0004244de00290a22004244dd0084845400bb
:100dc0005c0a2200110009008504d80004065600c0
:100dd00085024400a2fc800085824200000f78005a
:100de000150798000003eb00e405440008064600e0
:100df00002003700160020000d017800224290000a
:100e000061026200020032000a0037001509780012
:100e1000920278002542900061026200fbff3200de
:100e200008024100848f520002003900e00f540094
:100e30003e003d00920678000d00a100828f560012
:100e4000edff3e00e10f5300eaff3a001e0278007a
:100e5000840f540002003600890f54000f0039003f
:100e6000614ab900b0ff2f00010020006143b800c3
:100e70000402500085825800840f5300858f5b0068
:100e8000020035000b05780005003700110009004d
:100e90000986d8008985b900010037001e05900039
:100ea0000a007800e1fd0700e10f400005003a006c
:100eb0000b0578000b007800dcfd0700e10f400017
:100ec0002b003200b4fc8000000a7800b4fc8000e3
:100ed00064034200a4429000860f500002003200da
:100ee0000504a000010037000504a1002542980078
:100ef0006405550064f821000a0540000a087800de
:100f0000bafc8800040d7800b5fc80000003eb00fb
:100f1000254290000404a000a442980020429000c2
:100f20000404a10024409800b3ff3700a4fc88000b
:100f3000848f5200070036001403be008042eb008d
:100f400076fc880087fc8800120a7800a4fc8000e8
:100f50002542980022429000a7fc80000404a000d3
:100f6000070978002441980064004100010037001f
:100f70000000eb004f06be004f05be004f04be0050
:100f80000080fa00000006000000fa00e00f5000a8
:100f90000800320064005000a4fc8000840f500060
:100fa00001003100a0fc8800204290000404a10050
:100fb000244098000080fa00000006000000fa00bb
:100fc000889fbe00000478008a9fbe0081047800dc
:100fd000e08f540005003a00e00f54003200320068
:100fe00008007800e8ff070030003700e00f5400e9
:100ff00004003a000900780057ff070080047800d9
:101000002a003700640254009405780068fa9700bb
:10101000610262000200320008007800daff070077
:10102000090078004cff070080047800e08f54002e
:101030001e003200888f54001b00320069bd9700eb
:101040008885550009055500c2ddde0042d5de0069
:101050000a0178008b0f5500010036000b01780063
:101060004211dd00880078000900780014000700b4
:10107000888f54000d0031004255dd000a85440080
:10108000880f5500090036000804550074fc8000e4
:1010900085fc800042c4de004244dd000884440038
:1010a000048cbe0001003700880478004f05be00a4
:1010b000090078004f04be000080fa00000006001e
:1010c0000000fa000002780002003700315a780070
:1010d0000201e900e00f5100fcff3a000080fa0035
:1010e000000006000000fa0000027800020037004d
:1010f000015a78000201e900e00f5100fcff3a00bc
:101100000080fa00000006000000fa00889fbe0080
:101110000004be00050037000000fb0089007800d5
:101120001c000700e10f4000040032003840780046
:10113000e04f5000f8ff3a000000eb004f04be0003
:101140000080fa0000000600e1f621000000fa002d
:10115000881f7800ecff0700e1f62100000478000a
:10116000a00020000b000700080078004f04780062
:101170000080fa0000000600e0f621000000fa00fe
:1011800068015700ceb89700480007000080fa00b9
:10119000000006000000fa00889fbe0001047800ed
:1011a0008084eb0038029000e20262003b003200d3
:1011b00004037800980290000620b20002003a0072
:1011c000e08f520035003a000490a00080047800bf
:1011d00034049800f90fb200e08f520002003a0088
:1011e000a8029000050c7800ea8f540005003a0030
:1011f0000408b20003003a0088007800d000200004
:10120000e4ff070018029000d8029000850f5200fa
:101210000b0032000402e80015c0b300140498006b
:1012200018027800094a7800040ce800a4f92100ab
:10123000054a7800ea8f540018003a00050037008c
:101240000940780088007800a00307008004780037
:1012500012003700380290000410b2000f00320074
:1012600018019000a800900048009000ce180700d8
:1012700018029000840f50000400320038029000e1
:101280000403b300340498008084eb000002eb00f8
:101290001404980028029000040c780009007800db
:1012a0004f04be000080fa00000006003a00fa0079
:1012b000889fbe00011798008a9fbe0042179800c1
:1012c0008c9fbe00800678000000eb00601798003d
:1012d000730337008e10900054c2b3008100e80001
:1012e00001179800844f500006003a000102780070
:1012f0000006eb0001c3b30000c2b300b7c2b300e5
:10130000100037003d0290000404b20004003200d7
:101310001d027800004a7800840ee80005003700be
:101320000000fb008d0078009aff0700e10f4000ed
:101330005b0332006e1190000201e8006217980012
:101340005703370084027800d3c2b30034437800d7
:10135000834f53000900320005003c00804f5300ca
:1013600008003200874f53000c003a000700370096
:10137000814f530009003a00060037000c30a000ee
:10138000f0ff37000c00a000eeff37000c10a000ab
:10139000ecff37000c20a000eaff37006202660075
:1013a000010032000c00a10068026600010032005a
:1013b0000c20a1000602fb000403b100e90f52005b
:1013c0000c003e00050378000002eb00b602fb00b3
:1013d000ea22b9000503b1009603fb000482420033
:1013e0000703b10086027800e98f5300f7ff36004b
:1013f000080037000002eb00a7c2b300874f53007c
:1014000004003a004e1390008502e800460278007e
:10141000461798008003eb00e6c2b3005717980008
:10142000954f13000c003a000ce0a00064435300f9
:10143000d54f130003003200050378000700780041
:10144000090037004e1490008502e800c8047800b7
:1014500048179800591798000503780009003700cd
:10146000ea00b9000080430086027800b603fb0062
:101470000703b100e98f5300f9ff360050179800b9
:10148000f5ff3700b6427800cbc6b30006179800c8
:101490008bcf5200250032000f003c0036c6b3004f
:1014a00086cf5200a400320004003c00e0cf52007e
:1014b000000332006b4353000f00370046c6b300f1
:1014c00086cf5200170032006543430086cf52009a
:1014d000b7003a001300370036c7b30086cf52007a
:1014e0001f00320007003c006443530086cf5200c7
:1014f000140032000643e80086cf5200ac003a00e8
:101500001300370056c7b30086cf5200ad0032003b
:101510006343430086cf5200a5003a00054f780090
:101520000d003700054f7800a8003700f003660073
:101530000501200001003200050028000c86720021
:10154000d0ff3700054f78000c60a0009f003700e7
:10155000054f78000c50a0000c70a0009b003700d5
:101560004e109000054f7800c00278004017980098
:1015700075179800e08f520002003a00a2f5210092
:10158000721798007e1390008002eb000100370074
:101590008502e800850343008041eb0097cf1100ee
:1015a000fbff3a00051f9800de129000e08f52000a
:1015b000050032000e1b9000868f520002003100a1
:1015c00085037800071f98008e1a90000004eb0036
:1015d000850f5200010036000504520068066600bf
:1015e00009c2b300110032002d0037003d02900007
:1015f0000404b200040032001d027800094a780099
:10160000840ee800050037008d00780000022000fd
:10161000e0fe0700e10f4000030032006e1590006d
:101620000a05e8006a1798000804e900e00f540072
:10163000eeff3a000084eb0019003700bd02900075
:101640000504b20009003200880278009d0378008a
:1016500035437800864b780005047800870ee80053
:10166000e04f53000a003a00130037008802780068
:101670008d0078003500fb00441f980005047800b9
:10168000c4fe07004e1a9000e10f40000a0032002d
:101690006e1090000000e800601798000600370008
:1016a0000c027800080678007e1490008e1c9000d2
:1016b0001e1d9000ae1d9000890278008504e9008f
:1016c000e08f5200ddff3a0078179800091f98005c
:1016d0001a1f98002b1f98000c047800040678004d
:1016e000e00f56006e02320009c2b3006e16900081
:1016f0000e0037003d0290000404b20004003200e6
:101700001d027800094a7800840ee80005003700c1
:101710008d007800000220009efe0700e10f4000cf
:10172000010032000c06e8000804e900e00f540054
:10173000f0ff3a0059023700ce10900070036600a7
:101740004104780041179800cfc4de0009057800f5
:101750008a0578000800be000a01be004800de00cd
:10176000c80add0000807200004f7800e00f5300cf
:1017700009003200e04f500007003200e14f400006
:1017800005003200260020001047980028479800e6
:10179000061f98000300370017002000071f98005d
:1017a000184798000e04e800781798007eff37006d
:1017b0001a002000054f78007e1798000a1f980035
:1017c00079ff3700054f78000c0cb3008c027800cd
:1017d000050cb2003b003a00e00f560005003d004a
:1017e000ce1290004501be004500be00451798008e
:1017f0000f003700f0026600120032004e14900015
:101800004803be00460798005707980048179800fd
:1018100098029000cfaade0065079800750798002f
:101820004e009000de0090006e019000fe019000de
:1018300070179800011f9800121f9800231f98002e
:101840000b003700ce109000c1027800050478002c
:10185000cfc4de00090578008a057800411798009a
:1018600078179800091f98001a1f98002b1f9800de
:101870007e1090008e1890001e199000ae199000f6
:10188000e00f5000e08f5800e00f5900e08f590042
:1018900032003d006000b8006011b8007e14900076
:1018a0008e1c90001e1d9000ae1d90003c00b300e9
:1018b00008045000898458000a0559008b85590096
:1018c00022003700e00f560005003d00ce129000c8
:1018d0004501be004500be00451798000f003700c7
:1018e000f0026600120032004e1490008004eb00fb
:1018f0004803be000005eb00460f9800570f980004
:10190000690f98007a0f98004e089000de0890004a
:101910006e099000fe099000481798007017980013
:10192000011f9800121f9800231f98000b0037001a
:10193000ce109000c102780041179800050478008d
:10194000090020000a0020000b00200078179800f2
:10195000091f98001a1f98002b1f9800de14900092
:10196000e08f54000d003a001a0020007e10900015
:101970008e1890001e199000ae1990005a1798000a
:10198000e00f5000e08f5800e00f5900e08f590041
:10199000020032008000eb00511798000c01780023
:1019a00005042000020cb20032179800850f510088
:1019b0003400320003003c00e00f51000800320008
:1019c0004800370005082000be119000858f5100a7
:1019d00014003200050c2000858f510041003a00b0
:1019e00006ea210015c0b3003600be003601be0075
:1019f0007e1490008e1c90001e1d9000ae1d900065
:101a00000040e10001c8e10002d0e10003d8e1009c
:101a1000330039008542e800f4cf5200f2ff3a006b
:101a20002f00370015c0b300000120000100200086
:101a30006011b8007e1490008e1c90001e1d900056
:101a4000ae1d90000040e10001c8e10002d0e100bd
:101a500003d8e10022003900490020000000d00036
:101a60008180d2000281d2008381d2008904e90002
:101a7000faff3a008542e800f0cf5200edff3a004d
:101a80001700370015c0b3008000200001002000bf
:101a90006011b8007e1490008e1c90001e1d9000f6
:101aa000ae1d90000040e10001c8e10002d0e1005d
:101ab00003d8e1000a003900390020000000d000fe
:101ac0008180d2000281d2008381d2008904e900a2
:101ad000faff3a008542e800f5cf5200edff3a00e8
:101ae000054f78009e02fb005e1590008a8f520021
:101af00002003d000a4f780004003700de15900018
:101b0000858f550001003d0055179800e00f5200e9
:101b100003003200e3026600010032000402e90023
:101b20000500240085026600060032005e10900069
:101b3000800f520002003400000252000100370002
:101b40000002eb008000eb009e02fb0021179800d2
:101b5000850f5200020034008502520025179800bc
:101b60006402660045003200e2026600610266001f
:101b7000e08f520017003200bd0290000504b20051
:101b8000080032009d027800b6c2b300e00f520098
:101b90000100320006c3e800864a7800850ee8009e
:101ba00008003700b0022000e00f520001003200b0
:101bb0000080e8008d00780076fd0700e10f40000e
:101bc000160032006e1190000201e80062179800c2
:101bd00012003700e00f5200100032003d0290006a
:101be0000404b200050032001d02780005c2b300f3
:101bf000054a7800840ee800050037008d00780063
:101c00000002200063fd0700e10f400003003200e6
:101c1000ee1190008301e800631798002e129000e7
:101c2000e00f52005b00320008c3b3008404780068
:101c30003d0290000404b200040032001d0278004e
:101c4000084a7800840ee800050037008d0078000f
:101c5000000320004ffd0700e10f400003003200a9
:101c6000ee1290008502e800651798008904e900eb
:101c7000efff3a0029179800460037002e13900016
:101c8000e00f5300160032006802660014003a00ac
:101c900008c2b300860478003d0290000404b2003c
:101ca000040032001d027800084a7800840ee80023
:101cb000050037008d0078000002200035fd070088
:101cc000e10f400003003200ee1390008703e800ac
:101cd000671798008904e900efff3a002917980078
:101ce000e202660061026600e08f520017003200d7
:101cf000bd0290000504b200080032009d02780089
:101d0000b6c2b300e00f52000100320006c3e80083
:101d1000864a7800850ee80008003700b0022000ef
:101d2000e00f5200010032000080e8008d007800d2
:101d300018fd0700e10f4000160032006e149000fd
:101d40000804e8006817980012003700e00f5200fe
:101d5000100032003d0290000404b2000500320081
:101d60001d02780005c2b300054a7800840ee80021
:101d7000050037008d0078000002200005fd0700f7
:101d8000e10f400003003200ee1490008904e800e7
:101d9000691798005e15900084e921008a02e90025
:101da000f0056600c32add000c00780004824200c2
:101db0000002b200141798003b0798002007980013
:101dc0009c003700de1090003e1190008100e90079
:101dd0000304200051179800830f51006f00320058
:101de00003003c00e00f5100080032007c00370087
:101df00004082000be129000848f5200510032006f
:101e0000040c2000848f520075003a00e00f560049
:101e10001b003d001e1390007e1090008e18900055
:101e20001e199000ae1990003604be002605be00b3
:101e30000802be000a03be00990107000802be00a6
:101e40000a03be00004f78000000fb00cf80de00d8
:101e50000101780082017800020207007e149000e0
:101e60008e1c90001e1d9000ae1d900000045400ba
:101e700081845c0002055d0083855d0020003700e1
:101e8000be049000e08f5400220032001e1090002b
:101e90007e1290008e1a90003004be002005be0015
:101ea000441f98000400be000801be00351f9800c2
:101eb000c60007000801be00004f78000000fb00cc
:101ec000cf80de00d10007004e1a9000be1a9000ad
:101ed0000001520081815a000002eb00020f9800bd
:101ee000130f9800340f98008001eb00230f980027
:101ef0000e0c90009e0c90002e0d9000be0d9000d8
:101f000078179800091f98001a1f98002b1f980037
:101f1000090037009e1490007e1590001902780089
:101f2000110009000485d800a40020001100090058
:101f30000480d800014f78000bc3b3001ecf4500ca
:101f40002700370094f421002e009000e00f50008d
:101f50000100320084f32100de109000c20add008f
:101f60007e1090008e1890001e199000ae199000ff
:101f70008502e900050033008301d1000281d3000e
:101f80008180d3000080d300f9ff3700ef026000aa
:101f900005024200144f7800110037005e119000d6
:101fa0007e1490008e1c90001e1d9000ae1d9000af
:101fb000e312b90001c3b300040078000000e90097
:101fc000050033008b05d1000a85d3008984d30036
:101fd0000884d300f9ff370067426400014f4200d4
:101fe0003d0290000404b200070032009d02780018
:101ff0001e427800844a7800850ee800e04f5200c7
:1020000006003a00080037001e00fb008d00780033
:1020100060fc0700e10f4000030032006e119000e9
:102020000201e800621798009e119000e8815100bb
:10203000131798005e129000e00f520061ff3a0003
:102040006806660016003200ae129000e08f520063
:10205000130034006e16900008c2b30085047800a7
:102060003d0290000404b200040032001d0278001a
:10207000084a7800840ee800050037008d007800db
:102080000002200043fc0700e10f40000100320085
:102090000c06e8008904e900f1ff3a006c1798008b
:1020a0000e13900016407800004f7800e04f50006b
:1020b00088fc3a004f06be006e1090004f05be002f
:1020c0004f04be000080fa00000006000200fa0083
:1020d000889fbe0001047800004f7800380290000d
:1020e000840278000504b200020032000000fb0008
:1020f00033003700e202620005003a000403b30037
:1021000015049800340498000080eb002c00370080
:10211000d8049000e08f540006003a00120020001e
:102120008e007800480090001f15070019049800e1
:1021300022003700a8029000e08f520008003a0009
:10214000e5f921000430a00025049800050c780072
:1021500034049800250020005504980015049800c8
:1021600018019000a8009000480090000e1507008c
:10217000280290008082eb00150498001e4a780027
:10218000040ce800a4c0b3009e4f12000b003a00fc
:10219000380290000410b2000800320018019000cc
:1021a000a800900048009000ff1407000002eb0018
:1021b0001404980028029000040c78001e00fb0014
:1021c0004f04be000080fa00000006006022b80044
:1021d000060220000000d0008180d2000482d200dc
:1021e0008582d2000000a0000202520083825a00c1
:1021f000030031000202420083824a000000a10075
:102200000603e900f3ff3a0000000600020ab900e5
:10221000001bb9000200b8008100420081004300a9
:10222000000006000000fa00889fbe008a9fbe00e2
:102230003004be002005be000404440085844c0028
:1022400006054d0087854d000898be000a90be0027
:102250000440e10005c8e10006d0e10007d8e10034
:1022600002003100680040001008e8004f05be0081
:102270004f04be000080fa00000006001000fa00c3
:10228000889fbe008a9fbe000605be000404be00f3
:102290003002be002003be00049fbe000697be00b1
:1022a000110020000802520089825a000a035b00d4
:1022b0008b835b00440798005507980066079800d9
:1022c000770798000498be000698be003e02be0044
:1022d0002e03be000820e10009a8e1000ab0e100d9
:1022e0000bb8e100010039008000eb004f05be0093
:1022f000108810004f04be000080fa0000000600a5
:102300001400fa00889fbe005b0007008a9fbe0091
:102310008c9fbe000006eb004c0798003c0798001d
:102320002c0798001c0798000c0f78000605be00cb
:102330000404be000d0420004e039000be02900075
:10234000860343002e029000e00f530003003d007f
:102350002a000700b3ff070002003700270007002c
:10236000c6ff0700ce029000150f9800e08f5200c4
:10237000090035004500070014002000050020007a
:102380006033b800000072008180720002017300a7
:1023900083817300380007000c06e8008d0f56009b
:1023a000e5ff3a001e0a9000e00f520004003d00d5
:1023b0000802be000a03be000e00780099ff070065
:1023c0004eba9700e00f520006003a003e04be00ed
:1023d0002e05be0058079800690798007a079800f4
:1023e0000b0f98004f06be00280007004f05be00e7
:1023f0004f04be000080fa00000006004f2bde00f4
:102400002200070086837300858242004f23de008e
:102410004707980086827200040242003507980040
:102420009e0290004f2bde00858242000602720061
:10243000240798001e0278004f23de0004024200a9
:1024400086827200150798004f18de00000f720098
:102450000e0007000802be000a03be000000400094
:102460008180480002014900838149000200070081
:102470000e007800000006005007980061079800e1
:1024800072079800030f9800000006005e0090009d
:10249000ee0090007e0190008e0990000000060082
:1024a0000000fa00881f780018002000881f7800bc
:1024b00093ff07008f87e9004f0478000080fa003f
:1024c000000006000000fa00801feb008cff0700f0
:1024d0008f87e9000080fa00000006000000fa0083
:1024e000889fbe008a9fbe00e00f5000e08f58001a
:1024f000e00f5900e08f59000c003d006044b80027
:102500006055b8000000540081805c0002015d004d
:1025100083815d00180020001600070008003d00c0
:10252000190007000004eb00050037000004eb0071
:102530001000070002003d001300070018002000f3
:10254000d7ff0700e00f5400060032006022b800f9
:102550006033b8000000520081805a0002015b0025
:1025600083815b004f05be004f04be000080fa006f
:1025700000000600e00f5200e08f5a00e00f5b0001
:10258000e08f5b00000006006044b8006055b800b2
:102590000402540085825c0006035d0087835d00b1
:1025a000000006000000fa00889fbe008a9fbe005f
:1025b0008c1f7800e00f5000e08f5800e00f5900aa
:1025c000e08f59000d003d006044b8006055b80030
:1025d0001c0020000000540081805c0002015d00ae
:1025e00083815d000820e10009a8e1000ab0e10054
:1025f0000bb8e1000d003d00080037000006eb00bd
:10260000e00f5200e08f5a00e00f5b00e08f5b00ac
:1026100006003d006044b8006055b8000402540054
:1026200085825c0006035d0087835d00a5ff0700cf
:10263000e00f5600060032006022b8006033b80098
:102640000000520081805a0002015b0083815b0020
:102650004f0678004f05be004f04be000080fa0010
:10266000000006000000fa00889fbe008a9fbe009e
:102670008c1f78000006eb00e00f5000e08f580040
:10268000e00f5900e08f590007003d006044b8009a
:102690006055b8001c0020000000540081805c00e0
:1026a00002015d0083815d00e00f5200e08f5a005f
:1026b000e00f5b00e08f5b0007003d006044b80066
:1026c0006055b8000c00a2000402540085825c0032
:1026d00006035d0087835d000d000700e00f5600d4
:1026e000060032006022b8006033b80000005200db
:1026f00081805a0002015b0083815b004f067800f5
:102700004f05be004f04be000080fa000000060026
:10271000889fbe008a9fbe008c9fbe000404b80044
:102720000506b8008904460060854e000606b8001c
:102730000a054600e0854e000706b8008b054600f6
:10274000040eb800890446000a854e00e0854d005d
:10275000050eb8000a0546008b854e00060eb8002f
:102760008b0546000416b8000a0546008b854e000e
:102770000516b8008b054600041eb8008b05460000
:102780000800be000a01be004f06be004f05be0095
:082790004f04be00000006002a
:020000040000fa
:102798000a2d00002d2d00002d2d0000546800008a
:1027a800726f0000747400006c6500002042000025
:1027b800726100006b65000020530000696700002b
:1027c8006e6100006c200000446500006275000026
:1027d800672d00002d2d00002d000000546800001a
:1027e800726f0000747400006c650000313a0000dc
:1027f8002020000020200000202000002564000088
:102808000a00000054680000726f00007474000031
:102818006c650000323a00002020000020200000f3
:1028280020200000256400000a0000004272000019
:10283800616b0000653a00002020000020200000a5
:102848002020000020200000202000002564000037
:102858000a0000000a2d00002d2d0000536c000016
:102868006176000065200000232500006420000038
:102878004261000074200000566f00006c74000074
:102888006167000065200000496e0000666f000067
:102898002d2d00002d0a000000420000313a0000f2
:1028a800202500006456000020420000323a000053
:1028b800202500006456000020420000333a000042
:1028c800202500006456000020420000343a000031
:1028d80020250000645600000a0000004235000070
:1028e8003a2000002564000056200000423600000f
:1028f8003a200000256400005620000042370000fe
:102908003a200000256400005620000042380000ec
:102918003a20000025640000560a0000004200002a
:10292800393a0000202500006456000020420000cb
:10293800313000003a2500006456000020200000d5
:10294800202000002020000020200000202000007f
:102958002020000020200000202000000a000000a5
:102968000a4300006f6d00006d73000020770000bf
:102978006974000068200000424d00004d200000ee
:1029880061720000652000006e6f0000206c00007e
:102998006f6e000067650000722000006f6e000017
:1029a8006c6900006e650000000a00002d2d000013
:1029b8002d2d0000536c000061760000652000009a
:1029c80023250000642000004261000074200000fc
:1029d800546500006d700000204900006e6600001c
:1029e8006f2d00002d2d00002d2000000a00000092
:1029f800423100003a200000256400004620000013
:102a0800423200003a200000202500006446000001
:102a180020420000333a0000202000002564000016
:102a280046200000423400003a2000002025000023
:102a3800644600000a000000423500003a20000009
:102a48002564000046200000423600003a200000bd
:102a5800202500006446000020420000373a0000ac
:102a680020200000256400004620000042380000b5
:102a78003a20000020250000644600000a000000fb
:102a8800423900003a20000025640000462000007a
:102a980042310000303a0000202500006446000062
:102aa800202000002020000020200000202000001e
:102ab800202000002020000020200000202000000e
:102ac800202000000a0000000a2d00002d2d000023
:102ad8002d4200004d4d0000205000006f7700008f
:102ae8006572000020530000696700006e610000f5
:102af8006c2000004465000062750000672d00002e
:102b08002d2d00002d000000424d00004d41000019
:102b1800444300005b3000005d3a000020200000c4
:102b28002020000020200000256400000a0000008a
:102b3800424d00004d410000444300005b3100005d
:102b48005d3a000020200000202000002020000026
:102b5800256400000a000000424d00004d410000bd
:102b6800444300005b3200005d3a00002020000072
:102b78002020000020200000256400000a0000003a
:102b8800424d00004d410000444300005b3300000b
:102b98005d3a0000202000002020000020200000d6
:102ba800256400000a0000000a4c00006f7700004e
:102bb800205600006f6c000074610000676500001b
:102bc80020460000617500006c740000206f000052
:102bd8006e200000424d00004d00000046610000dc
:102be800756c0000746900006e67000020420000e8
:102bf80061740000746500007279000020690000ab
:102c0800733a000020250000640000000a48000014
:102c18006967000068200000546500006d700000be
:102c28006572000061740000757200006520000084
:102c380046610000756c0000742000006f6e000093
:102c4800204200004d4d0000000a0000436f0000c4
:102c58006d6d0000756e000069630000617400000e
:102c6800696f00006e730000204600006175000067
:102c78006c740000206f00006e200000424d0000c0
:102c88004d00000046610000756c0000746900008a
:102c98006e670000204d00006f640000756c000036
:102ca80065200000697300003a20000025640000d8
:042cb8000000000018
:020000040000fa
:102cbc000e00fa00000f7800214798003247980068
:102ccc00434798003407980045079800560798002a
:102cdc00670798001e027800e49888003e43900035
:102cec0095312100864a78003e0290006498880055
:102cfc00de029000859888006e03900096988800fc
:102d0c004e029000749888002e4290000482fb00c2
:102d1c000402d1000442780004437800b53121004c
:102d2c00864a7800c4322100f4988800ce42900084
:102d3c0004322100054a78000002eb001499880047
:102d4c000080fa00000006000800fa002007980036
:102d5c00614798000042eb00044f780020003700d8
:102d6c002e02900094427800154798002e02900095
:102d7c000402e8002407980084c0b300244798009c
:102d8c00140037001e4290001e426a00614262002d
:102d9c00344798009e4278000582fb000402d10063
:102dac00044f78003e429000e04f52000200320087
:102dbc00c4c8b3001e4f6a001e4290000482fb0080
:102dcc000402d100144798002e4290000442e900fe
:102ddc00244798002e429000e04f5200e9ff3a0041
:102dec006e4290000482fb000402ea004f22de00d7
:102dfc0004427800ee4290008542e9006547980055
:102e0c00e04f5200d6ff3a001e4278000440780092
:102e1c000080fa00000006000600fa004047980007
:102e2c00c49f800084427800f4988000854078002c
:102e3c0004007800c4ff0700004278002447980083
:102e4c006498800060c0b3000400010064988000a6
:102e5c0050c8b30004000100649880004e409000fc
:102e6c000400010065988000943121001442780020
:102e7c00044078000500010065988000c49f800024
:102e8c000442780004407800050001000002eb00c9
:102e9c00040f78000800370065988000f6988000d1
:102eac001e027800040243001442780004407800ab
:102ebc00050001001e0fe800c49f80009e0f520009
:102ecc00f5ff3c00649880002e4090000400010047
:102edc008041eb002e419000ce409000c03f21007d
:102eec004302070011002000c0322100e801070056
:102efc000080fa00000006000a00fa00889fbe005d
:102f0c007431210014427800e04f520046003a0020
:102f1c00849880000400010000027800e40f520045
:102f2c00410034000a003700149980000402e800c4
:102f3c001499880084988000040001000002780035
:102f4c00e40f520002003c000042eb005801370035
:102f5c00749880000400010000427800e64f520093
:102f6c00f1ff3a00749880000400010000427800e0
:102f7c0055c8b300854f52002b003a00749880005e
:102f8c00040001000042780004437800a5322100bf
:102f9c00864a780074988000040001000042780092
:102fac0004437800a5312100864a7800749880008b
:102fbc0004000100004278000443780075312100c0
:102fcc00864a7800a5322100954278009431210080
:102fdc001442780084cf52000b00320034998000e8
:102fec000402e80034998800749880000400010001
:102ffc000042eb000443780075312100864a7800ca
:10300c000042eb002a013700743121001442780091
:10301c000482fb000402e800040078004bf7070070
:10302c0000027800a49888007431210014427800c2
:10303c00e04f52001d01320064312100144278002f
:10304c00e04f520028003a000000000084988000f5
:10305c000400010000027800e00f5200fbff340076
:10306c00949880000400010000427800e14f420077
:10307c001f003a00650207000042eb000443780091
:10308c0075312100864a78000042eb000443780039
:10309c0065312100864a7800a498800004007800ed
:1030ac00b6f7070094ff07000042780000013700d4
:1030bc00a598800068312100184478000882fb0034
:1030cc00848442007498800004000100004278005f
:1030dc00844c78000842e8000443780065312100f4
:1030ec00864a78000300370000000000010037001a
:1030fc0000000000849880000400010000027800a9
:10310c00e00f520006003200653121009542780034
:10311c00743121001442780084cf5200e4ff360051
:10312c0074312100144278008482fb006431210048
:10313c00144278000482fb000402e900848f5200e0
:10314c00da003a007531210095427800a49880008d
:10315c008540780004007800fbfe070000427800f0
:10316c000443780085312100864a7800a5988000b8
:10317c0064312100144278000482fb000402e9004f
:10318c000482420094427800843121001442780079
:10319c0084cf520079003a000002eb00040f780053
:1031ac0028003700a59880001e0278000482420097
:1031bc0094427800b43121001442780084cf52003c
:1031cc001b003100a59880001e0278000402e80064
:1031dc00048242001442780004437800a53f210089
:1031ec00864a7800a59880001e0278000482e800c8
:1031fc00048242001442780004437800b53f210059
:10320c00864a7800e5988000a69880001e02780017
:10321c0004024300144278000482fb0004024200c2
:10322c0004824200d59f8000050a78000300370015
:10323c00449980000402e800449988001e0278003a
:10324c00630f420074312100144278000482fb00a9
:10325c009e0f5200d3ff3c00043221001442780030
:10326c00e04f52003800320000c2eb004447980097
:10327c0014c0b30054479800a59880006431210015
:10328c00144278000482fb000402e900048242002c
:10329c0014427800644798006402470031c0b300c0
:1032ac0004007800a8fe070000427800244798002c
:1032bc006498800060c0b300040001006498800032
:1032cc0050c8b3000400010065988000a4312100af
:1032dc0014427800044078000500010065988000d5
:1032ec00943121001442780004407800050001005c
:1032fc006498800030c0b300040001006498800022
:10330c0000c0eb00040001006498800010c0b30002
:10331c000400010065988000a698800064312100ab
:10332c00144278000482fb000402e900040243000a
:10333c001442780004407800050001006498800075
:10334c002e409000040001000042eb000443780082
:10335c0075312100864a78000042eb000443780066
:10336c0065312100864a7800a4988000040078001a
:10337c0002f7070014c0b3004d00370024998000f9
:10338c000402e800249988000432210014427800d9
:10339c00e04f52003800320000c2eb007447980036
:1033ac0024c0b300044f9800a5988000643121001c
:1033bc00144278000482fb000402e90004824200fb
:1033cc0014427800144f98006702470031c0b300d4
:1033dc00040078005cfe0700004278003447980037
:1033ec006498800060c0b300040001006498800001
:1033fc0050c8b3000400010065988000a43121007e
:10340c0014427800044078000500010065988000a3
:10341c00943121001442780004407800050001002a
:10342c006498800030c0b3000400010064988000f0
:10343c0000c0eb00040001006498800020c0b300c1
:10344c000400010065988000a6988000643121007a
:10345c00144278000482fb000402e90004024300d9
:10346c001442780004407800050001006498800044
:10347c003e409000040001000042eb000443780041
:10348c0075312100864a78000042eb000443780035
:10349c0065312100864a7800a498800004007800e9
:1034ac00b6f607000042eb00010037000042eb00cb
:1034bc00044078004f04be000080fa0000000600b3
:1034cc000400fa00004f7800110798001e019000cc
:1034dc009e407800c0322100020007000080fa00f4
:1034ec00000006000600fa00000f78002147980043
:1034fc00220798002e029000d49f88001e027800ac
:10350c00e4a29000440c2000848f52003e003c004a
:10351c001e02780044a290009e02780004824200b1
:10352c00ae429000054a78001e02780044a290003a
:10353c00810c2000040078006b000700000278006a
:10354c00840278001e02780045a298001e027800c2
:10355c0064a290008402e8001e02780065a2980024
:10356c001e02780044a29000a53f210095427800ed
:10357c001e03780004024300054a78001e027800fe
:10358c0044a29000810c2000040078005600070033
:10359c0000027800840278001e02780045a2980090
:1035ac001e02780064a290008402e8001e027800db
:1035bc0065a298001e02780044a29000b53f21003d
:1035cc00954278001e03780004024300054a7800f7
:1035dc001e02780044a29000810c200004007800a8
:1035ec004100070000027800840278001e02780077
:1035fc0045a298001e02780064a290008402e800a4
:10360c001e02780065a298000080fa0000000600f7
:10361c000400fa00100798001e02900064a29000ab
:10362c00e00f5200140034001e02900054a29000cf
:10363c009e02900004824200144f78001e029000fb
:10364c0054a29000810c2000040078002600070092
:10365c0000027800840278001e02900055a29800a7
:10366c001e02900064a290008402e9001e029000e9
:10367c0065a29800020037000042eb00044f78006e
:10368c001e427800044078000080fa00000006001a
:10369c000400fa00000f7800110798001e02780051
:1036ac008002eb0065a298001e0278008002eb00fd
:1036bc0045a298001e0278008002eb0055a29800eb
:1036cc001e029000e00f5200050032001e0278002e
:1036dc00820c20008000eb00040078007ef60700ce
:1036ec000080fa00000006000600fa00100798009f
:1036fc00210798001e029000040fe8002e02900093
:10370c009e027800848f5200020039000002eb0008
:10371c00040f78001e027800040078000080fa0084
:10372c00000006000400fa00204798000002eb009d
:10373c00040f7800130037001e0278000442780052
:10374c000041eb0084407800c03f21007f0007005f
:10375c0000427800ae429000854f520008003a00bb
:10376c001e0278000442780022c0b3008440780026
:10377c00c03f2100750007000042780005003700ab
:10378c001e0fe8001e027800e40f5200eaff34001e
:10379c0044c0b300044078000080fa00000006002a
:1037ac000000fa0014998000040078000080fa00f0
:1037bc00000006000000fa00249980000400780044
:1037cc000080fa00000006000000fa003499800026
:1037dc00040078000080fa00000006000000fa00e7
:1037ec0044998000040078000080fa000000060074
:1037fc000600fa00000f7800214798003247980025
:10380c00434798001e027800040a90009e0278003c
:10381c0004824200ae429000054a78001e027800f5
:10382c00040a90008402e8001e027800050a980041
:10383c001e027800040a90009e0278000482420066
:10384c00be429000054a78001e027800040a9000df
:10385c008402e8001e027800050a98001e02780017
:10386c00040a90009e02780004824200ce4290002e
:10387c00054a78001e027800040a90008402e800d1
:10388c001e027800050a98001e027800040a9000b7
:10389c00ee0f5200030034001e0278008002eb0091
:1038ac00050a98000080fa00000006000600fa00e5
:1038bc001007980041479800524798004e429000dc
:1038cc00e44f52000200360044c0b3004447980055
:1038dc004e4290000442e800444798004e4290004b
:1038ec000482fb00e322b900040f78001e02900052
:1038fc00040a90009e0f52000a003d001e02900028
:10390c00040a90001e0252006f0f42001e82e80053
:10391c009e02900004824200de429000054a78002c
:10392c00080037001e029000040a90001e0252008c
:10393c000482e8009e02900004824200de42900065
:10394c00054a78000080fa00000006000600fa0024
:10395c001007980041479800524798004e4290003b
:10396c00e44f52000200360044c0b30044479800b4
:10397c005e429000e24f52000200360024c0b300b9
:10398c00544798004e4290000442e8004447980087
:10399c004e4290000482fb00e322b900040f780031
:1039ac001e029000040a90009e0f52000b003d0076
:1039bc001e029000040a90001e0252006f0f42007b
:1039cc005e4290000482fb001e0242009e029000a8
:1039dc000482420014427800090037001e02900055
:1039ec00040a90009e0252005e4290000482fb008a
:1039fc00048242009e02900004824200144278002d
:103a0c00044078000080fa00000006000800fa006c
:103a1c00881f7800000000008498800004000100da
:103a2c0000027800e30f5200fbff34007498800012
:103a3c00040001000042780044479800749880000c
:103a4c0004000100004278005447980074988000ec
:103a5c0004000100004278006447980074988000cc
:103a6c0004000100004278002447980064024700db
:103a7c0031c0b30004007800b3fc070000427800aa
:103a8c0034479800ae4290003e42900084cf5200e2
:103a9c0032003a000002eb00040f78002b003700d4
:103aac001e027800044278000041eb00844078004c
:103abc00c03f2100a5ff070000427800a53121007e
:103acc0095427800854f52001f003a006e449000da
:103adc001e0278000442780012c0b30084407800c3
:103aec00c03f210099ff070000427800844f54002a
:103afc0015003a005e429000e14f520007003a0078
:103b0c001e0278000442780012c0b3008440780092
:103b1c00c03f210065ff0700130037005e42900094
:103b2c00e24f520008003a001e027800044278006e
:103b3c0022c0b30084407800c03f21005bff070027
:103b4c0000000000080037001e0fe8001e0278007d
:103b5c00e40f5200d2ff3400030037002499800098
:103b6c000402e800249988004f0478000080fa00d1
:103b7c00000006000e00fa00000f780021479800a4
:103b8c00324798004347980034079800450798003f
:103b9c0056079800670798001e027800b4d5880075
:103bac003e43900035ab2100864a78003e029000df
:103bbc0034d58800de02900055d588006e03900045
:103bcc0066d588004e02900044d588002e429000a5
:103bdc000482fb000402d100044278000443780004
:103bec0055ab2100864a780064ac2100c4d588000e
:103bfc00ce429000a4ab2100054a78000002eb00f5
:103c0c00e4d588000080fa00000006000800fa00e5
:103c1c0020079800614798000042eb00044f7800a1
:103c2c00200037002e02900094427800154798002f
:103c3c002e0290000402e8002407980084c0b30010
:103c4c0024479800140037001e4290001e426a0060
:103c5c0061426200344798009e4278000582fb0066
:103c6c000402d100044f78003e429000e04f520015
:103c7c0002003200c4c8b3001e4f6a001e429000fe
:103c8c000482fb000402d100144798002e429000dd
:103c9c000442e900244798002e429000e04f520065
:103cac00e9ff3a006e4290000482fb000402ea0035
:103cbc004f22de0004427800ee4290008542e9007b
:103ccc0065479800e04f5200d6ff3a001e4278003c
:103cdc00044078000080fa00000006000600fa009c
:103cec004047980094dc800084427800c4d5800062
:103cfc008540780004007800c4ff0700004278007b
:103d0c002447980034d5800060c0b3000400010043
:103d1c0034d5800050c8b3000400010034d58000b5
:103d2c004e4090000400010035d5800034ab2100da
:103d3c0014427800044078000500010035d580005d
:103d4c0094dc8000044278000440780005000100f7
:103d5c000002eb00040f78000800370035d5800016
:103d6c00c6d580001e02780004024300144278007d
:103d7c0004407800050001001e0fe80094dc800070
:103d8c009e0f5200f5ff3c0034d580002e40900071
:103d9c00040001008041eb002e419000ce409000c9
:103dac0060b92100430207001100200060ac210023
:103dbc00e80107000080fa00000006000a00fa0083
:103dcc00889fbe0014ab210014427800e04f5200d3
:103ddc0046003a0054d5800004000100000278002f
:103dec00e40f5200410034000a003700e4d5800093
:103dfc000402e800e4d5880054d5800004000100da
:103e0c0000027800e40f520002003c000042eb007c
:103e1c005801370044d580000400010000427800ae
:103e2c00e64f5200f1ff3a0044d580000400010037
:103e3c000042780055c8b300854f52002b003a0061
:103e4c0044d580000400010000427800044378004f
:103e5c0045ac2100864a780044d58000040001005e
:103e6c00004278000443780045ab2100864a780074
:103e7c0044d580000400010000427800044378001f
:103e8c0015ab2100864a780045ac2100954278009c
:103e9c0034ab21001442780084cf52000b00320066
:103eac0004d680000402e80004d6880044d58000c3
:103ebc00040001000042eb000443780015ab210024
:103ecc00864a78000042eb002a01370014ab21002f
:103edc00144278000482fb000402e800040078001d
:103eec009af307000002780074d5880014ab210007
:103efc0014427800e04f52001d01320004ab210047
:103f0c0014427800e04f520028003a0000000000f4
:103f1c0054d580000400010000027800e00f52002c
:103f2c00fbff340064d580000400010000427800df
:103f3c00e14f42001f003a00650207000042eb000f
:103f4c000443780015ab2100864a78000042eb0050
:103f5c000443780005ab2100864a780074d58000b4
:103f6c000400780005f4070094ff07000042780075
:103f7c000001370075d5800008ab2100184478008b
:103f8c000882fb008484420044d5800004000100b8
:103f9c0000427800844c78000842e8000443780022
:103fac0005ab2100864a78000300370000000000b2
:103fbc00010037000000000054d58000040001000f
:103fcc0000027800e00f52000600320005ab210021
:103fdc009542780014ab21001442780084cf520033
:103fec00e4ff360014ab2100144278008482fb00fd
:103ffc0004ab2100144278000482fb000402e900a7
:10400c00848f5200da003a0015ab210095427800fb
:10401c0074d580008540780004007800fbfe070012
:10402c00004278000443780025ab2100864a7800d2
:10403c0075d5800004ab2100144278000482fb008b
:10404c000402e900048242009442780024ab21006f
:10405c001442780084cf520079003a000002eb0041
:10406c00040f78002800370075d580001e027800f8
:10407c00048242009442780054ab21001442780030
:10408c0084cf52001b00310075d580001e027800d1
:10409c000402e800048242001442780004437800d1
:1040ac0045b92100864a780075d580001e0278003b
:1040bc000482e80004824200144278000443780031
:1040cc0055b92100864a7800b5d5800076d5800098
:1040dc001e02780004024300144278000482fb00a4
:1040ec000402420004824200a5dc8000050a78002c
:1040fc000300370014d680000402e80014d68800b0
:10410c001e027800630f420014ab210014427800a9
:10411c000482fb009e0f5200d3ff3c00a4ab210095
:10412c0014427800e04f52003800320000c2eb001d
:10413c004447980014c0b3005447980075d58000cc
:10414c0004ab2100144278000482fb000402e90055
:10415c0004824200144278006447980064024700cd
:10416c0031c0b30004007800a8fe070000427800bc
:10417c002447980034d5800060c0b30004000100cf
:10418c0034d5800050c8b3000400010035d5800040
:10419c0044ab210014427800044078000500010073
:1041ac0035d5800034ab21001442780004407800ef
:1041bc000500010034d5800030c0b30004000100bc
:1041cc0034d5800000c0eb000400010034d5800021
:1041dc0010c0b3000400010035d5800076d58000f6
:1041ec0004ab2100144278000482fb000402e900b5
:1041fc0004024300144278000440780005000100da
:10420c0034d580002e409000040001000042eb00e9
:10421c000443780015ab2100864a78000042eb007d
:10422c000443780005ab2100864a780074d58000e1
:10423c000400780051f3070014c0b3004d003700a0
:10424c00f4d580000402e800f4d58800a4ab21006a
:10425c0014427800e04f52003800320000c2eb00ec
:10426c007447980024c0b300044f980075d58000a3
:10427c0004ab2100144278000482fb000402e90024
:10428c000482420014427800144f980067024700e1
:10429c0031c0b300040078005cfe070000427800d7
:1042ac003447980034d5800060c0b300040001008e
:1042bc0034d5800050c8b3000400010035d580000f
:1042cc0044ab210014427800044078000500010042
:1042dc0035d5800034ab21001442780004407800be
:1042ec000500010034d5800030c0b300040001008b
:1042fc0034d5800000c0eb000400010034d58000f0
:10430c0020c0b3000400010035d5800076d58000b4
:10431c0004ab2100144278000482fb000402e90083
:10432c0004024300144278000440780005000100a8
:10433c0034d580003e409000040001000042eb00a8
:10434c000443780015ab2100864a78000042eb004c
:10435c000443780005ab2100864a780074d58000b0
:10436c000400780005f307000042eb000100370061
:10437c000042eb00044078004f04be000080fa00bd
:10438c00000006000400fa00004f780011079800a6
:10439c001e0190009e40780060ac210002000700d6
:1043ac000080fa00000006000600fa00000f7800fa
:1043bc0021479800220798002e029000a4dc880068
:1043cc001e027800e4a29000440c2000848f52005e
:1043dc003e003c001e02780044a290009e02780031
:1043ec0004824200ae429000054a78001e0278001a
:1043fc0044a29000810c2000040078006b000700a0
:10440c0000027800840278001e02780045a2980011
:10441c001e02780064a290008402e8001e0278005c
:10442c0065a298001e02780044a2900045b92100b4
:10443c00954278001e03780004024300054a780078
:10444c001e02780044a29000810c20000400780029
:10445c005600070000027800840278001e027800e3
:10446c0045a298001e02780064a290008402e80025
:10447c001e02780065a298001e02780044a29000eb
:10448c0055b92100954278001e03780004024300c0
:10449c00054a78001e02780044a29000810c20008e
:1044ac0004007800410007000002780084027800c4
:1044bc001e02780045a298001e02780064a29000ab
:1044cc008402e8001e02780065a298000080fa00c1
:1044dc00000006000400fa00100798001e0290006d
:1044ec0064a29000e00f5200140034001e029000f1
:1044fc0054a290009e02900004824200144f780057
:10450c001e02900054a29000810c20000400780040
:10451c002600070000027800840278001e0290003a
:10452c0055a298001e02900064a290008402e9003b
:10453c001e02900065a29800020037000042eb00ba
:10454c00044f78001e427800044078000080fa0086
:10455c00000006000400fa00000f78001107980014
:10456c001e0278008002eb0065a298001e02780003
:10457c008002eb0045a298001e0278008002eb003e
:10458c0055a298001e029000e00f52000500320068
:10459c001e027800820c20008000eb0004007800e2
:1045ac00cdf207000080fa00000006000600fa00b9
:1045bc0010079800210798001e029000040fe800d5
:1045cc002e0290009e027800848f52000200390067
:1045dc000002eb00040f78001e0278000400780043
:1045ec000080fa00000006000400fa002047980042
:1045fc000002eb00040f7800130037001e02780055
:10460c00044278000041eb008440780060b921003e
:10461c007f00070000427800ae429000854f5200a8
:10462c0008003a001e0278000442780022c0b30051
:10463c008440780060b921007500070000427800c2
:10464c00050037001e0fe8001e027800e40f520030
:10465c00eaff340044c0b300044078000080fa0044
:10466c00000006000000fa00e4d580000400780089
:10467c000080fa00000006000000fa00f4d580006b
:10468c00040078000080fa00000006000000fa0028
:10469c0004d68000040078000080fa0000000600b8
:1046ac000000fa0014d68000040078000080fa00a4
:1046bc00000006000600fa00000f78002147980061
:1046cc0032479800434798001e027800040a900075
:1046dc009e02780004824200ae429000054a7800a7
:1046ec001e027800040a90008402e8001e02780082
:1046fc00050a98001e027800040a90009e027800b9
:10470c0004824200be429000054a78001e027800e6
:10471c00040a90008402e8001e027800050a980042
:10472c001e027800040a90009e0278000482420067
:10473c00ce429000054a78001e027800040a9000d0
:10474c008402e8001e027800050a98001e02780018
:10475c00040a9000ee0f5200030034001e02780091
:10476c008002eb00050a98000080fa0000000600a9
:10477c000600fa001007980041479800524798002d
:10478c004e429000e44f52000200360044c0b30089
:10479c00444798004e4290000442e8004447980079
:1047ac004e4290000482fb00e322b900040f780013
:1047bc001e029000040a90009e0f52000a003d0059
:1047cc001e029000040a90001e0252006f0f42005d
:1047dc001e82e8009e02900004824200de4290009d
:1047ec00054a7800080037001e029000040a900069
:1047fc001e0252000482e8009e02900004824200d5
:10480c00de429000054a78000080fa0000000600a5
:10481c000600fa001007980041479800524798008c
:10482c004e429000e44f52000200360044c0b300e8
:10483c00444798005e429000e24f5200020036005e
:10484c0024c0b300544798004e4290000442e80044
:10485c00444798004e4290000482fb00e322b900ca
:10486c00040f78001e029000040a90009e0f520064
:10487c000b003d001e029000040a90001e02520024
:10488c006f0f42005e4290000482fb001e02420049
:10489c009e02900004824200144278000900370006
:1048ac001e029000040a90009e0252005e4290008c
:1048bc000482fb00048242009e02900004824200ab
:1048cc0014427800044078000080fa0000000600d2
:1048dc000800fa00881f78000000000054d5800002
:1048ec000400010000027800e30f5200fbff3400cb
:1048fc0044d5800004000100004278004447980031
:10490c0044d5800004000100004278005447980010
:10491c0044d58000040001000042780064479800f0
:10492c0044d5800004000100004278002447980020
:10493c006402470031c0b30004007800b3fc0700e8
:10494c000042780034479800ae4290003e429000fe
:10495c0084cf520032003a000002eb00040f7800c2
:10496c002b0037001e027800044278000041eb0057
:10497c008440780060b92100a5ff07000042780050
:10498c0045ab210095427800854f52001f003a003c
:10499c006e4490001e0278000442780012c0b300ee
:1049ac008440780060b9210099ff0700004278002c
:1049bc00844f540015003a005e429000e14f5200c3
:1049cc0007003a001e0278000442780012c0b300bf
:1049dc008440780060b9210065ff070013003700a0
:1049ec005e429000e24f520008003a001e0278002e
:1049fc000442780022c0b3008440780060b92100e2
:104a0c005bff070000000000080037001e0fe800e5
:104a1c001e027800e40f5200d2ff3400030037006e
:104a2c00f4d580000402e800f4d588004f04780027
:104a3c000080fa00000006000e00fa00000f78005b
:104a4c002147980032479800434798003407980054
:104a5c004507980056079800670798001e027800d3
:104a6c0004df88003e439000d5bd2100864a7800c3
:104a7c003e02900084de8800de029000a5de8800f5
:104a8c006e039000b6de88004e02900094de880023
:104a9c002e4290000482fb000402d10004427800f4
:104aac0004437800f5bd2100864a780004bf21003c
:104abc0014df8800ce42900044be2100054a7800e5
:104acc000002eb0034df88000080fa0000000600d2
:104adc000800fa0020079800614798000042eb009c
:104aec00044f7800200037002e029000944278008a
:104afc00154798002e0290000402e8002407980045
:104b0c0084c0b30024479800140037001e42900064
:104b1c001e426a0061426200344798009e4278004f
:104b2c000582fb000402d100044f78003e42900045
:104b3c00e04f520002003200c4c8b3001e4f6a009e
:104b4c001e4290000482fb000402d100144798001e
:104b5c002e4290000442e900244798002e42900017
:104b6c00e04f5200e9ff3a006e4290000482fb00d5
:104b7c000402ea004f22de0004427800ee4290006c
:104b8c008542e90065479800e04f5200d6ff3a0095
:104b9c001e427800044078000080fa0000000600f5
:104bac000600fa0040479800e4e580008442780053
:104bbc0014df80008540780004007800c4ff0700f3
:104bcc00004278002447980084de800060c0b30067
:104bdc000400010084de800050c8b3000400010012
:104bec0084de80004e4090000400010085de8000d1
:104bfc00d4bd210014427800044078000500010067
:104c0c0085de8000e4e580000442780004407800f2
:104c1c00050001000002eb00040f780008003700cb
:104c2c0085de800016df80001e027800040243003f
:104c3c001442780004407800050001001e0fe800c3
:104c4c00e4e580009e0f5200f5ff3c0084de8000fe
:104c5c002e409000040001008041eb002e4190009a
:104c6c00ce40900000cc2100430207001100200030
:104c7c0000bf2100e80107000080fa0000000600d8
:104c8c000a00fa00889fbe00b4bd210014427800cf
:104c9c00e04f520046003a00a4de80000400010000
:104cac0000027800e40f5200410034000a00370083
:104cbc0034df80000402e80034df8800a4de8000ca
:104ccc000400010000027800e40f520002003c00d6
:104cdc000042eb005801370094de80000400010014
:104cec0000427800e64f5200f1ff3a0094de80005b
:104cfc00040001000042780055c8b300854f5200f3
:104d0c002b003a0094de8000040001000042780081
:104d1c0004437800e5be2100864a780094de8000ca
:104d2c00040001000042780004437800e5bd210036
:104d3c00864a780094de800004000100004278006e
:104d4c0004437800b5bd2100864a7800e5be2100f9
:104d5c0095427800d4bd21001442780084cf5200d3
:104d6c000b00320054df80000402e80054df88009e
:104d7c0094de8000040001000042eb000443780044
:104d8c00b5bd2100864a78000042eb002a013700ad
:104d9c00b4bd2100144278000482fb000402e80038
:104dac0004007800e9ef070000027800c4de8800f8
:104dbc00b4bd210014427800e04f52001d013200b6
:104dcc00a4bd210014427800e04f520028003a00a4
:104ddc0000000000a4de8000040001000002780046
:104dec00e00f5200fbff3400b4de80000400010031
:104dfc0000427800e14f42001f003a0065020700b4
:104e0c000042eb0004437800b5bd2100864a7800cf
:104e1c000042eb0004437800a5bd2100864a7800cf
:104e2c00c4de80000400780054f0070094ff0700f3
:104e3c000042780000013700c5de8000a8bd2100cb
:104e4c00184478000882fb008484420094de8000c1
:104e5c000400010000427800844c78000842e8000d
:104e6c0004437800a5bd2100864a78000300370072
:104e7c00000000000100370000000000a4de8000ec
:104e8c000400010000027800e00f5200060032001e
:104e9c00a5bd210095427800b4bd210014427800d4
:104eac0084cf5200e4ff3600b4bd210014427800d8
:104ebc008482fb00a4bd2100144278000482fb0014
:104ecc000402e900848f5200da003a00b5bd2100db
:104edc0095427800c4de800085407800040078009c
:104eec00fbfe07000042780004437800c5bd21009a
:104efc00864a7800c5de8000a4bd210014427800eb
:104f0c000482fb000402e90004824200944278000f
:104f1c00c4bd21001442780084cf520079003a00bd
:104f2c000002eb00040f780028003700c5de80007b
:104f3c001e0278000482420094427800f4bd2100e5
:104f4c001442780084cf52001b003100c5de800073
:104f5c001e0278000402e800048242001442780029
:104f6c0004437800e5cb2100864a7800c5de80003a
:104f7c001e0278000482e800048242001442780089
:104f8c0004437800f5cb2100864a780005df8000c9
:104f9c00c6de80001e027800040243001442780032
:104fac000482fb000402420004824200f5e580000a
:104fbc00050a78000300370064df80000402e80073
:104fcc0064df88001e027800630f4200b4bd21002c
:104fdc00144278000482fb009e0f5200d3ff3c0069
:104fec0044be210014427800e04f520038003200d9
:104ffc0000c2eb004447980014c0b300544798001b
:10500c00c5de8000a4bd2100144278000482fb00a0
:10501c000402e900048242001442780064479800bc
:10502c006402470031c0b30004007800a8fe0700fa
:10503c00004278002447980084de800060c0b300f2
:10504c000400010084de800050c8b300040001009d
:10505c0085de8000e4bd2100144278000440780015
:10506c000500010085de8000d4bd210014427800cb
:10507c00044078000500010084de800030c0b300dd
:10508c000400010084de800000c0eb00040001007d
:10509c0084de800010c0b3000400010085de8000b7
:1050ac00c6de8000a4bd2100144278000482fb00ff
:1050bc000402e90004024300144278000440780022
:1050cc000500010084de80002e40900004000100e9
:1050dc000042eb0004437800b5bd2100864a7800fd
:1050ec000042eb0004437800a5bd2100864a7800fd
:1050fc00c4de800004007800a0ef070014c0b300e9
:10510c004d00370044df80000402e80044df8800d3
:10511c0044be210014427800e04f520038003200a7
:10512c0000c2eb007447980024c0b300044f9800f1
:10513c00c5de8000a4bd2100144278000482fb006f
:10514c000402e9000482420014427800144f9800d3
:10515c006702470031c0b300040078005cfe070012
:10516c00004278003447980084de800060c0b300b1
:10517c000400010084de800050c8b300040001006c
:10518c0085de8000e4bd21001442780004407800e4
:10519c000500010085de8000d4bd2100144278009a
:1051ac00044078000500010084de800030c0b300ac
:1051bc000400010084de800000c0eb00040001004c
:1051cc0084de800020c0b3000400010085de800076
:1051dc00c6de8000a4bd2100144278000482fb00ce
:1051ec000402e900040243001442780004407800f1
:1051fc000500010084de80003e40900004000100a8
:10520c000042eb0004437800b5bd2100864a7800cb
:10521c000042eb0004437800a5bd2100864a7800cb
:10522c00c4de80000400780054ef07000042eb005d
:10523c00010037000042eb00044078004f04be0030
:10524c000080fa00000006000400fa00004f78000d
:10525c00110798001e0190009e40780000bf2100ad
:10526c00020007000080fa00000006000600fa00a9
:10527c00000f780021479800220798002e0290001a
:10528c00f4e588001e027800e4a29000440c200093
:10529c00848f52003e003c001e02780044a2900015
:1052ac009e02780004824200ae429000054a7800cb
:1052bc001e02780044a29000810c200004007800ab
:1052cc006b00070000027800840278001e02780050
:1052dc0045a298001e02780064a290008402e800a7
:1052ec001e02780065a298001e02780044a290006d
:1052fc00e5cb2100954278001e03780004024300a0
:10530c00054a78001e02780044a29000810c20000f
:10531c000400780056000700000278008402780030
:10532c001e02780045a298001e02780064a290002c
:10533c008402e8001e02780065a298001e02780024
:10534c0044a29000f5cb2100954278001e03780012
:10535c0004024300054a78001e02780044a2900023
:10536c00810c200004007800410007000002780046
:10537c00840278001e02780045a298001e02780074
:10538c0064a290008402e8001e02780065a29800d6
:10539c000080fa00000006000400fa0010079800d4
:1053ac001e02900064a29000e00f52001400340022
:1053bc001e02900054a290009e02900004824200b3
:1053cc00144f78001e02900054a29000810c200013
:1053dc0004007800260007000002780084027800a0
:1053ec001e02900055a298001e02900064a290002c
:1053fc008402e9001e02900065a2980002003700aa
:10540c000042eb00044f78001e4278000440780004
:10541c000080fa00000006000400fa00000f78007b
:10542c00110798001e0278008002eb0065a298001c
:10543c001e0278008002eb0045a298001e02780044
:10544c008002eb0055a298001e029000e00f520063
:10545c00050032001e027800820c20008000eb0058
:10546c00040078001cef07000080fa000000060022
:10547c000600fa0010079800210798001e02900001
:10548c00040fe8002e0290009e027800848f5200d8
:10549c00020039000002eb00040f78001e027800b5
:1054ac00040078000080fa00000006000400fa00f6
:1054bc00204798000002eb00040f7800130037001f
:1054cc001e027800044278000041eb008440780012
:1054dc0000cc21007f00070000427800ae42900013
:1054ec00854f520008003a001e02780004427800f2
:1054fc0022c0b3008440780000cc21007500070066
:10550c0000427800050037001e0fe8001e027800ec
:10551c00e40f5200eaff340044c0b30004407800aa
:10552c000080fa00000006000000fa0034df800062
:10553c00040078000080fa00000006000000fa0069
:10554c0044df8000040078000080fa0000000600b0
:10555c000000fa0054df8000040078000080fa009c
:10556c00000006000000fa0064df800004007800f0
:10557c000080fa00000006000600fa00000f780018
:10558c002147980032479800434798001e02780044
:10559c00040a90009e02780004824200ae42900001
:1055ac00054a78001e027800040a90008402e80084
:1055bc001e027800050a98001e027800040a90006a
:1055cc009e02780004824200be429000054a780098
:1055dc001e027800040a90008402e8001e02780083
:1055ec00050a98001e027800040a90009e027800ba
:1055fc0004824200ce429000054a78001e027800d8
:10560c00040a90008402e8001e027800050a980043
:10561c001e027800040a9000ee0f520003003400c2
:10562c001e0278008002eb00050a98000080fa0048
:10563c00000006000600fa00100798004147980089
:10564c00524798004e429000e44f52000200360040
:10565c0044c0b300444798004e4290000442e80016
:10566c00444798004e4290000482fb00e322b900ac
:10567c00040f78001e029000040a90009e0f520046
:10568c000a003d001e029000040a90001e02520007
:10569c006f0f42001e82e8009e02900004824200be
:1056ac00de429000054a7800080037001e02900088
:1056bc00040a90001e0252000482e8009e02900030
:1056cc0004824200de429000054a78000080fa0015
:1056dc00000006000600fa001007980041479800e9
:1056ec00524798004e429000e44f520002003600a0
:1056fc0044c0b300444798005e429000e24f520011
:10570c000200360024c0b300544798004e4290006b
:10571c000442e800444798004e4290000482fb008b
:10572c00e322b900040f78001e029000040a9000d6
:10573c009e0f52000b003d001e029000040a9000c8
:10574c001e0252006f0f42005e4290000482fb006a
:10575c001e0242009e029000048242001442780015
:10576c00090037001e029000040a90009e025200ad
:10577c005e4290000482fb00048242009e02900074
:10578c000482420014427800044078000080fa0041
:10579c00000006000800fa00881f780000000000d6
:1057ac00a4de80000400010000027800e30f520028
:1057bc00fbff340094de80000400010000427800fe
:1057cc004447980094de80000400010000427800f9
:1057dc005447980094de80000400010000427800d9
:1057ec006447980094de80000400010000427800b9
:1057fc00244798006402470031c0b30004007800cd
:10580c00b3fc07000042780034479800ae42900089
:10581c003e42900084cf520032003a000002eb006e
:10582c00040f78002b0037001e0278000442780029
:10583c000041eb008440780000cc2100a5ff07005c
:10584c0000427800e5bd210095427800854f52005a
:10585c001f003a006e4490001e027800044278004b
:10586c0012c0b3008440780000cc210099ff0700df
:10587c0000427800844f540015003a005e429000bc
:10588c00e14f520007003a001e02780004427800f3
:10589c0012c0b3008440780000cc210065ff0700e3
:1058ac00130037005e429000e24f520008003a00ad
:1058bc001e0278000442780022c0b30084407800b5
:1058cc0000cc21005bff070000000000080037003f
:1058dc001e0fe8001e027800e40f5200d2ff3400c5
:1058ec000300370044df80000402e80044df880036
:1058fc004f0478000080fa00000006000e00fa0049
:10590c00000f7800214798003247980043479800d1
:10591c0034079800450798005607980067079800c9
:10592c001e02780054e888003e43900075d0210098
:10593c00864a78003e029000d4e78800de02900090
:10594c00f5e788006e03900006e888004e02900090
:10595c00e4e788002e4290000482fb000402d10090
:10596c00044278000443780095d02100864a7800e0
:10597c00a4d1210064e88800ce429000e4d021003c
:10598c00054a78000002eb0084e888000080fa00e9
:10599c00000006000800fa002007980061479800f4
:1059ac000042eb00044f7800200037002e029000dc
:1059bc0094427800154798002e0290000402e800eb
:1059cc002407980084c0b3002447980014003700c3
:1059dc001e4290001e426a006142620034479800e9
:1059ec009e4278000582fb000402d100044f78002f
:1059fc003e429000e04f520002003200c4c8b30097
:105a0c001e4f6a001e4290000482fb000402d1006b
:105a1c00144798002e4290000442e9002447980055
:105a2c002e429000e04f5200e9ff3a006e42900087
:105a3c000482fb000402ea004f22de0004427800dc
:105a4c00ee4290008542e90065479800e04f520015
:105a5c00d6ff3a001e427800044078000080fa001d
:105a6c00000006000600fa004047980034ef800062
:105a7c008442780064e88000854078000400780057
:105a8c00c4ff07000042780024479800d4e7800048
:105a9c0060c0b30004000100d4e7800050c8b3001c
:105aac0004000100d4e780004e4090000400010087
:105abc00d5e7800074d021001442780004407800af
:105acc0005000100d5e7800034ef80000442780027
:105adc0004407800050001000002eb00040f780080
:105aec0008003700d5e7800066e880001e027800c9
:105afc0004024300144278000440780005000100c1
:105b0c001e0fe80034ef80009e0f5200f5ff3c00a2
:105b1c00d4e780002e409000040001008041eb008f
:105b2c002e419000ce409000a0de210043020700e1
:105b3c0011002000a0d12100e80107000080fa002c
:105b4c00000006000a00fa00889fbe0054d0210015
:105b5c0014427800e04f520046003a00f4e780000f
:105b6c000400010000027800e40f520041003400f0
:105b7c000a00370084e880000402e80084e888000a
:105b8c00f4e780000400010000027800e40f5200ea
:105b9c0002003c000042eb0058013700e4e78000b3
:105bac000400010000427800e64f5200f1ff3a0079
:105bbc00e4e78000040001000042780055c8b300ff
:105bcc00854f52002b003a00e4e7800004000100ee
:105bdc00004278000443780085d12100864a780081
:105bec00e4e78000040001000042780004437800e0
:105bfc0085d02100864a7800e4e78000040001008b
:105c0c00004278000443780055d02100864a780081
:105c1c0085d121009542780074d02100144278007f
:105c2c0084cf52000b003200a4e880000402e8008c
