:0400000054EF00F0C9
:10000800FACF06F0FBCF07F0E9CF08F0EACF09F006
:10001800E1CF0AF0E2CF0BF0D9CF0CF0DACF0DF038
:10002800F3CF0EF0F4CF0FF0F6CF10F0F7CF11F0BA
:10003800F8CF12F0F5CF13F09DBA9EAA03D0BBEC0F
:100048000BF011D09DBC9EAC03D065EC0CF00BD02E
:100058009DB89EA803D088EC0BF005D09DB09EA05B
:1000680002D0D6EC0AF013C0F5FF12C0F8FF11C099
:10007800F7FF10C0F6FF0FC0F4FF0EC0F3FF0DC06E
:10008800DAFF0CC0D9FF0BC0E2FF0AC0E1FF09C0CC
:10009800EAFF08C0E9FF07C0FBFF06C0FAFF11002E
:0400A800A2EF0BF0C8
:100600000000000000803FF0FFBEE2A93E8376BEFE
:10061000AE2B3E3CC3BDD2133D78D3BB00000001DE
:10062000D2C0D6F00001D76BD86B0001D1350001E4
:10063000D63701E3D7810001D6510001DB6F0001FD
:10064000D5C0D6F00001D76BD86B0001D4350001BE
:10065000D63701E3D7810001D6510001DA6F0001DE
:10066000DB51D8B412D00001DA510001DB5DD8B003
:1006700013D00001DB5100080001DA250001D66F1C
:10068000190E0001D65DD8A007D0D3C0D0F0D4C0D9
:10069000D1F0D5C0D2F012000001DA51D8B412D096
:1006A0000001DB510001DA5DD8B013D00001DA514E
:1006B00000080001DB250001D66F190E0001D65D90
:1006C000D8A007D0D0C0D0F0D1C0D1F0D2C0D2F0E5
:1006D0001200060E0001D96F0001D2AF02D0000156
:1006E000D98F0001D5AF02D00001D98D0001D18F83
:1006F000FF0E0001D017FF0E0001D117000E000100
:10070000D2170001D48FFF0E0001D317FF0E000196
:10071000D417000E0001D5170001DA510001DB5D8E
:10072000D8B02AD00001D8900001D3370001D437C7
:100730000001D5370001DA070001DA510001DB19A9
:10074000D8B414D00001D907D9C0D6F0070E0001E3
:10075000D617D8B40BD0E6D70001D8900001D23319
:100760000001D1330001D0330001DB2B0001DA514D
:100770000001DB63F1D72FD00001DB510001DA5D0E
:10078000D8B029D00001D8900001D0370001D1376E
:100790000001D2370001DB070001DA510001DB194B
:1007A000D8B414D00001D907D9C0D6F0070E000183
:1007B000D617D8B40BD0E6D70001D8900001D533B6
:1007C0000001D4330001D3330001DA2B0001DA51E8
:1007D0000001DB63F1D70001D9AF12D0FF0E000199
:1007E000D01BFF0E0001D11BFF0E0001D21B010E1A
:1007F0000001D027000E0001D123000E0001D223FA
:100800000001D9AD12D0FF0E0001D31BFF0E000175
:10081000D41BFF0E0001D51B010E0001D327000ED3
:100820000001D423000E0001D523000E0001D96F72
:100830000001D0510001D3270001D1510001D42380
:100840000001D2510001D5230001D5AF15D0FF0E14
:100850000001D31BFF0E0001D41BFF0E0001D51BAE
:10086000010E0001D327000E0001D423000E000169
:10087000D523010E0001D96FD3C014F0D4C015F0F8
:10088000D5C016F0DBC017F0D9C018F0BCEC09F0E9
:1008900014C0D0F015C0D1F016C0D2F01200000E76
:1008A0000001F66F000E0001F56F0001F651800A9D
:1008B000800F0A0ED8B4F55DD8B00DD1000E00013E
:1008C000D36F800E0001D46FBF0E0001D56FC80E2C
:1008D0000001ED6F010EEE6FD8900001F535D96E75
:1008E0000001F635DA6E0001ED51D9260001EE5116
:1008F000DA22DECF1CF0DDCF1DF028EC0BF01CC09F
:1009000023F01DC024F01EC025F0C00E206E7F0E07
:10091000216E440E226EF4EC08F020C0D0F021C00D
:10092000D1F022C0D2F00FEC03F0D0C0EFF0D1C074
:10093000F0F0D2C0F1F0EFC023F0F0C024F0F1C02D
:1009400025F0400E206E1C0E216E460E226EF4EC39
:1009500008F020C0F2F021C0F3F022C0F4F0F2C0A1
:1009600020F0F3C021F0F4C022F0400E236E1C0EE4
:10097000246E460E256EF4EC08F020C0F7F021C07E
:10098000F8F022C0F9F0F7C0E8F0F8C0E9F0F9C0DB
:10099000EAF0DEEC06F0E8C0F7F0E9C0F8F0EAC0F3
:1009A000F9F0F7C020F0F8C021F0F9C022F0E00E15
:1009B000236E760E246E450E256EF4EC08F020C0F2
:1009C000F7F021C0F8F022C0F9F0F7C0D0F0F8C07D
:1009D000D1F0F9C0D2F0CF0E0001D36F5B0E000151
:1009E000D46F3B0E0001D56F0FEC03F0D0C0F7F0D1
:1009F000D1C0F8F0D2C0F9F0000E206E800E216E4A
:100A00003F0E226EF7C023F0F8C024F0F9C025F0A5
:100A1000F4EC08F020C0F7F021C0F8F022C0F9F0A3
:100A2000F7C0DCF0F8C0DDF0F9C0DEF0930E000195
:100A3000DF6F880E0001E06F430E0001E16F4CECA8
:100A40000BF0DCC0F7F0DDC0F8F0DEC0F9F0660EA8
:100A5000326EE60E336E3F0E346EF7C02FF0F8C0E4
:100A600030F0F9C031F008EC08F02FC0D0F030C001
:100A7000D1F031C0D2F0000E0001D36F000E0001A2
:100A8000D46F420E0001D56F0FEC03F0D0C0F7F029
:100A9000D1C0F8F0D2C0F9F0F5C014F0F6C015F0EE
:100AA000000E176E030E166EEAEC0BF00101AA0E93
:100AB0001424D96E0101010E1520DA6E0001F7C071
:100AC000DEFF0001F8C0DEFF0001F9C0DDFF00011C
:100AD000F54BF62BEAD66EEC05F01200000E000185
:100AE000DD6F000E0001DC6F0001DD51800A800F18
:100AF0000A0ED8B4DC5DD8B06BD0DCC014F0DDC019
:100B000015F0000E176E030E166EEAEC0BF00001E6
:100B10007E0E1424D96E0001000E1520DA6E480EE8
:100B2000326E610E336E3F0E346EDCC014F0DDC0E9
:100B300015F0000E176E030E166EEAEC0BF00101B5
:100B4000AA0E1424E16E0101010E1520E26EE6CF1B
:100B50002FF0E6CF30F0E5CF31F008EC08F02FC0F1
:100B6000D0F030C0D1F031C0D2F0C30E326EF50EED
:100B7000336E3D0E346E000E176E030E166EDCC023
:100B800014F0DDC015F0EAEC0BF001015A0E14244C
:100B9000E16E0101010E1520E26EE6CF2FF0E6CFE7
:100BA00030F0E5CF31F008EC08F02FC0D3F030C0C2
:100BB000D4F031C0D5F00FEC03F0D0C0DEFFD1C0CF
:100BC000DEFFD2C0DDFFDD520001DC4BDD2B8CD718
:100BD000000E0001DD6F000E0001DC6F0001DD5131
:100BE000800A800F0A0ED8B4DC5DD8B01200DCC0D9
:100BF00014F0DDC015F0000E176E030E166EEAEC51
:100C00000BF000017E0E1424D96E0001000E152099
:100C1000DA6EDCC014F0DDC015F0000E176E030EA6
:100C2000166EEAEC0BF001015A0E1424E16E01017C
:100C3000010E1520E26EDECFE6FFDECFE6FFDECF4F
:100C4000E5FFE5520001DC4BDD2BC8D7000E0001AB
:100C5000DD6F000E0001DC6F0001DD51800A800FA6
:100C60000A0ED8B4DC5DD8B06BD0DCC014F0DDC0A7
:100C700015F0000E176E030E166EEAEC0BF0000175
:100C8000600E1424D96E0001000E1520DA6E480E95
:100C9000326E610E336E3F0E346EDCC014F0DDC078
:100CA00015F0000E176E030E166EEAEC0BF0000145
:100CB000B20E1424E16E0001000E1520E26EE6CFA4
:100CC0002FF0E6CF30F0E5CF31F008EC08F02FC080
:100CD000D0F030C0D1F031C0D2F0C30E326EF50E7C
:100CE000336E3D0E346E000E176E030E166EDCC0B2
:100CF00014F0DDC015F0EAEC0BF001013C0E1424F9
:100D0000E16E0101010E1520E26EE6CF2FF0E6CF75
:100D100030F0E5CF31F008EC08F02FC0D3F030C050
:100D2000D4F031C0D5F00FEC03F0D0C0DEFFD1C05D
:100D3000DEFFD2C0DDFFDD520001DC4BDD2B8CD7A6
:100D4000000E0001DD6F000E0001DC6F0001DD51BF
:100D5000800A800F0A0ED8B4DC5DD8B01200DCC067
:100D600014F0DDC015F0000E176E030E166EEAECDF
:100D70000BF00001600E1424D96E0001000E152046
:100D8000DA6EDCC014F0DDC015F0000E176E030E35
:100D9000166EEAEC0BF001013C0E1424E16E010129
:100DA000010E1520E26EDECFE6FFDECFE6FFDECFDE
:100DB000E5FFE5520001DC4BDD2BC8D70001EA510D
:100DC000800A800F07E1000E0001E95D03E1000EDB
:100DD0000001E85DD8B010D0000E0001B16F210E07
:100DE0000001B06F000E0001E86F000E0001E96F16
:100DF000000E0001EA6F12007F0E0001EA150001EB
:100E0000E9110001E811D8A410D0000E0001B16F63
:100E1000220E0001B06F000E0001E86F000E00010D
:100E2000E96F000E0001EA6F1200000E326E000E34
:100E3000336E400E346E0001000E186E0001EB0E92
:100E4000176EE8C014F0E9C015F0EAC016F010EC17
:100E50000AF014C02FF015C030F016C031F008ECC5
:100E600008F02FC0D0F030C0D1F031C0D2F0000E69
:100E70000001D36F800E0001D46FBF0E0001D56F4B
:100E80000FEC03F0D0C0E8F0D1C0E9F0D2C0EAF036
:100E90000001EB07D8A0EC07E8C0DCF0E9C0DDF00A
:100EA000EAC0DEF0060E0001E06F010E0001DF6F08
:100EB000000E0001E26F080E0001E16F8FEC07F0F9
:100EC000DCC0E8F0DDC0E9F0DEC0EAF0720E326EA0
:100ED000310E336E3F0E346EEBC01CF0ECC01DF0D3
:100EE00028EC0BF01CC02FF01DC030F01EC031F0FC
:100EF00008EC08F02FC0D0F030C0D1F031C0D2F0F3
:100F0000E8C0D3F0E9C0D4F0EAC0D5F00FEC03F0AC
:100F1000D0C0E8F0D1C0E9F0D2C0EAF01200E1C0E0
:100F200014F0E2C015F0000E176E030E166EEAEC18
:100F30000BF00001DFC0E3F00001E0C0E4F014506A
:100F40000001E32715500001E423E3C0F6FFE4C0ED
:100F5000F7FF09000001F5CFE5F009000001F5CF2A
:100F6000E6F00A000001F5CFE7F046D0E5C032F028
:100F7000E6C033F0E7C034F0DCC02FF0DDC030F065
:100F8000DEC031F008EC08F02FC0D0F030C0D1F056
:100F900031C0D2F0000E176E030E166E0001E1078D
:100FA000D8A0E207E1C014F0E2C015F0EAEC0BF0C3
:100FB0000001DFC0E3F00001E0C0E4F014500001E4
:100FC000E32715500001E423E3C0F6FFE4C0F7FF78
:100FD00009000001F5CFD3F009000001F5CFD4F0EE
:100FE0000A000001F5CFD5F00FEC03F0D0C0E5F01A
:100FF000D1C0E6F0D2C0E7F00001E251E111D8A47F
:10100000B5D7E5C0DCF0E6C0DDF0E7C0DEF01200E9
:1010100031C035F0366A376A3034353601E3368010
:101020003550386E386607D0000E2F6E000E306EC9
:10103000000E316E120034C035F0366A376A333430
:10104000353601E3368035503D6E3D6607D0000EE3
:101050002F6E000E306E000E316E12003D507B0F71
:10106000382631C03DF034503D1A800E3D16308E8A
:10107000338EFF0E3216FF0E3316000E3416000E9E
:10108000396E000E3A6E000E3B6E070E3C6E2FA0BE
:1010900006D03250392633503A2234503B22D89071
:1010A000313230322F32D8903236333634363C2E0D
:1010B000EED7090E3C6E2FA006D0325039263350A1
:1010C0003A2234503B22D890313230322F32D890ED
:1010D0003B323A3239323C2EEED739C014F03AC0A6
:1010E00015F03BC016F038C017F03DC018F0BCEC4E
:1010F00009F014C02FF015C030F016C031F0120006
:10110000000E0001E16F000E0001E06F0001E151EF
:10111000800A800F0A0ED8B4E05DD8B062D0E0C07B
:1011200014F0E1C015F0000E176E030E166EEAEC17
:101130000BF00001B20E1424D96E0001000E152030
:10114000DA6E000E326EA00E336E400E346E000E5C
:10115000236E800E246E440E256E960E0001DE6F07
:10116000010EDF6FD8900001E035E16E0001E1353E
:10117000E26E0001DE51E1260001DF51E222E6CFFE
:101180001CF0E5CF1DF028EC0BF01CC020F01DC0BA
:1011900021F01EC022F0F4EC08F020C02FF021C096
:1011A00030F022C031F008EC08F02FC0D0F030C091
:1011B000D1F031C0D2F0000E0001D36F200E00013B
:1011C000D46F400E0001D56F0FEC03F0D0C0DEFFEE
:1011D000D1C0DEFFD2C0DDFFDD520001E04BE12BCC
:1011E00095D726EC06F0120022C026F0276A286A5E
:1011F0002134263601E3278026502D6E2D6607D038
:10120000000E206E000E216E000E226E120025C010
:1012100026F0276A286A2434263601E327802650E0
:101220002E6E2E6607D0000E206E000E216E000E70
:10123000226E1200000E2A6E000E2B6E000E2C6E17
:101240002E50890F2D5E22C02EF025502E1A800EB2
:101250002E16218EFF0E2016FF0E2116000E2216CE
:10126000248EFF0E2316FF0E2416000E2516180ED0
:10127000296ED8902A362B362C362350205C2450E9
:10128000215825502258D8A007D02350205E245042
:10129000215A2550225A2A80D890203621362236CB
:1012A000292EE7D72AC014F02BC015F02CC016F059
:1012B0002DC017F02EC018F0BCEC09F014C020F0BF
:1012C00015C021F016C022F01200000E236E000E91
:1012D000256E000E246E2550800A800F090ED8B4AA
:1012E000245CD8B01200000E1A6E400E1B6E400E29
:1012F0001C6E24C014F025C015F0000E176E030EEE
:10130000166EEAEC0BF00001600E1424D96E000199
:10131000000E1520DA6EDECF1DF0DECF1EF0DDCF21
:101320001FF059EC0AF0D8B024D024C014F025C026
:1013300015F0000E176E030E166EEAEC0BF00001AE
:10134000600E1424D96E0001000E1520DA6EDECF77
:101350001AF0DECF1BF0DDCF1CF0B80E1D6E860E2E
:101360001E6E400E1F6E59EC0AF0D8B002D0010E6E
:10137000236E244A252AAFD71750D8B405D014506D
:1013800015101610D8A40CD0000E146E000E156E99
:10139000000E166E1200172AD8901632153214322B
:1013A000000E1414196E000E15141A6EFE0E16148B
:1013B0001B6E19501A101B10D8B40CD0ECD7172A7A
:1013C000010E1426000E1522000E1622D890163299
:1013D00015321432000E1414196E000E15141A6E04
:1013E000FF0E16141B6E19501A101B10D8B406D01D
:1013F000E6D71706D89014361536163615AEF9D737
:1014000017A0159ED8901732175016121850D8A44E
:10141000168E14C014F015C015F016C016F0120088
:101420007F0E161415101410D8A40FD017C0D9FFB2
:1014300018C0DAFF000EDE6E000EDD6E000E146EB8
:10144000000E156E000E166E120016507F0B196EF0
:101450001A6AD89019361A3617C0D9FF18C0DAFFA1
:1014600019C0DEFF1AC0DDFF15AE03D0196A192AB4
:1014700001D0196A195017C0D9FF18C0DAFFDE125F
:10148000000EDD1217C0D9FF18C0DAFF820EDE266B
:10149000FF0EDD2216801682168416861688168A9E
:1014A000169C159E14C014F015C015F016C016F049
:1014B00012001CAE16D01AC020F01BC021F01CC0B8
:1014C00022F0201E211E221E202A000E212222226E
:1014D000000E20241A6E000E21201B6E800E22208A
:1014E0001C6E1FAE16D01DC020F01EC021F01FC004
:1014F00022F0201E211E221E202A000E212222223E
:10150000000E20241D6E000E21201E6E800E222053
:101510001F6E000E1A1A000E1B1A800E1C1A000EE7
:101520001D1A000E1E1A800E1F1A1D501A5C1E5026
:101530001B581F501C58D8B002D0D8901200D88029
:101540001200000E236E000E256E000E246E255034
:10155000800A800F090ED8B4245CD8B01200000EA7
:101560001A6E720E1B6E420E1C6E24C014F025C043
:1015700015F0000E176E030E166EEAEC0BF000016C
:101580007E0E1424D96E0001000E1520DA6EDECF17
:101590001DF0DECF1EF0DDCF1FF059EC0AF0D8B001
:1015A00002D0010E236E244A252AD1D79E904AC02C
:1015B00003F003C004F0056A0450CF6E49C0CEFFAB
:1015C0003E4A3F2A040E3E5C000E3F58D8A006D08B
:1015D00067EC0CF0000E3F6E000E3E6E3E043F10B6
:1015E000D8B44CEC0CF03E50020A3F10D8B440EC9A
:1015F0000CF03E50030A3F10D8A4120034EC0CF05B
:101600001200000E896E2F0E926E2F0E0F01386F92
:10161000000E8A6EF80E936E380E0F01396F000EB1
:10162000616E000E8B6ED60E946E140E0F013A6F23
:10163000000E8C6E030E956E030E0F013B6F000EB5
:101640008D6E070E966E070E0F013C6FF18E120025
:10165000000E1F6E1D50800AF36E800EF35C000EAC
:10166000D8B41C5CD8B006D01C6C1D1ED8B01D2A86
:10167000010E1F6E1CC014F01DC015F0166A8E0EF0
:10168000176E1FC018F0BCEC09F014C01CF015C098
:101690001DF016C01EF01200000E0001DF1B000E30
:1016A0000001E01B800E0001E11BDCC0D0F0DDC0BA
:1016B000D1F0DEC0D2F0DFC0D3F0E0C0D4F0E1C0A2
:1016C000D5F00FEC03F0D0C0DCF0D1C0DDF0D2C01B
:1016D000DEF012009D9A9D98480EB86E980EAB6E83
:1016E000260EAC6E670EAF6E000EB06E000EAD6EC5
:1016F000000EAE6E000E476E000E486E080E4B6E6A
:10170000000E456E000E466E000E446E9D8A12005D
:10171000080E4B5CD8B014D04850010D0001A40E47
:10172000F324D96E0001000EF420DA6EDF50AD6EA6
:10173000482A070E486402D0000E486E4B2A120059
:101740009D98120001EE00F0DC0EEE6AE806FDE165
:1017500000EE60F0700EEE6AE806FDE100EE3EF08D
:101760000B0EEE6AE806FDE1000EF86E060EF76E4F
:101770000001D3EF0BF0ABA202D0AB98AB88455081
:10178000010D00019C0EF324D96E0001000EF4201F
:10179000DA6EAECFDFFF452A070E456402D0000E99
:1017A000456E442A12000EEC0CF0F28EF28C000111
:1017B000AD51AC11D8B404D04FEC04F0A1EC0AF058
:1017C0000001AF51AE11D8B4F2D780EC08F065EC4F
:1017D00009F0EDD714501602F3CF18F0F4CF19F03A
:1017E00014501702F350192615501602F3501926FB
:1017F00018C014F019C015F01200340ECD6E000E92
:10180000CC6E0B0ECF6EDC0ECE6ECECF49F0CFCFAE
:101810004AF09E909D8063EC0CF0120056EC0CF0A8
:1018200001EC0BF05DEC0CF028EC0CF06AEC0BF02A
:10183000FDEC0BF01200026E02C001F00146014601
:10184000C2500118830B0118C26EC280C2821200FE
:10185000010EC26E810EC16E0A0EC06E000EC36E06
:10186000000EC46E9D8C1200000E416E000E406E84
:10187000010E426E800EC16E0E0E1BEC0CF01200BB
:10188000000E416E000E406E010E436E810EC16E61
:10189000070E1BEC0CF01200000E416E000E406EA5
:1018A000800EC16E0B0E1BEC0CF01200620ED36E9C
:1018B000040ED26E000E9B6E1200D09E9F9A9F9CCB
:1018C0009F989F901200CD8012009E9C12001200E3
:020000040020DA
:08000000FFFFFFFFFFFFFFFF00
:020000040030CA
:0E000000FF081F3CFFBF81FF0FC00FE00F4045
:00000001FF
