:0400000060EF00F0BD
:10000800FACF0DF0FBCF0EF0E9CF0FF0EACF10F0EA
:10001800E1CF11F0E2CF12F0D9CF13F0DACF14F01C
:10002800F3CF15F0F4CF16F0F6CF17F0F7CF18F09E
:10003800F8CF19F0F5CF1AF09DBA9EAA03D061EC5B
:1000480015F01DD09DB89EA803D07FEC14F017D0F2
:10005800F2BAF2A403D06FEC12F011D09DBC9EACA2
:1000680003D007EC16F00BD09DB69EA603D084EC07
:1000780005F005D0A0B6A1A602D00AEC16F01AC069
:10008800F5FF19C0F8FF18C0F7FF17C0F6FF16C034
:10009800F4FF15C0F3FF14C0DAFF13C0D9FF12C074
:1000A800E2FF11C0E1FF10C0EAFF0FC0E9FF0EC078
:1000B800FBFF0DC0FAFF1100D9EF12F03E66A9D080
:1000C80001D80AD00500FA6E2D50FD6E2E50FE6E36
:1000D800F850FF6EFA5012001E50800A800F050E6D
:1000E800D8B41D5CD8B01CD094D000019D4B9E2B79
:1000F80001D80AD00500FA6E2D50FD6E2E50FE6E06
:10010800F850FF6EFA5012001E50800AF36E800EEF
:10011800F35C050ED8B41D5CD8B002D0000E1200F6
:1001280001D80AD00500FA6E2F50FD6E3050FE6ED1
:10013800F850FF6EFA501200060AD8A4D6D701D894
:100148000AD00500FA6E2F50FD6E3050FE6EF85042
:10015800FF6EFA501200850AD8A45BD001D80AD0E5
:100168000500FA6E2F50FD6E3050FE6EF850FF6E8F
:10017800FA5012003C6E01D80AD00500FA6E2F50D2
:10018800FD6E3050FE6EF850FF6EFA5012003B6E56
:1001980001D80AD00500FA6E2F50FD6E3050FE6E61
:1001A800F850FF6EFA5012003E6E3C503A18D8B420
:1001B80030D000019B4B9C2B000E0001E36F000E1A
:1001C8000001E26F0FD001D80AD00500FA6E2F5057
:1001D800FD6E3050FE6EF850FF6EFA5012000001AE
:1001E800E24BE32B3E50276E286A010E2726000EAD
:1001F80028222850800A296E0001E251275C00015C
:10020800E351800A2958D8B0DED7000E3E6E000EA2
:1002180012003E50D8B477D23D6649D001D80AD0F2
:100228000500FA6E2D50FD6E2E50FE6EF850FF6ED2
:10023800FA5012001E50800A800F010ED8B41D5CBF
:10024800D8A0ECD701D80DD005000001FA6E000146
:10025800AB51FD6E0001AC51FE6EF850FF6EFA50C6
:100268001200276E2728D8A422D045EC08F0000EEB
:100278003E6E000E3D6E000E120001D80AD0050039
:10028800FA6E2F50FD6E3050FE6EF850FF6EFA5029
:100298001200276E3D50010D0201000EF324D96EA5
:1002A8000201020EF420DA6E27C0DFFF3D2A01D8D2
:1002B8000AD00500FA6E2D50FD6E2E50FE6EF850D5
:1002C800FF6EFA5012001E501D10D8B404D03D50D5
:1002D8003E5CD8B0D2D7FF0E276EFF0E286E3D5079
:1002E800296E2A6A2750292628502A223E50291882
:1002F8002A10D8A408D20201020E1C6E0201000EB8
:100308001B6E3EC01DF0D7EC13F0366EFF0E276E45
:10031800FF0E286E3D50296E2A6A2750292628503C
:100328002A220201000E2924D96E0201020E2A2077
:10033800DA6E3650DF622BD1000E0001E56F000E39
:100348000001E46F5CD00201000E0001E425D96EC3
:100358000201020E0001E521DA6EDF50276E3950E6
:10036800275CD8B03FD0010E0001E425276E000EAF
:100378000001E521286E0201000E2724D96E020132
:10038800020E2820DA6EDF50416E020E0001E425CD
:10039800276E000E0001E521286E0201000E2724B9
:1003A800D96E0201020E2820DA6EDF50426E020179
:1003B800000E0001E425D96E0201020E0001E521BC
:1003C800DA6EDF50276E2750020DF3500001A72583
:1003D800D96EF4500001A821DA6E41C0DEFF42C098
:1003E800DDFF03D00001A34BA42B030E0001E4257D
:1003F8000001E46F000E0001E5210001E56F3E50A9
:10040800276E286A0001E551800A296E27500001ED
:10041800E45D2850800A2958D8A095D73550D8B41B
:10042800B0D00001DA69010E0001DB6FFF0E276E04
:10043800FF0E286E3D50296E2A6A2750292628501B
:100448002A220201000E2924D96E0201020E2A2056
:10045800DA6EDF500001DC6F0001000E1C6E000137
:10046800DA0E1B6E030E1D6ED7EC13F00001E06F61
:1004780001D80BD00500FA6E3150FD6E3250FE6E79
:10048800F850FF6EFA50060E120001D80BD0050086
:10049800FA6E3150FD6E3250FE6EF850FF6EFA5013
:1004A800850E120001D80BD00500FA6E3150FD6E92
:1004B8003250FE6EF850FF6EFA503B50120001D8D1
:1004C8000BD00500FA6E3150FD6E3250FE6EF850BA
:1004D800FF6EFA503A50120001D80BD00500FA6EA0
:1004E8003150FD6E3250FE6EF850FF6EFA50030E1A
:1004F800120001D80BD00500FA6E3150FD6E325053
:10050800FE6EF850FF6EFA50FF0E120001D80BD0A5
:100518000500FA6E3150FD6E3250FE6EF850FF6ED7
:10052800FA50010E120001D81ED00500FA6E3150A3
:10053800FD6E3250FE6EF850FF6EFA50FF0E276EB9
:10054800FF0E286E3D50296E2A6A2750292628500A
:100558002A220201000E2924D96E0201020E2A2045
:10056800DA6EDF50120001D80CD00500FA6E315057
:10057800FD6E3250FE6EF850FF6EFA500001E051E9
:100588001200000E3E6E000E3D6E010E12000001BC
:10059800A14BA22B3550D8B4B0D00001DD69020EB2
:1005A8000001DE6FFF0E276EFF0E286E3D50296E8C
:1005B8002A6A2750292628502A220201000E2924B7
:1005C800D96E0201020E2A20DA6EDF500001DF6FB9
:1005D8000001000E1C6E0001DD0E1B6E030E1D6E69
:1005E800D7EC13F00001E16F01D80BD00500FA6ECB
:1005F8003150FD6E3250FE6EF850FF6EFA50060E06
:10060800120001D80BD00500FA6E3150FD6E325041
:10061800FE6EF850FF6EFA50850E120001D80BD00E
:100628000500FA6E3150FD6E3250FE6EF850FF6EC6
:10063800FA503B50120001D80BD00500FA6E315029
:10064800FD6E3250FE6EF850FF6EFA503A501200AE
:1006580001D80BD00500FA6E3150FD6E3250FE6E97
:10066800F850FF6EFA50030E120001D80BD00500A7
:10067800FA6E3150FD6E3250FE6EF850FF6EFA5031
:10068800FF0E120001D80BD00500FA6E3150FD6E36
:100698003250FE6EF850FF6EFA50020E120001D86A
:1006A8001ED00500FA6E3150FD6E3250FE6EF850C5
:1006B800FF6EFA50FF0E276EFF0E286E3D50296E12
:1006C8002A6A2750292628502A220201000E2924A6
:1006D800D96E0201020E2A20DA6EDF50120001D80C
:1006E8000CD00500FA6E3150FD6E3250FE6EF85097
:1006F800FF6EFA500001E1511200000E3E6E000E2E
:100708003D6E000E1200000E12002450800AF36E97
:10071800800EF35C0C0ED8B4235CD8B00BD023C089
:100728001BF024C01CF0000E1E6E040E1D6EA8ECFB
:100738000FF00CD0F40E23241B6EFF0E24201C6E29
:10074800000E1E6E040E1D6EA8EC0FF01BC027F0E5
:100758001CC028F0030E2314296E2A6A2450800A2C
:10076800800F0C0ED8B4235CD8A004D0040E292620
:10077800000E2A2225042610D8A47BD029C0D3F045
:10078800010E0001D46FD56B0001D32B04D0D89093
:100798000001D437D5370001D32FF9D7D4C0D6F00C
:1007A800D5C0D7F0000E0001D7BFFF0ED86FD96FA4
:1007B800600E0001DA6F000EDB6FD8902734D96E17
:1007C8002834DA6ED890D936DA360001DA51D926CB
:1007D8000001DB51DA220001D651DE12D751DE12B8
:1007E800D851DE12D951DD12DD52DD5229C0D3F0C5
:1007F800080E0001D327010E0001D46FD56B00014C
:10080800D32B04D0D8900001D437D5370001D32F8B
:10081800F9D70001D41D0001D66F0001D51D0001D4
:10082800D76F0001D86B0001D7BFD8070001D85196
:100838000001D96F600E0001DA6F000EDB6FD890EF
:100848002734D96E2834DA6ED890D936DA360001D2
:10085800DA51D9260001DB51DA220001D651DE1621
:10086800D751DE16D851DE16D951DD16DD52DD52CC
:1008780012002550020A2610D8A457D029C0D3F058
:10088800080E0001D327010E0001D46FD56B0001BB
:10089800D32B04D0D8900001D437D5370001D32FFB
:1008A800F9D729C0D6F0010E0001D76FD86B000127
:1008B800D62B04D0D8900001D737D8370001D62FCF
:1008C800F9D70001D4510001D7110001D96F0001F7
:1008D800D5510001D8110001DA6F0001DB6B00016E
:1008E800DABFDB070001DB510001DC6F600E00019D
:1008F800DD6F000EDE6FD8902734D96E2834DA6E9B
:10090800D890D936DA360001DD51D9260001DE51FA
:10091800DA220001D951DE12DA51DE12DB51DE1281
:10092800DC51DD12DD52DD52120026502510D8A40C
:1009380067D029C0D3F0080E0001D327010E0001AB
:10094800D46FD56B0001D32B04D0D8900001D437D5
:10095800D5370001D32FF9D70001D41D0001D66F78
:100968000001D51D0001D76F29C0D8F0010E000184
:10097800D96FDA6B0001D82B04D0D8900001D93791
:10098800DA370001D82FF9D70001D91D0001DB6F34
:100998000001DA1D0001DC6F0001D6510001DB15F2
:1009A8000001DD6F0001D7510001DC150001DE6F89
:1009B8000001DF6B0001DEBFDF070001DF5100012E
:1009C800E06F600E0001E16F000EE26FD8902734EF
:1009D800D96E2834DA6ED890D936DA360001E1516A
:1009E800D9260001E251DA220001DD51DE16DE517E
:1009F800DE16DF51DE16E051DD16DD52DD52120043
:100A08002550030A2610D8A4120029C0D3F0080ED6
:100A18000001D327010E0001D46FD56B0001D32B41
:100A280004D0D8900001D437D5370001D32FF9D797
:100A3800D4C0D6F0D5C0D7F0000E0001D7BFFF0E46
:100A4800D86FD96F600E0001DA6F000EDB6FD89097
:100A58002734D96E2834DA6ED890D936DA360001C0
:100A6800DA51D9260001DB51DA220001D651DE1213
:100A7800D751DE12D851DE12D951DD12DD52DD52C6
:100A880029C0D3F0010E0001D46FD56B0001D32B20
:100A980004D0D8900001D437D5370001D32FF9D727
:100AA8000001D41D0001D66F0001D51D0001D76FCC
:100AB8000001D86B0001D7BFD8070001D851000149
:100AC800D96F600E0001DA6F000EDB6FD890273403
:100AD800D96E2834DA6ED890D936DA360001DA5170
:100AE800D9260001DB51DA220001D651DE16D75192
:100AF800DE16D851DE16D951DD16DD52DD52120050
:100B08009E96C6AE25D1C69E000E376E000120EE19
:100B180003F00001A551D9260001A651DA22DECF43
:100B280004F0DDCF05F004C0D9FF05C0DAFF010EDF
:100B3800DF6E000E0001A66F000E0001A56F120007
:100B4800000194B31200000193C0A6F0000192C006
:100B5800A5F092C0D9FF93C0DAFFDF50386E0001CC
:100B680020EE01F000019251D92600019351DA22BA
:100B7800DECF2BF0DDCF2CF0050E00019227000E02
:100B880000019323D30E046E000E056E000120EEC3
:100B980092F0DE520550DD1804C0E8FFD8B4DF1823
:100BA800D8A408D00001000E0001936F0001CE0EFA
:100BB8000001926F00019491000120EE92F0000173
:100BC800DE5200019151DD18000190C0E8FFD8B451
:100BD800DF18D8A402D000019483C580020E376EB6
:100BE8001200C582020E376E1200C5AC06D0000195
:100BF800962B040E8EEC13F01200D8904030056E40
:100C08003F30046E0450C96E3FA003D00B0E376E00
:100C18001200030E376E1200C5AC06D00001962BE9
:100C2800040E8EEC13F01200C58240C004F004C01C
:100C380005F0066A060E0516000E0616F00E0510DB
:100C48003F6E0650406E3F80010E336E020E376EC7
:100C580012003304D8B41CD02BC0D9FF2CC0DAFF43
:100C6800DECF3FF0DDCF40F020EE03F02B50D92649
:100C78002C50DA220001DECF97F00001DDCF98F08A
:100C880020EE02F02B50D9262C50DA22DF50346E99
:100C98003FC0C9FF3FA003D0050E376E1200030EF8
:100CA800376E1200C5AC07D00001962BC59C050E07
:100CB8008EEC13F0120034063428D8A40ED0050E9A
:100CC8002B26000E2C22382E04D0000E8EEC13F0AA
:100CD8001200C582020E376E120097C0D9FF98C065
:100CE800DAFFDF50C96E0001974B982B1200C5AC94
:100CF80007D00001962B040E8EEC13F0C59C120051
:100D0800C586080E376E1200080E376EC5861200AB
:100D180097C0D9FF98C0DAFFC9CFDFFF0001974B12
:100D2800982B010E345ED8B404D0C59A060E376EDF
:100D380003D0C58AB9EC15F0C5881200000E8EECF8
:100D480013F012000001962B060E8EEC13F0120021
:100D58003750000AD8B4F4D6010AD8B442D7030AE7
:100D6800D8B477D7010AD8B49DD7070AD8B4E6D73C
:100D7800010AD8B4BCD7030AD8B4C6D7010AD8B474
:100D8800DDD70F0AD8B4C4D7020AD8B42ED7010ABF
:100D9800D8B442D7D7D70001E1C0E3F00001E46B33
:100DA800E56B0001E0350001E33701E3E481000170
:100DB800E3510001ED6F0001ED670DD0000E000159
:100DC800DF6F000E0001E06F000E0001E16F000E02
:100DD8000001E26F1200170E0001E36F0001DFC08F
:100DE800E4F00001E0C0E5F00001E1C0E6F0000138
:100DF800E3290001E76F05D00001D890E633E53319
:100E0800E4330001E72FF8D70001E4510001E86F4F
:100E18000001E08FFF0E0001DF17FF0E0001E01751
:100E2800000E0001E1170001DF510001E96F000128
:100E3800E0510001EA6F0001E1510001EB6F000190
:100E4800EC6B8E0E0001ED5F0001EDAF26D00001C6
:100E5800ED51800A0001E36FF10E800A0001E35DA5
:100E6800D8B00DD0000E0001DF6F000E0001E06F5A
:100E7800000E0001E16F000E0001E26F1200000198
:100E8800D8900001EC330001EB330001EA33000194
:100E9800E9330001ED3FF3D720D0170E0001ED65CF
:100EA80019D0000E0001DF6F000E0001E06F000E88
:100EB8000001E16F000E0001E26F12000001D890FE
:100EC8000001E9370001EA370001EB370001EC3790
:100ED8000001ED070001ED67F1D70001E851D8B432
:100EE8000FD00001EC1F0001EB1F0001EA1F0001F9
:100EF800E96D000E0001EA230001EB230001EC2359
:100F0800E9C0DFF0EAC0E0F0EBC0E1F0ECC0E2F0ED
:100F1800120024C041F025C042F020EECCF0215050
:100F2800D9262250DA22DECF26F0DDCF27F027504F
:100F3800800AF36E800EF35CC50ED8B4265CD8B078
:100F4800120020EEC8F02150D9262250DA22DECF36
:100F580026F0DDCF27F026502124D96E27502220F5
:100F6800DA6E23C0DFFF20EEC8F02150D9262250C8
:100F7800DA22DECF1BF0DDCF1CF0000E1E6EC80E8D
:100F88001D6EFEEC14F020EEC8F02150D926225038
:100F9800DA221BC0DEFF1CC0DDFF20EECCF02150A2
:100FA800D9262250DA22DE2A000EDD2220EEC8F0F1
:100FB8002150D9262250DA22DECF26F0DDCF27F0C5
:100FC80026502124D96E27502220DA6E41C0DFFF37
:100FD80020EEC8F02150D9262250DA22DECF1BF0AD
:100FE800DDCF1CF0000E1E6EC80E1D6EFEEC14F058
:100FF80020EEC8F02150D9262250DA221BC0DEFF8D
:101008001CC0DDFF20EECCF02150D9262250DA2278
:10101800DE2A000EDD2220EEC8F02150D92622500B
:10102800DA22DECF26F0DDCF27F026502124D96E34
:1010380027502220DA6E42C0DFFF20EEC8F0215090
:10104800D9262250DA22DECF1BF0DDCF1CF0000EAD
:101058001E6EC80E1D6EFEEC14F020EEC8F0215076
:10106800D9262250DA221BC0DEFF1CC0DDFF20EE8D
:10107800CCF02150D9262250DA22DE2A000EDD22B9
:10108800120001D80AD00500FA6E2D50FD6E2E50C0
:10109800FE6EF850FF6EFA5012001E50800A800F44
:1010A800040ED8B41D5CD8A0ECD701D80AD005002E
:1010B800FA6E2F50FD6E3050FE6EF850FF6EFA50EB
:1010C80012000001D56F01D80AD00500FA6E2F5022
:1010D800FD6E3050FE6EF850FF6EFA50120000019F
:1010E800D66F01D80AD00500FA6E2F50FD6E305029
:1010F800FE6EF850FF6EFA5012000001D76F01D84B
:101108000AD00500FA6E2F50FD6E3050FE6EF85072
:10111800FF6EFA5012000001D36F0001000E1C6E22
:101128000001D50E1B6E030E1D6ED7EC13F00001E7
:10113800D46F0001D4510001D36355D0000E0001D3
:10114800D96F000E0001D86F0001D951800A800FB5
:10115800050ED8B4D85DD8B012000001000E1C6E80
:101168000001B30E1B6ED8C01DF0000E1E6E43ECBE
:101178000DF03B18D8A433D00001000E1C6E0001FE
:10118800B30E1B6ED8C01DF0010E1E6E43EC0DF0A1
:101198000001D719D8A423D00001D605D8A40DD0B2
:1011A8000001000E1C6E0001B30E1B6ED8C01DF0AE
:1011B800010E1E6EB8EC0DF012000001D651020AA5
:1011C800D8A40DD00001000E1C6E0001B30E1B6EDA
:1011D800D8C01DF0020E1E6EB8EC0DF01200000112
:1011E800D84BD92BB1D70001A14BA22B120000017B
:1011F800D5C026F0276A286A0001D435263601E3CF
:10120800278026500001D96F0001D9670AD0000E47
:101218000001D36F000E0001D46F000E0001D56FDE
:1012280012000001D8C026F0276A286A0001D735C5
:10123800263601E3278026500001DE6F0001DE67B5
:101248000AD0000E0001D36F000E0001D46F000E0B
:101258000001D56F12000001DE517B0F0001D92774
:10126800D5C0DEF00001D8510001DE1B800E000160
:10127800DE170001D48F0001D78FFF0E0001D617AB
:10128800FF0E0001D717000E0001D817000E00014D
:10129800DA6F000E0001DB6F000E0001DC6F070E35
:1012A8000001DD6F0001D3A10CD00001D65100016F
:1012B800DA270001D7510001DB230001D8510001D2
:1012C800DC230001D8900001D5330001D43300019C
:1012D800D3330001D8900001D6370001D737000179
:1012E800D8370001DD2FDED7090E0001DD6F0001C0
:1012F800D3A10CD00001D6510001DA270001D75143
:101308000001DB230001D8510001DC230001D89043
:101318000001D5330001D4330001D3330001D89044
:101328000001DC330001DB330001DA330001DD2F7B
:10133800DED7DAC01BF0DBC01CF0DCC01DF0D9C062
:101348001EF0DEC01FF054EC0FF01BC0D3F01CC021
:10135800D4F01DC0D5F012000001D36F0001AAC05F
:101368001CF00001A9C01BF0CCC11DF0D7EC13F094
:101378000001D46F01D80BD00500FA6E3150FD6E14
:101388003250FE6EF850FF6EFA50060E120001D869
:101398000BD00500FA6E3150FD6E3250FE6EF850DB
:1013A800FF6EFA50850E120001D80CD00500FA6EB7
:1013B8003150FD6E3250FE6EF850FF6EFA5000014B
:1013C800D351120001D80BD00500FA6E3150FD6ED2
:1013D8003250FE6EF850FF6EFA503A50120001D8A3
:1013E8000CD00500FA6E3150FD6E3250FE6EF8508A
:1013F800FF6EFA500101CC511200000E0001D66FA9
:10140800000E0001D56F1AD001D815D00500FA6E6C
:101418003150FD6E3250FE6EF850FF6EFA500001EA
:10142800D5510001A925D96E0001D6510001AA2184
:10143800DA6EDF5012000001D54BD62B0001D651D1
:10144800800A276E0101CC510001D55D0101CD5103
:10145800800A2758D8A0D8D701D80CD00500FA6E32
:101468003150FD6E3250FE6EF850FF6EFA5000019A
:10147800D45112000001000E1C6E0001B30E1B6E49
:10148800D3C01DF0D4C01EF0000E1F6E27EC0EF066
:101498000101010E246E0101000E236E000E266E5E
:1014A800010E256E0BEC13F012000001E76F000E21
:1014B8000001D36F020E0001EA6F000E0001E96F10
:1014C800000E0001E86F2AD00001000E256E000111
:1014D800D30E246E010E266E0001E7C027F0286A9D
:1014E8000001000E2A6E0001EA0E296E3CEC13F092
:1014F8000001EA51020AD8B4FBD70001EA6701D01B
:1015080011D00001E851640AE911D8B40BD00001E8
:10151800EA05D8B407D00001E84BE92B0001EA0539
:10152800D8A4D2D7020E0001EA6F000E0001D36FD3
:1015380060C0D4F061C0D5F064C0D6F065C0D7F003
:1015480068C0D8F069C0D9F06CC0DAF06DC0DBF0C3
:1015580070C0DCF071C0DDF074C0DEF075C0DFF083
:1015680078C0E0F079C0E1F07CC0E2F07DC0E3F043
:1015780080C0E4F081C0E5F0000E0001E96F000EC4
:101588000001E86F2AD00001000E256E0001D30E7D
:10159800246E110E266E0001E7C027F0286A0001AC
:1015A800000E2A6E0001EA0E296E3CEC13F00001D1
:1015B800EA51020AD8B4FBD70001EA6701D0120049
:1015C8000001E851640AE911D8B412000001EA05E3
:1015D800D8B412000001E84BE92B0001EA05D8B4A1
:1015E8001200D1D778D00001880E0124D96E0001ED
:1015F800000E0220DA6E83AA02D0010E01D0000E7E
:10160800DF6E12000001880E0124D96E0001000E61
:101618000220DA6E81A002D0010E01D0000EDF6E2A
:1016280012000001880E0124D96E0001000E02206C
:10163800DA6E81A202D0010E01D0000EDF6E120018
:101648000001880E0124D96E0001000E0220DA6E16
:1016580081A402D0010E01D0000EDF6E120000013D
:10166800880E0124D96E0001000E0220DA6E81A8CE
:1016780002D0010E01D0000EDF6E12000001880EAC
:101688000124D96E0001000E0220DA6E80A002D07B
:10169800010E01D0000EDF6E12000001880E012439
:1016A800D96E0001000E0220DA6E80A202D0010E6F
:1016B80001D0000EDF6E12000001880E0124D96EE1
:1016C8000001000E0220DA6E80A402D0010E01D0C3
:1016D800000EDF6E120001C003F002C004F00450D7
:1016E800000AD8A412000350000AD8B47CD7010A13
:1016F800D8B488D7030AD8B494D7010AD8B4A0D7E5
:10170800070AD8B4ACD7010AD8B4B8D7030AD8B4F2
:10171800C4D7010AD8A41200CFD720EECCF02150AC
:10172800D9262250DA22DECF24F0DDCF25F025504D
:10173800800AF36E800EF35CC80ED8B4245CD8B06F
:1017480036D020EEC8F02150D9262250DA22DECF3A
:1017580024F0DDCF25F024502124D96E25502220F5
:10176800DA6E23C0DFFF20EEC8F02150D9262250C0
:10177800DA22DECF1BF0DDCF1CF0000E1E6EC80E85
:101788001D6E13EC15F020EEC8F02150D92622501A
:10179800DA221BC0DEFF1CC0DDFF20EECCF021509A
:1017A800D9262250DA22DE2A000EDD22120020EE8F
:1017B800C8F02150D9262250DA22DECF24F0DDCF1E
:1017C80025F024502124D96E25502220DA6E23C01A
:1017D800DFFF20EEC8F02150D9262250DA22DECFD2
:1017E8001BF0DDCF1CF0000E1E6EC80E1D6E13EC34
:1017F80015F020EEC8F02150D9262250DA221BC05D
:10180800DEFF1CC0DDFF20EECAF02150D926225091
:10181800DA22DECF1BF0DDCF1CF0000E1E6EC80EE4
:101828001D6E13EC15F020EECAF02150D926225077
:10183800DA221BC0DEFF1CC0DDFF120020EECCF058
:101848000750D9260850DA22DECF0AF0DDCF0BF098
:101858000B50800AF36E800EF35CC80ED8B40A5C95
:10186800D8B036D020EEC8F00750D9260850DA2272
:10187800DECF0AF0DDCF0BF00A500724D96E0B50EB
:101888000820DA6E09C0DFFF20EEC8F00750D9261D
:101898000850DA22DECF01F0DDCF02F0000E046E30
:1018A800C80E036E28EC15F020EEC8F00750D926B4
:1018B8000850DA2201C0DEFF02C0DDFF20EECCF0C6
:1018C8000750D9260850DA22DE2A000EDD2212003F
:1018D80020EEC8F00750D9260850DA22DECF0AF0E9
:1018E800DDCF0BF00A500724D96E0B500820DA6EB2
:1018F80009C0DFFF20EEC8F00750D9260850DA22C9
:10190800DECF01F0DDCF02F0000E046EC80E036ECC
:1019180028EC15F020EEC8F00750D9260850DA2236
:1019280001C0DEFF02C0DDFF20EECAF00750D92655
:101938000850DA22DECF01F0DDCF02F0000E046E8F
:10194800C80E036E28EC15F020EECAF00750D92611
:101958000850DA2201C0DEFF02C0DDFF1200FEECF3
:1019680011F0F28EF28C000E0001FA6F010E0001E8
:10197800F96F700EFAEC0FF0710EFAEC0FF0898621
:101988008B9A61EC14F0020E0001AF5D000E0001AD
:10199800B059D8A0F6D7C30E0001D66F750E000156
:1019A800D76F3E0E0001D86FADC023F0AEC024F053
:1019B8004FEC15F023C0D3F024C0D4F025C0D5F0E7
:1019C800FBEC08F0D3C0DFF0D4C0E0F0D5C0E1F004
:1019D800CFEC06F0DFC0F5F0E0C0F6F0E1C0F7F0BC
:1019E800E2C0F8F0F5C0EEF0F6C0EFF0000E00012E
:1019F800F16F010E0001F06FFCEC0EF0700E59EC67
:101A08000AF0C30E0001D66F750E0001D76F3E0EA7
:101A18000001D86F9FC023F0A0C024F04FEC15F050
:101A280023C0D3F024C0D4F025C0D5F0FBEC08F0D7
:101A3800D3C0DFF0D4C0E0F0D5C0E1F0CFEC06F0C1
:101A4800DFC0F5F0E0C0F6F0E1C0F7F0E2C0F8F072
:101A5800F5C0EEF0F6C0EFF0000E0001F16F010ED8
:101A68000001F06FFCEC0EF0710E59EC0AF089766B
:101A7800000E0001B06F000E0001AF6F82D7040E98
:101A88001D6402D0040E1D6E020E1E6402D0020EEA
:101A98001E6E1D281D6E1D50030DF3CF25F0F4CFCB
:101AA80026F020EE0FF01B50D9261C50DA22DECF8C
:101AB8001FF0DDCF20F02050800A216E25501F5CDA
:101AC8002650800A2158D8B02AD020EE0FF01B509B
:101AD800D9261C50DA22DECF1FF0DDCF20F01F1EE2
:101AE800201E1F4A202A25501F26265020221F1E4E
:101AF800201E1F4A202A0F0E1F24256E000E2020AC
:101B0800266E1E5025241F6E000E2620206E1F50A4
:101B18001B24D96E20501C20DA6EDF50120020EEF4
:101B28000FF01B50D9261C50DA22DECF1FF0DDCF74
:101B380020F025C021F026C022F0211E221E214AB5
:101B4800222A1E50236E246A215023262250242242
:101B58001F5023262050242223501B24D96E2450A2
:101B68001C20DA6EDF501200040E1D6402D0040E31
:101B78001D6E1D281D6E1D50030DF3CF23F0F4CFED
:101B880024F020EE0FF01B50D9261C50DA22DECFAD
:101B98001FF0DDCF20F02050800A216E23501F5CFB
:101BA8002450800A2158D8B02BD020EE0FF01B50BB
:101BB800D9261C50DA22DECF1FF0DDCF20F01F1E01
:101BC800201E1F4A202A23501F26245020221F1E71
:101BD800201E1F4A202A0F0E1F24236E000E2020CD
:101BE800246E020E23241F6E000E2420206E1F5028
:101BF8001B24D96E20501C20DA6E1EC0DFFF120095
:101C080020EE0FF01B50D9261C50DA22DECF1FF031
:101C1800DDCF20F023C021F024C022F0211E221E97
:101C2800214A222A1F50212620502222020E212634
:101C3800000E222221501B24D96E22501C20DA6E5D
:101C48001EC0DFFF120020EE0FF01B50D9261C50DB
:101C5800DA22DECF20F0DDCF21F020501B24D96E10
:101C680021501C20DA6E1DC0DFFF20EE0FF01B5044
:101C7800D9261C50DA22DE2A000EDD2220EE0FF0D3
:101C88001B50D9261C50DA22DECF20F0DDCF21F000
:101C980020501B24D96E21501C20DA6E1EC0DFFF95
:101CA80020EE0FF01B50D9261C50DA22DE2A000E37
:101CB800DD2220EE0FF01B50D9261C50DA22DECF91
:101CC80020F0DDCF21F020501B24D96E21501C209C
:101CD800DA6E1FC0DFFF20EE0FF01B50D9261C5014
:101CE800DA22DE2A000EDD2220EE0FF01B50D92664
:101CF8001C50DA22DE52DD50800A800F0F0ED8B455
:101D0800DF5CD8A0120020EE0FF01B50D9261C5023
:101D1800DA22000EDE6E000EDD6E1200216E00016A
:101D280094B155D01DC0D9FF1EC0DAFF020EDF6E78
:101D3800000120EE01F000019051D92600019151D7
:101D4800DA221BC0DEFF1CC0DDFF90C0D9FF91C0A6
:101D5800DAFF21C0DFFF000120EE03F000019051FF
:101D6800D92600019151DA221DC0DEFF1EC0DDFF19
:101D7800050E00019027000E00019123D30E1F6E5F
:101D8800000E206E20500001911903E11F50000140
:101D98009019D8A408D00001000E0001916F00012D
:101DA800CE0E0001906F00019493000120EE92F096
:101DB8000001DE5200019151DD18000190C0E8FFDA
:101DC800D8B4DF18D8A409D00001948106D01DC06A
:101DD800D9FF1EC0DAFF010EDF6E020E1DC0D9FF4B
:101DE8001EC0DAFFDF6212003766FED79E86120039
:101DF8000001EF51800A800F190ED8B4EE5DD8A00B
:101E080006D0000E0001EF6F180E0001EE6F000102
:101E1800EF51800AF36E800EF35C000ED8B4EE5DCD
:101E2800D8B006D0000E0001EF6F000E0001EE6F73
:101E3800000E0001F46F000E0001F36F0001F45171
:101E4800800A800F180ED8B4F35DD8B012000001D4
:101E5800F451800A0001F26F0001EE510001F35DB8
:101E68000001EF51800A0001F259D8B00BD0F3C03D
:101E780023F0F4C024F0F0C025F0F1C026F089EC7E
:101E880003F00AD0F3C023F0F4C024F0000E266E4D
:101E9800000E256E89EC03F00001F34BF42BCED72E
:101EA8001E50D8B405D01B501C101D10D8A40CD03F
:101EB800000E1B6E000E1C6E000E1D6E12001E2AF8
:101EC800D8901D321C321B32000E1B14206E000EDF
:101ED8001C14216EFE0E1D14226E2050211022109B
:101EE800D8B40CD0ECD71E2A010E1B26000E1C22DB
:101EF800000E1D22D8901D321C321B32000E1B14FE
:101F0800206E000E1C14216EFF0E1D14226E205030
:101F180021102210D8B406D0E6D71E06D8901B365A
:101F28001C361D361CAEF9D71EA01C9ED8901E323A
:101F38001E501D121F50D8A41D8E1BC01BF01CC0A4
:101F48001CF01DC01DF01200000E206E1E50800AED
:101F5800F36E800EF35C000ED8B41D5CD8B006D0CA
:101F68001D6C1E1ED8B01E2A010E206E1C50800A41
:101F7800F36E800EF35C000ED8B41B5CD8B006D0AC
:101F88001B6C1C1ED8B01C2A010E201A000E226ED3
:101F9800000E216E1E501D10D8B41CD0010E1F6EED
:101FA80004D0D8901D361E361F2A1EAEFAD7D890F8
:101FB800213622361D501B5C1E501C58D8A005D057
:101FC8001D501B5E1E501C5A2180D8901E321D3297
:101FD8001F2EEDD72050D8B404D0216C221ED8B0C3
:101FE800222A21C01BF022C01CF012000001E06F61
:101FF800210E0001DB6F020E0001E16F000E0001EF
:10200800DF6F000E0001DE6F2AD00001000E256E82
:102018000001DB0E246E010E266E0001E0C027F0E1
:10202800286A0001000E2A6E0001E10E296E3CECC0
:1020380013F00001E151020AD8B4FBD70001E167AF
:1020480001D011D00001DE51640ADF11D8B40BD0E1
:102058000001E105D8B407D00001DE4BDF2B0001F9
:10206800E105D8A4D2D7000E0001D46F000E0001FC
:10207800D36FE0C0D5F04CEC10F0000E0001D46F27
:102088000F0E0001D36FE0C0D5F09BEC10F01200EA
:102098000001D451800A800F040ED8B4D35DD8A0B3
:1020A80006D0000E0001D46F000E0001D36F0001AE
:1020B800D3510001D32581090001D66F020E00011A
:1020C800DA6F000E0001D96F000E0001D86F2AD018
:1020D8000001000E256E0001D60E246E010E266E3C
:1020E8000001D5C027F0286A0001000E2A6E000101
:1020F800DA0E296E3CEC13F00001DA51020AD8B46A
:10210800FBD70001DA6701D012000001D851640A38
:10211800D911D8B412000001DA05D8B412000001B0
:10212800D84BD92B0001DA05D8B41200D1D7000159
:10213800D451800A800F100ED8B4D35DD8A006D031
:10214800000E0001D46F0F0E0001D36F0001D351B0
:10215800E0090001D66F020E0001DA6F000E0001DF
:10216800D96F000E0001D86F2AD00001000E256E2D
:102178000001D60E246E010E266E0001D5C027F090
:10218800286A0001000E2A6E0001DA0E296E3CEC66
:1021980013F00001DA51020AD8B4FBD70001DA675C
:1021A80001D012000001D851640AD911D8B4120024
:1021B8000001DA05D8B412000001D84BD92B000170
:1021C800DA05D8B41200D1D720EECCF02150D926A8
:1021D8002250DA22DE52DD50800A800F010ED8B478
:1021E800DF5CD8A036D020EECAF02150D926225084
:1021F800DA22DECF23F0DDCF24F023502124D96E5C
:1022080024502220DA6EDF50256E20EECAF02150CD
:10221800D9262250DA22DECF1BF0DDCF1CF0000ECB
:102228001E6EC80E1D6E13EC15F020EECAF021507C
:10223800D9262250DA221BC0DEFF1CC0DDFF20EEAB
:10224800CCF02150D9262250DA22DE06000EDD5AC3
:1022580002D0000E256E2550120020EECCF007505B
:10226800D9260850DA22DE52DD50800A800F010E8E
:10227800D8B4DF5CD8A036D020EECAF00750D926F3
:102288000850DA22DECF09F0DDCF0AF00950072422
:10229800D96E0A500820DA6EDF500B6E20EECAF0B5
:1022A8000750D9260850DA22DECF01F0DDCF02F040
:1022B800000E046EC80E036E28EC15F020EECAF06E
:1022C8000750D9260850DA2201C0DEFF02C0DDFF20
:1022D80020EECCF00750D9260850DA22DE06000E90
:1022E800DD5A02D0000E0B6E0B5012002AD01D5082
:1022F800D8B402D08A8612008A9612001D50D8B42B
:1023080002D08A8A12008A9A12001D50D8B402D0CC
:102318008C8212008C9212001D50D8B402D08D8489
:1023280012008D9412001D50D8B402D08D82120074
:102338008D9212001D50D8B402D08D8212008D9259
:1023480012001BC01EF01CC01FF01F50000AD8A4AA
:1023580012001E50000AD8B4CAD7010AD8B4CED782
:10236800030AD8B4D2D7010AD8B4D6D7070AD8B442
:10237800DAD7010AD8A41200DDD70001D4C0A8F02A
:102388000001D3C0A7F0D6C03AF00001D9C032F09E
:102398000001D8C031F00001DDC02EF00001DCC022
:1023A8002DF00001DFC0ACF00001DEC0ABF0000191
:1023B800DBC030F00001DAC02FF00001D5C01BF0FF
:1023C8001C6A000E1E6E020E1D6EA8EC0FF01B504C
:1023D800396E0101010E0001AA6F0101000E000112
:1023E800A96FD7C035F0000E00019E6F000E0001E6
:1023F8009D6F1200FEEC15F066EC13F0F6EC15F08C
:10240800ADEC15F082EC15F01DEC14F00101010E95
:102418000001D46F0101CE0E0001D36F280E000118
:10242800D56F030E0001D66F000E0001D76F290E7D
:102438000001D96F3A0E0001D86F2B0E0001DB6F37
:10244800C80E0001DA6F2B0E0001DD6F400E00018F
:10245800DC6F2B0E0001DF6FB60E0001DE6FC1ECE2
:1024680011F0FBEC13F012000001B251211803E146
:102478000001B1512018D8B41200000E266E000ECB
:10248800256E000E266E000E256E2650800A800FDF
:10249800060ED8B4255CD8B019D025C01BF026C0CC
:1024A8001CF025C022F020C023F021C024F0222AED
:1024B80003D0243424322332222EFBD72350010B9D
:1024C8001D6E7AEC11F0254A262ADFD720C0B1F01C
:1024D80021C0B2F0120044C005F005C006F0076A3A
:1024E8000650D76E43C0D6FF000E096E000E086E68
:1024F8000950800A800F080ED8B4085CD8B009D0FB
:1025080008C001F009C002F0F6EC0AF0084A092AEE
:10251800EFD70001AF4BB02B0001994B9A2B050E5A
:102528000001995D000E00019A59D8A008D009EC65
:1025380016F0000E00019A6F000E0001996FF294D8
:102548001200000E276E000E266E000E296E000E79
:10255800286E000E296E000E286E2950800A800F02
:10256800080ED8B4285CD8B01BD028C023F028C0E7
:102578001BF029C01CF0D2EC14F0010B246E256A64
:10258800232A03D0D89024362536232EFBD726506D
:102598002410266E27502510276E284A292ADDD7B1
:1025A80026C021F027C022F0120004EE00F0CE0E63
:1025B800EE6AE806FDE103EE00F0CE0EEE6AE806EC
:1025C800FDE102EE00F0C80EEE6AE806FDE101EE5C
:1025D80000F0F60EEE6AE806FDE100EE60F0730E1C
:1025E800EE6AE806FDE100EE2BF0180EEE6AE8064A
:1025F800FDE1160EF66E2C0EF76E000EF86E090051
:10260800F5CF45F0000EF86E0001B3EF0CF020EEA8
:10261800CCF02350D9262450DA22000EDE6E000EAC
:10262800DD6E20EEC8F02350D9262450DA22000EA1
:10263800DE6E000EDD6E20EECAF02350D92624503F
:10264800DA22000EDE6E000EDD6E26502510D8B49C
:10265800120024C01CF023C01BF0000E1E6E000EDA
:102668001D6E000E206EC80E1F6EE8EC14F01200EE
:10267800000194B120D00001000E1C6E0001C90EAB
:102688001B6E25C01EF024C01DF026C01FF027C0F9
:1026980020F028C021F03FEC14F00001000E1C6E61
:1026A8000001C90E1B6E2AC01EF029C01DF0010EC4
:1026B80092EC0EF0120029C0D9FF2AC0DAFF010EF1
:1026C800DF6E1200000E896EF70E926E200E0F015B
:1026D800386F000E8A6ED70E936E000E0F01396F99
:1026E800000E616E180E8B6EDF0E946E040E0F01D5
:1026F8003A6F000E8C6EFD0E956EDD0E0F013B6F6E
:10270800000E8D6E000E966E000E0F013C6F949AAF
:10271800F18E1200036EC584000120EE03F0000163
:10272800A551D9260001A651DA22DE50DD10D8B411
:1027380013D0000120EE03F00001A551D9260001B5
:10274800A651DA22DECF01F0DDCF02F001C0D9FFB9
:1027580002C0DAFF03C0DFFF000E376E12008B8A5B
:10276800000E0001D46F030E0001D36F000E72EC4F
:1027780015F0A5EC12F021C0D3F022C0D4F0080E59
:1027880072EC15F0000E1C6E090E1B6EB8EC14F0FE
:10279800010EB0EC09F0000E1C6E030E1B6EB8ECB7
:1027A80014F08B9A1200000E216E1BD01BC0D9FFAB
:1027B8001CC0DAFFDF501F6E1B4A1C2A080E206E51
:1027C8000ED021501F18010B1E6ED89021321E50BA
:1027D800D8B402D08C0E211AD8901F322006206659
:1027E800F0D71D061D28D8A4E1D7215012000001FA
:1027F800000E0001936F0001CE0E0001926F0001E0
:10280800000E0001916F0001CE0E0001906F0001D3
:10281800948300019491000E0001966F800EC76E9C
:10282800280EC66E000ECB6E090EC86E9E969D864B
:1028380012009D9A9D98480EB86E980EAB6E260EA3
:10284800AC6E670EAF6E000EB06E000EAD6E000E71
:10285800AE6E0301030E246E0301000E236E91EC8D
:1028680015F00401040E246E0401000E236E91EC91
:1028780015F09D8A120020C022F021C023F0D890C4
:10288800223623361BC0D9FF1CC0DAFF22C0DEFF68
:1028980023C0DDFF20EE02F01B50D9261C50DA229F
:1028A8001FC0DFFF20EE03F01B50D9261C50DA2290
:1028B8001DC0DEFF1EC0DDFF120062EC00F0000943
:1028C800D8B41200B3EC13F0D2C120F0D3C121F078
:1028D80038EC12F0D4C11BF0D5C11CF0D6C11DF0E4
:1028E800D7C11EF0EDEC15F0000E0101CF6F000E00
:1028F8000101CE6F12000401040E026E0401000EE5
:10290800016ED0EC15F00250800A800F010ED8B489
:10291800015CD8A00AD00401040E086E0401000E60
:10292800076E31EC11F0AD6E1200010E456E9D98E8
:102938001200266E0401040E226E0401000E216EA0
:1029480026C023F091EC0BF04504D8A41200000E29
:10295800456E0401040E226E0401000E216EE8EC9F
:1029680010F0AD6E9D881200000E1F6E000E1E6ED8
:102978000AD0060E1D6E300EE82EFED71D2EFCD78F
:1029880000D01E4A1F2A1F50800A1D6E1B501E5C55
:102998001C50800A1D58D8B01200EBD7FF0E1D6ED0
:1029A800FF0E1E6E1BC01FF01CC020F01D501F26FE
:1029B8001E5020220001880E1F24D96E0001000E2F
:1029C8002020DA6EDF5012001CC022F01BC021F05C
:1029D80008D021C0D9FF22C0DAFF1DC0DFFF214A7D
:1029E800222A1F06D8A020061F28D8B42028D8B429
:1029F8001200EFD7010E1B241F6E000E1C20206E44
:102A08001D501F5C1E502058D8A004D0000E206E08
:102A1800000E1F6E1FC01BF020C01CF01200010E1C
:102A28001B241F6E000E1C20206E1D501F5C1E50A4
:102A38002058D8A004D0000E206E000E1F6E1FC0B4
:102A48001BF020C01CF01200010E0124056E000EC0
:102A58000220066E0350055C04500658D8A004D026
:102A6800000E066E000E056E05C001F006C002F0ED
:102A7800120020EECAF01B50D9261C50DA22DECFF5
:102A88001DF0DDCF1EF01D501B24D96E1E501C20DA
:102A9800DA6EDF50120023C01BF024C01CF01D6A40
:102AA8008E0E1E6E000E1F6E54EC0FF01BC023F02E
:102AB8001CC024F01DC025F01200ABA202D0AB98B8
:102AC800AB88AECF0CF00301030E086E0301000EB5
:102AD800076E0CC009F022EC0CF012002A6E0101FE
:102AE800010E226E0101000E216E2AC023F0D3C010
:102AF80024F0D4C025F08DEC07F01200940ED56EAA
:102B0800CF0ED76E2C0ED66ECF0E446E2C0E436EA3
:102B1800F294F28A05EC16F0120024C01CF023C0CF
:102B28001BF0000E1E6E000E1D6E000E206ECE0EE7
:102B38001F6EE8EC14F012000301030E1C6E030173
:102B4800000E1B6EC5EC15F01BC01DF01CC01EF05E
:102B58001200010EC26E800EC16E050EC06E000E10
:102B6800C36E000EC46E9D8C1200050E2B26000E3F
:102B78002C22382E03D0040E376E1200010E376E49
:102B8800120020EECCF01B50D9261C50DA22DECFE2
:102B98001BF0DDCF1CF0120020EECCF00150D9263E
:102BA8000250DA22DECF01F0DDCF02F0120003017D
:102BB800030E1C6E0301000E1B6E3DEC15F0120097
:102BC8000301030E226E0301000E216EE8EC10F0E3
:102BD80012001BC0ADF01CC0AEF01DC09FF01EC09F
:102BE800A0F01200D09E9F9A9F98F1949F9C9F9668
:102BF800A2961200720ED36E040ED26E000E9B6E59
:102C08001200D58E12009E9C1200120012000100C4
:020000040020DA
:08000000FFFFFFFFFFFFFFFF00
:020000040030CA
:0E000000FF081F3CFFBF81FF0FC00FE00F4045
:00000001FF
