:040000004FEF00F0CE
:10000800FACF0DF0FBCF0EF0E9CF0FF0EACF10F0EA
:10001800E1CF11F0E2CF12F0D9CF13F0DACF14F01C
:10002800F3CF15F0F4CF16F0F6CF17F0F7CF18F09E
:10003800F8CF19F0F5CF1AF09DBA9EAA03D08EEC2E
:100048000DF00CD09DB89EA803D0DEEC0CF006D0C5
:100058009DBC9EAC03D012EC0EF000D01AC0F5FF88
:1000680019C0F8FF18C0F7FF17C0F6FF16C0F4FF55
:1000780015C0F3FF14C0DAFF13C0D9FF12C0E2FFA6
:1000880011C0E1FF10C0EAFF0FC0E9FF0EC0FBFF7F
:100098000DC0FAFF110034EF0BF04250D8A4AFD0D6
:1000A80001D80AD00500FA6E2F50FD6E3050FE6E52
:1000B800F850FF6EFA5012001EBEA1D01E501FE16C
:1000C800050E1D5CD8B01BD09AD019D0274A282A13
:1000D80001D80AD00500FA6E2F50FD6E3050FE6E22
:1000E800F850FF6EFA5012001EBE06D01E5007E1EF
:1000F800050E1D5CD8B003D0000E120000D001D848
:100108000AD00500FA6E3350FD6E3450FE6EF8507A
:10011800FF6EFA501200060AD8A4D8D701D80AD020
:100128000500FA6E3350FD6E3450FE6EF850FF6EC7
:10013800FA501200850AD8A462D001D80AD0050066
:10014800FA6E3350FD6E3450FE6EF850FF6EFA5062
:100158001200406E01D80AD00500FA6E3350FD6EC9
:100168003450FE6EF850FF6EFA5012003F6E01D800
:100178000AD00500FA6E3350FD6E3450FE6EF8500A
:10018800FF6EFA501200426E3E504018D8B437D075
:100198000001C04BC12B000E0101E46F000EE36F9C
:1001A80010D001D80AD00500FA6E3350FD6E3450D5
:1001B800FE6EF850FF6EFA5012000101E34BE42B7B
:1001C80000D042500101D56FD66B010E0101D52731
:1001D800000ED6230101E3510101D55D0101D6517D
:1001E800800A0101D76F0101E451800A0101D75942
:1001F800D8B0D7D7000E426E000E120000D0425081
:10020800D8B4AFD24150D8B402D048D000D001D829
:100218000AD00500FA6E2F50FD6E3050FE6EF85071
:10022800FF6EFA5012001EBEF2D71E5005E11D04E3
:10023800D8B002D0ECD700D001D80AD00500FA6EA9
:100248003150FD6E3250FE6EF850FF6EFA501200BB
:10025800FF0AD8A423D073EC04F0000E426E000EFF
:10026800416E000E12001AD001D80AD00500FA6EAD
:100278003350FD6E3450FE6EF850FF6EFA50120087
:100288000101D56F4150010D000EF324D96E020E05
:10029800F420DA6ED5C1DFFF412A00D001D80AD098
:1002A8000500FA6E2F50FD6E3050FE6EF850FF6E4E
:1002B800FA5012001D501E10D8B406D04150425CAE
:1002C800D8A002D0D1D700D042500101D56FD66B4B
:1002D800FF0E0101D76FFF0E0101D86F41500101D8
:1002E800D96FDA6B0101D7510101D9270101D85122
:1002F8000101DA230101D5510101D91905E10101F3
:10030800D6510101DA19D8A42CD2000E1B6E020EA8
:100318001C6E42C01DF0EEEC0BF03C6EFF0E0101AE
:10032800D56FFF0E0101D66F41500101D76FD86B11
:100338000101D5510101D7270101D6510101D82367
:10034800000E0101D725D96E020E0101D821DA6EFF
:100358003C50DE18D8A43CD1000E0101E66F000E17
:10036800E56F5CD0000E0101E525D96E020E010192
:10037800E621DA6E3D50DE5CD8B041D0010E0101B5
:10038800E5250101D56F000E0101E6210101D66FB7
:10039800000E0101D525D96E020E0101D621DA6EB3
:1003A800DF50436E020E0101E5250101D56F000EF5
:1003B8000101E6210101D66F000E0101D525D96E94
:1003C800020E0101D621DA6EDF50446E000E0101E3
:1003D800E525D96E020E0101E621DA6EDF50010132
:1003E800D56F0101D551020DF3502B24D96EF4506D
:1003F8002C20DA6E43C0DEFF44C0DDFF04D00001CC
:10040800C44BC52B00D0030E0101E5250101E56FA2
:10041800000E0101E6210101E66F00D04250010102
:10042800D56FD66B0101D5510101E55D0101E6519A
:10043800800A0101D76F0101D651800A0101D759FD
:10044800D8A090D73B50D8B4BCD00101DB69010ECD
:100458000101DC6FFF0E0101D56FFF0E0101D66FA0
:1004680041500101D76FD86B0101D5510101D72740
:100478000101D6510101D823000E0101D725D96EFB
:10048800020E0101D821DA6EDF500101DD6FDB0EAB
:100498001B6E010E1C6E030E1D6EEEEC0BF00101BF
:1004A800E16F01D80BD00500FA6E3550FD6E36505D
:1004B800FE6EF850FF6EFA50060E120001D80BD0EF
:1004C8000500FA6E3550FD6E3650FE6EF850FF6E20
:1004D800FA50850E120001D80BD00500FA6E35507F
:1004E800FD6E3650FE6EF850FF6EFA503F50120007
:1004F80001D80BD00500FA6E3550FD6E3650FE6EF1
:10050800F850FF6EFA503E50120001D80BD005008B
:10051800FA6E3550FD6E3650FE6EF850FF6EFA508A
:10052800030E120001D80BD00500FA6E3550FD6E8F
:100538003650FE6EF850FF6EFA50FF0E120001D8CA
:100548000BD00500FA6E3550FD6E3650FE6EF85031
:10055800FF6EFA50010E120001D825D00500FA6E80
:100568003550FD6E3650FE6EF850FF6EFA50FF0E95
:100578000101D56FFF0E0101D66F41500101D76F00
:10058800D86B0101D5510101D7270101D6510101CD
:10059800D823000E0101D725D96E020E0101D821FA
:1005A800DA6EDF50120001D80CD00500FA6E355013
:1005B800FD6E3650FE6EF850FF6EFA500101E151A3
:1005C8001200000E426E000E416E010E1200C9D0DC
:1005D8000001C24BC32B3B50D8B4BCD00101DE692B
:1005E800020E0101DF6FFF0E0101D56FFF0E010141
:1005F800D66F41500101D76FD86B0101D551010168
:10060800D7270101D6510101D823000E0101D725B2
:10061800D96E020E0101D821DA6EDF500101E06FB8
:10062800DE0E1B6E010E1C6E030E1D6EEEEC0BF043
:100638000101E26F01D80BD00500FA6E3550FD6E4E
:100648003650FE6EF850FF6EFA50060E120001D8B2
:100658000BD00500FA6E3550FD6E3650FE6EF85020
:10066800FF6EFA50850E120001D80BD00500FA6E05
:100678003550FD6E3650FE6EF850FF6EFA503F5002
:10068800120001D80BD00500FA6E3550FD6E3650B9
:10069800FE6EF850FF6EFA503E50120001D80BD093
:1006A8000500FA6E3550FD6E3650FE6EF850FF6E3E
:1006B800FA50030E120001D80BD00500FA6E35501F
:1006C800FD6E3650FE6EF850FF6EFA50FF0E1200A7
:1006D80001D80BD00500FA6E3550FD6E3650FE6E0F
:1006E800F850FF6EFA50020E120001D825D005000E
:1006F800FA6E3550FD6E3650FE6EF850FF6EFA50A9
:10070800FF0E0101D56FFF0E0101D66F41500101A7
:10071800D76FD86B0101D5510101D7270101D651F7
:100728000101D823000E0101D725D96E020E01015F
:10073800D821DA6EDF50120001D80CD00500FA6E0D
:100748003550FD6E3650FE6EF850FF6EFA500101BE
:10075800E2511200000E426E000E416E000E1200B1
:1007680000D0000E1200120024C043F025C044F04F
:1007780020EECCF02150D9262250DA22010EDBBE21
:1007880007D0010EDB5003E1C50EDE5CD8B01200C5
:1007980020EEC8F02150D9262250DA22DECFCEF141
:1007A800DDCFCFF10101CE512124D96E0101CF5106
:1007B8002220DA6E23C0DFFF20EEC8F02150D926B0
:1007C8002250DA22DECF1BF0DDCF1CF0000E1E6EA9
:1007D800C80E1D6E10EC0DF020EEC8F02150D92681
:1007E8002250DA221BC0DEFF1CC0DDFF20EECCF059
:1007F8002150D9262250DA22DE2A000EDD2220EEF0
:10080800C8F02150D9262250DA22DECFCEF1DDCF32
:10081800CFF10101CE512124D96E0101CF512220FF
:10082800DA6E43C0DFFF20EEC8F02150D9262250EF
:10083800DA22DECF1BF0DDCF1CF0000E1E6EC80ED4
:100848001D6E10EC0DF020EEC8F02150D926225074
:10085800DA221BC0DEFF1CC0DDFF20EECCF02150E9
:10086800D9262250DA22DE2A000EDD2220EEC8F038
:100878002150D9262250DA22DECFCEF1DDCFCFF1BA
:100888000101CE512124D96E0101CF512220DA6E07
:1008980044C0DFFF20EEC8F02150D9262250DA22CA
:1008A800DECF1BF0DDCF1CF0000E1E6EC80E1D6ED5
:1008B80010EC0DF020EEC8F02150D9262250DA2293
:1008C8001BC0DEFF1CC0DDFF20EECCF02150D92676
:1008D8002250DA22DE2A000EDD221200120000D099
:1008E80001D80AD00500FA6E2F50FD6E3050FE6E0A
:1008F800F850FF6EFA5012001EBEF2D71E5006E1E5
:10090800040E1D5CD8B002D0EBD700D001D80AD0B5
:100918000500FA6E3350FD6E3450FE6EF850FF6ECF
:10092800FA5012000101D06F01D80AD00500FA6E02
:100938003350FD6E3450FE6EF850FF6EFA501200C0
:100948000101D16F01D80AD00500FA6E3350FD6E4F
:100958003450FE6EF850FF6EFA5012000101D26F4B
:1009680001D80AD00500FA6E3350FD6E3450FE6E81
:10097800F850FF6EFA5012000101CE6FD00E1B6EB8
:10098800010E1C6E030E1D6EEEEC0BF00101CF6F15
:100998000101CF510101CE19D8A453D0000E010195
:1009A800D46F000ED36F0101D4BF0AD00101D45116
:1009B8004CE1050E0101D35DD8B0120001D0120040
:1009C800EE0E1B6E000E1C6ED3C11DF0000E1E6EC7
:1009D800E9EC06F03F18D8A42FD0EE0E1B6E000EDF
:1009E8001C6ED3C11DF0010E1E6EE9EC06F001016C
:1009F800D219D8A421D00101D105D8A40CD0EE0E6B
:100A08001B6E000E1C6ED3C11DF0010E1E6EAEECE7
:100A180008F0120011D0020E0101D119D8A40CD08F
:100A2800EE0E1B6E000E1C6ED3C11DF0020E1E6E64
:100A3800AEEC08F0120000D00101D34BD42BB3D791
:100A480012000001C24BC32B120012000101CE6F2D
:100A58002DC01BF02EC01CF0CCC11DF0EEEC0BF02D
:100A68000101CF6F01D80BD00500FA6E3550FD6E2D
:100A78003650FE6EF850FF6EFA50060E120001D87E
:100A88000BD00500FA6E3550FD6E3650FE6EF850EC
:100A9800FF6EFA50850E120001D80CD00500FA6ED0
:100AA8003550FD6E3650FE6EF850FF6EFA5001015B
:100AB800CE51120001D80BD00500FA6E3550FD6EEC
:100AC8003650FE6EF850FF6EFA503E50120001D8B4
:100AD8000CD00500FA6E3550FD6E3650FE6EF8509B
:100AE800FF6EFA500101CC511200000E0101D16FC6
:100AF800000ED06F19D001D813D00500FA6E35500A
:100B0800FD6E3650FE6EF850FF6EFA500101D0515E
:100B18002D24D96E0101D1512E20DA6EDF5012003A
:100B28000101D04BD12B00D00101CC510101D05D86
:100B38000101D151800A0001FF6F0101CD51800AE6
:100B48000001FF59D8A0D7D701D80CD00500FA6EFC
:100B58003550FD6E3650FE6EF850FF6EFA500101AA
:100B6800CF511200EE0E1B6E000E1C6ECEC11DF092
:100B7800CFC11EF0000E1F6E41EC08F0000E236E70
:100B8800010E246E000E266E010E256E66EC0BF02B
:100B9800120020EECCF02150D9262250DA22010E84
:100BA800DBBE07D0010EDB503AE1C80EDE5CD8B0E0
:100BB80036D020EEC8F02150D9262250DA22DECFD6
:100BC80024F0DDCF25F024502124D96E2550222091
:100BD800DA6E23C0DFFF20EEC8F02150D92622505C
:100BE800DA22DECF1BF0DDCF1CF0000E1E6EC80E21
:100BF8001D6E27EC0DF020EEC8F02150D9262250AA
:100C0800DA221BC0DEFF1CC0DDFF20EECCF0215035
:100C1800D9262250DA22DE2A000EDD22120020EE2A
:100C2800C8F02150D9262250DA22DECF24F0DDCFB9
:100C380025F024502124D96E25502220DA6E23C0B5
:100C4800DFFF20EEC8F02150D9262250DA22DECF6D
:100C58001BF0DDCF1CF0000E1E6EC80E1D6E27ECBB
:100C68000DF020EEC8F02150D9262250DA221BC000
:100C7800DEFF1CC0DDFF20EECAF02150D92622502D
:100C8800DA22DECF1BF0DDCF1CF0000E1E6EC80E80
:100C98001D6E27EC0DF020EECAF02150D926225007
:100CA800DA221BC0DEFF1CC0DDFF1200120020EE9E
:100CB800CCF00750D9260850DA22010EDBBE07D047
:100CC800010EDB503AE1C80EDE5CD8B036D020EE1B
:100CD800C8F00750D9260850DA22DECF0AF0DDCF57
:100CE8000BF00A500724D96E0B500820DA6E09C0A1
:100CF800DFFF20EEC8F00750D9260850DA22DECFF1
:100D080001F0DDCF02F0000E046EC80E036E55EC44
:100D18000DF020EEC8F00750D9260850DA2201C09D
:100D2800DEFF02C0DDFF20EECCF00750D9260850C8
:100D3800DA22DE2A000EDD22120020EEC8F007506B
:100D4800D9260850DA22DECF0AF0DDCF0BF00A50A0
:100D58000724D96E0B500820DA6E09C0DFFF20EE99
:100D6800C8F00750D9260850DA22DECF01F0DDCFCF
:100D780002F0000E046EC80E036E55EC0DF020EE66
:100D8800C8F00750D9260850DA2201C0DEFF02C099
:100D9800DDFF20EECAF00750D9260850DA22DECF50
:100DA80001F0DDCF02F0000E046EC80E036E55ECA4
:100DB8000DF020EECAF00750D9260850DA2201C0FB
:100DC800DEFF02C0DDFF12001200040E1D6403D016
:100DD800040E1D6E00D0020E1E6403D0020E1E6E9D
:100DE80000D01D281D6E1D50030DF3CF25F0F4CF44
:100DF80026F020EE0FF01B50D9261C50DA22255081
:100E0800DE5CDE50800A216E2650800A2158D8B058
:100E18002AD020EE0FF01B50D9261C50DA22DECF44
:100E28001FF0DDCF20F01F1E201E1F4A202A25504C
:100E38001F26265020221F1E201E1F4A202A0F0E62
:100E48001F24256E000E2020266E1E5025241F6E9E
:100E5800000E2620206E1F501B24D96E20501C2007
:100E6800DA6EDF50120020EE0FF01B50D9261C500E
:100E7800DA22DECF1FF0DDCF20F025C021F026C01A
:100E880022F0211E221E214A222A1E50236E246A85
:100E980021502326225024221F502326205024226A
:100EA80023501B24D96E24501C20DA6EDF50120008
:100EB80012000001FF6F5AD0000E1C6E020E1B6E4E
:100EC800000E1E6E010E1D6E25C01FF026C020F0FC
:100ED80017EC0CF01200000E1C6E030E1B6E000EB9
:100EE8001E6E010E1D6E25C01FF026C020F017ECE7
:100EF8000CF01200000E1C6E020E1B6E000E1E6E11
:100F0800060E1D6E25C01FF026C020F017EC0CF051
:100F18001200000E1C6E030E1B6E000E1E6E060ED7
:100F28001D6E25C01FF026C020F017EC0CF0120033
:100F3800000E1C6E010E1B6E000E1E6E010E1D6E45
:100F480025C01FF026C020F017EC0CF01200000E90
:100F58001C6E010E1B6E000E1E6E060E1D6E25C049
:100F68001FF026C020F017EC0CF012000001FF5112
:100F7800010AD8B4A1D7030AD8B4BCD7010AD8B497
:100F8800AAD7070AD8B4C5D7010AD8B4D1D7030A53
:100F9800D8A41200DCD71200000E1F6E000E1E6EC1
:100FA8001FBE08D01F5014E10C0E1E5CD8B010D024
:100FB80001D00ED0B40E1E24D96E000E1F20DA6E9A
:100FC8001E50E8EC0DF0DF6E1E4A1F2AE9D700D04C
:100FD8000001B551B4C01CF01D6A1CC01DF01C6A8C
:100FE8001C100001A86F1D500001A96F0001B75126
:100FF800B6C01CF01D6A1CC01DF01C6A1C10000144
:10100800AA6F1D500001AB6F0001B951B8C01CF0A8
:101018001D6A1CC01DF01C6A1C100001AC6F1D501D
:101028000001AD6F0001BB51BAC01CF01D6A1CC0A5
:101038001DF01C6A1C100001AE6F1D500001AF6F3F
:101048000001BD51BCC01CF01D6A1CC01DF01C6A0B
:101058001C100001B06F1D500001B16F0001BF519D
:10106800BEC01CF01D6A1CC01DF01C6A1C100001CB
:10107800B26F1D500001B36F120020EE0FF01B502D
:10108800D9261C50DA22DECF20F0DDCF21F0205007
:101098001B24D96E21501C20DA6E1DC0DFFF20EE04
:1010A8000FF01B50D9261C50DA22DE2A000EDD2252
:1010B80020EE0FF01B50D9261C50DA22DECF20F08C
:1010C800DDCF21F020501B24D96E21501C20DA6E70
:1010D8001EC0DFFF20EE0FF01B50D9261C50DA226D
:1010E800DE2A000EDD2220EE0FF01B50D9261C5000
:1010F800DA22DECF20F0DDCF21F020501B24D96E7C
:1011080021501C20DA6E1FC0DFFF20EE0FF01B50AD
:10111800D9261C50DA22DE2A000EDD2220EE0FF03E
:101128001B50D9261C50DA22010EDBBE1200010E1C
:10113800DB5004E10F0EDE5CD8A0120020EE0FF0A9
:101148001B50D9261C50DA22000EDE6E000EDD6E12
:1011580012001200040E1D6403D0040E1D6E00D090
:101168001D281D6E1D50030DF3CF23F0F4CF24F07E
:1011780020EE0FF01B50D9261C50DA222350DE5CDB
:10118800DE50800A216E2450800A2158D8B02BD016
:1011980020EE0FF01B50D9261C50DA22DECF1FF0AC
:1011A800DDCF20F01F1E201E1F4A202A23501F2695
:1011B800245020221F1E201E1F4A202A0F0E1F24E3
:1011C800236E000E2020246E020E23241F6E000EB4
:1011D8002420206E1F501B24D96E20501C20DA6E4C
:1011E8001EC0DFFF120020EE0FF01B50D9261C5046
:1011F800DA22DECF1FF0DDCF20F023C021F024C09B
:1012080022F0211E221E214A222A1F502126205068
:101218002222020E2126000E222221501B24D96EE2
:1012280022501C20DA6E1EC0DFFF120012000101DE
:10123800CEA108D0000E266E010E256E040E5DECC0
:1012480007F008D0000E266E000E256E040E5DEC29
:1012580007F000D00101CEA308D0000E266E010EC3
:10126800256E020E5DEC07F008D0000E266E000E0B
:10127800256E020E5DEC07F000D00101CEA508D066
:10128800000E266E010E256E010E5DEC07F008D0EB
:10129800000E266E000E256E010E5DEC07F000D0E4
:1012A8000101CEA708D0000E266E010E256E030E92
:1012B8005DEC07F008D0000E266E000E256E030EBA
:1012C8005DEC07F000D00101CEA908D0000E266E13
:1012D800010E256E050E5DEC07F007D0000E266E98
:1012E800000E256E050E5DEC07F00FEC0EF01200F7
:1012F800000E206E1EAE07D01D6C1E1ED8B01E2A12
:10130800010E206E00D01CAE07D01B6C1C1ED8B07E
:101318001C2A010E201A00D0000E226E000E216E2B
:101328001D501E10D8B421D0010E1F6E05D0D890C4
:101338001D361E361F2A00D01EBE02D0F8D700D098
:10134800D890213622361D501B5C1E501C58D8A040
:1013580006D01D501B5E1E501C5A218000D0D8900C
:101368001E321D321F2EECD700D02050D8B405D025
:10137800216C221ED8B0222A00D021C01BF022C026
:101388001CF01200120020EECCF02150D926225079
:10139800DA22010EDBBE3CD0010EDB5003E1DE0495
:1013A800D8A036D020EECAF02150D9262250DA2211
:1013B800DECF23F0DDCF24F023502124D96E245032
:1013C8002220DA6EDF50256E20EECAF02150D92691
:1013D8002250DA22DECF1BF0DDCF1CF0000E1E6E8D
:1013E800C80E1D6E27EC0DF020EECAF02150D9264C
:1013F8002250DA221BC0DEFF1CC0DDFF20EECCF03D
:101408002150D9262250DA22DE06000EDD5A02D0FB
:10141800000E256E25501200120020EECCF0075069
:10142800D9260850DA22010EDBBE3CD0010EDB5073
:1014380003E1DE04D8A036D020EECAF00750D92642
:101448000850DA22DECF09F0DDCF0AF00950072470
:10145800D96E0A500820DA6EDF500B6E20EECAF003
:101468000750D9260850DA22DECF01F0DDCF02F08E
:10147800000E046EC80E036E55EC0DF020EECAF097
:101488000750D9260850DA2201C0DEFF02C0DDFF6E
:1014980020EECCF00750D9260850DA22DE06000EDE
:1014A800DD5A02D0000E0B6E0B50120012008C8A0F
:1014B80000D0000E1C6E000E1B6E00D08C9C000E1F
:1014C8001E6E170E1D6E1EBE27D001D025D08C9E15
:1014D80000D08C9C00D0D8901D34D96E1E34DA6EA2
:1014E800600ED926000EDA22DECF1BF0DDCF1CF00D
:1014F8001B041C10D8A402D08C8806D01B501C10CA
:10150800D8A402D08C9800D08C8E00D08C8C00D0BF
:101518001D06D8A01E06D7D78C9C00D08C9E00D064
:101528008C9A120012008C8A00D0020E1B6E000EDC
:101538001C6E000E1D6E000E1E6E3EEC0CF000D0F0
:101548008A80020E1B6E000E1C6E000E1D6E000EB1
:101558001E6E3EEC0CF000D08A90020E1B6E000E40
:101568001C6E000E1D6E000E1E6E3EEC0CF000D0C0
:101578008A80020E1B6E000E1C6E000E1D6E000E81
:101588001E6E3EEC0CF000D08C9A00D0C2EC0CF031
:10159800120003EC0EF001EC0BF00AEC0EF087ECF5
:1015A8000CF0C60E0101CE6F000E0101CF6F280EA0
:1015B8000101D06F050E0101D16F000E0101D26F3C
:1015C800F00E0101D36F190E0101D46FF60E01015F
:1015D800D56F1B0E0101D66F700E0101D76F1B0E60
:1015E8000101D86FE60E0101D96F1B0E0101DA6FF8
:1015F80098EC0BF0D0EC0DF01200000E896EF70E8F
:10160800926E270E0F01386F010E8A6EFE0E936ED2
:101618003E0E0F01396F000E616E000E8B6EDF0EED
:10162800946E1C0E0F013A6F000E8C6E0F0E956EA5
:101638000F0E0F013B6F000E8D6E070E966E070E94
:101648000F013C6F948C948E949A8B8A8B8C8B8E22
:101658000F013A9B0F013A9D0F013A9FF18E12003C
:1016680004EE00F0CE0EEE6AE806FDE103EE00F0AF
:10167800CE0EEE6AE806FDE102EE00F0C80EEE6A54
:10168800E806FDE101EE00F0CE0EEE6AE806FDE1A7
:1016980000EE60F09F0EEE6AE806FDE100EE27F02E
:1016A8001E0EEE6AE806FDE1280EF66E1C0EF76EB9
:1016B800000EF86E0900F5CF45F0000EF86E000137
:1016C800ABEF0DF020EECCF02350D9262450DA22CF
:1016D800000EDE6E000EDD6E20EEC8F02350D92617
:1016E8002450DA22000EDE6E000EDD6E20EECAF007
:1016F8002350D9262450DA22000EDE6E000EDD6E4D
:1017080025502610D8B4120023C01BF024C01CF0AA
:10171800000E1E6E000E1D6E000E206EC80E1F6E8F
:101728003EEC0DF012001200CEC12BF0CFC12CF010
:10173800D1C13EF0D3C135F0D4C136F0D7C12FF0B6
:10174800D8C130F0D9C131F0DAC132F0D5C133F0A7
:10175800D6C134F0D0C11BF01C6A000E1E6E020EFA
:101768001D6E7CEC09F01B503D6E000E2D6E010EB7
:101778002E6ED2C13BF0000E286E000E276E1200AE
:101788008B8A000E0101D16F050ED06F000E9DEC03
:101798000DF0000E0101D16F050ED06F090E9DEC02
:1017A8000DF0050E1B6E000E1C6E000E1D6E000E59
:1017B8001E6E3EEC0CF0010E2AEC05F0030E1B6EBB
:1017C800000E1C6E000E1D6E000E1E6E3EEC0CF020
:1017D8008B9A1200000E216E1FD01BC0D9FF1CC0AF
:1017E800DAFFDF501F6E1B4A1C2A080E206E0FD02E
:1017F80021501F18010B1E6ED89021321E50D8B4EC
:1018080002D08C0E211AD8901F32200600D020500A
:10181800D8B402D0EDD700D01D061D28D8A4DDD736
:10182800215012001200F00E216EFF0E226E1BC016
:1018380023F01CC024F0D89023362436D8902336C1
:101848002436D890233624361D5023261E502422B1
:10185800D890233624362150232622502422600E85
:101868002324D96E000E2420DA6E1FC0DEFF20C0AC
:10187800DDFF1200000E206E000E216E000E226E9B
:10188800000E236E0ED0030E1F6E980EE82EFED7A4
:101898001F2EFCD7010E2026000E212222222322F1
:1018A80000D01B50205C1C5021581D50225823503A
:1018B800800A1F6E1E50800A1F58D8A0E4D7120055
:1018C80097EC0AF0000E266E010E256E030E5DECF5
:1018D80007F0000E266E010E256E010E5DEC07F076
:1018E800000E266E010E256E040E5DEC07F0000E4C
:1018F800266E010E256E050E5DEC07F00FEC0EF05E
:10190800D0EC07F012009D9A9D98480EB86E980E7C
:10191800AB6E260EAC6E330EAF6E000EB06E000EC0
:10192800AD6E000EAE6E000E236E030E246E7FECBD
:101938000DF0000E236E040E246E7FEC0DF09D8AD0
:10194800120051EC00F00009D8B41200395000011F
:10195800C81905E13A500001C919D8B40BD0C8C05C
:1019680039F0C9C03AF039C0CEF13AC0CFF11BEC1A
:1019780009F000D0C4EC0BF012001200000E206E2B
:10198800170E1F6E20BE13D001D011D0D8901F346F
:10199800D96E2034DA6E600ED926000EDA22000ED7
:1019A800DE6E000EDD6E1F06D8A02006EBD75BECBE
:1019B8000AF01200000E016E040E026EDCEC0DF04F
:1019C80002BE0DD0025003E10104D8A008D0000ED9
:1019D800076E040E086E11EC0AF0AD6E1200010ECF
:1019E800456E9D9812001200266E000E216E040EA0
:1019F800226E26C023F0CDEC05F04504D8A41200D1
:101A0800000E456E000E216E040E226EC7EC09F022
:101A1800AD6E9D8812001200010E1B241F6E000E71
:101A28001C20206E1D501F5C1E502058D8A005D0C9
:101A3800000E206E000E1F6E00D01FC01BF020C0CD
:101A48001CF012001200010E1B241F6E000E1C2039
:101A5800206E1D501F5C1E502058D8A005D0000EC7
:101A6800206E000E1F6E00D01FC01BF020C01CF09F
:101A7800120012001BC021F01CC022F009D021C0A6
:101A8800D9FF22C0DAFF1DC0DFFF214A222A00D079
:101A98001F06D8A020061F28F2E12028D8A4EFD7D7
:101AA8001200010E0124056E000E0220066E03507E
:101AB800055C04500658D8A005D0000E066E000E2E
:101AC800056E00D005C001F006C002F01200120039
:101AD80020EECAF01B50D9261C50DA22DECF1DF0AA
:101AE800DDCF1EF01D501B24D96E1E501C20DA6E4F
:101AF800DF501200120023C01BF024C01CF0000E9F
:101B08001E6E000E1D6E000E206ECE0E1F6E3EEC79
:101B18000DF01200ABA202D0AB98AB88AECF0CF0A0
:101B2800000E076E030E086E0CC009F05BEC06F0A1
:101B38001200266E000E216E010E226E26C023F0C2
:101B4800D0C124F0D1C125F0B8EC03F01200CDECDF
:101B58000AF064EC0CF0F28EF28C8B9A00D0A5ECB3
:101B68000CF0FDD74FEF00F0000E1B6E030E1C6E3D
:101B7800C4EC0DF01BC01DF01CC01EF012001200BA
:101B880020EECCF01B50D9261C50DA22DECF1BF0F9
:101B9800DDCF1CF012001200010EC26E800EC16E65
:101BA800120EC06E000EC36E000EC46E9D8C120025
:101BB80020EECCF00150D9260250DA22DECF01F017
:101BC800DDCF02F0120012001B6E1BC0A9FFA69CFD
:101BD800A69EA68000F000F0A85012001200000E89
:101BE8001B6E030E1C6E6CEC0DF012001200000E42
:101BF800216E030E226EC7EC09F012001200600E6F
:101C0800D36E040ED26E000E9B6E1200D09E9F9A69
:101C18009F989F9C12005BEC0AF012009E9C120099
:021C28000100B9
:020000040020DA
:08000000FFFFFFFFFFFFFFFF00
:020000040030CA
:0E000000FF081F3CFFBF81FF0FC00FE00F4045
:00000001FF
