:020000040000fa
:080000000002040000000000f2
:020000040000fa
:10000800aa020000aa020000aa020000aa02000038
:10001800aa020000aa020000aa020000aa02000028
:10002800aa020000aa020000aa0200005e16000050
:10003800aa020000aa020000aa0200008e16000010
:10004800aa020000aa020000aa020000100f000085
:10005800400f000020140000aa020000aa020000bd
:10006800aa020000aa020000aa020000aa020000d8
:10007800aa020000aa020000aa020000aa020000c8
:10008800aa020000aa020000aa020000aa020000b8
:10009800aa020000aa020000aa020000aa020000a8
:1000a800aa020000aa020000aa020000aa02000098
:1000b800aa020000aa020000aa020000aa02000088
:1000c800aa020000aa020000aa020000aa02000078
:1000d800aa020000aa020000aa020000aa02000068
:1000e800aa020000aa020000aa020000aa02000058
:1000f800aa020000aa020000aa020000aa02000048
:10010800aa020000aa020000aa020000aa02000037
:10011800aa020000aa020000aa020000aa02000027
:10012800aa020000aa020000aa020000aa02000017
:10013800aa020000aa020000aa020000aa02000007
:10014800aa020000aa020000aa020000aa020000f7
:10015800aa020000aa020000aa020000aa020000e7
:10016800aa020000aa020000aa020000aa020000d7
:10017800aa020000aa020000aa020000aa020000c7
:10018800aa020000aa020000aa020000aa020000b7
:10019800aa020000aa020000aa020000aa020000a7
:1001a800aa020000aa020000aa020000aa02000097
:1001b800aa020000aa020000aa020000aa02000087
:1001c800aa020000aa020000aa020000aa02000077
:1001d800aa020000aa020000aa020000aa02000067
:1001e800aa020000aa020000aa020000aa02000057
:0801f800aa020000aa020000a7
:020000040000fa
:10020800aa020000aa020000aa020000aa02000036
:10021800aa020000aa020000aa020000aa02000026
:10022800aa020000aa020000aa0200005e1600004e
:10023800aa020000aa020000aa0200008e1600000e
:10024800aa020000aa020000aa020000100f000083
:10025800400f000020140000aa020000aa020000bb
:10026800aa020000aa020000aa020000aa020000d6
:10027800aa020000aa020000aa020000aa020000c6
:10028800aa020000aa020000aa020000aa020000b6
:10029800aa020000aa020000aa020000aa020000a6
:1002a800aa020000aa020000aa020000aa02000096
:1002b800aa020000aa020000aa020000aa02000086
:1002c800aa020000aa020000aa020000aa02000076
:1002d800aa020000aa020000aa020000aa02000066
:1002e800aa020000aa020000aa020000aa02000056
:1002f800aa020000aa020000aa020000aa02000046
:10030800aa020000aa020000aa020000aa02000035
:10031800aa020000aa020000aa020000aa02000025
:10032800aa020000aa020000aa020000aa02000015
:10033800aa020000aa020000aa020000aa02000005
:10034800aa020000aa020000aa020000aa020000f5
:10035800aa020000aa020000aa020000aa020000e5
:10036800aa020000aa020000aa020000aa020000d5
:10037800aa020000aa020000aa020000aa020000c5
:10038800aa020000aa020000aa020000aa020000b5
:10039800aa020000aa020000aa020000aa020000a5
:1003a800aa020000aa020000aa020000aa02000095
:1003b800aa020000aa020000aa020000aa02000085
:1003c800aa020000aa020000aa020000aa02000075
:1003d800aa020000aa020000aa020000aa02000065
:1003e800aa020000aa020000aa020000aa02000055
:0803f800aa020000aa020000a5
:020000040000fa
:100400004fb520000e7f24000e0188000000000080
:10041000000020000000e000020032000001200087
:10042000200288000c000700407c21000100200011
:1004300011000700000020000000e0000200320070
:1004400000000200000000005c1802000000000034
:100450000040da000000fe004440a9000000200037
:100460000000e0000300320000002000a00188002e
:100470004440a80000000600910188008000780038
:100480000000eb0015003700e280400032a0b4000d
:100490009101ba00e280400032a0b4009102ba009b
:1004a000e280400032a0b4000002eb00472bde00e7
:1004b000f507b200602ce10004003a000059eb009f
:1004c0008301e900fdff3e00040037006128e100e0
:1004d000010032000082eb00040007001101ba00a5
:1004e0000200e000e8ff3a00000006003159ba00bf
:1004f0008301e9000c0032002159ba008301e900b0
:10050000080032000400e00003003a00e2804000ee
:1005100032a0b400f5ff370011d9ba008301e90019
:10052000faff3a008100e800e180400032a0b40008
:1005300000000600c00e040000000000ce0e040003
:1005400000000000dc0e040000000000ea0e0400c1
:10055000000000000040da000000fe00889fbe009e
:100560008004780090598000e00f500004003a00a9
:100570000e0007000084eb00e00f5000080035007b
:1005800098598000e08f54000500320009004400b3
:1005900006000700e00f500001003d000084eb0062
:1005a000080078004f04be0000000600e00f500075
:1005b00004003a0044b320009459880000027800f7
:1005c000060037000082eb0045b52000850f500083
:1005d00002003e00905988000002eb000400780001
:1005e00000000600040024000602ab00feff3a00f3
:1005f0000642ab00fcff3a000662ab00faff3a008d
:100600000622ab00f8ff3a000682ab00f6ff3a0084
:100610004610800086026200e08f5200f2ff3a002e
:10062000000006000080fb001010880044108000cd
:100630000408b20000c0eb000b003a0004002400e4
:100640004610800086026200e08f5200fcff3a00f4
:10065000e4ff0700000028000802b600e00f500089
:1006600001003200e0cfb300000006000602a8003f
:10067000000006000642a80000000600889fbe0099
:100680008a9fbe008c1f780099000700a0003300ed
:1006900003866c006450e1002e0032006420e1000b
:1006a000330032006150e1002f0032006120e10090
:1006b0003100320085855500eb07b00009002000ad
:1006c00008042000050037000804440089844c0019
:1006d0000a0031000603430087834b0000015300ea
:1006e00081815b00f8ff33000203be000800a00018
:1006f0000804440089844c00f6ff3900c639dd0047
:100700008301730001003200130020008904d1002e
:100710000884d3000998a300050032000800a70050
:100720000300a0008904d1000884d3008b05e800f1
:100730008904d1000884d3000001eb000281d200bb
:100740003000070001f0a1000cf0a70001f0a000ac
:10075000780037006420e1007a0032000801be0012
:100760000200be00f7ff37006120e1007500320093
:100770006000b800f3ff37000000200001f82700f8
:10078000f0ff37000001be00440007000470a7001e
:1007900003f0a10003f8a30013003a006509b100bb
:1007a00010003200090035006928e1000200350020
:1007b0000100280000000500000040008180480082
:1007c0008502e900fcff3a0000000600f88f4200b5
:1007d000050035008100d1000080d3008502e800cb
:1007e000fcff3a00000006008000eb00000005005e
:1007f0004f89de0082017800890037006011b8005f
:100800009700370081002000618055000b003d00fb
:100810000b00200061fe2f000100e1001d003400ec
:1008200082817100610164008904d1000884d300d1
:100830000000e800faff3a00710020006100640047
:1008400003007000020060000900320061044400ef
:10085000e0844c000988a500050032008b05e80003
:100860006808e10002003a008904d1000884d3003e
:10087000f20f20000258e10005003d00c75ddd00d9
:10088000f907b200898075000800780000000600b2
:100890000bf827008b00780000000500c70ade0077
:1008a000f107b200f50fb20008003200e1cf4200bc
:1008b000020032000170a00024000500810f7000ca
:1008c000010032000408050044000500810f70009b
:1008d00002003a00140005008502e9000000400013
:1008e00081c04800fcff3b000170a000240005000f
:1008f0000004be00e9ff07000003be000405be00bf
:100900000200be00e5ff0700844f750000000600ee
:100910000200be006450e100050036006420e100e2
:10092000020036000968a30001003a000800be007a
:100930000160a0004f0678004f05be004f04be00c6
:1009400000000600f0ff2f00f1ff2700f9ff37003d
:10095000889fbe008a9fbe008c1f7800e4ff0700be
:10096000ebff330003866c006450e100240032008a
:100970006420e100270032006150e10022003200d3
:100980006120e100210032008b854200eb07b100bd
:100990000134b800003ab8000804420089844a00d3
:1009a000013ab8000030b8008880400009014a00d0
:1009b000040033000000400081804800020149002b
:1009c0008b05e900c909dd008301700001003200d8
:1009d00013002000c814de004814dd004709de00c3
:1009e0001200b200c808de000884700085ff07000e
:1009f00001f0a1000cf0a70001f0a000cdff37002e
:100a00006120e100cfff32000801be000200be00fd
:100a1000f7ff37006150e100fcff3a00c9ff3700e3
:100a2000881f7800030478000300e00007003d0001
:100a300060001000e080180060011900e0811900da
:100a400002003b0001f02d00030037000400070006
:100a500008f0a70001f0a0004f0478000000060095
:100a6000889fbe008a9fbe00008270000402710051
:100a700004827100260032000004be000200be00a5
:100a80006011b8006b092000950220000182cf00a0
:100a90000a0039000541b1000082cf00070039008b
:100aa0000541b1000982cf00040039000541b100c1
:100ab0000882cf00010039000541b1000542520013
:100ac000120032000a003b00828171006101640063
:100ad0008100d1000080d3008984d3000884d30032
:100ae0008b05e8000442e800f7ff3a0007003700f2
:100af0000804440089844c000000480081804800bc
:100b00008b05e9000442e900f9ff3a003dff0700c8
:100b10004f05be004f04be0000000600e4874700fa
:100b2000889fbe008a9fbe008c9fbe008e1f7800eb
:100b300024b2200015598000e08f52000b003a00cb
:100b4000e402420015598800655988002402980083
:100b500054598800a44290000504a0002542980042
:100b6000e44290000504a00065429800670440003c
:100b70004244de004244dd005259800044b320006c
:100b800049b520008484540025002000110009008c
:100b90008504d80080bf9f00050744000e0747006a
:100ba0000003eb00e40544007cb520000406560079
:100bb0000806460002003700160020000d017800ec
:100bc0002242900061026200020032000a003700f7
:100bd00015097800920278002542900061026200b7
:100be000fbff320008024100848f520002003900ee
:100bf000e00f54003f003d00920678000d00a10078
:100c0000828f5600edff3e00e10f5300eaff3a00ed
:100c10000fba9700840f540002003600890f540069
:100c2000100039006143b800614ab900b0ff2f00dd
:100c3000010020000402500085825800840f5300f8
:100c4000858f5b00020035000b0578000600370039
:100c5000110009000986d8000982b900040578004e
:100c6000010037000e0578000a0078003bfe0700ff
:100c7000e10f400005003a000b0578000b007800fa
:100c800036fe0700e10f40002b003200645980005f
:100c9000000a78006459800064034200a442900076
:100ca000860f5000020032000504a000010037004a
:100cb0000504a10025429800640555000a0540007e
:100cc0000a0878006a59880024b22000040d7800d0
:100cd00065598000254290000404a000a4429800b9
:100ce000204290000404a100244098000003eb007f
:100cf000b2ff370054598800848f52000700360035
:100d00001403be007659880087598800120a7800bb
:100d10008042eb00545980002542980057598000ca
:100d200007097800224290000404a00024419800a2
:100d300064004100010037000000eb004f0778001d
:100d40004f06be004f05be004f04be004f00b1006d
:100d500000000600e00f5000080032006400500060
:100d600054598000840f5000010031005059880010
:100d7000204290000404a1002440980000000600d6
:100d8000889fbe008a9fbe000004be00e08f540012
:100d900005003a00e00f54003200320008007800ed
:100da000ecff070030003700e00f540004003a0069
:100db0000900780059ff0700800478002a003700f6
:100dc000640254009405780068fa9700610262009a
:100dd0000200320008007800deff070009007800fa
:100de0004eff070080047800e08f54001e003200a0
:100df000888f54001b00320069bd9700090555001b
:100e000042d5de0088855500c2ddde000a0178008b
:100e10008b0f5500010036000b0178004211dd00f8
:100e2000880078000900780013000700888f5400bc
:100e30000d0031004255dd000a854400880f550041
:100e4000090036000804550042c4de004244dd00bb
:100e5000088444007459800085598000048cbe00c9
:100e60000100370088047800090078004f05be00b3
:100e70004f04be00000006000002780002003700a8
:100e8000315a78000201e900e00f5100fcff3a00fe
:100e9000000006000002780002003700015a7800c6
:100ea0000201e900e00f5100fcff3a0000000600db
:020000040000fa
:100eb0000e00fa00000f7800214798003247980092
:100ec0004347980034079800450798005607980054
:100ed000670798001e007800a04e88003e409000f2
:100ee000d1e9b7003e029000244e88005e009000d9
:100ef000404e88006e029000544e88004e009000d4
:100f0000304e88002e4290000482fb000402d10083
:100f10000442780004007800d3e9b700449e200022
:100f2000b44e88004e409000d8e9b7000002eb00b4
:100f3000d44e88000080fa00000006000800fa0085
:100f400020079800614798000042eb00044f7800aa
:100f5000200037002e029000944278001547980038
:100f60002e0290000402e8002407980084c0b30019
:100f700024479800140037001e4290001e426a0069
:100f800061426200344798009e4278000582fb006f
:100f90000402d100044f78003e429000e04f52001e
:100fa00002003200c4c8b3001e4f6a001e42900007
:100fb0000482fb000402d100144798002e429000e6
:100fc0000442e900244798002e429000e04f52006e
:100fd000e9ff3a006e4290000482fb000402ea003e
:100fe0004f22de0004427800ee4290008542e90084
:100ff00065479800e04f5200d6ff3a001e42780045
:10100000044078000080fa00000006000600fa00a4
:10101000404798008455800004427800b54e800017
:101020008440780005007800c4ff07000042780083
:1010300024479800244e800060c0b30004000100e3
:10104000244e800050c8b30004000100244e8000ec
:101050004e40900004000100254e8000149d2000a9
:10106000144278000440780005000100254e8000fd
:101070008455800004427800044078000500010097
:101080000002eb00040f780008003700254e8000b6
:10109000b64e80001e02780004024300144278001d
:1010a00004407800050001001e0fe8008455800010
:1010b0009e0f5200f5ff3c00244e80002e40900011
:1010c000040001008041eb002e419000ce409000d2
:1010d00040ab2000a001070011002000409e20002e
:1010e000450107000080fa00000006000200fa0037
:1010f000889fbe00f49c200014427800e04f52000c
:1011000044003a00444e80000400010000027800d0
:10111000ea0f52003f0034000a003700d44e80002e
:101120000402e800d44e8800444e80000400010010
:1011300000027800e40f520002003c000042eb0085
:10114000b9003700344e80000400010000427800ee
:10115000e64f5200f1ff3a00344e800004000100d7
:101160000042780055c8b300854f520029003a006c
:10117000344e800004000100004278000002fd00af
:10118000e2e9b7000002fd00344e800004000100d7
:10119000004278000002fd00d2e9b7000002fd0025
:1011a000344e800004000100004278000002fd007f
:1011b000cfe9b7000002fd00259e2000954278008f
:1011c000149d20001442780084cf520009003200a0
:1011d000f44e80000402e800f44e88000042eb0068
:1011e0000002fd00cfe9b7000002fd000042eb0065
:1011f0008d003700f49c2000144278000482fb002c
:101200000402e8000400780044fe070000027800b1
:10121000644e8800f49c200014427800e04f520095
:10122000800032000d003700654e8000e89c2000f1
:10123000184478000882fb0084844200344e800009
:101240000400010000427800844c78000842e80065
:101250000002fd00cee9b7000002fd00444e800010
:101260000400010000027800e00f52000600320086
:10127000e59c200095427800f49c20001442780000
:1012800084cf5200e8ff3600f49c2000144278001e
:101290008482fb00e49c2000144278000482fb005e
:1012a0000402e900848f52005e003a00f49c2000a2
:1012b00014427800654e8000844078000500780074
:1012c0001eff0700004278000002fd00d0e9b700d1
:1012d0000002fd00654e8000e49c2000144278006e
:1012e0000482fb000402e900048242009442780078
:1012f000049d20001442780084cf52003b003a0045
:101300000002eb00040f780028003700654e8000d3
:101310001e0278000482420094427800349d20002e
:101320001442780084cf52001b003100654e8000cb
:101330001e0278000402e800048242001442780091
:101340000002fd00b2eab7000002fd00654e800019
:101350001e0278000482e8000482420014427800f1
:101360000002fd00b3eab7000002fd00a54e8000b8
:10137000664e80001e02780004024300144278008a
:101380000482fb0004024200048242009555800062
:10139000050a780003003700044f80000402e800cb
:1013a000044f88001e027800630f4200f49c200066
:1013b000144278000482fb009e0f5200d3ff3c00d1
:1013c0000042eb0004007800cfe9b7000042eb00d8
:1013d00004007800cee9b700644e80000400780075
:1013e0005cfe070014c0b3000f003700e44e80001d
:1013f0000402e800e44e88000042eb00040078009c
:10140000cfe9b7000042eb0004007800cee9b70056
:10141000644e8000040078004efe07000042eb009e
:10142000010037000042eb00044078004f04be008a
:101430000080fa00000006000400fa00004f780067
:10144000110798001e0190009e407800409e2000e9
:10145000020007000080fa00000006000600fa0003
:10146000000f780021479800220798002e02900074
:10147000945588001e027800e4a29000440c2000dd
:10148000848f52003b003c001e02780044a2900072
:101490009e0278002e43900086727a001e02780029
:1014a00044a29000810c200004007800680007002e
:1014b00000027800840278001e02780045a298009d
:1014c0001e02780064a290008402e8001e027800e8
:1014d00065a298001e027800c4a2900024ab2000f0
:1014e000144278001e03780004f37a001e0278008c
:1014f00044a29000810c20000400780054000700f2
:1015000000027800840278001e02780045a298004c
:101510001e02780064a290008402e8001e02780097
:1015200065a298001e027800c4a2900034ab20008f
:10153000144278001e03780004f37a001e0278003b
:1015400044a29000810c20000400780040000700b5
:1015500000027800840278001e02780045a29800fc
:101560001e02780064a290008402e8001e02780047
:1015700065a298000080fa00000006000400fa004e
:10158000100798001e02900064a29000e00f520025
:10159000130034001e02900054a290009e0290009e
:1015a000654f7a001e02900054a29000810c20002a
:1015b000040078002600070000027800840278000a
:1015c0001e02900055a298001e02900064a2900096
:1015d0008402e9001e02900065a298000200370014
:1015e0000042eb00044f78001e427800044078006f
:1015f0000080fa00000006000400fa00000f7800e6
:10160000110798001e0278008002eb0065a2980086
:101610001e0278008002eb0045a298001e027800ae
:101620008002eb0055a298001e029000e00f5200cd
:10163000050032001e027800820c20008000eb00c2
:101640000400780013fe07000080fa000000060086
:101650000600fa0010079800210798001e0290006b
:10166000040fe8002e0290009e027800848f520042
:10167000020039000002eb00040f78001e0278001f
:10168000040078000080fa00000006000400fa0060
:10169000204798000002eb00040f78001300370089
:1016a0001e027800044278000041eb00844078007c
:1016b00040ab20007b00070000427800ae42900063
:1016c000854f520008003a001e027800044278005c
:1016d00022c0b3008440780040ab200071000700b6
:1016e00000427800050037001e0fe8001e02780057
:1016f000e40f5200eaff340044c0b3000440780015
:101700000080fa00000006000000fa00d44e8000bd
:10171000040078000080fa00000006000000fa00d3
:10172000e44e8000040078000080fa00000006000b
:101730000000fa00f44e8000040078000080fa00f7
:10174000000006000000fa00044f8000040078004a
:101750000080fa00000006000600fa00000f780082
:101760002147980032479800434798001e027800ae
:10177000040a90009e0278002e43900086727a0040
:101780001e027800040a90008402e8001e0278001d
:10179000050a98001e027800040a90009e02780054
:1017a0003e43900086727a001e027800040a900080
:1017b0008402e8001e027800050a98001e027800e4
:1017c000040a90009e0278004e43900086727a00d0
:1017d0001e027800040a90008402e8001e027800cd
:1017e000050a98001e027800040a9000ee0f5200cd
:1017f000030034001e0278008002eb00050a980006
:101800000080fa00000006000600fa0010079800a9
:1018100041479800524798004e429000e44f5200d2
:101820000200360044c0b300444798004e42900086
:101830000442e800444798004e4290000482fb00b6
:101840006322b90004027800040f78001e029000a1
:10185000040a90009e0f520009003d001e029000f5
:10186000040a90001e0252006f0f42001e82e80020
:101870009e0290005e43900086727a000700370057
:101880001e029000040a90001e0252000482e8002a
:101890009e0290005e43900086727a000080fa00fb
:1018a000000006000600fa00100798004147980063
:1018b000524798004e429000e44f5200020036001a
:1018c00044c0b300444798005e429000e24f52008b
:1018d0000200360024c0b300544798004e429000e6
:1018e0000442e800444798004e4290000482fb0006
:1018f0006322b90004027800040f78001e029000f1
:10190000040a90009e0f52000a003d001e02900043
:10191000040a90001e0252006f0f42005e429000c7
:101920000482fb001e0242009e02900065427a0083
:10193000080037001e029000040a90009e02520028
:101940005e4290000482fb00048242009e029000ee
:1019500065427a00044078000080fa00000006002a
:101960000800fa00881f780000000000444e800044
:101970000400010000027800e30f5200fbff340076
:10198000344e800004000100004278004447980073
:10199000344e800004000100004278005447980053
:1019a000344e800004000100004278006447980033
:1019b000344e800004000100004278002447980063
:1019c0006402470031c0b300040078005bfd0700eb
:1019d0000042780034479800ae4290003e429000aa
:1019e00084cf520032003a000002eb00040f78006e
:1019f0002b0037001e027800044278000041eb0003
:101a00008440780040ab2000a6ff07000042780029
:101a1000259d200095427800854f52001f003a0016
:101a20006e4490001e0278000442780012c0b30099
:101a30008440780040ab20009aff07000042780005
:101a4000844f540015003a005e429000e14f52006e
:101a500007003a001e0278000442780012c0b3006a
:101a60008440780040ab200067ff07001300370078
:101a70005e429000e24f520008003a001e027800d9
:101a80000442780022c0b3008440780040ab2000bc
:101a90005dff070000000000080037001e0fe8008f
:101aa0001e027800e40f5200d2ff3400030037001a
:101ab000e44e80000402e800e44e88004f04780001
:101ac0000080fa00000006000000fa002002a900d1
:101ad000041180000410a1000420a100041188005a
:101ae00020a2a90094032000441188001411800052
:101af0000460a0000470a10014118800141180007b
:101b00000460a1000470a100141188008560a90080
:101b10008580a90021e2a8002342a80000802000bf
:101b200006000700e08c2000040007009560a80074
:101b30009580a8000080fa00000006000200fa006c
:101b4000000f7800e20c20008000eb001e007800ff
:101b5000d0fc07000080fa00000006000400fa0034
:101b6000000f7800214798001e027800e4a2900040
:101b7000740c2000848f520014003c001e02780078
:101b800044a290009e0278002e43900086727a0054
:101b90001e02780044a29000810c2000040078000e
:101ba0005f00070000027800840278001e027800bf
:101bb00045a298001e02780064a290008402e8000a
:101bc0001e02780065a29800170037001e027800f8
:101bd00044a290009e0278002e43900086727a0004
:101be0001e02780044a29000810c200004007800be
:101bf0004b00070000027800840278001e02780083
:101c000045a298001e02780054a29000810c20008a
:101c10000400780042000700000278008402780087
:101c20001e02780055a298000080fa00000006000d
:101c30000400fa00100798001e02900064a29000b1
:101c4000e00f5200130034001e02900054a29000d6
:101c50009e029000654f7a001e02900054a29000f0
:101c6000810c2000040078002d000700000278009d
:101c7000840278001e02900055a298001e02900077
:101c800064a290008402e9001e02900065a2980000
:101c9000020037000042eb00044f78001e4278003b
:101ca000044078000080fa00000006000400fa00fa
:101cb000000f7800110798001e0278008002eb00e8
:101cc00065a298001e0278008002eb0045a29800f1
:101cd0001e0278008002eb0055a298001e029000c0
:101ce000e00f5200050032001e027800820c200036
:101cf0008000eb000400780066fc07000080fa001a
:101d0000000006000200fa00000f78001e027800b2
:101d100064a29000040078000080fa000000060031
:101d20000600fa0010079800210798001e02900094
:101d3000040fe8002e0290009e027800848f52006b
:101d4000020039000002eb00040f78001e02780048
:101d5000040078000080fa00000006000200fa008b
:101d6000000f78001e02780054a290009e027800b6
:101d700065427a00044078000080fa000000060006
:101d80000000fa0000802000f4ff07000042780005
:101d9000044078000080fa00000006000000fa000d
:101da00000802000d7ff07000002780004007800c0
:101db0000080fa00000006000000fa000080200009
:101dc0009bff070000427800044078000080fa0082
:101dd000000006000200fa00004f78009e407800e4
:101de000e08c20005dff070084b1200014427800e1
:101df000e04f5200080032000042eb00040078007f
:101e000018ebb700e08c200089ff07000042780043
:101e10000482fb00241188000080fa000000060004
:101e20003600f800809fbe00829fbe00849fbe00e7
:101e3000869fbe000200fa00141180006202620058
:101e4000e00f5200010032002222a900341180006c
:101e5000044f78009e407800008020003fff07007c
:101e60008560a9000080fa004f03be004f02be004b
:101e70004f01be004f00be003600f90000400600d2
:101e80003600f800809fbe00829fbe00849fbe0087
:101e9000869fbe000000fa00e08c200099ff07003a
:101ea00000027800e00f520006003400e08c2000b1
:101eb0005fff0700004278000482fb0024118800c5
:101ec0000300370014c0b3000400780018ebb7001b
:101ed0008580a9000080fa004f03be004f02be00bb
:101ee0004f01be004f00be003600f9000040060062
:101ef0000000fa008425200024108800042021001e
:101f0000341088000002eb00041088000002eb008f
:101f10001410880004202900341088000080fa0082
:101f2000000006000200fa00000f780002003700ef
:101f300000000000000000001e0fe9001e027800f3
:101f4000e00f5200faff3a000080fa00000006009d
:101f50000a00fa004047980051479800320798005d
:101f6000430798000002eb00140798004e0290000f
:101f7000040f7800bdf907009af907005e4290004f
:101f8000e04f5200060032004e42900004424200f0
:101f900004407800a3f9070092f907001900370000
:101fa0004e4290000402fb0004024200044278000a
:101fb0000404a000044078009af9070089f907009a
:101fc000100037001e029000be0290000482420002
:101fd000144278009e0290008502e80015079800e0
:101fe000044078008ff907007ef907001e0fe90012
:101ff000451080000400280004826200e00f5200b7
:1020000004003a001e027800e00f5200edff3a0093
:10201000010037000000000096f9070071f9070081
:102020000080fa00000006000000fa0014c0b300af
:10203000044078000080fa00000006000000fa006a
:1020400014c0b300044078000080fa0000000600cd
:102050000200fa00004f780014c0b300044078007a
:102060000080fa00000006000200fa00004f78002d
:1020700014c0b300044078000080fa00000006009d
:102080000000fa0014c0b300044078000080fa0099
:10209000000006000000fa0014c0b30004407800fd
:1020a0000080fa00000006000000fa00c4b0200022
:1020b00014427800e04f52004f0032005458800024
:1020c000050020005600200007002000860f520067
:1020d000878f5a0048003e00046001000500370069
:1020e0000c003700140037001b00370027003700b2
:1020f0002e003700ccff070000427800e04f52006e
:1021000032003200545880000402e800545888001d
:102110003900370000c6b300d3ff07000042780043
:10212000e04f52002b003200545880000402e800b7
:102130005458880030003700c0ff07000042780084
:10214000e04f520025003200545880000402e8009d
:102150005458880028003700455880007458800083
:10216000048242001442780004407800b8ff07005f
:1021700000427800e04f52001a00320054588000ac
:102180000402e800545888001b003700bcff070019
:1021900000427800e04f5200140032005458800092
:1021a0000402e8005458880013003700b9ff070004
:1021b00000427800e04f52000e0032005458800078
:1021c0000402e800545888000b00370000000000ab
:1021d0000900370000000000070037000000000081
:1021e0000500370000000000030037000000000079
:1021f00001003700000000000080fa000000060027
:102200000000fa000080fa00000006000000fa005a
:10221000a5ff0700faff07000080fa000000060093
:102220000000fa0091000700b0fb070000427800b0
:10223000e04f52004f003200144d8000e00f52007a
:1022400004003a0064b1200014427800e04f5200cc
:102250002600320064b12000144278000404a20079
:10226000e04f52000d0032000002eb00f4578800ee
:10227000ca010700144d800004f0a7000402ea0020
:102280000402ea004f22de00044278000002fd0052
:1022900016ebb7000002fd002e003700144d800041
:1022a000e00f520028003200f54c80008458800076
:1022b000848f520006003200f44c8000845888005d
:1022c000845880001100200004007800bd01070040
:1022d000054d800094588000848f52001c0032000d
:1022e000044d8000945888001a00370094588000ec
:1022f000e00f5200040032000002eb009458880006
:102300000000eb00e801070084588000e00f520055
:10231000050032000002eb00845888001100200004
:102320000000eb00a7010700a30107000042eb003b
:102330000002fd0016ebb7000002fd000002eb00fa
:10234000f457880003003700000000000100370048
:10235000000000000002eb00c45788000002eb0000
:10236000e457880014c0b3000002fd0014ebb7006e
:102370000002fd0044b1200014427800e04f5200fa
:102380000e003200a4b1200014427800e04f520049
:102390000a003200c4578000e50f520007003600e3
:1023a0000002eb00c45788000042eb000002fd0071
:1023b0001aebb7000002fd00cda2a80044b1200036
:1023c00014427800e04f52000f003200c4578000e2
:1023d000e10f52000c003600a4b120001442780036
:1023e0000404a200e04f5200070032000002eb009c
:1023f000c4578800130007000042eb000002fd00f4
:1024000014ebb7000002fd00020007000080fa0094
:10241000000006000000fa00e5578000843e20001e
:10242000848f520005003600110020000000eb00f0
:10243000640107000000eb009b0107000080fa0028
:10244000000006000000fa00410020000040eb0000
:10245000f9fb070010c0b300ecfa07000002eb0024
:10246000c45788000080fa00000006000000fa004f
:1024700084b1200014427800e04f52000c0032007a
:10248000c4578000e50f5200090036006516800031
:102490000400220004826200e00f520004003200b7
:1024a000cda2a90014c0b300040078001aebb70055
:1024b0000080fa00000006000000fa003e0107005c
:1024c000253a800004fe2f0004826200243a88002e
:1024d00064012000343a8800243a80000460a1009e
:1024e0000470a100243a88003600200084072000f0
:1024f000a509200037742000844b7800854b7800b4
:10250000864b7800143a8000040378000600a0008f
:10251000640420007505200027742000844b780097
:10252000854b7800864b780000000000153a80004b
:10253000040027008482620004002300848f52007c
:10254000faff3a0000000000153a80000402200063
:1025500004826200e00f5200fbff3200153a800057
:10256000f40b200004836200640420007505200041
:1025700027742000844b7800854b7800864b7800c8
:1025800035368000f40f2e00848262000450200053
:10259000050272003436880025368000f40f2e00c4
:1025a0008482620004202100050272002436880023
:1025b0003535800004fe2f00048262006400b30001
:1025c00034358800b5368000f40f2e008482620016
:1025d0000430200005027200b436880025358000e2
:1025e00004fe2f00048262006401b30024358800d9
:1025f000153a8000040420000403780005037300ea
:10260000640420007505200027742000844b7800a6
:10261000854b7800864b7800370007002afd0700bd
:1026200007ec2000e6ec2000c5ed2000a4ee200021
:102630008041eb0042c0b30081c2b300c0992000ca
:102640001bfa07002afe07007e010700640107004d
:102650000d0207008e020700c90007000080fa0083
:10266000000006000400fa00100798000002eb00ca
:10267000040f780004003700800e280001002000bd
:10268000750207001e0fe8001e0290009e027800ef
:10269000848f5200f8ff35000080fa000000060029
:1026a0000000fa00a301070000027800853e200028
:1026b000850f52000e003400a3010700641680004d
:1026c0000402d100614262000404a200614262007f
:1026d0000482fb0061026200040242006616800070
:1026e000d5ff2f0085026300050272006416880082
:1026f0000080fa00000006000000fa002d63a80028
:10270000d4c2a800c9a2a900cda2a900c822a900cc
:10271000c002a900c142a900c9e2a900c9c2a9001a
:10272000c0e2a900c8a2a900d022a900d042a900f5
:10273000c102a900c882a900c082a9000080fa00d5
:10274000000006000000fa00041980000002eb00ff
:1027500004198800041980000002eb001419880095
:10276000041980000002eb0024198800041980007d
:102770000002eb009419880021a3a900041980002d
:102780000480a1000490a1000419880004198000ad
:102790000450a0000460a0000470a0000419880088
:1027a0002143a8002063a9001419800004d0a000d0
:1027b00004e0a00004f0a000141988002223a9005e
:1027c000141980000480a1000490a100141988004d
:1027d00025e3a900f4c3b3000400780024e3b700a4
:1027e0004519800004fe2f0004826200441988000d
:1027f00028e3a900141980000420a1000430a100de
:102800000440a1000450a1001419880004fc2f000a
:10281000641988000002eb0044198800f4032000ca
:102820008419880085a0a90095a0a80021e3a8002c
:102830002003a9002023a8000080fa000000060061
:10284000801f7800849fbe00861f78000000fa0079
:1028500044ad2000144278000404a200e04f52006e
:10286000090032001457800005188000040342005c
:1028700084ac200004024300050a7800145780004d
:102880000402e8001457880014578000e20f520039
:10289000080034000002eb003456880014c0b30076
:1028a00004007800d4eab7000002eb001457880057
:1028b00095a0a900145780008402420024b0200093
:1028c0000482420014027800044278007f426200d1
:1028d0000482fb007f0262004619800005fe2f0083
:1028e0008502630005027200441988002023a800b5
:1028f00085a0a9000080fa004f0378004f02be00b7
:102900004f007800004006000000fa000080fa0046
:10291000000006000000fa000080fa000000060037
:102920000000fa0044568000050020000400be00ac
:10293000b2f707000002be00b4568800c5568800f2
:1029400054568000050020000400be00abf70700cd
:102950000002be00d4568800e55688006456800008
:10296000050020000400be00a4f707000002be001e
:10297000f4568800055788000080fa000000060021
:102980000000fa000000eb00fa0007000000eb0076
:102990000e0107000080fa00000006000000fa00a7
:1029a000c402a800c542a900d422a800d442a900ac
:1029b0000080fa00000006000000fa000080fa0023
:1029c000000006000400fa00000f780011079800cc
:1029d0001e02780004007800fc0007000080fa0066
:1029e000000006000400fa00000f780011079800ac
:1029f0009e029000b4042000848f52000600340030
:102a0000b40420009e027800848f5200020034003b
:102a10000042eb000100370014c0b300044078000e
:102a20000080fa00000006000200fa00000f7800a3
:102a30001e027800e10f52000a003a00045980009b
:102a4000e20f520007003a000000eb00df00070031
:102a5000d442a900d422a8001e027800045988009c
:102a60000f0037001e027800e20f52000c003a00ff
:102a700004598000e10f520009003a000000eb0009
:102a8000d200070040062000f6fe0700d422a9006d
:102a900040062000f3fe07001e027800045988005b
:102aa0000080fa00000006000200fa00000f780023
:102ab000f45880009e027800848f52000500320096
:102ac0001e02780004007800aa0007001e027800a9
:102ad000f45888000080fa00000006000200fa00a6
:102ae000004f78001e427800e04f52000200320092
:102af000c482a80001003700c482a9000080fa0047
:102b0000000006000000fa000080fa000000060045
:102b10000800fa0030079800be029000040220006e
:102b2000848f520002003400040220003407980011
:102b30003e029000e00f520002003c000002eb0059
:102b4000340798003e02900024079800cbe2a900c9
:102b5000e4588000ae029000848f520004003400dc
:102b6000c2e2a800e4588000ae029000048f520038
:102b7000e4588000ae029000848f520004003d00b3
:102b8000c2e2a900e55880002e029000048f520096
:102b90000002eb001407980009003700cbc2a80020
:102ba00010002000affe0700cbc2a90010002000db
:102bb000acfe07001e0290000402e8001407980013
:102bc0001e0290009e0f5200f4ff3500cbe2a800d9
:102bd0002e029000e45888000080fa0000000600f1
:102be0000200fa00cbe2a900100020009dfe0700c1
:102bf000c2e2a900100020009afe07000002eb00cc
:102c0000040f780007003700cbc2a8001000200096
:102c100094fe0700cbc2a9001000200091fe07001f
:102c20001e0fe8001e027800ff0f5200f6ff34006e
:102c3000cbe2a8000002eb00e45888000080fa0014
:102c4000000006000000fa0005e1a9000421a90027
:102c5000240880000440a1000450a000240888003b
:102c6000a4242000140888008460a9009460a800af
:102c700005e1a8000080fa00000006000000fa004c
:102c80001061a90011e1a9001021a90010c1a9003b
:102c9000840880000440a0000450a000840888003c
:102ca000045327006408880084e0a90094e0a80089
:102cb00011e1a8000080fa0000000600801f7800e3
:102cc000849fbe000000fa00d45780000402e80090
:102cd000d4578800f5578000c4382100848f5200f3
:102ce00003003e00f45780000402e800f457880017
:102cf000c45780000402e800c4578800e4578000ed
:102d00000402e800e45788008460a9000080fa000b
:102d10004f02be004f00780000400600801f780080
:102d20000000fa0084e0a9000080fa004f0078005b
:102d3000004006000000fa00d4578000040078002c
:102d40000080fa00000006000000fa000002eb001c
:102d5000d45788000080fa00000006000200fa0044
:102d6000000f78001e027800d45788000080fa0017
:102d7000000006000200fa00000f7800f4ff2000b7
:102d80009e027800848f52000e003e001e027800e2
:102d90004822de000442780004007800e4eab7002c
:102da0001e0278000442780004007800e5eab700cb
:102db0002300200042ae200011c0b30010c6b300b3
:102dc00063fc07000080fa00000006000200fa0021
:102dd000000f7800f4ff20009e027800848f5200dc
:102de0000e003e001e0278004822de0004427800f9
:102df00004007800e4eab7001e027800044278007c
:102e000004007800e5eab7002300200042ae20006d
:102e100011c0b30000c6b3004dfc07000080fa00eb
:102e2000000006000400fa00004f78001107980027
:102e30001e0290004822de00044278000400780060
:102e4000e4eab7001e029000044278000400780013
:102e5000e5eab70045ae20009542780004c7b3000c
:102e600004c2720004007800e4eab70023002000e6
:102e700042ae200011c0b3001e40780034fc0700b1
:102e80000080fa00000006000000fa000c000700b5
:102e9000240c80000400a1000410a0000420a00065
:102ea000240c88000002eb00140c8800f4002000c1
:102eb000040c88008461a9000080fa00000006006c
:102ec0000000fa0011e1a9001021a90010c1a90019
:102ed000840880000440a0000450a00084088800fa
:102ee0000002eb0034088800844622006408880051
:102ef00011e1a8000080fa00000006000200fa00bc
:102f0000000f7800440620009e027800848f520053
:102f10000200340044062000040f78001e027800ee
:102f2000e00f520002003d000002eb00040f7800a9
:102f30001e027800cfa2de000400be002cf60700bf
:102f40000002be0002002000832c24000400be000a
:102f5000caf507000002be0002002a001361240027
:102f60000400be007af607000002be000400be00a6
:102f700004f607000002be0004027800040c88007a
:082f80000080fa0000000600c9
:020000040000fa
:102f8800000800009c01000000000000180b000071
:102f9800020000000200000001000000f80a000022
:102fa8000800000000000000c60a00001e00000023
:102fb80000000000000b00000800000002000000f4
:102fc8000100010000020000050000009c0900004b
:102fd8002a01000000000000080b000008000000a3
:102fe80000000000100b00000800000000000000b6
:102ff8001a0b00000200000002000000010000009f
:103008001c0b00000200000000000000e40a0000a1
:1030180014000000000000001e0b00000200000069
:1030280000000000200b0000020000000200000069
:1030380002000000220b0000100000000000000049
:10304800320b000002000000000000000000000039
:020000040000fa
:10305800f03fb1000180b10006003500ee03090021
:1030680000000000403fb1000180b100fbff3d00bf
:103078001000b000203fb0000200350000800900b9
:0830880000000000000006003a
:020000040000fa
:103090000000fa00800220009dfe07004001200091
:1030a00096ff07000080fa00000006000000fa000a
:1030b0000080fa00000006000400fa00000f78000b
:1030c00011079800fcfc0700cda2a900c402a800cb
:0c30d00053fc070072fd0700fdff3700f5
:020000040000fa
:0200000401f009
:04000000cf0000002d
:020000040000fa
:0200000401f009
:04000400cf00000029
:020000040000fa
:0200000401f009
:0400080007000000ed
:020000040000fa
:0200000401f009
:04000c008000000070
:020000040000fa
:0200000401f009
:0400100001000000eb
:020000040000fa
:0200000401f009
:040014005f00000089
:020000040000fa
:0200000401f009
:04001800f7000000ed
:020000040000fa
:0200000401f009
:04001c00dfff000002
:00000001FF
