:020000040000fa
:080000000002040000000000f2
:020000040000fa
:100008009a0200009a0200009a0200009a02000078
:100018009a0200009a0200009a0200009a02000068
:100028009a0200009a0200009a0200009a02000058
:100038009a0200009a0200009a0200009a02000048
:020000040000fa
:020000040000fa
:100400006f9320000e7f24000e0188000000000082
:10041000000020000000e000020032000001200087
:10042000200288000c00070000cb20000100200003
:1004300011000700000020000000e0000200320070
:100440000000020000000000ca0c020000000000d2
:100450000040da000000fe004440a9000000200037
:100460000000e0000300320000002000a00188002e
:100470004440a80000000600910188008000780038
:100480000000eb0015003700e280400032a0b4000d
:100490009101ba00e280400032a0b4009102ba009b
:1004a000e280400032a0b4000002eb00472bde00e7
:1004b000f507b200602ce10004003a000059eb009f
:1004c0008301e900fdff3e00040037006128e100e0
:1004d000010032000082eb00040007001101ba00a5
:1004e0000200e000e8ff3a00000006003159ba00bf
:1004f0008301e9000c0032002159ba008301e900b0
:10050000080032000400e00003003a00e2804000ee
:1005100032a0b400f5ff370011d9ba008301e90019
:10052000faff3a008100e800e180400032a0b40008
:10053000000006000040da000000fe00889fbe00b8
:1005400080047800a0488000e00f500004003a00ca
:100550000e0007000084eb00e00f5000080035009b
:10056000a8488000e08f54000500320009004400d4
:1005700006000700e00f500001003d000084eb0082
:10058000080078004f04be0000000600e00f500095
:1005900004003a0064912000a4488800000278001a
:1005a000060037000082eb0065932000850f5000a5
:1005b00002003e00a04888000002eb000400780022
:1005c0000000060044902000e48747002548800092
:1005d000889fbe008a9fbe008c9fbe008e1f780041
:1005e000e08f52000b003a0024029800e40242001f
:1005f000644888002548880075488800a442900017
:100600000504a00025429800e44290000504a000e3
:100610006542980067044000649120002500200096
:100620004244de00699320004244dd00848454008b
:1006300005074400110009008504d8009c932000a0
:10064000624880000406560080bf9f000e074700e6
:100650000003eb00e40544000806460002003700f2
:10066000160020000d017800224290006102620015
:10067000020032000a003700150978009202780063
:100680002542900061026200fbff32000802410037
:10069000848f520002003900e00f54003f003d00fb
:1006a000920678000d00a100828f5600edff3e00fb
:1006b000e10f5300eaff3a000fba9700840f54008d
:1006c00002003600890f540010003900614ab90059
:1006d000b0ff2f00010020006143b8000402500069
:1006e00085825800840f5300858f5b00020035001f
:1006f0000b05780006003700110009000986d800b4
:100700000982b90004057800010037000e05780061
:100710000a00780089ff0700e10f400005003a0059
:100720000b0578000b00780084ff0700e10f400004
:100730002b00320074488000000a78007448800062
:1007400064034200a4429000860f50000200320071
:100750000504a000010037000504a100254298000f
:1007600064055500449020000a0540000a087800fe
:100770007a488800040d7800754880000003eb007b
:10078000254290000404a000a4429800204290005a
:100790000404a10024409800b2ff37006448880098
:1007a000848f5200070036001403be008042eb0025
:1007b0008648880097488800120a780064488000bc
:1007c0002542980022429000674880000404a0005f
:1007d00007097800244198006400410001003700b7
:1007e0000000eb004f0778004f06be004f05be002b
:1007f0004f04be004f00b10000000600e00f5000a3
:10080000080032006400500064488000840f5000eb
:100810000100310060488800204290000404a100db
:100820002440980000000600889fbe000004780065
:100830008a9fbe0081047800e08f540005003a00d2
:10084000e00f54003200320008007800ebff070090
:1008500030003700e00f540004003a00090078002f
:1008600058ff0700800478002a0037006402540013
:100870009405780068fa9700610262000200320075
:1008800008007800ddff0700090078004dff070031
:1008900080047800e08f54001e003200888f5400de
:1008a0001b00320069bd9700888555000905550079
:1008b000c2ddde0042d5de000a0178008b0f550054
:1008c000010036000b0178004211dd00880078003d
:1008d0000900780013000700888f54000d003100d4
:1008e0004255dd000a854400880f55000900360096
:1008f00008045500844880009548800042c4de000a
:100900004244dd0008844400048cbe00010037002e
:1009100088047800090078004f05be004f04be002f
:10092000000006000002780002003700315a78000b
:100930000201e900e00f5100fcff3a000000060050
:100940000002780002003700015a78000201e90035
:0c095000e00f5100fcff3a000000060020
:020000040000fa
:10095c000e00fa00000f78002147980032479800eb
:10096c0043479800340798004507980056079800ad
:10097c00670798001e007800804088003e40900079
:10098c000de8b7003e029000044088005e00900025
:10099c00204088006e029000344088004e00900089
:1009ac00104088002e4290000482fb000402d1000b
:1009bc0004427800040078000fe8b700048220009d
:1009cc00944088004e40900014e8b7000002eb0001
:1009dc00b44088000080fa00000006000800fa000d
:1009ec0020079800614798000042eb00044f780004
:1009fc00200037002e029000944278001547980092
:100a0c002e0290000402e8002407980084c0b30072
:100a1c0024479800140037001e4290001e426a00c2
:100a2c0061426200344798009e4278000582fb00c8
:100a3c000402d100044f78003e429000e04f520077
:100a4c0002003200c4c8b3001e4f6a001e42900060
:100a5c000482fb000402d100144798002e4290003f
:100a6c000442e900244798002e429000e04f5200c7
:100a7c00e9ff3a006e4290000482fb000402ea0097
:100a8c004f22de0004427800ee4290008542e900dd
:100a9c0065479800e04f5200d6ff3a001e4278009e
:100aac00044078000080fa00000006000600fa00fe
:100abc0040479800644780000442780095408000cd
:100acc008440780005007800c4ff070000427800dd
:100adc00244798000440800060c0b300040001006b
:100aec000440800050c8b3000400010004408000a2
:100afc004e4090000400010005408000d48020008e
:100b0c001442780004407800050001000540800084
:100b1c00644780000442780004407800050001001e
:100b2c000002eb00040f780008003700054080003d
:100b3c00964080001e0278000402430014427800a4
:100b4c0004407800050001001e0fe8006447800097
:100b5c009e0f5200f5ff3c00044080002e40900098
:100b6c00040001008041eb002e419000ce4090002b
:100b7c00008f200045020700110020000082200099
:100b8c00ea0107000080fa00000006000c00fa00e1
:100b9c00889fbe00b480200014427800e04f5200c1
:100bac0050003a002440800004000100000278004c
:100bbc00e40f52004b0034000a003700b4408000b0
:100bcc000402e800b44088002440800004000100c6
:100bdc0000027800e40f520002003c000042eb00df
:100bec005e013700144080000400010000427800d0
:100bfc00e64f5200f1ff3a0014408000040001005f
:100c0c000042780055c8b300854f520035003a00b9
:100c1c001440800004000100004278000002fd0036
:100c2c001ee8b7000002fd00144080000400010023
:100c3c00004278000002fd000ee8b7000002fd0043
:100c4c001440800004000100004278000002fd0006
:100c5c000be8b7000002fd00e5812000954278000a
:100c6c00d48020001442780084cf5200150032004a
:100c7c00d44080000402e800d44088000002eb005d
:100c8c00040f7800030037001440800004000100ba
:100c9c001e0fe800b4802000144278000482fb0090
:100cac000402e8009e0f5200f7ff3d000042eb00eb
:100cbc000002fd000be8b7000002fd000042eb0053
:100ccc0026013700b4802000144278000482fb0017
:100cdc000402e8000400780037fe070000027800e8
:100cec0044408800b480200014427800e04f520049
:100cfc0019013200a480200014427800e04f520009
:100d0c0026003a000000000024408000040001008e
:100d1c0000027800e00f5200fbff340034408000ea
:100d2c000400010000427800e14f42001d003a002f
:100d3c00580207000042eb00040078000be8b700f3
:100d4c000042eb00040078000ae8b7004440800041
:100d5c0004007800a6fe07008cff07000042780014
:100d6c00fe00370045408000a88020001844780021
:100d7c000882fb00848442001440800004000100bf
:100d8c0000427800844c78000842e8000002fd0024
:100d9c000ae8b7000002fd00030037000000000065
:100dac000100370000000000244080000400010016
:100dbc0000027800e00f520006003200a5802000ef
:100dcc0095427800b48020001442780084cf520001
:100ddc00e4ff3600b4802000144278008482fb00cb
:100dec00a4802000144278000482fb000402e90075
:100dfc00848f5200d8003a00b4802000144278004e
:100e0c00454080008440780005007800f3fe070020
:100e1c00004278000002fd000ce8b7000002fd0063
:100e2c0045408000a4802000144278000482fb001e
:100e3c000402e9000482420094427800c48020003d
:100e4c001442780084cf520079003a000002eb0083
:100e5c001407980029003700454080001e029000be
:100e6c000482420094427800f480200014427800fe
:100e7c0084cf52001b003100454080001e029000c0
:100e8c000402e80004824200144278000002fd00d3
:100e9c00eee8b7000002fd00454080001e02900005
:100eac000482e80004824200144278000002fd0033
:100ebc00efe8b7000002fd0085408000464080004e
:100ecc001e02900004024300144278000482fb00ce
:100edc00040242000482420075478000050a780033
:100eec0003003700e44080000402e800e44088007e
:100efc001e0290006302420014079800b480200088
:100f0c00144278008482fb001e029000848f5200f1
:100f1c00d1ff3c004481200014427800e04f520085
:100f2c003800320000c2eb006447980014c0b300d4
:100f3c007447980045408000a4802000144278003b
:100f4c000482fb000402e90004824200144278008f
:100f5c00044f98006602470031c0b30004007800cb
:100f6c009efe070000427800444798000440800031
:100f7c0060c0b300040001000440800050c8b300fe
:100f8c000400010005408000e48020001442780039
:100f9c00044078000500010005408000d48020004a
:100fac0014427800044078000500010004408000e1
:100fbc0030c0b300040001000440800000c0eb000e
:100fcc00040001000440800010c0b30004000100c4
:100fdc000540800046408000a48020001442780028
:100fec000482fb000402e90004024300144278006e
:100ffc000440780005000100044080004e40900041
:10100c00040001000042eb00040078000be8b7007c
:10101c000042eb00040078000ae8b700444080006e
:10102c0004007800f2fd070014c0b3004b00370039
:10103c00c44080000402e800c440880044812000c1
:10104c0014427800e04f52003800320000c2eb002e
:10105c00144f980024c0b300244f980045408000e2
:10106c00a4802000144278000482fb000402e900f2
:10107c000482420014427800344f98006902470001
:10108c0031c0b3000400780054fe07000042780021
:10109c00544798000440800060c0b3000400010075
:1010ac000440800050c8b3000400010005408000db
:1010bc00e480200014427800044078000500010010
:1010cc0005408000d4802000144278000440780051
:1010dc00050001000440800030c0b3000400010092
:1010ec000440800000c0eb000400010004408000bc
:1010fc0020c0b30004000100054080004640800081
:10110c00a4802000144278000482fb000402e90051
:10111c0004024300144278000440780005000100ea
:10112c00044080005e409000040001000042eb008f
:10113c00040078000be8b7000042eb0004007800d4
:10114c000ae8b7004440800004007800a8fd0700be
:10115c000042eb00010037000042eb000440780035
:10116c004f04be000080fa00000006000400fa00e4
:10117c00004f7800110798001e0190009e407800e7
:10118c0000822000020007000080fa000000060028
:10119c000600fa00000f78002147980022079800fb
:1011ac002e029000744788001e027800e4a2900082
:1011bc00440c2000848f52003b003c001e0278003f
:1011cc0044a290009e0278002e43900086727a0012
:1011dc001e02780044a29000810c200004007800cc
:1011ec006800070000027800840278001e02780074
:1011fc0045a298001e02780064a290008402e800c8
:10120c001e02780065a298001e027800c4a290000d
:10121c00e48e2000144278001e03780004f37a0058
:10122c001e02780044a29000810c2000040078007b
:10123c005400070000027800840278001e02780037
:10124c0045a298001e02780064a290008402e80077
:10125c001e02780065a298001e027800c4a29000bd
:10126c00f48e2000144278001e03780004f37a00f8
:10127c001e02780044a29000810c2000040078002b
:10128c004000070000027800840278001e027800fb
:10129c0045a298001e02780064a290008402e80027
:1012ac001e02780065a298000080fa00000006007b
:1012bc000400fa00100798001e02900064a290002f
:1012cc00e00f5200130034001e02900054a2900054
:1012dc009e029000654f7a001e02900054a290006e
:1012ec00810c200004007800260007000002780022
:1012fc00840278001e02900055a298001e029000f5
:10130c0064a290008402e9001e02900065a298007d
:10131c00020037000042eb00044f78001e427800b8
:10132c00044078000080fa00000006000400fa0077
:10133c00000f7800110798001e0278008002eb0065
:10134c0065a298001e0278008002eb0045a298006e
:10135c001e0278008002eb0055a298001e0290003d
:10136c00e00f5200050032001e027800820c2000b3
:10137c008000eb00040078006efd07000080fa008e
:10138c00000006000600fa001007980021079800dc
:10139c001e029000040fe8002e0290009e027800be
:1013ac00848f5200020039000002eb00040f780019
:1013bc001e027800040078000080fa00000006008d
:1013cc000400fa00204798000002eb00040f78009c
:1013dc00130037001e027800044278000041eb0035
:1013ec0084407800008f20007b00070000427800ca
:1013fc00ae429000854f520008003a001e02780061
:10140c000442780022c0b30084407800008f200092
:10141c007100070000427800050037001e0fe8003d
:10142c001e027800e40f5200eaff340044c0b300ff
:10143c00044078000080fa00000006000000fa006a
:10144c00b4408000040078000080fa000000060020
:10145c000000fa00c4408000040078000080fa000c
:10146c00000006000000fa00d44080000400780060
:10147c000080fa00000006000000fa00e440800042
:10148c00040078000080fa00000006000600fa0054
:10149c00000f780021479800324798004347980086
:1014ac001e027800040a90009e0278002e439000e1
:1014bc0086727a001e027800040a90008402e8000a
:1014cc001e027800050a98001e027800040a90009b
:1014dc009e0278003e43900086727a001e027800cd
:1014ec00040a90008402e8001e027800050a9800a5
:1014fc001e027800040a90009e0278004e43900071
:10150c0086727a001e027800040a90008402e800b9
:10151c001e027800050a98001e027800040a90004a
:10152c00ee0f5200030034001e0278008002eb0024
:10153c00050a98000080fa00000006000600fa0078
:10154c001007980041479800524798004e4290006f
:10155c00e44f52000200360044c0b30044479800e8
:10156c004e4290000442e800444798004e429000de
:10157c000482fb006322b90004027800040f780097
:10158c001e029000040a90009e0f520009003d00bc
:10159c001e029000040a90001e0252006f0f4200bf
:1015ac001e82e8009e0290005e43900086727a00d4
:1015bc00070037001e029000040a90001e02520021
:1015cc000482e8009e0290005e43900086727a00ce
:1015dc000080fa00000006000600fa0010079800d0
:1015ec0041479800524798004e429000e44f5200f9
:1015fc000200360044c0b300444798005e4290009d
:10160c00e24f52000200360024c0b3005447980049
:10161c004e4290000442e800444798004e4290002d
:10162c000482fb006322b90004027800040f7800e6
:10163c001e029000040a90009e0f52000a003d000a
:10164c001e029000040a90001e0252006f0f42000e
:10165c005e4290000482fb001e0242009e0290003b
:10166c0065427a00080037001e029000040a9000c0
:10167c009e0252005e4290000482fb0004824200f3
:10168c009e02900065427a00044078000080fa00c7
:10169c00000006000800fa00881f78000000000017
:1016ac00244080000400010000027800e30f520087
:1016bc00fbff34001440800004000100004278005d
:1016cc004447980014408000040001000042780058
:1016dc005447980014408000040001000042780038
:1016ec006447980014408000040001000042780018
:1016fc00244798006402470031c0b300040078000e
:10170c00b6fc07000042780034479800ae429000c7
:10171c003e42900084cf520032003a000002eb00af
:10172c00040f78002b0037001e027800044278006a
:10173c000041eb0084407800008f2000a6ff0700da
:10174c0000427800e580200095427800854f5200d9
:10175c001f003a006e4490001e027800044278008c
:10176c0012c0b30084407800008f20009aff07005d
:10177c0000427800844f540015003a005e429000fd
:10178c00e14f520007003a001e0278000442780034
:10179c0012c0b30084407800008f200067ff070060
:1017ac00130037005e429000e24f520008003a00ee
:1017bc001e0278000442780022c0b30084407800f6
:1017cc00008f20005dff07000000000008003700bc
:1017dc001e0fe8001e027800e40f5200d2ff340006
:1017ec0003003700c44080000402e800c4408800b5
:1017fc004f0478000080fa00000006000200fa0096
:10180c00000f78000080fa00000006000600fa00c5
:10181c0020079800ae02900044062000848f5200ee
:10182c000200340044062000240798002e02900089
:10183c00e00f520002003c000002eb00240798006d
:10184c00ae02900044062000110009008402d8006a
:10185c00000278004522dd00040f7800cbe2a900dd
:10186c00144880009e027800848f520004003400db
:10187c00c2e2a800144880001e021200140798004f
:10188c00144880009e027800848f520004003d00b2
:10189c00c2e2a900144880001e02520014079800ee
:1018ac001000200027000700fdff37000000fa00a1
:1018bc00253a800004fe2f0004826200243a88003e
:1018cc0094022000343a8800243a80000460a1007d
:1018dc000470a100243a880000000000153a800032
:1018ec000402200004826200e00f5200fbff320071
:1018fc00153a8000f40b200004836200640420007d
:10190c007505200027742000844b7800854b7800e7
:10191c00864b7800153a80000404200004037800fc
:10192c000503730064042000750520002774200053
:10193c00844b7800854b7800864b78000080fa0049
:10194c00000006000200fa00000f78000080fa0088
:04195c000000060081
:020000040000fa
:101960000209000002000000000000000008000062
:101970000201000000000000040900001000000047
:101980000000000014090000020000000000000038
:041990000000000053
:020000040000fa
:101994000400fa00000f780011079800c5ff070043
:1019a4000002eb00040078000080fa00000006004a
:00000001FF
