:0400000055EF00F0C8
:10000800FACF0DF0FBCF0EF0E9CF0FF0EACF10F0EA
:10001800E1CF11F0E2CF12F0D9CF13F0DACF14F01C
:10002800F3CF15F0F4CF16F0F6CF17F0F7CF18F09E
:10003800F8CF19F0F5CF1AF09DBA9EAA03D095EC27
:100048001DF012D09DBC9EAC03D02BEC06F00CD05A
:100058009DB09EA003D0DDEC1BF006D09DB89EA8F5
:1000680003D099EC1CF000D01AC0F5FF19C0F8FFB6
:1000780018C0F7FF17C0F6FF16C0F4FF15C0F3FF4E
:1000880014C0DAFF13C0D9FF12C0E2FF11C0E1FFAC
:1000980010C0EAFF0FC0E9FF0EC0FBFF0DC0FAFF5A
:0600A8001100BFEF19F08A
:100600000000000000803FF0FFBEE2A93E8376BEFE
:10061000AE2B3E3CC3BDD2133D78D3BB000042504D
:10062000D8A4AAD001D80AD00500FA6E3150FD6EC8
:100630003250FE6EF850FF6EFA5012001EBE9CD073
:100640001E5020E1050E1D5CD8B01CD095D01AD0EC
:1006500000018E4B8F2B01D80AD00500FA6E315065
:10066000FD6E3250FE6EF850FF6EFA5012001EBE44
:1006700006D01E5007E1050E1D5CD8B003D0000E59
:10068000120000D001D80AD00500FA6E3350FD6E7A
:100690003450FE6EF850FF6EFA501200060AD8A4CD
:1006A000D7D701D80AD00500FA6E3350FD6E34500A
:1006B000FE6EF850FF6EFA501200850AD8A45CD086
:1006C00001D80AD00500FA6E3350FD6E3450FE6E2C
:1006D000F850FF6EFA501200406E01D80AD00500A3
:1006E000FA6E3350FD6E3450FE6EF850FF6EFA50C5
:1006F00012003F6E01D80AD00500FA6E3350FD6E2D
:100700003450FE6EF850FF6EFA501200426E3E50AA
:100710004018D8B431D000018C4B8D2B000E000155
:10072000D16F000ED06F10D001D80AD00500FA6E3C
:100730003350FD6E3450FE6EF850FF6EFA501200CA
:100740000001D04BD12B00D04250276E286A010EF9
:100750002726000E28220001D051275C2850800A4D
:10076000296E0001D151800A2958D8B0DDD7000E7A
:10077000426E000E120000D04250D8B469D24150EF
:10078000D8B402D048D000D001D80AD00500FA6E03
:100790003150FD6E3250FE6EF850FF6EFA5012006E
:1007A0001EBEF2D71E5005E11D04D8B002D0ECD712
:1007B00000D001D80BD005000001FA6E9A51FD6EF1
:1007C0009B51FE6EF850FF6EFA501200FF0AD8A43B
:1007D00022D093EC0EF0000E426E000E416E000E21
:1007E000120019D001D80AD00500FA6E3350FD6E00
:1007F0003450FE6EF850FF6EFA501200276E4150D2
:10080000010D000EF324D96E030EF420DA6E27C01A
:10081000DFFF412A00D001D80AD00500FA6E31501E
:10082000FD6E3250FE6EF850FF6EFA5012001D50F1
:100830001E10D8B406D04150425CD8A002D0D2D706
:1008400000D04250276E286AFF0E296EFF0E2A6ED6
:1008500041502B6E2C6A29502B262A502C222750CF
:100860002B1803E128502C18D8A4F2D1000E1B6ECF
:10087000030E1C6E42C01DF014EC1BF03C6EFF0E0C
:10088000276EFF0E286E4150296E2A6A27502926AE
:1008900028502A22000E2924D96E030E2A20DA6E4F
:1008A0003C50DE18D8A41DD1000E0001D36F000EFD
:1008B000D26F54D0000E0001D225D96E030E000174
:1008C000D321DA6E3D50DE5CD8B039D0010E000184
:1008D000D225276E000E0001D321286E000E27249A
:1008E000D96E030E2820DA6EDF50436E020E00012F
:1008F000D225276E000E0001D321286E000E27247A
:10090000D96E030E2820DA6EDF50446E000E00010F
:10091000D225D96E030E0001D321DA6EDF50276E87
:100920002750020DF35000019625D96EF4500001B6
:100930009721DA6E43C0DEFF44C0DDFF04D0000122
:10094000924B932B00D0030E0001D2250001D26FF1
:10095000000E0001D3210001D36F00D04250276E5A
:10096000286A27500001D25D0001D351800A296E08
:100970002850800A2958D8A09DD73950D8B4AAD079
:100980000001C869010E0001C96FFF0E276EFF0E3E
:10099000286E4150296E2A6A2750292628502A227B
:1009A000000E2924D96E030E2A20DA6EDF500001D2
:1009B000CA6FC80E1B6E000E1C6E030E1D6E14EC6B
:1009C0001BF00001CE6F01D80BD00500FA6E355038
:1009D000FD6E3650FE6EF850FF6EFA50060E120095
:1009E00001D80BD00500FA6E3550FD6E3650FE6E04
:1009F000F850FF6EFA50850E120001D80BD005009A
:100A0000FA6E3550FD6E3650FE6EF850FF6EFA509D
:100A10003F50120001D80BD00500FA6E3550FD6E24
:100A20003650FE6EF850FF6EFA503E50120001D85C
:100A30000BD00500FA6E3550FD6E3650FE6EF85044
:100A4000FF6EFA50030E120001D80BD00500FA6EAB
:100A50003550FD6E3650FE6EF850FF6EFA50FF0EA8
:100A6000120001D80BD00500FA6E3550FD6E3650DD
:100A7000FE6EF850FF6EFA50010E120001D81CD025
:100A80000500FA6E3550FD6E3650FE6EF850FF6E62
:100A9000FA50FF0E276EFF0E286E4150296E2A6A0B
:100AA0002750292628502A22000E2924D96E030E09
:100AB0002A20DA6EDF50120001D80CD00500FA6E41
:100AC0003550FD6E3650FE6EF850FF6EFA50000144
:100AD000CE511200000E426E000E416E010E120049
:100AE000B7D00001904B912B3950D8B4AAD0000157
:100AF000CB69020E0001CC6FFF0E276EFF0E286E31
:100B00004150296E2A6A2750292628502A22000E91
:100B10002924D96E030E2A20DA6EDF500001CD6F32
:100B2000CB0E1B6E000E1C6E030E1D6E14EC1BF024
:100B30000001CF6F01D80BD00500FA6E3550FD6E65
:100B40003650FE6EF850FF6EFA50060E120001D8B5
:100B50000BD00500FA6E3550FD6E3650FE6EF85023
:100B6000FF6EFA50850E120001D80BD00500FA6E08
:100B70003550FD6E3650FE6EF850FF6EFA503F5005
:100B8000120001D80BD00500FA6E3550FD6E3650BC
:100B9000FE6EF850FF6EFA503E50120001D80BD096
:100BA0000500FA6E3550FD6E3650FE6EF850FF6E41
:100BB000FA50030E120001D80BD00500FA6E355022
:100BC000FD6E3650FE6EF850FF6EFA50FF0E1200AA
:100BD00001D80BD00500FA6E3550FD6E3650FE6E12
:100BE000F850FF6EFA50020E120001D81CD005001A
:100BF000FA6E3550FD6E3650FE6EF850FF6EFA50AC
:100C0000FF0E276EFF0E286E4150296E2A6A27506C
:100C1000292628502A22000E2924D96E030E2A20C4
:100C2000DA6EDF50120001D80CD00500FA6E355094
:100C3000FD6E3650FE6EF850FF6EFA500001CF5137
:100C40001200000E426E000E416E000E120000D027
:100C5000000E120012009E9C000E0C6E000E0B6E19
:100C60003A50D8B416D1F9EC1DF001C00BF002C017
:100C70000CF0E4D0D8902D34D96E2E34DA6E9C0E60
:100C8000D926000EDA220BC0DEFF0CC0DDFF000EFD
:100C9000026E010E016E7DEC1CF00E0EA4EC1DF038
:100CA000F5D0D8902D34D96E2E34DA6E9C0ED9261C
:100CB000000EDA220BC0DEFF0CC0DDFF000E026E5C
:100CC000020E016E7DEC1CF00E0EA4EC1DF0DED0C9
:100CD000D8902D34D96E2E34DA6E9C0ED926000EA3
:100CE000DA220BC0DEFF0CC0DDFF000E026E030E29
:100CF000016E7DEC1CF00E0EA4EC1DF0C7D0D89058
:100D00002D34D96E2E34DA6E9C0ED926000EDA22DE
:100D10000BC0DEFF0CC0DDFF000E026E040E016E84
:100D20007DEC1CF00E0EA4EC1DF0B0D0D8902D344C
:100D3000D96E2E34DA6E9C0ED926000EDA220BC044
:100D4000DEFF0CC0DDFF000E026E050E016E7DECB5
:100D50001CF00E0EA4EC1DF099D0D8902D34D96E55
:100D60002E34DA6E9C0ED926000EDA220BC0DEFF7E
:100D70000CC0DDFF000E026E060E016E7DEC1CF055
:100D80000E0EA4EC1DF082D0D8902D34D96E2E34E6
:100D9000DA6E9C0ED926000EDA220BC0DEFF0CC0E4
:100DA000DDFF000E026E070E016E7DEC1CF00E0ED4
:100DB000A4EC1DF06BD0D8902D34D96E2E34DA6EA1
:100DC0009C0ED926000EDA220BC0DEFF0CC0DDFF20
:100DD000000E026E000E016E7DEC1CF00E0EA4ECF7
:100DE0001DF054D0D8902D34D96E2E34DA6E9C0E6E
:100DF000D926000EDA220BC0DEFF0CC0DDFF000E8C
:100E0000026E010E016E7DEC1CF0140EA4EC1DF0C0
:100E10003DD0D8902D34D96E2E34DA6E9C0ED92662
:100E2000000EDA220BC0DEFF0CC0DDFF000E3A6EB2
:100E3000000E0001896F010E886F28D02DC005F0CB
:100E40002EC006F00650000AD8A420D00550000A93
:100E5000D8B410D7010AD8B424D7030AD8B438D7E5
:100E6000010AD8B44CD7070AD8B460D7010AD8B45D
:100E700074D7030AD8B488D7010AD8B49CD70F0A0C
:100E8000D8B4B0D7010AD8B4C4D700D02D4A2E2A7E
:100E900000D03B50D8B41200F9EC1DF001C00BF0AB
:100EA00002C00CF076D10BC005F00CC006F0000EAD
:100EB00006BEFF0E076E086E600E096E000E0A6E0B
:100EC000D8902D34D96E2E34DA6ED890D936DA36E1
:100ED0000950D9260A50DA2205C0DEFF06C0DEFF1F
:100EE00007C0DEFF08C0DEFF030EA4EC1DF079D1C1
:100EF0000BC005F00CC006F0000E06BEFF0E076E1C
:100F0000086E600E096E000E0A6ED8902D34D96EF0
:100F10002E34DA6ED890D936DA360950D9260A50EE
:100F2000DA2205C0DEFF06C0DEFF07C0DEFF08C014
:100F3000DEFF040EA4EC1DF054D10BC005F00CC074
:100F400006F0000E06BEFF0E076E086E600E096EFC
:100F5000000E0A6ED8902D34D96E2E34DA6ED890E9
:100F6000D936DA360950D9260A50DA2205C0DEFF12
:100F700006C0DEFF07C0DEFF08C0DEFF050EA4ECE2
:100F80001DF02FD10BC005F00CC006F0000E06BE00
:100F9000FF0E076E086E600E096E000E0A6ED89086
:100FA0002D34D96E2E34DA6ED890D936DA3609500F
:100FB000D9260A50DA2205C0DEFF06C0DEFF07C0D0
:100FC000DEFF08C0DEFF180EA4EC1DF00AD10BC036
:100FD00005F00CC006F0000E06BEFF0E076E086E90
:100FE000600E096E000E0A6ED8902D34D96E2E3424
:100FF000DA6ED890D936DA360950D9260A50DA2274
:1010000005C0DEFF06C0DEFF07C0DEFF08C0DEFF52
:101010001A0EA4EC1DF0E5D00BC005F00CC006F0D4
:10102000000E06BEFF0E076E086E600E096E000E03
:101030000A6ED8902D34D96E2E34DA6ED890D93607
:10104000DA360950D9260A50DA2205C0DEFF06C07A
:10105000DEFF07C0DEFF08C0DEFF1B0EA4EC1DF0A4
:10106000C0D00BC005F00CC006F0000E06BEFF0E8F
:10107000076E086E600E096E000E0A6ED8902D3451
:10108000D96E2E34DA6ED890D936DA360950D92690
:101090000A50DA2205C0DEFF06C0DEFF07C0DEFF11
:1010A00008C0DEFF080EA4EC1DF09BD00BC005F0BD
:1010B0000CC006F0000E06BEFF0E076E086E600E36
:1010C000096E000E0A6ED8902D34D96E2E34DA6E69
:1010D000D890D936DA360950D9260A50DA2205C016
:1010E000DEFF06C0DEFF07C0DEFF08C0DEFF0B0E1E
:1010F000A4EC1DF076D00BC005F00CC006F0000E7D
:1011000006BEFF0E076E086E600E096E000E0A6EB8
:10111000D8902D34D96E2E34DA6ED890D936DA368E
:101120000950D9260A50DA2205C0DEFF06C0DEFFCC
:1011300007C0DEFF08C0DEFF0D0EA4EC1DF051D08D
:101140000BC005F00CC006F0000E06BEFF0E076EC9
:10115000086E600E096E000E0A6ED8902D34D96E9E
:101160002E34DA6ED890D936DA360950D9260A509C
:10117000DA2205C0DEFF06C0DEFF07C0DEFF08C0C2
:10118000DEFF000E3B6E000E00018B6F010E8A6FBA
:1011900028D02DC005F02EC006F00650000AD8A4B5
:1011A00020D00550000AD8B47ED6010AD8B4A0D603
:1011B000030AD8B4C2D6010AD8B4E4D6070AD8B410
:1011C00006D7010AD8B428D7030AD8B44AD7010AE7
:1011D000D8B46CD70F0AD8B48ED7010AD8B4B0D718
:1011E00000D02D4A2E2A120012000FEC03F0000945
:1011F000D8B41200050E1B6E000E1C6E000E1D6E84
:10120000000E1E6EB7EC1BF08D82050E1B6E000EDD
:101210001C6E000E1D6E000E1E6EB7EC1BF0000E55
:101220000001F26F020EF16F000E77EC1DF0000E60
:101230000001E06F000EDF6F66EC1BF0DFC0E2F034
:10124000E0C0E3F0E1C0E4F0B5EC10F0E2C0F1F092
:10125000E3C0F2F0010E77EC1DF0000E0001E06F2C
:10126000010EDF6F66EC1BF0DFC0E2F0E0C0E3F0E0
:10127000E1C0E4F0B5EC10F0E2C0F1F0E3C0F2F050
:10128000020E77EC1DF0000E0001E06F020EDF6F22
:1012900066EC1BF0DFC0E2F0E0C0E3F0E1C0E4F098
:1012A000B5EC10F0E2C0F1F0E3C0F2F0030E77EC21
:1012B0001DF0000E0001E06F030EDF6F66EC1BF007
:1012C000DFC0E2F0E0C0E3F0E1C0E4F0B5EC10F024
:1012D000E2C0F1F0E3C0F2F0040E77EC1DF0000E76
:1012E0000001E06F040EDF6F66EC1BF0DFC0E2F080
:1012F000E0C0E3F0E1C0E4F0B5EC10F0E2C0F1F0E2
:10130000E3C0F2F0050E77EC1DF0000E0001E06F77
:10131000050EDF6F66EC1BF0DFC0E2F0E0C0E3F02B
:10132000E1C0E4F0B5EC10F0E2C0F1F0E3C0F2F09F
:10133000060E77EC1DF0000E0001E06F060EDF6F69
:1013400066EC1BF0DFC0E2F0E0C0E3F0E1C0E4F0E7
:10135000B5EC10F0E2C0F1F0E3C0F2F0070E77EC6C
:101360001DF0000E0001E06F070EDF6F66EC1BF052
:10137000DFC0E2F0E0C0E3F0E1C0E4F0B5EC10F073
:10138000E2C0F1F0E3C0F2F0080E77EC1DF0000EC1
:101390000001E06F080EDF6F66EC1BF0DFC0E2F0CB
:1013A000E0C0E3F0E1C0E4F0B5EC10F0E2C0F1F031
:1013B000E3C0F2F0090E77EC1DF0000E0001E06FC3
:1013C000090EDF6F66EC1BF0DFC0E2F0E0C0E3F077
:1013D000E1C0E4F0B5EC10F0E2C0F1F0E3C0F2F0EF
:1013E0000A0E77EC1DF0000E226E000E216ECBEC83
:1013F0001CF021C0E2F022C0E3F023C0E4F0B5EC21
:1014000010F0E2C0F1F0E3C0F2F00B0E77EC1DF04B
:10141000000E226E010E216ECBEC1CF021C0E2F01A
:1014200022C0E3F023C0E4F0B5EC10F0E2C0F1F02C
:10143000E3C0F2F00C0E77EC1DF0000E226E020EEF
:10144000216ECBEC1CF021C0E2F022C0E3F023C0FF
:10145000E4F0B5EC10F0E2C0F1F0E3C0F2F00D0EF4
:1014600077EC1DF0000E226E030E216ECBEC1CF00B
:1014700021C0E2F022C0E3F023C0E4F0B5EC10F0AC
:10148000E2C0F1F0E3C0F2F00E0E77EC1DF0000EBA
:10149000226E040E216ECBEC1CF021C0E2F022C0C3
:1014A000E3F023C0E4F0B5EC10F0E2C0F1F0E3C0EB
:1014B000F2F00F0E77EC1DF0000E226E050E216E7D
:1014C000CBEC1CF021C0E2F022C0E3F023C0E4F03A
:1014D000B5EC10F0E2C0F1F0E3C0F2F0100E77ECE2
:1014E0001DF0000E226E060E216ECBEC1CF021C00A
:1014F000E2F022C0E3F023C0E4F0B5EC10F0E2C06B
:10150000F1F0E3C0F2F0110E77EC1DF0000E226E48
:10151000070E216ECBEC1CF021C0E2F022C0E3F0FC
:1015200023C0E4F0B5EC10F0E2C0F1F0E3C0F2F05B
:10153000120E77EC1DF0000E226E080E216ECBEC21
:101540001CF021C0E2F022C0E3F023C0E4F0B5ECCF
:1015500010F0E2C0F1F0E3C0F2F0130E77EC1DF0F2
:10156000000E226E090E216ECBEC1CF021C0E2F0C1
:1015700022C0E3F023C0E4F0B5EC10F0E2C0F1F0DB
:10158000E3C0F2F0140E77EC1DF0100EAEEC12F08A
:101590000A0E1B6E000E1C6E000E1D6E000E1E6EDF
:1015A000B7EC1BF08D92897812001200E1C0E5F0D3
:1015B0000001E66BE76B0001E0350001E53701E370
:1015C000E6810001E5510001EA6FE4C0E5F00001A9
:1015D000E66BE76B0001E3350001E53701E3E681E7
:1015E0000001E5510001E96F0001EA510001D8B4A2
:1015F00011D00001E9510001EA5DD8B012D000011C
:10160000EA5100080001E9250001E56F180E00010C
:10161000E56507D0E2C0DFF0E3C0E0F0E4C0E1F050
:1016200012000001E9510001D8B411D00001EA51C3
:101630000001E95DD8B012D00001E95100080001B5
:10164000EA250001E56F180E0001E56507D0DFC04F
:10165000DFF0E0C0E0F0E1C0E1F01200060E0001B2
:10166000E86F0001E1AF03D00001E88F00D0000176
:10167000E4AF02D00001E88D0001E08FFF0E000111
:10168000DF17FF0E0001E017000E0001E117000157
:10169000E38FFF0E0001E217FF0E0001E317000EBB
:1016A0000001E4170001E9510001EA5DD8B028D03B
:1016B0000001D890E237E337E4370001E907000181
:1016C000EA510001E919D8B413D00001E807E8C0D5
:1016D000E5F0070E0001E517D8B40AD0E9D708D025
:1016E0000001D890E133E033DF330001EA2B00D072
:1016F0000001E9510001EA19D8B430D0F1D72ED059
:101700000001EA510001E95DD8B028D00001D8906D
:10171000DF37E037E1370001EA070001EA51000155
:10172000E919D8B413D00001E807E8C0E5F0070EC6
:101730000001E517D8B40AD0E9D708D00001D89045
:10174000E433E333E2330001E92B00D00001E95137
:101750000001EA19D8B402D0F1D700D00001E8AFF7
:1017600012D0FF0E0001DF1BFF0E0001E01BFF0E79
:101770000001E11B010E0001DF27000E0001E02344
:10178000000E0001E1230001E8AD13D0FF0E0001BF
:10179000E21BFF0E0001E31BFF0E0001E41B010E24
:1017A0000001E227000E0001E323000E0001E42304
:1017B00000D0000E0001E86F0001DF510001E227B8
:1017C0000001E0510001E3230001E1510001E423A5
:1017D0000001E4AF16D0FF0E0001E21BFF0E000176
:1017E000E31BFF0E0001E41B010E0001E227000EC7
:1017F0000001E323000E0001E423010E0001E86F65
:1018000000D0E2C01BF0E3C01CF0E4C01DF0EAC051
:101810001EF0E8C01FF091EC17F01BC0DFF01CC0F9
:10182000E0F01DC0E1F012001200000E0101E16FB6
:10183000000EE06F0101E1BF0AD00101E15106E1B4
:101840000A0E0101E05DD8B0F5D001D0F3D0D890F8
:101850000101E035D96E0101E135DA6E9C0ED92621
:10186000000EDA22DECF1DF0DDCF1EF0030E1C6E5F
:101870001B684CEC18F0FF0E1B240101DC6FFF0EFF
:101880001C200101DD6FDCC11DF0DDC11EF0270E43
:101890001C6E100E1B6E4CEC18F01BC0DEF11CC051
:1018A000DFF1270E1E6E100E1D6EDEC11BF0DFC1B4
:1018B0001CF04CEC18F01BC023F01CC024F041ECD1
:1018C0001CF023C0E2F124C0E3F125C0E4F1E2C141
:1018D000F7F0E3C1F8F0E4C1F9F007EC12F0F7C05B
:1018E000E2F1F8C0E3F1F9C0E4F1E2C1C1F0E3C113
:1018F000C2F0E4C1C3F0E00E0001C46F760E000137
:10190000C56F450E0001C66F5EEC11F0C1C0E2F17B
:10191000C2C0E3F1C3C0E4F1E2C1DFF0E3C1E0F033
:10192000E4C1E1F0CF0E0001E26F5B0E0001E36F56
:101930003B0E0001E46FD6EC0AF0DFC0E2F1E0C03C
:10194000E3F1E1C0E4F1000E0001C16F800E00017F
:10195000C26F3F0E0001C36FE2C1C4F0E3C1C5F026
:10196000E4C1C6F05EEC11F0C1C0E2F1C2C0E3F127
:10197000C3C0E4F1E2C1EBF0E3C1ECF0E4C1EDF08F
:10198000930E0001EE6F880E0001EF6F430E000111
:10199000F06F8FEC1BF0EBC0E2F1ECC0E3F1EDC0B7
:1019A000E4F1660E0001D36FE60E0001D46F3F0E26
:1019B0000001D56FE2C1D0F0E3C1D1F0E4C1D2F0B3
:1019C0004AEC0FF0D0C0DFF0D1C0E0F0D2C0E1F0BF
:1019D000000E0001E26F000E0001E36F420E0001F5
:1019E000E46FD6EC0AF0DFC0E2F1E0C0E3F1E1C061
:1019F000E4F1E0C11BF0E1C11CF0000E1E6E030E0D
:101A00001D6E3FEC1DF0820E1B24D96E010E1C20B2
:101A1000DA6EE2C1DEFFE3C1DEFFE4C1DEFF0101F9
:101A2000E04BE12B0101E1BF12D70101E15102E1DD
:101A300007D700D01DEC0DF01200000E0001EC6F76
:101A4000000EEB6F0001ECBF0AD00001EC5172E117
:101A50000A0E0001EB5DD8B06DD001D06BD0EBC0A9
:101A60001BF0ECC01CF0000E1E6E030E1D6E3FEC52
:101A70001DF0BE0E1B24D96E010E1C20DA6E480E1E
:101A80000001D36F610E0001D46F3F0E0001D56FCE
:101A9000EBC01BF0ECC01CF0000E1E6E030E1D6EA2
:101AA0003FEC1DF0820E1B24E16E010E1C20E26E45
:101AB000E6CFD0F0E6CFD1F0E5CFD2F04AEC0FF090
:101AC000D0C0DFF0D1C0E0F0D2C0E1F0C30E000121
:101AD000D36FF50E0001D46F3D0E0001D56F000EDF
:101AE0001E6E030E1D6EEBC01BF0ECC01CF03FEC35
:101AF0001DF01E0E1B24E16E010E1C20E26EE6CFCF
:101B0000D0F0E6CFD1F0E5CFD2F04AEC0FF0D0C064
:101B1000E2F0D1C0E3F0D2C0E4F0D6EC0AF0DFC0CE
:101B2000DEFFE0C0DEFFE1C0DEFF0001EB4BEC2B8F
:101B300089D700D0000E0001EC6F000EEB6F0001A2
:101B4000ECBF0AD00001EC5132E10A0E0001EB5D5E
:101B5000D8B0120001D01200EBC01BF0ECC01CF09A
:101B6000000E1E6E030E1D6E3FEC1DF0BE0E1B24FC
:101B7000D96E010E1C20DA6EEBC01BF0ECC01CF01D
:101B8000000E1E6E030E1D6E3FEC1DF01E0E1B247C
:101B9000E16E010E1C20E26EDECFE6FFDECFE6FF37
:101BA000DECFE6FF0001EB4BEC2BC9D71200120091
:101BB000000E0001EC6F000EEB6F0001ECBF0AD0CD
:101BC0000001EC5172E1090E0001EB5DD8B06DD05F
:101BD00001D06BD0EBC01BF0ECC01CF0000E1E6EF1
:101BE000030E1D6E3FEC1DF0A00E1B24D96E010EDE
:101BF0001C20DA6E480E0001D36F610E0001D46F15
:101C00003F0E0001D56FEBC01BF0ECC01CF0000EC6
:101C10001E6E030E1D6E3FEC1DF0640E1B24E16E64
:101C2000010E1C20E26EE6CFD0F0E6CFD1F0E5CF7A
:101C3000D2F04AEC0FF0D0C0DFF0D1C0E0F0D2C05B
:101C4000E1F0C30E0001D36FF50E0001D46F3D0E1D
:101C50000001D56F000E1E6E030E1D6EEBC01BF053
:101C6000ECC01CF03FEC1DF0000E1B24E16E010ED9
:101C70001C20E26EE6CFD0F0E6CFD1F0E5CFD2F077
:101C80004AEC0FF0D0C0E2F0D1C0E3F0D2C0E4F0F3
:101C9000D6EC0AF0DFC0DEFFE0C0DEFFE1C0DEFF11
:101CA0000001EB4BEC2B89D700D0000E0001EC6F4C
:101CB000000EEB6F0001ECBF0AD00001EC5132E1E5
:101CC000090E0001EB5DD8B0120001D01200EBC08C
:101CD0001BF0ECC01CF0000E1E6E030E1D6E3FECE0
:101CE0001DF0A00E1B24D96E010E1C20DA6EEBC075
:101CF0001BF0ECC01CF0000E1E6E030E1D6E3FECC0
:101D00001DF0000E1B24E16E010E1C20E26EDECFE2
:101D1000E6FFDECFE6FFDECFE6FF0001EB4BEC2B6C
:101D2000C9D71200120000D001D80AD00500FA6EFF
:101D30003150FD6E3250FE6EF850FF6EFA501200B8
:101D40001EBEF2D71E5006E1040E1D5CD8B002D0B4
:101D5000EBD700D001D80AD00500FA6E3350FD6EE3
:101D60003450FE6EF850FF6EFA5012000001C36F3F
:101D700001D80AD00500FA6E3350FD6E3450FE6E65
:101D8000F850FF6EFA5012000001C46F01D80AD05B
:101D90000500FA6E3350FD6E3450FE6EF850FF6E43
:101DA000FA5012000001C56F01D80AD00500FA6E82
:101DB0003350FD6E3450FE6EF850FF6EFA50120034
:101DC0000001C16FC30E1B6E000E1C6E030E1D6E54
:101DD00014EC1BF00001C26F0001C2510001C119D7
:101DE000D8A453D0000E0001C76F000EC66F0001CB
:101DF000C7BF0AD00001C7514CE1050E0001C65D06
:101E0000D8B0120001D01200B00E1B6E000E1C6E76
:101E1000C6C01DF0000E1E6E60EC15F03F18D8A471
:101E20002FD0B00E1B6E000E1C6EC6C01DF0010E32
:101E30001E6E60EC15F00001C519D8A421D0000178
:101E4000C405D8A40CD0B00E1B6E000E1C6EC6C00C
:101E50001DF0010E1E6E24EC17F0120011D0020EC0
:101E60000001C419D8A40CD0B00E1B6E000E1C6E5D
:101E7000C6C01DF0020E1E6E24EC17F0120000D03A
:101E80000001C64BC72BB3D712000001904B912B1A
:101E900012001200D2C0D6F00001D76BD86B00013F
:101EA000D1350001D63701E3D7810001D6510001B9
:101EB000D96F0001D951D8A40AD0000E0001D06F0B
:101EC000000E0001D16F000E0001D26F1200D5C0CC
:101ED000D6F00001D76BD86B0001D4350001D6379E
:101EE00001E3D7810001D6510001DE6F0001DE5110
:101EF000D8A40AD0000E0001D06F000E0001D16FEF
:101F0000000E0001D26F12000001DE517B0F0001B4
:101F1000D927D2C0DEF00001D5510001DE1B800EB2
:101F20000001DE170001D18F0001D48FFF0E0001E8
:101F3000D317FF0E0001D417000E0001D517000EB5
:101F40000001DA6F000E0001DB6F000E0001DC6F94
:101F5000070E0001DD6F00D00001D0A10DD00001FF
:101F6000D3510001DA270001D4510001DB23000125
:101F7000D5510001DC2300D00001D890D233D133F9
:101F8000D0330001D890D337D437D5370001DD2FB7
:101F9000E3D700D0090E0001DD6F00D00001D0A111
:101FA0000DD00001D3510001DA270001D451000106
:101FB000DB230001D5510001DC2300D00001D890C3
:101FC000D233D133D0330001D890DC33DB33DA3372
:101FD0000001DD2FE3D700D0DAC01BF0DBC01CF01E
:101FE000DCC01DF0D9C01EF0DEC01FF091EC17F070
:101FF0001BC0D0F01CC0D1F01DC0D2F012001200E6
:1020000024C043F025C044F020EECCF02150D92666
:102010002250DA22010EDBBE07D0010EDB5003E1B5
:10202000C50EDE5CD8B0120020EEC8F02150D926D3
:102030002250DA22DECF26F0DDCF27F026502124F1
:10204000D96E27502220DA6E23C0DFFF20EEC8F0C1
:102050002150D9262250DA22DECF1BF0DDCF1CF032
:10206000000E1E6EC80E1D6EFAEC1CF020EEC8F0BD
:102070002150D9262250DA221BC0DEFF1CC0DDFF12
:1020800020EECCF02150D9262250DA22DE2A000E92
:10209000DD2220EEC8F02150D9262250DA22DECFF0
:1020A00026F0DDCF27F026502124D96E275022209C
:1020B000DA6E43C0DFFF20EEC8F02150D92622504F
:1020C000DA22DECF1BF0DDCF1CF0000E1E6EC80E34
:1020D0001D6EFAEC1CF020EEC8F02150D9262250DB
:1020E000DA221BC0DEFF1CC0DDFF20EECCF0215049
:1020F000D9262250DA22DE2A000EDD2220EEC8F098
:102100002150D9262250DA22DECF26F0DDCF27F06B
:1021100026502124D96E27502220DA6E44C0DFFFDA
:1021200020EEC8F02150D9262250DA22DECF1BF053
:10213000DDCF1CF0000E1E6EC80E1D6EFAEC1CF0FA
:1021400020EEC8F02150D9262250DA221BC0DEFF33
:102150001CC0DDFF20EECCF02150D9262250DA221F
:10216000DE2A000EDD2212001200E4C0E6F00001BB
:10217000E76BE86B0001E3350001E63701E3E78137
:102180000001E6510001F06F0001F051D8A40AD01F
:10219000000E0001E26F000EE36F000EE46F000E10
:1021A000E56F1200170E0001E66FE2C0E7F0E3C032
:1021B000E8F0E4C0E9F00001E6290001EA6F05D08B
:1021C0000001D890E933E833E7330001EA2FF8D76C
:1021D0000001E7510001EB6F0001E38FFF0E0001EA
:1021E000E217FF0E0001E317000E0001E4170001E3
:1021F000E2510001EC6F0001E3510001ED6F0001BD
:10220000E4510001EE6F0001EF6B8E0E0001F05FF4
:102210000001F0AF1BD00001F051800A8F0FD8B041
:102220000BD0000E0001E26F000EE36F000EE46FB2
:10223000000EE56F120000D00001D890EF33EE33AE
:10224000ED33EC330001F03FF7D71FD0170E00013C
:10225000F06514D0000E0001E26F000EE36F000E77
:10226000E46F000EE56F120009D00001D890EC3742
:10227000ED37EE37EF370001F00700D00001F051E5
:102280000001D8B402D0F1D700D00001EB51000119
:10229000D8B40AD00001EF1FEE1FED1FEC6D000E49
:1022A000ED23EE23EF2300D0ECC0E2F0EDC0E3F02D
:1022B000EEC0E4F0EFC0E5F012001200C3C0C7F0BA
:1022C0000001C86BC96B0001C2350001C73701E3CB
:1022D000C8810001C7510001CE6F0001CE51D8A4C2
:1022E0000AD0000E0001C16F000E0001C26F000E87
:1022F0000001C36F1200C6C0C7F00001C86BC96BF4
:102300000001C5350001C73701E3C8810001C7518D
:102310000001CF6F0001CF51D8A40AD0000E0001F8
:10232000C16F000E0001C26F000E0001C36F1200EA
:10233000000E0001CB6F000E0001CC6F000E0001FB
:10234000CD6F0001CF51890F0001CE5FC3C0CFF028
:102350000001C6510001CF1B800E0001CF17000104
:10236000C28FFF0E0001C117FF0E0001C217000E41
:102370000001C3170001C58FFF0E0001C417FF0E37
:102380000001C517000E0001C617180E0001CA6F24
:1023900000D00001D890CB37CC37CD370001C451E5
:1023A0000001C15D0001C5510001C2590001C651C3
:1023B0000001C359D8A00ED00001C4510001C15F73
:1023C0000001C5510001C25B0001C6510001C35BA1
:1023D0000001CB810001D890C137C237C33700015B
:1023E000CA2FD7D700D0CBC01BF0CCC01CF0CDC0BB
:1023F0001DF0CEC01EF0CFC01FF091EC17F01BC037
:10240000C1F01CC0C2F01DC0C3F0120012000001D8
:10241000F9AF0FD0000E0001956F210E946F000EE2
:102420000001F76F000E0001F86F000E0001F96F58
:1024300012000001F7510001F8110001F911D8A4B0
:102440000FD0000E0001956F220E946F000E000158
:10245000F76F000E0001F86F000E0001F96F120017
:10246000000E0001D36F000E0001D46F400E00017A
:10247000D56FFA0E1E6E000E1F6EF7C01BF0F8C06F
:102480001CF0F9C01DF076EC19F01BC0D0F01CC098
:10249000D1F01DC0D2F04AEC0FF0D0C0DFF0D1C0B7
:1024A000E0F0D2C0E1F0000E0001E26F800E00010A
:1024B000E36FBF0E0001E46FD6EC0AF0DFC0F7F067
:1024C000E0C0F8F0E1C0F9F00001FA07D8A0FB077E
:1024D000F7C0EBF0F8C0ECF0F9C0EDF0010E000130
:1024E000EE6F060E0001EF6F000E0001F16F080E97
:1024F000F06F46EC16F0EBC0F7F0ECC0F8F0EDC072
:10250000F9F0720E0001D36F310E0001D46F3F0E4F
:102510000001D56FFAC023F0FBC024F041EC1CF0A1
:1025200023C0D0F024C0D1F025C0D2F04AEC0FF087
:10253000D0C0DFF0D1C0E0F0D2C0E1F0F7C0E2F0EF
:10254000F8C0E3F0F9C0E4F0D6EC0AF0DFC0F7F031
:10255000E0C0F8F0E1C0F9F012001200286E98C057
:102560001BF099C01CF0CCC21DF014EC1BF0296EBE
:1025700001D80BD00500FA6E3550FD6E3650FE6E58
:10258000F850FF6EFA50060E120001D80BD005006D
:10259000FA6E3550FD6E3650FE6EF850FF6EFA50F2
:1025A000850E120001D80BD00500FA6E3550FD6E75
:1025B0003650FE6EF850FF6EFA502850120001D8C7
:1025C0000BD00500FA6E3550FD6E3650FE6EF85099
:1025D000FF6EFA503E50120001D80CD00500FA6E82
:1025E0003550FD6E3650FE6EF850FF6EFA50020107
:1025F000CC511200000E2B6E000E2A6E18D001D89E
:1026000013D00500FA6E3550FD6E3650FE6EF85050
:10261000FF6EFA502A5000019825D96E2B50000108
:102620009921DA6EDF5012002A4A2B2A00D00201CB
:10263000CC512A5C2B50800A276E0201CD51800AB2
:102640002758D8A0DCD701D80BD00500FA6E35503A
:10265000FD6E3650FE6EF850FF6EFA502950120093
:10266000B00E1B6E000E1C6E28C01DF029C01EF09F
:10267000000E1F6EB7EC16F0000E236E020E246ED5
:10268000000E266E010E256EB3EC1AF0120020EE3D
:10269000CCF02150D9262250DA22010EDBBE07D021
:1026A000010EDB503AE1C80EDE5CD8B036D020EE29
:1026B000C8F02150D9262250DA22DECF24F0DDCF17
:1026C00025F024502124D96E25502220DA6E23C013
:1026D000DFFF20EEC8F02150D9262250DA22DECFCB
:1026E0001BF0DDCF1CF0000E1E6EC80E1D6EE3EC5D
:1026F0001CF020EEC8F02150D9262250DA221BC04F
:10270000DEFF1CC0DDFF20EECCF02150D926225088
:10271000DA22DE2A000EDD22120020EEC8F021505F
:10272000D9262250DA22DECF24F0DDCF25F0245046
:102730002124D96E25502220DA6E23C0DFFF20EE3F
:10274000C8F02150D9262250DA22DECF1BF0DDCF8F
:102750001CF0000E1E6EC80E1D6EE3EC1CF020EE89
:10276000C8F02150D9262250DA221BC0DEFF1CC03F
:10277000DDFF20EECAF02150D9262250DA22DECF2A
:102780001BF0DDCF1CF0000E1E6EC80E1D6EE3ECBC
:102790001CF020EECAF02150D9262250DA221BC0AC
:1027A000DEFF1CC0DDFF1200120020EECCF007504F
:1027B000D9260850DA22010EDBBE07D0010EDB500D
:1027C0003AE1C80EDE5CD8B036D020EEC8F0075033
:1027D000D9260850DA22DECF0AF0DDCF0BF00A50FE
:1027E0000724D96E0B500820DA6E09C0DFFF20EEF7
:1027F000C8F00750D9260850DA22DECF01F0DDCF2D
:1028000002F0000E046EC80E036E28EC1DF020EEE0
:10281000C8F00750D9260850DA2201C0DEFF02C0F6
:10282000DDFF20EECCF00750D9260850DA22DE2A50
:10283000000EDD22120020EEC8F00750D926085005
:10284000DA22DECF0AF0DDCF0BF00A500724D96E72
:102850000B500820DA6E09C0DFFF20EEC8F00750E9
:10286000D9260850DA22DECF01F0DDCF02F0000ECB
:10287000046EC80E036E28EC1DF020EEC8F0075061
:10288000D9260850DA2201C0DEFF02C0DDFF20EEAB
:10289000CAF00750D9260850DA22DECF01F0DDCF8A
:1028A00002F0000E046EC80E036E28EC1DF020EE40
:1028B000CAF00750D9260850DA2201C0DEFF02C054
:1028C000DDFF12001200000E0001F06F000EEF6F2E
:1028D0000001F0BF0AD00001F05175E1090E0001BE
:1028E000EF5DD8B070D001D06ED0EFC01BF0F0C05B
:1028F0001CF0000E1E6E030E1D6E3FEC1DF0640EEC
:102900001B24D96E010E1C20DA6E000E0001D36F5D
:10291000A00E0001D46F400E0001D56F000E000123
:10292000C46F800E0001C56F440E0001C66F600EBB
:102930000001ED6F000E0001EE6FD8900001EF3541
:10294000E16E0001F035E26ED890E136E23600012A
:10295000ED51E1260001EE51E222E6CF23F0E6CF71
:1029600024F0E6CF25F0E6CF26F007EC1AF023C0DE
:10297000C1F024C0C2F025C0C3F05EEC11F0C1C0AC
:10298000D0F0C2C0D1F0C3C0D2F04AEC0FF0D0C03A
:10299000DFF0D1C0E0F0D2C0E1F0CD0E0001E26F77
:1029A0004C0E0001E36F3D0E0001E46FD6EC0AF01F
:1029B000DFC0DEFFE0C0DEFFE1C0DEFF0001EF4B65
:1029C000F02B86D700D0D8EC0DF0120050D01D505F
:1029D0001E10D8B402D08B8A12008B9A12001D50A0
:1029E0001E10D8B402D08B8812008B9812001D5094
:1029F0001E10D8B402D08C8612008C9612001D5086
:102A00001E10D8B402D08C8412008C9412001D5079
:102A10001E10D8B402D08C8212008C9212001D506D
:102A20001E10D8B402D08C8A12008C9A12001D504D
:102A30001E10D8B402D08A8012008A9012001D5055
:102A40001E10D8B402D08A8212008A9212001D5041
:102A50001E10D8B402D08A8612008A9612001D5029
:102A60001E10D8B402D089801200899012001BC0B9
:102A70001FF01CC020F02050000AD8A412001F50E4
:102A8000000AD8B4A4D7010AD8B4A9D7030AD8B485
:102A9000AED7010AD8B4B3D7070AD8B4B8D7010A59
:102AA000D8B4BDD7030AD8B4C2D7010AD8B4C7D79F
:102AB0000F0AD8B4CCD7010AD8A41200D0D712007C
:102AC000040E1D6403D0040E1D6E00D0020E1E64A1
:102AD00003D0020E1E6E00D01D281D6E1D50030D6A
:102AE000F3CF25F0F4CF26F020EE0FF01B50D926BF
:102AF0001C50DA222550DE5CDE50800A216E265002
:102B0000800A2158D8B02AD020EE0FF01B50D926C9
:102B10001C50DA22DECF1FF0DDCF20F01F1E201E5A
:102B20001F4A202A25501F26265020221F1E201E05
:102B30001F4A202A0F0E1F24256E000E2020266E0D
:102B40001E5025241F6E000E2620206E1F501B24B1
:102B5000D96E20501C20DA6EDF50120020EE0FF0EC
:102B60001B50D9261C50DA22DECF1FF0DDCF20F01B
:102B700025C021F026C022F0211E221E214A222A31
:102B80001E50236E246A21502326225024221F50D7
:102B900023262050242223501B24D96E24501C208D
:102BA000DA6EDF5012001200000E0001E36F000E1B
:102BB000E26F000E0001E86F000EE76F000E0001EB
:102BC000E46F000E0001E56F000E0001E66F000EDD
:102BD0000001E86F000EE76F0001E8BF0AD00001B6
:102BE000E85153E1090E0001E75DD8B0120001D0B1
:102BF0001200E7C0DFF0E8C0E0F066EC1BF0DFC0D9
:102C0000E4F0E0C0E5F0E1C0E6F0E4C021F0E5C0AA
:102C100022F0E6C023F0C30E246E850E256E400E12
:102C2000266E97EC18F0D8A010D0E7C01BF0E8C0D3
:102C30001CF0000E1E6E010E1D6EE6EC14F0000E70
:102C40000001E36F010EE26F00D0CD0E216E840E05
:102C5000226E400E236EE4C024F0E5C025F0E6C0ED
:102C600026F097EC18F0D8A00BD0E7C01BF0E8C016
:102C70001CF0000E1E6E000E1D6EE6EC14F000D06F
:102C80000001E74BE82BA8D712001200F0C01BF0A0
:102C9000F1C01CF0000E1E6E030E1D6E3FEC1DF009
:102CA000EEC0F2F0EFC0F3F01B500001F2271C5011
:102CB0000001F323F2C0F6FFF3C0F7FF0900F5CFE0
:102CC000F4F00900F5CFF5F00A00F5CFF6F042D0A8
:102CD000F4C0D3F0F5C0D4F0F6C0D5F0EBC0D0F01E
:102CE000ECC0D1F0EDC0D2F04AEC0FF0D0C0DFF074
:102CF000D1C0E0F0D2C0E1F0000E1E6E030E1D6EDA
:102D00000001F007D8A0F107F0C01BF0F1C01CF0E3
:102D10003FEC1DF0EEC0F2F0EFC0F3F01B500001ED
:102D2000F2271C500001F323F2C0F6FFF3C0F7FFB7
:102D30000900F5CFE2F00900F5CFE3F00A00F5CF86
:102D4000E4F0D6EC0AF0DFC0F4F0E0C0F5F0E1C04A
:102D5000F6F000D00001F0510001F111D8A4B8D76D
:102D6000F4C0EBF0F5C0ECF0F6C0EDF0120020EE90
:102D70000FF01B50D9261C50DA22DECF20F0DDCF19
:102D800021F020501B24D96E21501C20DA6E1DC06A
:102D9000DFFF20EE0FF01B50D9261C50DA22DE2A6E
:102DA000000EDD2220EE0FF01B50D9261C50DA2237
:102DB000DECF20F0DDCF21F020501B24D96E215032
:102DC0001C20DA6E1EC0DFFF20EE0FF01B50D9264C
:102DD0001C50DA22DE2A000EDD2220EE0FF01B50FE
:102DE000D9261C50DA22DECF20F0DDCF21F0205092
:102DF0001B24D96E21501C20DA6E1FC0DFFF20EE8D
:102E00000FF01B50D9261C50DA22DE2A000EDD22DC
:102E100020EE0FF01B50D9261C50DA22010EDBBE2B
:102E20001200010EDB5004E10F0EDE5CD8A0120090
:102E300020EE0FF01B50D9261C50DA22000EDE6E59
:102E4000000EDD6E12001200040E1D6403D0040E8D
:102E50001D6E00D01D281D6E1D50030DF3CF23F0F5
:102E6000F4CF24F020EE0FF01B50D9261C50DA22AC
:102E70002350DE5CDE50800A216E2450800A2158E7
:102E8000D8B02BD020EE0FF01B50D9261C50DA22E0
:102E9000DECF1FF0DDCF20F01F1E201E1F4A202A8C
:102EA00023501F26245020221F1E201E1F4A202A86
:102EB0000F0E1F24236E000E2020246E020E2324EA
:102EC0001F6E000E2420206E1F501B24D96E205030
:102ED0001C20DA6E1EC0DFFF120020EE0FF01B5028
:102EE000D9261C50DA22DECF1FF0DDCF20F023C020
:102EF00021F024C022F0211E221E214A222A1F5026
:102F0000212620502222020E2126000E22222150AC
:102F10001B24D96E22501C20DA6E1EC0DFFF120067
:102F200012001E50D8B405D01B501C101D10D8A480
:102F30000ED0000E1B6E000E1C6E000E1D6E1200D9
:102F400006D01E2AD8901D321C321B3200D0000E33
:102F50001B14206E000E1C14216EFE0E1D14226E1A
:102F6000205021102210D8B40ED0EBD70CD01E2A3E
:102F7000010E1B26000E1C22000E1D22D8901D32B1
:102F80001C321B3200D0000E1B14206E000E1C14CD
:102F9000216EFF0E1D14226E205021102210D8B475
:102FA00008D0E5D706D01E06D8901B361C361D3635
:102FB00000D01CBE04D0020E1E60F5D700D01EB09B
:102FC00002D01C9E00D0D8901E321E501D121F50E1
:102FD000D8B402D01D8E00D01BC01BF01CC01CF04A
:102FE0001DC01DF012001200000E2A6E000E2C6E85
:102FF000000E2B6E2CBE08D02C504DE1090E2B5C20
:10300000D8B0120001D01200000E216E400E226EC8
:10301000400E236E2BC01BF02CC01CF0000E1E6E49
:10302000030E1D6E3FEC1DF0A00E1B24D96E010E89
:103030001C20DA6EDECF24F0DECF25F0DDCF26F0C7
:1030400097EC18F0D8B023D02BC01BF02CC01CF08C
:10305000000E1E6E030E1D6E3FEC1DF0A00E1B2415
:10306000D96E010E1C20DA6EDECF21F0DECF22F009
:10307000DDCF23F0B80E246E860E256E400E266E30
:1030800097EC18F0D8B003D0010E2A6E00D02B4A6E
:103090002C2AB0D712001200000E206E1EAE07D0F0
:1030A0001D6C1E1ED8B01E2A010E206E00D01CAE54
:1030B00007D01B6C1C1ED8B01C2A010E201A00D091
:1030C000000E226E000E216E1D501E10D8B421D0AD
:1030D000010E1F6E05D0D8901D361E361F2A00D057
:1030E0001EBE02D0F8D700D0D890213622361D500F
:1030F0001B5C1E501C58D8A006D01D501B5E1E50D5
:103100001C5A218000D0D8901E321D321F2EECD7C1
:1031100000D02050D8B405D0216C221ED8B0222A6D
:1031200000D021C01BF022C01CF01200120023AE00
:1031300017D021C027F022C028F023C029F0271E75
:10314000281E291E272A000E28222922000E2724A5
:10315000216E000E2820226E800E2920236E00D0C2
:1031600026AE17D024C027F025C028F026C029F0AD
:10317000271E281E291E272A000E28222922000E7B
:103180002724246E000E2820256E800E2920266E0E
:1031900000D0000E211A000E221A800E231A000EF3
:1031A000241A000E251A800E261A2450215C255060
:1031B000225826502358D8B002D0D8901200D88078
:1031C0001200120020EECCF02150D9262250DA2233
:1031D000010EDBBE3CD0010EDB5003E1DE04D8A0C3
:1031E00036D020EECAF02150D9262250DA22DECF86
:1031F00023F0DDCF24F023502124D96E2450222047
:10320000DA6EDF50256E20EECAF02150D92622500A
:10321000DA22DECF1BF0DDCF1CF0000E1E6EC80ED2
:103220001D6EE3EC1CF020EECAF02150D92622508E
:10323000DA221BC0DEFF1CC0DDFF20EECCF02150E7
:10324000D9262250DA22DE06000EDD5A02D0000E08
:10325000256E25501200120020EECCF00750D92622
:103260000850DA22010EDBBE3CD0010EDB5003E138
:10327000DE04D8A036D020EECAF00750D926085078
:10328000DA22DECF09F0DDCF0AF009500724D96E2B
:103290000A500820DA6EDF500B6E20EECAF007509D
:1032A000D9260850DA22DECF01F0DDCF02F0000E81
:1032B000046EC80E036E28EC1DF020EECAF0075015
:1032C000D9260850DA2201C0DEFF02C0DDFF20EE61
:1032D000CCF00750D9260850DA22DE06000EDD5A5F
:1032E00002D0000E0B6E0B50120012001B501C106F
:1032F0001D10D8A40FD01EC0D9FF1FC0DAFF000ECA
:10330000DE6E000EDD6E000E1B6E000E1C6E000EDB
:103310001D6E12001D507F0B206E216AD890203642
:1033200021361EC0D9FF1FC0DAFF20C0DEFF21C03A
:10333000DDFF1CAE03D0206A202A01D0206A205075
:103340001EC0D9FF1FC0DAFFDE12000EDD121EC044
:10335000D9FF1FC0DAFF820EDE26FF0EDD221D80A0
:103360001D821D841D861D881D8A1D9C1C9E1BC0E0
:103370001BF01CC01CF01DC01DF01200120005EE59
:1033800000F0CE0EEE6AE806FDE104EE00F0CE0E8F
:10339000EE6AE806FDE103EE00F0C80EEE6AE8060C
:1033A000FDE102EE00F0CE0EEE6AE806FDE101EE70
:1033B00000F0A00EEE6AE806FDE100EE60F0610E9E
:1033C000EE6AE806FDE100EE2DF0180EEE6AE80662
:1033D000FDE1460EF66E380EF76E000EF86E01EE49
:1033E000A0F010EE3CF00900F5CFEEFFE550E15003
:1033F000FAE1460EF66E3C0EF76E000EF86E09000E
:10340000F5CF45F0000EF86E000101EF1CF0000E44
:103410002C6E8E0E2B6E26AE12D0261E251E241E5E
:10342000236C000E242225222622010E2C6E07D0AA
:10343000D89026322532243223322B2A00D0000E97
:103440002314276E000E2414286E000E2514296EF6
:10345000FF0E26142A6E2750281029102A10D8A4EF
:10346000E7D723C01BF024C01CF025C01DF02BC0E3
:103470001EF02CC01FF091EC17F01BC023F01CC0F5
:1034800024F01DC025F012001200000E2A6E000E5E
:103490002C6E000E2B6E2CBE08D02C502DE1090E88
:1034A0002B5CD8B0120001D012002BC01BF02CC036
:1034B0001CF0000E1E6E030E1D6E3FEC1DF0BE0EC6
:1034C0001B24D96E010E1C20DA6EDECF21F0DECF78
:1034D00022F0DDCF23F0000E246E720E256E420E18
:1034E000266E97EC18F0D8B003D0010E2A6E00D0EB
:1034F0002B4A2C2AD0D71200120014EC1EF03DECFF
:103500001BF01BEC1EF0C9EC1DF05FEC1CF066EC30
:103510001DF03C0E0001C16F010E0001C26F280EAC
:103520000001C36F020E0001C46F000E0001C56FE1
:10353000660E0001C66F390E0001C76F180E00013C
:10354000C86F3C0E0001C96F620E0001CA6F3B0ECE
:103550000001CB6F080E0001CC6F3C0E0001CD6F57
:10356000E5EC1AF0120020EECCF02350D9262450BE
:10357000DA22000EDE6E000EDD6E20EEC8F0235063
:10358000D9262450DA22000EDE6E000EDD6E20EE0B
:10359000CAF02350D9262450DA22000EDE6E000E27
:1035A000DD6E25502610D8B4120023C01BF024C0B5
:1035B0001CF0000E1E6E000E1D6E000E206EC80E5A
:1035C0001F6E11EC1DF012001200C1C096F0C2C0B7
:1035D00097F0C4C03EF0C6C035F0C7C036F0CAC0D0
:1035E00031F0CBC032F0CCC09AF0CDC09BF0C8C057
:1035F00033F0C9C034F0C3C01BF01C6A000E1E6E4D
:10360000020E1D6E4CEC18F01B503D6E000E0001BA
:10361000986F020E0001996FC5C039F0000E0001CD
:103620008F6F000E8E6F1200000E216E1FD01BC018
:10363000D9FF1CC0DAFFDF501F6E1B4A1C2A080E80
:10364000206E0FD021501F18010B1E6ED890213212
:103650001E50D8B402D08C0E211AD8901F322006EA
:1036600000D02050D8B402D0EDD700D01D061D28C0
:10367000D8A4DDD7215012001200000E896EAE0EC4
:10368000926E2E0E0F01386F000E8A6EF40E936E3E
:10369000340E0F01396F000E616E480E8B6EC40E32
:1036A000946E040E0F013A6F000E8C6ED10E956E63
:1036B000D10E0F013B6F000E8D6E040E966E040E40
:1036C0000F013C6F948C948EF18E1200DFC01BF0C2
:1036D000E0C01CF0000E1E6E030E1D6E3FEC1DF0D0
:1036E000A00E1B24D96E010E1C20DA6EDECFD0F0A6
:1036F000DECFD1F0DDCFD2F0000E0001D36F7A0E15
:103700000001D46F440E0001D56F4AEC0FF0D0C019
:10371000DFF0D1C0E0F0D2C0E1F0120012000001F1
:10372000EE510001EF110001F011D8B40AD0000EE3
:103730000001EE1B000E0001EF1B800E0001F01BCC
:1037400000D0EBC0DFF0ECC0E0F0EDC0E1F0EEC087
:10375000E2F0EFC0E3F0F0C0E4F0D6EC0AF0DFC036
:10376000EBF0E0C0ECF0E1C0EDF012001200000E52
:10377000206E000E216E000E226E000E236E0ED003
:10378000030E1F6E980EE82EFED71F2EFCD7010EDB
:103790002026000E21222222232200D01B50205C52
:1037A0001C5021581D5022582350800A1F6E1E5055
:1037B000800A1F58D8A0E4D712009E903850CF6ED0
:1037C00037C0CEFF2F4A302A30BE0BD0305004E134
:1037D000040E2F5CD8A005D0000E306E000E2F6EA8
:1037E00000D02F043010D8A403D0E1EC1DF000D09D
:1037F000030E2F183010D8A41200D5EC1DF01200C3
:1038000012007DEC1AF0F28EF28C00D0000188518B
:1038100000018911D8B405D015EC0CF045EC1AF074
:1038200000D000018A5100018B11D8B407D063EC9D
:1038300014F0F4EC17F0D4EC15F000D0F5EC08F02F
:10384000E5D755EF00F00040400040400040400008
:1038500040400040400040400040400040400040A8
:1038600040004040008C42008C42008C42008C4260
:10387000008C42008C42008C42008C42008C420042
:103880008C42000E266E24AE07D0236C241ED8B0C6
:10389000242A010E266E00D023C01BF024C01CF089
:1038A0001D6A8E0E1E6E26C01FF091EC17F01BC015
:1038B00023F01CC024F01DC025F0120012009D9AB8
:1038C0009D98480EB86E980EAB6E260EAC6E330EF9
:1038D000AF6E000EB06E000EAD6E000EAE6E000E3E
:1038E000236E040E246E86EC1DF0000E236E050E72
:1038F000246E86EC1DF09D8A120001A002D0897C06
:1039000000D002340230046E0130036E03A002D0F6
:103910008B7000D001C003F002C004F00434043204
:10392000033204340432033203A012008B721200FB
:103930001200000E016E050E026EEDEC1DF002BECF
:103940000DD0025003E10104D8A008D0000E076E8C
:10395000050E086E2CEC19F0AD6E1200010E456ECE
:103960009D9812001200266E000E216E050E226E2A
:1039700026C023F047EC13F04504D8A41200000E33
:10398000456E000E216E050E226EE2EC18F0AD6E53
:103990009D881200120021C01BF022C01CF0000EF6
:1039A0001E6E030E1D6E3FEC1DF0BE0E1B24D96E65
:1039B000010E1C20DA6EDECF21F0DECF22F0DDCF4B
:1039C00023F012001200010E1B241F6E000E1C209B
:1039D000206E1D501F5C1E502058D8A005D0000E30
:1039E000206E000E1F6E00D01FC01BF020C01CF008
:1039F00012001200010E1B241F6E000E1C20206EF0
:103A00001D501F5C1E502058D8A005D0000E206EFF
:103A1000000E1F6E00D01FC01BF020C01CF0120053
:103A200012001BC021F01CC022F009D021C0D9FF18
:103A300022C0DAFF1DC0DFFF214A222A00D01F0664
:103A4000D8A020061F28F2E12028D8A4EFD7120022
:103A5000010E0124056E000E0220066E0350055C67
:103A600004500658D8A005D0000E066E000E056E54
:103A700000D005C001F006C002F0120012001B5079
:103A80001D02F3CF1FF0F4CF20F01B501E02F350A5
:103A900020261C501D02F35020261FC01BF020C002
:103AA0001CF01200120020EECAF01B50D9261C5048
:103AB000DA22DECF1DF0DDCF1EF01D501B24D96EA3
:103AC0001E501C20DA6EDF5012001200300ECD6E38
:103AD000000ECC6E0B0ECF6EDC0ECE6ECECF37F05E
:103AE000CFCF38F09E909D8021EC1EF01200000197
:103AF000F36F000E216E020E226EF3C023F0F1C0B0
:103B000024F0F2C025F000EC10F0120023C01BF0EE
:103B100024C01CF0000E1E6E000E1D6E000E206EE6
:103B2000CE0E1F6E11EC1DF01200ABA202D0AB98AE
:103B3000AB88AECF0CF0000E076E040E086E0CC002
:103B400009F0D5EC13F01200026E02C001F001463C
:103B50000146C2500118830B0118C26EC280C28296
:103B60001200000E1B6E040E1C6EBDEC1DF01BC07F
:103B70001DF01CC01EF01200120020EECCF01B50F5
:103B8000D9261C50DA22DECF1BF0DDCF1CF012004C
:103B90001200010EC26E800EC16EA90EC06E000E24
:103BA000C36E000EC46E9D8C1200000E2E6E000EB1
:103BB0002D6E010E3A6E800EC16E0E0EA4EC1DF03D
:103BC0001200000E2E6E000E2D6E010E3B6E800E4A
:103BD000C16E010EA4EC1DF0120020EECCF00150DD
:103BE000D9260250DA22DECF01F0DDCF02F012003A
:103BF0001200C450046E036AC3500324016E000E09
:103C00000420026E12001200000E1B6E040E1C6EC9
:103C100053EC1DF012001200000E216E040E226EF5
:103C2000E2EC18F012001200620ED36E040ED26E97
:103C3000000E9B6E1200D09E9F9A9F9C9F909F9813
:083C40001200CD80120001000A
:020000040020DA
:08000000FFFFFFFFFFFFFFFF00
:020000040030CA
:0E000000FF081F3CFFBF81FF0FC00FE00F4045
:00000001FF
