:0400000054EF00F0C9
:10000800FACF09F0FBCF0AF0E9CF0BF0EACF0CF0FA
:10001800E1CF0DF0E2CF0EF0D9CF0FF0DACF10F02C
:10002800F3CF11F0F4CF12F0F6CF13F0F7CF14F0AE
:10003800F8CF15F0F5CF16F09DBA9EAA03D04AEC7A
:100048000AF011D09DBC9EAC03D00FEC03F00BD08E
:100058009DB09EA003D0D5EC0AF005D09DB89EA80F
:1000680002D032EC0AF016C0F5FF15C0F8FF14C034
:10007800F7FF13C0F6FF12C0F4FF11C0F3FF10C062
:10008800DAFF0FC0D9FF0EC0E2FF0DC0E1FF0CC0C0
:10009800EAFF0BC0E9FF0AC0FBFF09C0FAFF110025
:0400A80062EF0AF009
:100600000000000000803FF0FFBEE2A93E8376BEFE
:10061000AE2B3E3CC3BDD2133D78D3BB00009E9CA5
:10062000000E086E000E076E4050D8B44AD1FBECA5
:100630000AF001C007F002C008F017D1DA0E056E0B
:10064000000E066ED8903C34D96E3D34DA6E0550FB
:10065000D9260650DA2207C0DEFF08C0DDFF000EF3
:10066000026E000E016E79EC0AF00E0EE2EC0AF05A
:1006700026D1DA0E056E000E066ED8903C34D96E87
:100680003D34DA6E0550D9260650DA2207C0DEFF67
:1006900008C0DDFF000E026E010E016E79EC0AF05B
:1006A0000E0EE2EC0AF00BD1DA0E056E000E066EAD
:1006B000D8903C34D96E3D34DA6E0550D9260650B8
:1006C000DA2207C0DEFF08C0DDFF000E026E020E58
:1006D000016E79EC0AF00E0EE2EC0AF0F0D0DA0EC0
:1006E000056E000E066ED8903C34D96E3D34DA6E3D
:1006F0000550D9260650DA2207C0DEFF08C0DDFF0C
:10070000000E026E030E016E79EC0AF00E0EE2ECA2
:100710000AF0D5D0DA0E056E000E066ED8903C3485
:10072000D96E3D34DA6E0550D9260650DA2207C05C
:10073000DEFF08C0DDFF000E026E040E016E79ECD4
:100740000AF00E0EE2EC0AF0BAD0DA0E056E000ED8
:10075000066ED8903C34D96E3D34DA6E0550D926F9
:100760000650DA2207C0DEFF08C0DDFF000E026E71
:10077000050E016E79EC0AF00E0EE2EC0AF09FD045
:10078000DA0E056E000E066ED8903C34D96E3D34FC
:10079000DA6E0550D9260650DA2207C0DEFF08C0FF
:1007A000DDFF000E026E060E016E79EC0AF00E0EF1
:1007B000E2EC0AF084D0DA0E056E000E066ED890D8
:1007C0003C34D96E3D34DA6E0550D9260650DA2213
:1007D00007C0DEFF08C0DDFF000E026E070E016ECF
:1007E00079EC0AF00E0EE2EC0AF069D0DA0E056E32
:1007F000000E066ED8903C34D96E3D34DA6E05504A
:10080000D9260650DA2207C0DEFF08C0DDFF000E41
:10081000026E000E016E79EC0AF0140EE2EC0AF0A2
:100820004ED0DA0E056E000E066ED8903C34D96EAE
:100830003D34DA6E0550D9260650DA2207C0DEFFB5
:1008400008C0DDFF000E026E010E016E79EC0AF0A9
:10085000140EE2EC0AF033D0000E406E000E0001E0
:10086000B96F010E0001B86F2AD03CC005F03DC041
:1008700006F00650000AD8A422D00550000AD8B4C9
:10088000DDD6010AD8B4F5D6030AD8B40DD7010ACB
:10089000D8B425D7070AD8B43DD7010AD8B455D75C
:1008A000030AD8B46DD7010AD8B485D70F0AD8B4D3
:1008B0009DD7010AD8B4B5D7030AD8B4CDD73C4ADE
:1008C0003D2A4150D8B41200FBEC0AF001C007F0F9
:1008D00002C008F0DBD09C0E056E000E066ED890AC
:1008E0003C34D96E3D34DA6E0550D9260650DA22F2
:1008F00007C0DEFF08C0DDFF010EE2EC0AF0F0D019
:100900009C0E056E000E066ED8903C34D96E3D34B8
:10091000DA6E0550D9260650DA2207C0DEFF08C07D
:10092000DDFF030EE2EC0AF0DBD09C0E056E000E3C
:10093000066ED8903C34D96E3D34DA6E0550D92617
:100940000650DA2207C0DEFF08C0DDFF040EE2EC2D
:100950000AF0C6D09C0E056E000E066ED8903C3490
:10096000D96E3D34DA6E0550D9260650DA2207C01A
:10097000DEFF08C0DDFF050EE2EC0AF0B1D09C0EF0
:10098000056E000E066ED8903C34D96E3D34DA6E9A
:100990000550D9260650DA2207C0DEFF08C0DDFF69
:1009A000180EE2EC0AF09CD09C0E056E000E066E4E
:1009B000D8903C34D96E3D34DA6E0550D9260650B5
:1009C000DA2207C0DEFF08C0DDFF1A0EE2EC0AF0F3
:1009D00087D09C0E056E000E066ED8903C34D96E02
:1009E0003D34DA6E0550D9260650DA2207C0DEFF04
:1009F00008C0DDFF1B0EE2EC0AF072D09C0E056E03
:100A0000000E066ED8903C34D96E3D34DA6E055037
:100A1000D9260650DA2207C0DEFF08C0DDFF080E27
:100A2000E2EC0AF05DD09C0E056E000E066ED890CA
:100A30003C34D96E3D34DA6E0550D9260650DA22A0
:100A400007C0DEFF08C0DDFF0B0EE2EC0AF048D065
:100A50009C0E056E000E066ED8903C34D96E3D3467
:100A6000DA6E0550D9260650DA2207C0DEFF08C02C
:100A7000DDFF0D0EE2EC0AF033D0000E416E000EE9
:100A80000001BB6F010E0001BA6F2AD03CC005F017
:100A90003DC006F00650000AD8A422D00550000A36
:100AA000D8B419D7010AD8B42BD7030AD8B43DD784
:100AB000010AD8B44FD7070AD8B461D7010AD8B40D
:100AC00073D7030AD8B485D7010AD8B497D70F0AC9
:100AD000D8B4A9D7010AD8B4BBD7030AD8B4CDD7A4
:100AE0003C4A3D2A12000001F0C0F4F00001F56B11
:100AF000F66B0001EF350001F43701E3F5810001E9
:100B0000F4510001F96F0001F3C0F4F00001F56B3E
:100B1000F66B0001F2350001F43701E3F5810001C5
:100B2000F4510001F86F0001F951D8B412D000015E
:100B3000F8510001F95DD8B013D00001F951000857
:100B40000001F8250001F46F190E0001F45DD8A032
:100B500007D0F1C0EEF0F2C0EFF0F3C0F0F01200F9
:100B60000001F851D8B412D00001F9510001F85D2C
:100B7000D8B013D00001F85100080001F925000198
:100B8000F46F190E0001F45DD8A007D0EEC0EEF0AE
:100B9000EFC0EFF0F0C0F0F01200060E0001F76FAA
:100BA0000001F0AF02D00001F78F0001F3AF02D0D7
:100BB0000001F78D0001EF8FFF0E0001EE17FF0E11
:100BC0000001EF17000E0001F0170001F28FFF0E79
:100BD0000001F117FF0E0001F217000E0001F317DC
:100BE0000001F8510001F95DD8B02AD00001D89079
:100BF0000001F1370001F2370001F3370001F80777
:100C00000001F8510001F919D8B414D00001F70718
:100C1000F7C0F4F0070E0001F417D8B40BD0E6D7F4
:100C20000001D8900001F0330001EF330001EE33F2
:100C30000001F92B0001F8510001F963F1D72FD021
:100C40000001F9510001F85DD8B029D00001D89019
:100C50000001EE370001EF370001F0370001F9071E
:100C60000001F8510001F919D8B414D00001F707B8
:100C7000F7C0F4F0070E0001F417D8B40BD0E6D794
:100C80000001D8900001F3330001F2330001F13389
:100C90000001F82B0001F8510001F963F1D70001C0
:100CA000F7AF12D0FF0E0001EE1BFF0E0001EF1B8D
:100CB000FF0E0001F01B010E0001EE27000E0001E7
:100CC000EF23000E0001F0230001F7AD12D0FF0E5C
:100CD0000001F11BFF0E0001F21BFF0E0001F31BD0
:100CE000010E0001F127000E0001F223000E0001A9
:100CF000F323000E0001F76F0001EE510001F12710
:100D00000001EF510001F2230001F0510001F32333
:100D10000001F3AF15D0FF0E0001F11BFF0E000123
:100D2000F21BFF0E0001F31B010E0001F127000E64
:100D30000001F223000E0001F323010E0001F76F02
:100D4000F1C017F0F2C018F0F3C019F0F9C01AF0B2
:100D5000F7C01BF0A6EC08F017C0EEF018C0EFF0DB
:100D600019C0F0F01200000E0001FB6F000E000130
:100D7000FA6F0001FB51800A800F0A0ED8B4FA5DA9
:100D8000D8B06BD0FAC01FF0FBC020F0000E226E6E
:100D9000030E216EA4EC0AF00001600E1F24D96E30
:100DA0000001000E2020DA6E480E286E610E296EBA
:100DB0003F0E2A6EFAC01FF0FBC020F0000E226E1C
:100DC000030E216EA4EC0AF00001BC0E1F24E16E9C
:100DD0000001000E2020E26EE6CF25F0E6CF26F0DF
:100DE000E5CF27F06BEC07F025C0EEF026C0EFF062
:100DF00027C0F0F0C30E286EF50E296E3D0E2A6E48
:100E0000000E226E030E216EFAC01FF0FBC020F010
:100E1000A4EC0AF00101000E1F24E16E0101010E95
:100E20002020E26EE6CF25F0E6CF26F0E5CF27F0D2
:100E30006BEC07F025C0F1F026C0F2F027C0F3F00C
:100E400073EC05F0EEC0DEFFEFC0DEFFF0C0DDFFAB
:100E5000DD520001FA4BFB2B8CD7000E0001FB6F1B
:100E6000000E0001FA6F0001FB51800A800F0A0E8C
:100E7000D8B4FA5DD8B01200FAC01FF0FBC020F061
:100E8000000E226E030E216EA4EC0AF00001600E2B
:100E90001F24D96E0001000E2020DA6EFAC01FF068
:100EA000FBC020F0000E226E030E216EA4EC0AF0AF
:100EB0000101000E1F24E16E0101010E2020E26EEF
:100EC000DECFE6FFDECFE6FFDECFE5FFE552000135
:100ED000FA4BFB2BC8D727C02BF02C6A2D6A26347F
:100EE0002B3601E32C802B502E6E2E6607D0000E81
:100EF000256E000E266E000E276E12002AC02BF003
:100F00002C6A2D6A29342B3601E32C802B50336E4A
:100F1000336607D0000E256E000E266E000E276E7B
:100F2000120033507B0F2E2627C033F02A50331A7D
:100F3000800E3316268E298EFF0E2816FF0E2916D8
:100F4000000E2A16000E2F6E000E306E000E316E4F
:100F5000070E326E25A006D028502F2629503022A9
:100F60002A503122D890273226322532D89028367E
:100F700029362A36322EEED7090E326E25A006D03B
:100F800028502F26295030222A503122D89027323B
:100F900026322532D890313230322F32322EEED7EF
:100FA0002FC017F030C018F031C019F02EC01AF061
:100FB00033C01BF0A6EC08F017C025F018C026F0CF
:100FC00019C027F01200000E0001FF6F000E000193
:100FD000FE6F0001FF51800A800F0A0ED8B4FE5D3B
:100FE000D8B05AD0FEC01FF0FFC020F0000E226E15
:100FF000030E216EA4EC0AF00001BC0E1F24D96E72
:101000000001000E2020DA6E040E1A6E000E196E1A
:101010009C0E0001FC6F000EFD6FD8900001FE35A4
:10102000E16E0001FF35E26E0001FC51E126000196
:10103000FD51E222E6CF17F0E5CF18F0FAEC08F008
:1010400017C01FF018C020F0000E226E050E216E92
:10105000A4EC0AF01FC025F020C026F0F0EC09F047
:1010600025C0EEF026C0EFF027C0F0F0000E000122
:10107000F16F200E0001F26F400E0001F36F73EC70
:1010800005F0EEC0DEFFEFC0DEFFF0C0DDFFDD5299
:101090000001FE4BFF2B9DD7B3EC06F01200000EB3
:1010A0002E6E000E306E000E2F6E3050800A800FB4
:1010B000090ED8B42F5CD8B01200000E256E400E79
:1010C000266E400E276E2FC01FF030C020F0000E9D
:1010D000226E030E216EA4EC0AF00001600E1F24A4
:1010E000D96E0001000E2020DA6EDECF28F0DECFB0
:1010F00029F0DDCF2AF04CEC09F0D8B024D02FC075
:101100001FF030C020F0000E226E030E216EA4EC02
:101110000AF00001600E1F24D96E0001000E20208D
:10112000DA6EDECF25F0DECF26F0DDCF27F0B80E69
:10113000286E860E296E400E2A6E4CEC09F0D8B04F
:1011400002D0010E2E6E2F4A302AAFD71A50D8B4D3
:1011500005D0175018101910D8A40CD0000E176E17
:10116000000E186E000E196E12001A2AD89019324D
:1011700018321732000E17141C6E000E18141D6E54
:10118000FE0E19141E6E1C501D101E10D8B40CD06B
:10119000ECD71A2A010E1726000E1822000E19226B
:1011A000D890193218321732000E17141C6E000E28
:1011B00018141D6EFF0E19141E6E1C501D101E10EB
:1011C000D8B406D0E6D71A06D8901736183619368E
:1011D00018AEF9D71AA0189ED8901A321A501912C0
:1011E0001B50D8A4198E17C017F018C018F019C0DA
:1011F00019F01200000E1C6E1A50800AF36E800E59
:10120000F35C000ED8B4195CD8B006D0196C1A1E65
:10121000D8B01A2A010E1C6E1850800AF36E800E88
:10122000F35C000ED8B4175CD8B006D0176C181E4B
:10123000D8B0182A010E1C1A000E1E6E000E1D6E6C
:101240001A501910D8B41CD0010E1B6E04D0D890BF
:1012500019361A361B2A1AAEFAD7D8901D361E3602
:101260001950175C1A501858D8A005D01950175E9D
:101270001A50185A1D80D8901A3219321B2EEDD7E9
:101280001C50D8B404D01D6C1E1ED8B01E2A1DC020
:1012900017F01EC018F0120027AE16D025C02BF094
:1012A00026C02CF027C02DF02B1E2C1E2D1E2B2A05
:1012B000000E2C222D22000E2B24256E000E2C2039
:1012C000266E800E2D20276E2AAE16D028C02BF059
:1012D00029C02CF02AC02DF02B1E2C1E2D1E2B2ACF
:1012E000000E2C222D22000E2B24286E000E2C2006
:1012F000296E800E2D202A6E000E251A000E261A49
:10130000800E271A000E281A000E291A800E2A1A9B
:101310002850255C295026582A502758D8B002D08A
:10132000D8901200D8801200000E2E6E000E306E83
:10133000000E2F6E3050800A800F090ED8B42F5C3B
:10134000D8B012002FC01FF030C020F0000E226E67
:10135000030E216EA4EC0AF000017E0E1F24D96E4C
:101360000001000E2020DA6EDECF25F0DECF26F061
:10137000DDCF27F0000E286E720E296E420E2A6E07
:101380004CEC09F0D8B002D0010E2E6E2F4A302A54
:10139000D1D7000E896EAE0E926E2E0E0F01386FF1
:1013A000000E8A6EF40E936E340E0F01396F000E2C
:1013B000616E080E8B6EC40E946E040E0F013A6FB0
:1013C000000E8C6ED10E956ED10E0F013B6F000E8C
:1013D0008D6E050E966E050E0F013C6FF18E12009C
:1013E000000E286E2650800AF36E800EF35C000E0D
:1013F000D8B4255CD8B006D0256C261ED8B0262AD5
:10140000010E286E25C017F026C018F0196A8E0E3E
:101410001A6E28C01BF0A6EC08F017C025F018C003
:1014200026F019C027F012009D9A9D98480EB86EBC
:10143000980EAB6E260EAC6E220EAF6E000EB06E26
:10144000000EAD6E000EAE6E000E456E000E466EC6
:10145000080E496E000E436E000E446E000E426E82
:101460009D8A1200080E495CD8B012D04650010D7A
:10147000340EF324D96E000EF420DA6EDF50AD6E18
:10148000462A070E466402D0000E466E492A120014
:101490009D981200ABA202D0AB98AB884350010DCF
:1014A0000001B00EF324D96E0001000EF420DA6EB4
:1014B000AECFDFFF432A070E436402D0000E436E17
:1014C000422A120001EE00F05A0EEE6AE806FDE133
:1014D00000EE60F08E0EEE6AE806FDE100EE34F0FC
:1014E000130EEE6AE806FDE1000EF86E000190EFC3
:1014F0000AF001B0897C02340230046E0130036EC0
:1015000003B08B7001C003F002C004F00434043255
:10151000033204340432033203A012008B7212002F
:10152000C8EC0AF0F28EF28C0001B951B811D8A4BF
:1015300094EC09F00001BB51BA11D8B4F5D7E3EC33
:1015400007F04FEC08F0F0D71F502102F3CF23F043
:10155000F4CF24F01F502202F35024262050210201
:10156000F350242623C01FF024C020F01200000EE8
:10157000CD6E000ECC6EB10ECF6EE00ECE6ECECF25
:1015800047F0CFCF48F09E909D8012EC0BF01200F8
:1015900005EC0BF0C9EC09F00CEC0BF0EFEC0AF0E9
:1015A00014EC0AF0B7EC0AF012009E9048C001F06B
:1015B00001C002F0036A0250CF6E47C0CEFF14ECA8
:1015C0000BF01200026E02C001F001460146C2504B
:1015D0000118830B0118C26EC280C2821200010E74
:1015E000C26E800EC16E0A0EC06E000EC36E000E7B
:1015F000C46E9D8C1200C450046E036AC350032451
:10160000016E000E0420026E1200620ED36E040EF4
:10161000D26E000E9B6E1200D09E9F9A9F9C9F9050
:0A1620009F981200CD801200120006
:020000040020DA
:08000000FFFFFFFFFFFFFFFF00
:020000040030CA
:0E000000FF081F3CFFBF81FF0FC00FE00F4045
:00000001FF
