:0400000054EF00F0C9
:10000800FACF0DF0FBCF0EF0E9CF0FF0EACF10F0EA
:10001800E1CF11F0E2CF12F0D9CF13F0DACF14F01C
:10002800F3CF15F0F4CF16F0F6CF17F0F7CF18F09E
:10003800F8CF19F0F5CF1AF09DBA9EAA03D0ABEC11
:100048001EF011D09DBC9EAC03D096EC09F00BD0ED
:100058009DB09EA003D0A8EC1DF005D09DB89EA829
:1000680002D093EC1EF01AC0F5FF19C0F8FF18C0B3
:10007800F7FF17C0F6FF16C0F4FF15C0F3FF14C052
:10008800DAFF13C0D9FF12C0E2FF11C0E1FF10C0B0
:10009800EAFF0FC0E9FF0EC0FBFF0DC0FAFF110019
:0400A800C3EF1EF094
:1006000000010000000A00000064000000E8030090
:100610000010270000A086010040420F008096983D
:100620000000E1F50500CA9A3B00803FCDCC3DD7E4
:10063000233C12833AB7D138C62737388635C0D61F
:1006400033CC2B32708930E7DB2EE53C1E42A20D05
:1006500000803F00204100C842007A44401C4650C0
:10066000C34724744997184BBCBE4C6B6E4E0315A0
:100670005079AD60F3497100000000803FF0FFBE8B
:10068000E2A93E8376BEAE2B3E3CC3BDD2133D787D
:10069000D3BB42617474657279202564203D2025A6
:1006A000302E303266200D0A004869205269636B93
:1006B00000000001000E0201106F0001990E0201FE
:1006C0000F6F84EF09F002012451250AD8B406D037
:1006D000020124518DEC1FF084EF09F0000E02019D
:1006E0001E6F000E02011D6F000E02011C6F000E36
:1006F00002011B6F05D002011B850001974B982B4F
:10070000000197C0F6FF000198C0F7FF0800F55000
:10071000300AD8B4F0D7000197C0F6FF000198C0A6
:10072000F7FF0800F55028EC1FF0D8A043D0000ECA
:1007300002011E6F000E02011D6F1DC229F01EC2B4
:100740002AF0000E2C6E0A0E2B6E04EC1FF029C04E
:100750001DF22AC01EF2D00E00019E6FFF0E9F6F89
:10076000000197C0F6FF000198C0F7FF0800F550A0
:100770000001A06FA16B00019E510001A0270001A4
:100780009F510001A1230001A05102011D2700017A
:10079000A15102011E230001974B982B000197C025
:1007A000F6FF000198C0F7FF0800F55028EC1FF095
:1007B000D8B0C3D7000197C0F6FF000198C0F7FF7B
:1007C0000800F5502E0AD8A439D002011C8D000172
:1007D000974B982B000E0201236F000E0201226F2F
:1007E00020D022C229F023C22AF0000E2C6E0A0E5D
:1007F0002B6E04EC1FF0000197C0F6FF000198C0BB
:10080000F7FF0800F5502926000E2A22D00E2924D1
:100810000201226FFF0E2A200201236F0001974B75
:10082000982B000197C0F6FF000198C0F7FF080061
:10083000F55028EC1FF0D8A00DD0D3D7000E020140
:10084000236F000E0201226F02011C8903D00201F6
:100850001C851CD0000197C0F6FF000198C0F7FF6F
:100860000001974B982B08000201F5CF24F20201FA
:100870002451000AD8B41200640AD8B407D0020A7E
:10088000D8B4E5D70F0AD8A484EF09F0070E020107
:100890001C15D8B49ED302011CA906D0000E02017B
:1008A000236F060E0201226F0FC2D9FF10C2DAFFBA
:1008B0000201DECF1FF20201DECF20F20201DDCF06
:1008C00021F2030E02010F27000E02011023020184
:1008D0002151800A800F07E1000E0201205D03E133
:1008E000000E02011F5DD8B011D01FC21BF020C244
:1008F0001CF021C21DF0F1EC1EF01BC01FF21CC049
:1009000020F21DC021F2030E02011B13000E020192
:100910001A6F000E0201196F7F0E020121150201EC
:10092000201102011F11D8B4A2D0820E00019E6FC7
:10093000FF0E9F6F02011FC2A0F0020120C2A1F0B2
:10094000020121C2A2F0020122C2A3F0100E06D0C1
:100950000001D890A333A233A133A033E82EF8D7F7
:100960000001A05100019E250201196F000E000137
:100970009F2102011A6F02011907D8A01A0719C294
:1009800029F01AC22AF0000E2C6E030E2B6E04EC16
:100990001FF029C019F22AC01AF219C221F01AC296
:1009A00022F0000E246E0A0E236E97EC1BF021C07D
:1009B00019F222C01AF202011A51800AF36E800E57
:1009C000F35C000ED8B4195DD8B004D00201190749
:1009D000D8A01A07020119510008AEEC0CF07BC038
:1009E00011F27CC012F27DC013F211C26CF012C27F
:1009F0006DF013C26EF01FC26FF020C270F021C202
:100A000071F0C6EC14F06CC011F26DC012F26EC041
:100A100013F211C260F012C261F013C262F0000E54
:100A20000001636F800E0001646F3F0E0001656F6F
:100A300012EC1AF0D8B005D002011907D8A01A0795
:100A400016D011C260F012C261F013C262F0000E43
:100A50000001636F200E0001646F410E0001656F9D
:100A600012EC1AF0D8A003D00201194B1A2B020184
:100A70002351800AF36E800EF35C0D0ED8B4225D14
:100A8000D8B018D01FC285F020C286F021C287F0EE
:100A900002012251E9EC0EF07BC088F07CC089F0A5
:100AA0007DC08AF036EC10F085C01FF286C020F2BF
:100AB00087C021F202011A51800AF36E800EF35CA6
:100AC0000A0ED8B4195DD8B029D07F0E02012115C5
:100AD0000201201102011F11D8B46FD01FC282F091
:100AE00020C283F021C284F008EC14F082C09EF092
:100AF00083C09FF084C0A0F085C0A1F00001A15187
:100B00009E119F11A011D8A458D002011A51800A39
:100B1000800F020ED8B4195DD8A04FD011C260F07A
:100B200012C261F013C262F0700E0001636F890E91
:100B30000001646F400E0001656F12EC1AF0D8B02E
:100B400003D00201F70E02D00201F80E02011927AC
:100B5000FF0E02011A2302011951AEEC0CF07BC00A
:100B600011F27CC012F27DC013F21FC21BF020C232
:100B70001CF021C21DF011C21EF012C21FF013C2E0
:100B800020F092EC17F01BC003F21CC004F21DC051
:100B900005F21EC006F203C214F204C215F205C229
:100BA00016F206C217F2000E02011F6F000E0201BC
:100BB000206F000E0201216F34D01FC282F020C2CC
:100BC00083F021C284F008EC14F082C014F283C0D8
:100BD00015F284C016F285C017F21FC291F020C230
:100BE00092F021C293F014C223F015C224F016C271
:100BF00025F017C226F07AEC1DF023C094F024C033
:100C000095F025C096F01EEC1EF091C01FF292C028
:100C100020F293C021F2000E02011A6F000E0201B1
:100C2000196F010E0201246F020124510A0AD8B47F
:100C30001ED002012451040D010EF324F66E060E9F
:100C4000F420F76E0900F5500201145D0900F5501B
:100C5000020115590900F550020116590900F55015
:100C600002011759D8A003D00201242BDDD70201BD
:100C700024C29EF000019F6B9EBF9F07020122517C
:100C800000019E270201235100019F2302011951F7
:100C900000019E2702011A5100019F2300019E516D
:100CA00002011D5F00019F5102011E5B02012351E1
:100CB0002211D8B404D002011D07D8A01E07030ECC
:100CC00002011B1500019E6F000E02011C150001A0
:100CD0009F6F00019F519E11D8B404D002011D07DF
:100CE000D8A01E0702011BA52DD0030E02011B1563
:100CF00000019E6F000E02011C1500019F6F000194
:100D00009F519E11D8B40BD02D0E8DEC1FF007D043
:100D1000300E8DEC1FF002011D07D8A01E07020146
:100D20001E51800AF36E800EF35C010ED8B41D5D77
:100D3000D8A06CD0EDD7200E8DEC1FF002011D075E
:100D4000D8A01E0702011E51800AF36E800EF35CCC
:100D5000010ED8B41D5DD8B0EED7030E02011B15ED
:100D600000019E6F000E02011C1500019F6F000123
:100D70009F519E11D8B44AD02D0E8DEC1FF046D055
:100D800014C21BF015C21CF016C21DF017C21EF0D3
:100D900002012451040D010EF324F66E060EF42018
:100DA000F76E0900F5CF1FF00900F5CF20F009001C
:100DB000F5CF21F00A00F5CF22F0C2EC1CF01BC0E9
:100DC00007F21CC008F21DC009F21EC00AF207C2D9
:100DD00028F008C229F009C22AF00AC22BF00A0E34
:100DE0002C6E000E2D6E000E2E6E000E2F6E44EC3B
:100DF0001DF028C007F229C008F22AC009F22BC052
:100E00000AF202010751300F8DEC1FF00201240796
:100E100002012429D8B408D0B3D7300E8DEC1FF0CE
:100E200002011907D8A01A0702011A51800AF36EAD
:100E3000800EF35C010ED8B4195DD8B0EED7020174
:100E40002351800A800F090ED8B4225DD8A004D0A7
:100E5000080E0201246F02D022C224F202012451A2
:100E60000201225F000E020124BFFF0E0201235B7C
:100E700002012451D8B403D02E0E8DEC1FF00201D4
:100E80002451AEEC0CF07BC000F27CC001F27DC0BE
:100E900002F21FC26FF020C270F021C271F000C2D6
:100EA0006CF001C26DF002C26EF0C6EC14F06CC0C2
:100EB00082F06DC083F06EC084F008EC14F082C044
:100EC00014F283C015F284C016F285C017F26DD0FB
:100ED00014C21BF015C21CF016C21DF017C21EF082
:100EE00002012451040D010EF324F66E060EF420C7
:100EF000F76E0900F5CF1FF00900F5CF20F00900CB
:100F0000F5CF21F00A00F5CF22F0C2EC1CF01BC097
:100F10000BF21CC00CF21DC00DF21EC00EF20BC273
:100F200028F00CC229F00DC22AF00EC22BF00A0ED6
:100F30002C6E000E2D6E000E2E6E000E2F6E44ECE9
:100F40001DF028C00BF229C00CF22AC00DF22BC0F4
:100F50000EF202010B51300F8DEC1FF014C228F07D
:100F600015C229F016C22AF017C22BF00201245133
:100F7000040D010EF324F66E060EF420F76E090040
:100F8000F5CF2CF00900F5CF2DF00900F5CF2EF0AC
:100F90000A00F5CF2FF044EC1DF028C014F229C050
:100FA00015F22AC016F22BC017F202012407020123
:100FB0002429D8B408D08CD7300E8DEC1FF0020154
:100FC0002207D8A02307020123512211D8B49CD1B3
:100FD000F3D70FC2D9FF10C2DAFF0201DECF14F23D
:100FE0000201DDCF15F20201000E020115BFFF0E56
:100FF0000201166F0201176F020E02010F27000E89
:101000000201102302011751800A800F0BE1000E2C
:101010000201165D07E1000E0201155D03E1000EFD
:101020000201145DD8B012D0030E02011B1302019D
:10103000171F0201161F0201151F0201146D000E79
:101040000201152302011623020117230201235175
:101050002211D8A40AD0020117511411151116112A
:10106000D8A403D00201224B232B010E0201246FCE
:10107000020124510A0AD8B41ED002012451040DE1
:10108000010EF324F66E060EF420F76E0900F550FB
:101090000201145D0900F550020115590900F550CF
:1010A000020116590900F55002011759D8A003D0C2
:1010B0000201242BDDD7800E020124BF7F0E000128
:1010C0009E6F020122510201245D02012351800A18
:1010D00000019E59D8B003D022C224F21AD00201D6
:1010E0002351800A00019E6F020124510201225DFA
:1010F000800E020124BF7F0E00019E59D8B009D096
:10110000020124510201226F0201236B020122BF5E
:10111000230702011E511D11D8B413D0030E020182
:101120001B1500019E6F000E02011C1500019F6F30
:1011300000019F519E11D8B404D002011D07D8A010
:101140001E0702011CAD1FD002012351800A0001BD
:101150009E6F02011D510201225D02011E51800A93
:1011600000019E59D8B009D00201225102011D5F31
:101170000201235102011E5B06D0000E02011E6F08
:10118000000E02011D6F800E020124BF7F0E0001C0
:101190009E6F02011D510201245D02011E51800A51
:1011A00000019E59D8B00BD00201245102011D5FED
:1011B000000E020124BFFF0E02011E5B06D0000ECE
:1011C00002011E6F000E02011D6F02011BA520D03F
:1011D000030E02011B1500019E6F000E02011C157B
:1011E00000019F6F00019F519E11D8B403D02D0EB6
:1011F0008DEC1FF0020102011E511D11D8B47AD0EE
:10120000300E8DEC1FF002011D07D8A01E07F3D78A
:1012100002011E511D11D8B40CD0200E8DEC1FF010
:1012200002011D07D8A01E0702011E511D11D8A4DE
:10123000F4D7030E02011B1500019E6F000E020180
:101240001C1500019F6F00019F519E11D8B452D010
:101250002D0E8DEC1FF04ED0020122C29EF0020135
:1012600023C29FF00001D8909E379F370001D8908D
:101270009E379F37010E00019E25F66E060E9F21B8
:10128000F76E0900F5CF1FF00900F5CF20F0090037
:10129000F5CF21F00A00F5CF22F014C21BF015C2E1
:1012A0001CF016C21DF017C21EF0C2EC1CF01BC0D1
:1012B00028F01CC029F01DC02AF01EC02BF00A0E19
:1012C0002C6E000E2D6E000E2E6E000E2F6E44EC56
:1012D0001DF028C0A0F029C0A1F02AC0A2F02BC0A8
:1012E000A3F00001A051300F0201246F020124512C
:1012F0008DEC1FF002012207D8A02307020122294A
:10130000D8B42329D8A4A8D7000197C0F6FF0001BC
:1013100098C0F7FF0001974B982B08000201F5CF0A
:1013200024F20201246763EF03F012009E9C000E7A
:101330000C6E000E0B6E3C50D8B44AD176EC1FF008
:1013400001C00BF002C00CF017D1E40E056E000EC8
:10135000066ED8903834D96E3934DA6E0550D926F5
:101360000650DA220BC0DEFF0CC0DDFF000E026E5D
:10137000000E016EDAEC1EF00E0E45EC1FF026D1C9
:10138000E40E056E000E066ED8903834D96E3934EE
:10139000DA6E0550D9260650DA220BC0DEFF0CC0EB
:1013A000DDFF000E026E010E016EDAEC1EF00E0E75
:1013B00045EC1FF00BD1E40E056E000E066ED890C2
:1013C0003834D96E3934DA6E0550D9260650DA220F
:1013D0000BC0DEFF0CC0DDFF000E026E020E016EC0
:1013E000DAEC1EF00E0E45EC1FF0F0D0E40E056EA8
:1013F000000E066ED8903834D96E3934DA6E055046
:10140000D9260650DA220BC0DEFF0CC0DDFF000E2D
:10141000026E030E016EDAEC1EF00E0E45EC1FF0AC
:10142000D5D0E40E056E000E066ED8903834D96E15
:101430003934DA6E0550D9260650DA220BC0DEFFA9
:101440000CC0DDFF000E026E040E016EDAEC1EF021
:101450000E0E45EC1FF0BAD0E40E056E000E066EBF
:10146000D8903834D96E3934DA6E0550D926065002
:10147000DA220BC0DEFF0CC0DDFF000E026E050E8F
:10148000016EDAEC1EF00E0E45EC1FF09FD0E40E5C
:10149000056E000E066ED8903834D96E3934DA6E87
:1014A0000550D9260650DA220BC0DEFF0CC0DDFF46
:1014B000000E026E060E016EDAEC1EF00E0E45EC0A
:1014C0001FF084D0E40E056E000E066ED8903834FE
:1014D000D96E3934DA6E0550D9260650DA220BC09F
:1014E000DEFF0CC0DDFF000E026E070E016EDAECAF
:1014F0001EF00E0E45EC1FF069D0E40E056E000ED6
:10150000066ED8903834D96E3934DA6E0550D92643
:101510000650DA220BC0DEFF0CC0DDFF000E026EAB
:10152000000E016EDAEC1EF0140E45EC1FF04ED0EA
:10153000E40E056E000E066ED8903834D96E39343C
:10154000DA6E0550D9260650DA220BC0DEFF0CC039
:10155000DDFF000E026E010E016EDAEC1EF0140EBD
:1015600045EC1FF033D0000E3C6E000E0001DF6F23
:10157000010E0001DE6F2AD038C005F039C006F038
:101580000650000AD8A422D00550000AD8B4DDD6EF
:10159000010AD8B4F5D6030AD8B40DD7010AD8B4D5
:1015A00025D7070AD8B43DD7010AD8B455D7030ABE
:1015B000D8B46DD7010AD8B485D70F0AD8B49DD74F
:1015C000010AD8B4B5D7030AD8B4CDD7384A392AD6
:1015D0003D50D8B4120076EC1FF001C00BF002C0F1
:1015E0000CF08FD10BC005F00CC006F0000E06BE4B
:1015F000FF0E076E086EB60E096E000E0A6ED890CA
:101600003834D96E3934DA6ED890D936DA36095092
:10161000D9260A50DA2205C0DEFF06C0DEFF07C069
:10162000DEFF08C0DDFFD906D906010E45EC1FF02C
:1016300092D10BC005F00CC006F0000E06BEFF0EE6
:10164000076E086EB60E096E000E0A6ED89038341A
:10165000D96E3934DA6ED890D936DA360950D926AF
:101660000A50DA2205C0DEFF06C0DEFF07C0DEFF3B
:1016700008C0DDFFD906D906030E45EC1FF06BD17B
:101680000BC005F00CC006F0000E06BEFF0E076E84
:10169000086EB60E096E000E0A6ED8903834D96EF8
:1016A0003934DA6ED890D936DA360950D9260A504C
:1016B000DA2205C0DEFF06C0DEFF07C0DEFF08C07D
:1016C000DDFFD906D906040E45EC1FF044D10BC04E
:1016D00005F00CC006F0000E06BEFF0E076E086E89
:1016E000B60E096E000E0A6ED8903834D96E3934B1
:1016F000DA6ED890D936DA360950D9260A50DA226D
:1017000005C0DEFF06C0DEFF07C0DEFF08C0DDFF4C
:10171000D906D906050E45EC1FF01DD10BC005F00A
:101720000CC006F0000E06BEFF0E076E086EB60E69
:10173000096E000E0A6ED8903834D96E3934DA6EDC
:10174000D890D936DA360950D9260A50DA2205C09F
:10175000DEFF06C0DEFF07C0DEFF08C0DDFFD906E2
:10176000D906180E45EC1FF0F6D00BC005F00CC0E2
:1017700006F0000E06BEFF0E076E086EB60E096E6E
:10178000000E0A6ED8903834D96E3934DA6ED8909B
:10179000D936DA360950D9260A50DA2205C0DEFFDA
:1017A00006C0DEFF07C0DEFF08C0DDFFD906D90690
:1017B0001A0E45EC1FF0CFD00BC005F00CC006F0A0
:1017C000000E06BEFF0E076E086EB60E096E000E06
:1017D0000A6ED8903834D96E3934DA6ED890D9364A
:1017E000DA360950D9260A50DA2205C0DEFF06C0D3
:1017F000DEFF07C0DEFF08C0DDFFD906D9061B0EDD
:1018000045EC1FF0A8D00BC005F00CC006F0000E90
:1018100006BEFF0E076E086EB60E096E000E0A6E4B
:10182000D8903834D96E3934DA6ED890D936DA3661
:101830000950D9260A50DA2205C0DEFF06C0DEFFB5
:1018400007C0DEFF08C0DDFFD906D906080E45EC4B
:101850001FF081D00BC005F00CC006F0000E06BED4
:10186000FF0E076E086EB60E096E000E0A6ED89057
:101870003834D96E3934DA6ED890D936DA36095020
:10188000D9260A50DA2205C0DEFF06C0DEFF07C0F7
:10189000DEFF08C0DDFFD906D9060B0E45EC1FF0B0
:1018A0005AD00BC005F00CC006F0000E06BEFF0EAD
:1018B000076E086EB60E096E000E0A6ED8903834A8
:1018C000D96E3934DA6ED890D936DA360950D9263D
:1018D0000A50DA2205C0DEFF06C0DEFF07C0DEFFC9
:1018E00008C0DDFFD906D9060D0E45EC1FF033D038
:1018F000000E3D6E000E0001E16F010E0001E06F71
:101900002AD038C005F039C006F00650000AD8A425
:1019100022D00550000AD8B465D6010AD8B489D6B9
:10192000030AD8B4ADD6010AD8B4D1D6070AD8B4C0
:10193000F5D6010AD8B419D7030AD8B43DD7010A9D
:10194000D8B461D70F0AD8B485D7010AD8B4A9D7BB
:10195000030AD8B4CDD7384A392A12000001816F62
:10196000000181AF1CD10001816D00018151800A0D
:10197000120FD8A09DD0000E2C6E030E2B6E000E01
:10198000246E0A0E236E000E1E6E640E1D6E000184
:1019900081511B6E1C6A1BBE1C0632EC1CF01BC066
:1019A00021F01CC022F097EC1BF0090E2124296EB7
:1019B000000E22202A6E04EC1FF0290E2924F66E58
:1019C000060E2A20F76E09000001F5CF6FF009001E
:1019D0000001F5CF70F00A000001F5CF71F0000EA4
:1019E000246E640E236E00018151216E226A21BE95
:1019F000220697EC1BF0120E2124296E000E2220E5
:101A00002A6E000E2C6E030E2B6E04EC1FF0290EB6
:101A10002924F66E060E2A20F76E09000001F5CF84
:101A20006CF009000001F5CF6DF00A000001F5CF60
:101A30006EF0C6EC14F06CC07EF06DC07FF06EC02E
:101A400080F07EC06CF07FC06DF080C06EF0000E44
:101A50002C6E030E2B6E000E1E6E0A0E1D6E000104
:101A600081511B6E1C6A1BBE1C0632EC1CF01BC095
:101A700029F01CC02AF004EC1FF0290E2924F66E70
:101A8000060E2A20F76E09000001F5CF6FF009005D
:101A90000001F5CF70F00A000001F5CF71F0C6EC3F
:101AA00014F06CC07BF06DC07CF06EC07DF0120055
:101AB00000018151800A750FD8A05BD0000E246E02
:101AC0000A0E236E00018151216E226A21BE220678
:101AD00097EC1BF0090E2124296E000E22202A6E9D
:101AE000000E2C6E030E2B6E04EC1FF0290E292421
:101AF000F66E060E2A20F76E09000001F5CF6CF095
:101B000009000001F5CF6DF00A000001F5CF6EF07D
:101B1000000E2C6E030E2B6E000E1E6E0A0E1D6E36
:101B2000000181511B6E1C6A1BBE1C0632EC1CF0AE
:101B30001BC029F01CC02AF004EC1FF0290E292438
:101B4000F66E060E2A20F76E09000001F5CF6FF041
:101B500009000001F5CF70F00A000001F5CF71F027
:101B6000C6EC14F06CC07BF06DC07CF06EC07DF0F4
:101B7000120000018151030D290EF324F66E060EAA
:101B8000F420F76E09000001F5CF7BF00900000199
:101B9000F5CF7CF00A000001F5CF7DF012000001C6
:101BA0008151800A120FD8A09DD0000E2C6E030E1A
:101BB0002B6E000E246E0A0E236E000E1E6E640E37
:101BC0001D6E000181511B6E1C6A1BBE1C0632EC8F
:101BD0001CF01BC021F01CC022F097EC1BF0090E7A
:101BE0002124296E000E22202A6E04EC1FF0500ED4
:101BF0002924F66E060E2A20F76E09000001F5CFA3
:101C00006FF009000001F5CF70F00A000001F5CF78
:101C100071F0000E246E640E236E00018151216E5E
:101C2000226A21BE220697EC1BF0120E2124296E97
:101C3000000E22202A6E000E2C6E030E2B6E04EC7A
:101C40001FF0500E2924F66E060E2A20F76E0900AA
:101C50000001F5CF6CF009000001F5CF6DF00A002E
:101C60000001F5CF6EF0C6EC14F06CC07EF06DC0D4
:101C70007FF06EC080F07EC06CF07FC06DF080C0E1
:101C80006EF0000E2C6E030E2B6E000E1E6E0A0EF2
:101C90001D6E000181511B6E1C6A1BBE1C0632ECBE
:101CA0001CF01BC029F01CC02AF004EC1FF0500EE1
:101CB0002924F66E060E2A20F76E09000001F5CFE2
:101CC0006FF009000001F5CF70F00A000001F5CFB8
:101CD00071F0C6EC14F06CC07BF06DC07CF06EC08F
:101CE0007DF0120000018151800A750FD8A05BD0F1
:101CF000000E246E0A0E236E00018151216E226AAD
:101D000021BE220697EC1BF0090E2124296E000E3D
:101D100022202A6E000E2C6E030E2B6E04EC1FF098
:101D2000500E2924F66E060E2A20F76E09000001D7
:101D3000F5CF6CF009000001F5CF6DF00A0000014D
:101D4000F5CF6EF0000E2C6E030E2B6E000E1E6E85
:101D50000A0E1D6E000181511B6E1C6A1BBE1C0603
:101D600032EC1CF01BC029F01CC02AF004EC1FF060
:101D7000500E2924F66E060E2A20F76E0900000187
:101D8000F5CF6FF009000001F5CF70F00A000001F7
:101D9000F5CF71F0C6EC14F06CC07BF06DC07CF038
:101DA0006EC07DF0120000018151030D500EF3242E
:101DB000F66E060EF420F76E09000001F5CF7BF0F9
:101DC00009000001F5CF7CF00A000001F5CF7DF09D
:101DD00012000001846F6D0E00018465AED0000E0C
:101DE0002C6E030E2B6E000E246E0A0E236E000E58
:101DF0001E6E640E1D6E000184C01BF01C6A32EC66
:101E00001CF01BC021F01CC022F097EC1BF0090E47
:101E10002124296E000E22202A6E04EC1FF0290EC8
:101E20002924F66E060E2A20F76E09000001F5CF70
:101E30006FF009000001F5CF70F00A000001F5CF46
:101E400071F0000E246E640E236E000184C021F038
:101E5000226A97EC1BF0120E2124296E000E22201C
:101E60002A6E000E2C6E030E2B6E04EC1FF0290E52
:101E70002924F66E060E2A20F76E09000001F5CF20
:101E80006CF009000001F5CF6DF00A000001F5CFFC
:101E90006EF0C6EC14F06CC081F06DC082F06EC0C4
:101EA00083F0000E2C6E030E2B6E000E1E6E0A0EBB
:101EB0001D6E000184C01BF01C6A32EC1CF01BC0BC
:101EC00029F01CC02AF004EC1FF0290E2924F66E1C
:101ED000060E2A20F76E09000001F5CF6FF0090009
:101EE0000001F5CF70F00A000001F5CF71F081C05C
:101EF0006CF082C06DF083C06EF0C6EC14F06CC064
:101F00007EF06DC07FF06EC080F07EC06CF07FC050
:101F10006DF080C06EF0000E00016F6F000E0001CA
:101F2000706F3F0E0001716FC6EC14F06CC07BF057
:101F30006DC07CF06EC07DF012000A0E0001846559
:101F40006ED0000E2C6E030E2B6E000E1E6E0A0E4F
:101F50001D6E000184C01BF01C6A32EC1CF01BC01B
:101F600029F01CC02AF004EC1FF0290E2924F66E7B
:101F7000060E2A20F76E09000001F5CF6FF0090068
:101F80000001F5CF70F00A000001F5CF71F0000EEE
:101F9000246E0A0E236E000184C021F0226A97ECA1
:101FA0001BF0090E2124296E000E22202A6E000E3D
:101FB0002C6E030E2B6E04EC1FF0290E2924F66EF6
:101FC000060E2A20F76E09000001F5CF6CF009001B
:101FD0000001F5CF6DF00A000001F5CF6EF0C6EC00
:101FE00014F06CC081F06DC082F06EC083F081C0CF
:101FF0006CF082C06DF083C06EF0000E00016F6F58
:10200000000E0001706F3F0E0001716FC6EC14F0FE
:102010006CC07BF06DC07CF06EC07DF012000001E2
:102020008451030D290EF324F66E060EF420F76E8C
:1020300009000001F5CF6CF009000001F5CF6DF04B
:102040000A000001F5CF6EF0000E00016F6F000E68
:102050000001706F3F0E0001716FC6EC14F06CC090
:102060007BF06DC07CF06EC07DF01200000187C077
:102070008BF000018C6B8D6B0001863500018B3776
:1020800001E38C8100018B510001906F00018AC037
:102090008BF000018C6B8D6B0001893500018B3753
:1020A00001E38C8100018B5100018F6F0001905181
:1020B000D8B412D000018F510001905DD8B013D078
:1020C00000019051000800018F2500018B6F190E4F
:1020D00000018B5DD8A007D088C085F089C086F04C
:1020E0008AC087F0120000018F51D8B412D00001CD
:1020F000905100018F5DD8B013D000018F510008BE
:102100000001902500018B6F190E00018B5DD8A096
:1021100007D085C085F086C086F087C087F01200A2
:10212000060E00018E6F000187AF02D000018E8F76
:1021300000018AAF02D000018E8D0001868FFF0E54
:1021400000018517FF0E00018617000E000187179A
:102150000001898FFF0E00018817FF0E000189170B
:10216000000E00018A1700018F510001905DD8B068
:102170002AD00001D890000188370001893700017A
:102180008A3700018F0700018F5100019019D8B4E0
:1021900014D000018E078EC08BF0070E00018B1744
:1021A000D8B40BD0E6D70001D890000187330001E6
:1021B0008633000185330001902B00018F5100010F
:1021C0009063F1D72FD00001905100018F5DD8B0FE
:1021D00029D00001D8900001853700018637000121
:1021E00087370001900700018F5100019019D8B482
:1021F00014D000018E078EC08BF0070E00018B17E4
:10220000D8B40BD0E6D70001D89000018A33000182
:1022100089330001883300018F2B00018F510001A9
:102220009063F1D700018EAF12D0FF0E0001851B25
:10223000FF0E0001861BFF0E0001871B010E00012F
:102240008527000E00018623000E00018723000170
:102250008EAD12D0FF0E0001881BFF0E0001891BFE
:10226000FF0E00018A1B010E00018827000E0001ED
:102270008923000E00018A23000E00018E6F0001E9
:102280008551000188270001865100018923000142
:10229000875100018A2300018AAF15D0FF0E00018B
:1022A000881BFF0E0001891BFF0E00018A1B010E17
:1022B00000018827000E00018923000E00018A23F7
:1022C000010E00018E6F88C01BF089C01CF08AC00F
:1022D0001DF090C01EF08EC01FF043EC1BF01BC021
:1022E00085F01CC086F01DC087F01200000E0001B2
:1022F000A96F000E0001A86F0001A951800A800F8C
:102300000A0ED8B4A85DD8B0F8D0E40E0001A26FD0
:10231000000EA36FD8900001A835D96E0001A93531
:10232000DA6E0001A251D9260001A351DA22DECFD4
:1023300023F0DDCF24F0030E226E216897EC1BF012
:10234000FF0E21240001A46FFF0E22200001A56FC3
:10235000A4C023F0A5C024F0270E226E100E216E1B
:1023600097EC1BF021C0A6F022C0A7F0270E246E28
:10237000100E236EA6C021F0A7C022F097EC1BF030
:1023800021C029F022C02AF0FAEC1DF029C0AAF0E1
:102390002AC0ABF02BC0ACF0AAC09DF0ABC09EF041
:1023A000ACC09FF081EC15F09DC0AAF09EC0ABF0D0
:1023B0009FC0ACF0AAC060F0ABC061F0ACC062F0EE
:1023C000E00E0001636F760E0001646F450E0001A0
:1023D000656FECEC16F060C0AAF061C0ABF062C0B3
:1023E000ACF0AAC085F0ABC086F0ACC087F0CF0ED1
:1023F0000001886F5B0E0001896F3B0E00018A6F40
:1024000036EC10F085C0AAF086C0ABF087C0ACF007
:10241000000E0001606F800E0001616F3F0E000131
:10242000626FAAC063F0ABC064F0ACC065F0ECECC6
:1024300016F060C0AAF061C0ABF062C0ACF0AAC0F8
:1024400091F0ABC092F0ACC093F0930E0001946F8A
:10245000880E0001956F430E0001966F1EEC1EF072
:1024600091C0AAF092C0ABF093C0ACF0660E000130
:102470006F6FE60E0001706F3F0E0001716FAAC012
:102480006CF0ABC06DF0ACC06EF0C6EC14F06CC07C
:1024900085F06DC086F06EC087F0000E0001886F79
:1024A000000E0001896F420E00018A6F36EC10F0B9
:1024B00085C0AAF086C0ABF087C0ACF0A8C029F0F8
:1024C000A9C02AF0000E2C6E030E2B6E04EC1FF038
:1024D0000101C80E2924D96E0101010E2A20DA6EED
:1024E0000001AAC0DEFF0001ABC0DEFF0001ACC0EE
:1024F000DDFF0001A84BA92BFFD680EC12F01200E3
:10250000000E0001926F000E0001916F00019251C8
:10251000800A800F0A0ED8B4915DD8B077D091C0F0
:1025200029F092C02AF0000E2C6E030E2B6E04ECE4
:102530001FF001018C0E2924D96E0101010E2A2001
:10254000DA6E480E00016F6F610E0001706F3F0E72
:102550000001716F91C029F092C02AF0000E2C6E1C
:10256000030E2B6E04EC1FF00101C80E2924E16E4E
:102570000101010E2A20E26E0001E6CF6CF000019D
:10258000E6CF6DF00001E5CF6EF0C6EC14F06CC044
:1025900085F06DC086F06EC087F0C30E00016F6FCE
:1025A000F50E0001706F3D0E0001716F000E2C6E74
:1025B000030E2B6E91C029F092C02AF004EC1FF09C
:1025C00001016E0E2924E16E0101010E2A20E26E46
:1025D0000001E6CF6CF00001E6CF6DF00001E5CF21
:1025E0006EF0C6EC14F06CC088F06DC089F06EC05F
:1025F0008AF036EC10F085C0DEFF86C0DEFF87C0B3
:10260000DDFFDD520001914B922B80D7000E0001BF
:10261000926F000E0001916F00019251800A800FAD
:102620000A0ED8B4915DD8B0120091C029F092C0C2
:102630002AF0000E2C6E030E2B6E04EC1FF001012D
:102640008C0E2924D96E0101010E2A20DA6E91C068
:1026500029F092C02AF0000E2C6E030E2B6E04ECB3
:102660001FF001016E0E2924E16E0101010E2A20E6
:10267000E26EDECFE6FFDECFE6FFDECFE5FFE5521E
:102680000001914B922BC8D7000E0001926F000EF3
:102690000001916F00019251800A800F090ED8B499
:1026A000915DD8B077D091C029F092C02AF0000E89
:1026B0002C6E030E2B6E04EC1FF00101320E292448
:1026C000D96E0101010E2A20DA6E480E00016F6FEB
:1026D000610E0001706F3F0E0001716F91C029F013
:1026E00092C02AF0000E2C6E030E2B6E04EC1FF02D
:1026F0000101AA0E2924E16E0101010E2A20E26ED9
:102700000001E6CF6CF00001E6CF6DF00001E5CFEF
:102710006EF0C6EC14F06CC085F06DC086F06EC033
:1027200087F0C30E00016F6FF50E0001706F3D0E54
:102730000001716F000E2C6E030E2B6E91C029F0FC
:1027400092C02AF004EC1FF00101500E2924E16E22
:102750000101010E2A20E26E0001E6CF6CF00001BB
:10276000E6CF6DF00001E5CF6EF0C6EC14F06CC062
:1027700088F06DC089F06EC08AF036EC10F085C02C
:10278000DEFF86C0DEFF87C0DDFFDD520001914B1A
:10279000922B80D7000E0001926F000E0001916F06
:1027A00000019251800A800F090ED8B4915DD8B013
:1027B000120091C029F092C02AF0000E2C6E030E78
:1027C0002B6E04EC1FF00101320E2924D96E010199
:1027D000010E2A20DA6E91C029F092C02AF0000E74
:1027E0002C6E030E2B6E04EC1FF00101500E2924F9
:1027F000E16E0101010E2A20E26EDECFE6FFDECFA0
:10280000E6FFDECFE5FFE5520001914B922BC8D7E2
:10281000000184C086F00001876B886B000183355E
:102820000001863701E38781000186510001906F26
:10283000000190670DD0000E0001826F000E0001B4
:10284000836F000E0001846F000E0001856F12007F
:10285000170E0001866F000182C087F0000183C05F
:1028600088F0000184C089F00001862900018A6F88
:1028700005D00001D89089338833873300018A2F2F
:10288000F8D70001875100018B6F0001838FFF0E85
:1028900000018217FF0E00018317000E000184174C
:1028A0000001825100018C6F0001835100018D6F86
:1028B0000001845100018E6F00018F6B8E0E0001AC
:1028C000905F000190AF26D000019051800A000176
:1028D000866FF10E800A0001865DD8B00DD0000E23
:1028E0000001826F000E0001836F000E0001846FF3
:1028F000000E0001856F12000001D89000018F3397
:1029000000018E3300018D3300018C330001903FB4
:10291000F3D720D0170E0001906519D0000E0001EA
:10292000826F000E0001836F000E0001846F000EA5
:102930000001856F12000001D89000018C37000162
:102940008D3700018E3700018F370001900700019D
:102950009067F1D700018B51D8B40FD000018F1FC1
:1029600000018E1F00018D1F00018C6D000E000103
:102970008D2300018E2300018F238CC082F08DC037
:1029800083F08EC084F08FC085F0120000016EC00D
:1029900072F00001736B746B00016D3500017237CA
:1029A00001E37381000172510001756F00017567C9
:1029B0000AD0000E00016C6F000E00016D6F000E5A
:1029C00000016E6F1200000171C072F00001736BA4
:1029D000746B000170350001723701E373810001EF
:1029E000725100017A6F00017A670AD0000E00016F
:1029F0006C6F000E00016D6F000E00016E6F120013
:102A000000017A517B0F000175276EC07AF000013A
:102A1000715100017A1B800E00017A1700016D8F41
:102A20000001708FFF0E00016F17FF0E000170177D
:102A3000000E00017117000E0001766F000E0001FC
:102A4000776F000E0001786F070E0001796F0001AB
:102A50006CA10CD000016F5100017627000170516C
:102A60000001772300017151000178230001D89003
:102A700000016E3300016D3300016C330001D8900A
:102A800000016F3700017037000171370001792FA5
:102A9000DED7090E0001796F00016CA10CD0000196
:102AA0006F5100017627000170510001772300016A
:102AB0007151000178230001D89000016E330001AC
:102AC0006D3300016C330001D890000178330001B0
:102AD0007733000176330001792FDED776C01BF003
:102AE00077C01CF078C01DF075C01EF07AC01FF0D2
:102AF00043EC1BF01BC06CF01CC06DF01DC06EF0F1
:102B0000120000019F51800A800F07E1000E0001B2
:102B10009E5D03E1000E00019D5DD8B010D0000E57
:102B20000001E36F210E0001E26F000E00019D6FB6
:102B3000000E00019E6F000E00019F6F12007F0EBD
:102B400000019F1500019E1100019D11D8A410D015
:102B5000000E0001E36F220E0001E26F000E000183
:102B60009D6F000E00019E6F000E00019F6F12000E
:102B7000000E00016F6F000E0001706F400E00012B
:102B8000716F0001000E1F6E0001A00E1E6E9DC031
:102B90001BF09EC01CF09FC01DF0E9EC1BF01BC099
:102BA0006CF01CC06DF01DC06EF0C6EC14F06CC073
:102BB00085F06DC086F06EC087F0000E0001886F52
:102BC000800E0001896FBF0E00018A6F36EC10F095
:102BD00085C09DF086C09EF087C09FF00001A007D1
:102BE000D8A0A1079DC091F09EC092F09FC093F025
:102BF000060E0001956F770E0001946F000E000124
:102C0000976F080E0001966FACEC18F091C09DF024
:102C100092C09EF093C09FF0720E00016F6F310E54
:102C20000001706F3F0E0001716FA0C029F0A1C0BC
:102C30002AF0FAEC1DF029C06CF02AC06DF02BC010
:102C40006EF0C6EC14F06CC085F06DC086F06EC0FE
:102C500087F09DC088F09EC089F09FC08AF036EC56
:102C600010F085C09DF086C09EF087C09FF01200D6
:102C70001BC021F01CC022F01DC023F01EC024F098
:102C8000180E05D0D8902432233222322132E82E79
:102C9000F9D721502A6E2A6609D0000E1B6E000E4D
:102CA0001C6E000E1D6E000E1E6E12001EC021F066
:102CB0001FC022F020C023F021C024F0180E05D040
:102CC000D8902432233222322132E82EF9D72150F3
:102CD000296E296609D0000E1B6E000E1C6E000EB8
:102CE0001D6E000E1E6E12001D8EFF0E1B16FF0EB7
:102CF0001C16FF0E1D16000E1E16208EFF0E1E1631
:102D0000FF0E1F16FF0E2016000E2116000E256E58
:102D1000000E266E000E276E000E286E7F0E2A5EB5
:102D20002950A00F2A5E200E296ED890253626360F
:102D3000273628361E501B5C1F501C5820501D582B
:102D400021501E58D8A009D01E501B5E1F501C5A7F
:102D500020501D5A21501E5A2580D8901B361C36F3
:102D60001D361E36292EE1D72AAE19D02A50800AE8
:102D7000216EE10E800A215CD8B009D0000E1B6ED6
:102D8000000E1C6E000E1D6E000E1E6E1200D890FE
:102D900028322732263225322A3EF9D714D01F0E88
:102DA0002A640FD0000E1B6E000E1C6E000E1D6EEE
:102DB000000E1E6E1200D89025362636273628368D
:102DC0002A062A66F8D725C01BF026C01CF027C0AB
:102DD0001DF028C01EF01200000162C02DF02E6A06
:102DE0002F6A000161352D3601E32E802D50000140
:102DF0006A6F00016A670AD0000E0001606F000E62
:102E00000001616F000E0001626F1200000165C0D9
:102E10002DF02E6A2F6A000164352D3601E32E80D5
:102E20002D5000016B6F00016B670AD0000E00018E
:102E3000606F000E0001616F000E0001626F1200F2
:102E4000000E0001676F000E0001686F000E0001A8
:102E5000696F00016B51890F00016A5F62C06BF0FE
:102E60000001655100016B1B800E00016B17000112
:102E7000618FFF0E00016017FF0E00016117000E49
:102E8000000162170001648FFF0E00016317FF0E3F
:102E900000016417000E00016517180E0001666F2F
:102EA0000001D890000167370001683700016937D9
:102EB000000163510001605D00016451000161592E
:102EC0000001655100016259D8A00ED00001635184
:102ED0000001605F000164510001615B0001655108
:102EE0000001625B000167810001D890000160373A
:102EF00000016137000162370001662FD1D767C03A
:102F00001BF068C01CF069C01DF06AC01EF06BC0E9
:102F10001FF043EC1BF01BC060F01CC061F01DC033
:102F200062F012001DC021F0226A236A1C3421368F
:102F300001E322802150296E296609D0000E1B6E04
:102F4000000E1C6E000E1D6E000E1E6E120020C0C4
:102F500021F0226A236A1F34213601E322802150A6
:102F6000286E286609D0000E1B6E000E1C6E000E27
:102F70001D6E000E1E6E12001C8EFF0E1B16FF0E25
:102F80001C16000E1D161F8EFF0E1E16FF0E1F169E
:102F9000000E2016000E246E000E256E000E266E0A
:102FA000000E276E7F0E295E2850980F295E180E9E
:102FB000286ED89024362536263627361E501B5CC0
:102FC0001F501C5820501D58D8A007D01E501B5E03
:102FD0001F501C5A20501D5A2480D8901B361C3676
:102FE0001D36282EE6D729AE19D02950800A216E29
:102FF000E90E800A215CD8B009D0000E1B6E000ECD
:103000001C6E000E1D6E000E1E6E1200D890273230
:10301000263225322432293EF9D714D0170E2964DE
:103020000FD0000E1B6E000E1C6E000E1D6E000EEB
:103030001E6E1200D89024362536263627362906ED
:103040002966F8D724C01BF025C01CF026C01DF04F
:1030500027C01EF01200000E0001966F000E000146
:10306000956F00019651800A800F090ED8B4955DC6
:10307000D8B06FD095C029F096C02AF0000E2C6E03
:10308000030E2B6E04EC1FF00101AA0E2924D96E49
:103090000101010E2A20DA6E000E00016F6FA00EF2
:1030A0000001706F400E0001716F000E0001636F30
:1030B000800E0001646F440E0001656FB60E0001C2
:1030C000936F000E946FD89000019535E16E00016A
:1030D0009635E26ED890E136E23600019351E12652
:1030E00000019451E222E6CF23F0E6CF24F0E6CFB0
:1030F00025F0E6CF26F07AEC1CF023C060F024C067
:1031000061F025C062F0ECEC16F060C06CF061C0BC
:103110006DF062C06EF0C6EC14F06CC085F06DC04E
:1031200086F06EC087F0CD0E0001886F4C0E000156
:10313000896F3D0E00018A6F36EC10F085C0DEFF0E
:1031400086C0DEFF87C0DDFFDD520001954B962B68
:1031500088D744EC13F0120096C029F097C02AF0EB
:10316000000E2C6E030E2B6E04EC1FF0000194C0B9
:1031700098F0000195C099F02950000198272A5035
:103180000001992398C0F6FF99C0F7FF09000001DC
:10319000F5CF9AF009000001F5CF9BF00A0000017D
:1031A000F5CF9CF046D09AC06FF09BC070F09CC0E9
:1031B00071F091C06CF092C06DF093C06EF0C6ECEF
:1031C00014F06CC085F06DC086F06EC087F0000E04
:1031D0002C6E030E2B6E00019607D8A0970796C0A1
:1031E00029F097C02AF004EC1FF0000194C098F079
:1031F000000195C099F02950000198272A5000013C
:10320000992398C0F6FF99C0F7FF09000001F5CF98
:1032100088F009000001F5CF89F00A000001F5CF20
:103220008AF036EC10F085C09AF086C09BF087C01B
:103230009CF0000197519611D8A4B5D79AC091F08F
:103240009BC092F09CC093F0120050D01E501D10F5
:10325000D8B402D08B8A12008B9A12001E501D1017
:10326000D8B402D08B8812008B9812001E501D100B
:10327000D8B402D08C8612008C9612001E501D10FD
:10328000D8B402D08C8412008C9412001E501D10F1
:10329000D8B402D08C8212008C9212001E501D10E5
:1032A000D8B402D08C8A12008C9A12001E501D10C5
:1032B000D8B402D08A8012008A9012001E501D10CD
:1032C000D8B402D08A8212008A9212001E501D10B9
:1032D000D8B402D08A8612008A9612001E501D10A1
:1032E000D8B402D089801200899012001BC01FF050
:1032F0001CC020F02050000AD8A412001F50000A61
:10330000D8B4A4D7010AD8B4A9D7030AD8B4AED781
:10331000010AD8B4B3D7070AD8B4B8D7010AD8B4C9
:10332000BDD7030AD8B4C2D7010AD8B4C7D70F0A89
:10333000D8B4CCD7010AD8A41200D0D7000E00010F
:103340006A6F000E0001696F000E00016F6F000EC2
:1033500000016E6F000E00016B6F000E00016C6FBC
:10336000000E00016D6F000E00016F6F000E000176
:103370006E6F00016F51800A800F090ED8B46E5D28
:10338000D8B012006EC060F06FC061F077EC1EF034
:1033900060C06BF061C06CF062C06DF06BC060F03B
:1033A0006CC061F06DC062F0C30E0001636F850EEA
:1033B0000001646F400E0001656F12EC1AF0D8A096
:1033C00010D06EC01BF06FC01CF0000E1E6E010E00
:1033D0001D6E25EC19F0000E00016A6F010E000150
:1033E000696FCD0E0001606F840E0001616F400EA9
:1033F0000001626F6BC063F06CC064F06DC065F07B
:1034000012EC1AF0D8A00AD06EC01BF06FC01CF0EE
:10341000000E1E6E000E1D6E25EC19F000016E4BA5
:103420006F2BA7D7000162AF20D0000160C066F00B
:10343000000161C067F0000162C068F00001661F12
:10344000671F681F662B000E67236823000E0001AC
:1034500066250001606F000E000167210001616FA9
:10346000800E000168210001626F000165AF20D06D
:10347000000163C066F0000164C067F0000165C030
:1034800068F00001661F671F681F662B000E672328
:103490006823000E000166250001636F000E000125
:1034A00067210001646F800E000168210001656FD3
:1034B000000E0001601B000E0001611B800E000168
:1034C000621B000E0001631B000E0001641B800ED6
:1034D0000001651B000163510001605D0001645142
:1034E000000161590001655100016259D8B002D054
:1034F000D8901200D8801200000E0001696F000EF3
:1035000000016B6F000E00016A6F00016B51800AB1
:10351000800F090ED8B46A5DD8B01200000E000109
:10352000606F400E0001616F400E0001626F6AC063
:1035300029F06BC02AF0000E2C6E030E2B6E04ECEB
:103540001FF00101320E2924D96E0101010E2A203B
:10355000DA6E0001DECF63F00001DECF64F000011F
:10356000DDCF65F012EC1AF0D8B02BD06AC029F08C
:103570006BC02AF0000E2C6E030E2B6E04EC1FF0B5
:103580000101320E2924D96E0101010E2A20DA6EC2
:103590000001DECF60F00001DECF61F00001DDCF81
:1035A00062F0B80E0001636F860E0001646F400E7A
:1035B0000001656F12EC1AF0D8B003D0010E0001C3
:1035C000696F00016A4B6B2BA0D738EC1FF0F28EAD
:1035D000F28C060E0001986FA90E0001976F59EC4E
:1035E00003F00001DF51DE11D8B417D076EC11F0F2
:1035F00003EC1DF0000E0001B36F000E0001B26F6E
:103600000001B351800A800F090ED8B4B25DD8B062
:1036100004D00001B24BB32BF3D70001E151E0110C
:10362000D8B4DFD72BEC18F07CEC1AF09EEC19F034
:10363000000E0001B56F000E0001B46F0001B5511E
:10364000800A800F090ED8B4B45DD8B0CAD7060E70
:103650000001986F920E0001976FB4C099F0B5C049
:103660009AF0B4C060F0B5C061F077EC1EF060C0B5
:103670009BF061C09CF062C09DF059EC03F000012A
:10368000B44BB52BDBD71E50D8B405D01B501C1043
:103690001D10D8A40CD0000E1B6E000E1C6E000E68
:1036A0001D6E12001E2AD8901D321C321B32000ED5
:1036B0001B14206E000E1C14216EFE0E1D14226EB3
:1036C000205021102210D8B40CD0ECD71E2A010EA5
:1036D0001B26000E1C22000E1D22D8901D321C320B
:1036E0001B32000E1B14206E000E1C14216EFF0EE8
:1036F0001D14226E205021102210D8B406D0E6D717
:103700001E06D8901B361C361D361CAEF9D71EA0DF
:103710001C9ED8901E321E501D121F50D8A41D8E04
:103720001BC01BF01CC01CF01DC01DF01200000EC1
:10373000266E2450800AF36E800EF35C000ED8B41F
:10374000235CD8B006D0236C241ED8B0242A010EE6
:10375000266E2250800AF36E800EF35C000ED8B401
:10376000215CD8B006D0216C221ED8B0222A010ECE
:10377000261A000E286E000E276E24502310D8B48F
:103780001CD0010E256E04D0D89023362436252A6D
:1037900024AEFAD7D890273628362350215C2450FF
:1037A0002258D8A005D02350215E2450225A2780C9
:1037B000D89024322332252EEDD72650D8B404D009
:1037C000276C281ED8B0282A27C021F028C022F054
:1037D00012007F0E1D141C101B10D8A40FD01EC089
:1037E000D9FF1FC0DAFF000EDE6E000EDD6E000E88
:1037F0001B6E000E1C6E000E1D6E12001D507F0B06
:10380000206E216AD890203621361EC0D9FF1FC0F5
:10381000DAFF20C0DEFF21C0DDFF1CAE03D0206A2E
:10382000202A01D0206A20501EC0D9FF1FC0DAFF15
:10383000DE12000EDD121EC0D9FF1FC0DAFF820E9D
:10384000DE26FF0EDD221D801D821D841D861D8843
:103850001D8A1D9C1C9E1BC01BF01CC01CF01DC0A3
:103860001DF01200000E206E1C50800AF36E800EB8
:10387000F35C000ED8B41B5CD8B006D01B6C1C1EC9
:10388000D8B01C2A010E206E1E50800AF36E800EE6
:10389000F35C000ED8B41D5CD8B004D01D6C1E1EA5
:1038A000D8B01E2A1E501D10D8B418D0010E1F6E9D
:1038B00004D0D8901D361E361F2A1EAEFAD71D50D2
:1038C0001B5C1E501C58D8A004D01D501B5E1E50FF
:1038D0001C5AD8901E321D321F2EF1D72050D8B45A
:1038E00004D01B6C1C1ED8B01C2A1BC01BF01CC0B3
:1038F0001CF01200000E2C6E8E0E2B6E2650800ACD
:10390000800F08E1000E255C05E1000E245C02E159
:10391000000E235CD8B011D0261E251E241E236C59
:10392000000E242225222622010E2C6E06D0D890CD
:1039300026322532243223322B2A000E2314276EFE
:10394000000E2414286E000E2514296EFF0E261476
:103950002A6E2A50271028102910D8A4E8D723C08F
:103960001BF024C01CF025C01DF02BC01EF02CC085
:103970001FF043EC1BF01BC023F01CC024F01DC043
:1039800025F01200000E236E000E246E000E256E30
:10399000000E266E22501F1020102110D8B42AD0FD
:1039A000010E276E06D0D8901F36203621362236DB
:1039B000272A22AEF8D7D890233624362536263645
:1039C0001F501B5C20501C5821501D5822501E585F
:1039D000D8A009D01F501B5E20501C5A21501D5AE0
:1039E00022501E5A2380D8902232213220321F3298
:1039F000272EE1D723C01BF024C01CF025C01DF0EA
:103A000026C01EF01200000E0001696F000E0001BA
:103A10006B6F000E00016A6F00016B51800A800F0E
:103A2000090ED8B46A5DD8B012006AC029F06BC024
:103A30002AF0000E2C6E030E2B6E04EC1FF0010119
:103A40008C0E2924D96E0101010E2A20DA6E0001A4
:103A5000DECF60F00001DECF61F00001DDCF62F06B
:103A6000000E0001636F720E0001646F420E0001D0
:103A7000656F12EC1AF0D8B003D0010E0001696F27
:103A800000016A4B6B2BC8D72F502C102D102E1015
:103A9000D8B427D0010E0001606F07D0D8902C3623
:103AA0002D362E362F360001602B2FAEF7D72C5037
:103AB000285C2D5029582E502A582F502B58D8A00A
:103AC00008D02C50285E2D50295A2E502A5A2F509B
:103AD0002B5AD8902F322E322D322C320001602FEB
:103AE000E6D728C028F029C029F02AC02AF02BC028
:103AF0002BF012008E0E2B6E06D0D8902632253277
:103B0000243223322B2A000E2314276E000E241495
:103B1000286E000E2514296EFF0E26142A6E2A50D8
:103B2000271028102910D8A4E8D723C01BF024C0E0
:103B30001CF025C01DF02BC01EF0000E1F6E43ECC4
:103B40001BF01BC023F01CC024F01DC025F0120088
:103B50009E9044C003F003C004F0056A0450CF6E89
:103B600043C0CEFF20EE3AF0DE2A000EDD22DE5208
:103B7000DD50800A800F040ED8B4DF5CD8A005D0D9
:103B80008978000E3B6E000E3A6E3A50020A3B10E6
:103B9000D8B46AEC1FF03A50030A3B10D8A41200C4
:103BA0005EEC1FF01200000E896EAE0E926E2E0EAD
:103BB0000F01386F000E8A6EF40E936E340E0F01F3
:103BC000396F000E616E080E8B6EC40E946E040E7B
:103BD0000F013A6F000E8C6ED10E956ED10E0F0153
:103BE0003B6F000E8D6E050E966E050E0F013C6F3D
:103BF000F18E1200000E2C6E2A50800AF36E800E99
:103C0000F35C000ED8B4295CD8B006D0296C2A1E0B
:103C1000D8B02A2A010E2C6E29C01BF02AC01CF035
:103C20001D6A8E0E1E6E2CC01FF043EC1BF01BC0D5
:103C300029F01CC02AF01DC02BF01200000E00015C
:103C4000941B000E0001951B800E0001961B91C075
:103C500085F092C086F093C087F094C088F095C03C
:103C600089F096C08AF036EC10F085C091F086C0DD
:103C700092F087C093F012009D9A9D98480EB86EFE
:103C8000980EAB6E260EAC6E220EAF6E000EB06EAE
:103C9000000EAD6E000EAE6E000E416E000E426E56
:103CA000080E456E000E3F6E000E406E000E3E6E1A
:103CB0009D8A12001B6E4550D8B4FDD79DB803D025
:103CC0001BC0ADFF12D09D984150010D300EF32462
:103CD000D96E000EF420DA6E1BC0DFFF412A070EFA
:103CE000416402D0000E416E45069D88120060C0FE
:103CF00029F061C02AF0000E2C6E030E2B6E04EC2E
:103D00001FF00101320E2924D96E0101010E2A2073
:103D1000DA6E0001DECF60F00001DECF61F000015D
:103D2000DDCF62F01200080E455CD8B012D04250D0
:103D3000010D300EF324D96E000EF420DA6EDF5040
:103D4000AD6E422A070E426402D0000E426E452A32
:103D500012009D981200ABA202D0AB98AB883F50E6
:103D6000010D0101000EF324D96E0101010EF420B2
:103D7000DA6EAECFDFFF3F2A310E3F6402D0000E75
:103D80003F6E3E2A120001EE00F0E60EEE6AE806F3
:103D9000FDE100EEB6F0420EEE6AE806FDE100EE4F
:103DA00030F0130EEE6AE806FDE1000EF86E000139
:103DB000E5EF1AF001B0897C02340230046E013064
:103DC000036E03B08B7001C003F002C004F0043432
:103DD0000432033204340432033203A012008B7223
:103DE00012007F0E1D141C101B10D8B406D0000E3C
:103DF0001B1A000E1C1A800E1D1A1BC01BF01CC0C3
:103E00001CF01DC01DF0120029502B02F3CF2DF025
:103E1000F4CF2EF029502C02F3502E262A502B02DC
:103E2000F3502E262DC029F02EC02AF01200300E9D
:103E3000CD6E000ECC6E0B0ECF6EDC0ECE6ECECFE6
:103E400043F0CFCF44F09E909D8092EC1FF0120083
:103E50001D6E000E1C6E3A0E1D5CD8B005D02F0EE4
:103E60001D6402D0010E1C6E1CC01BF01B30120022
:103E700080EC1FF0D3EC1DF087EC1FF052EC1FF02C
:103E80003CEC1EF017EC1FF01200026E02C001F0B5
:103E900001460146C2500118830B0118C26EC28050
:103EA000C2821200010EC26E800EC16EA90EC06EDB
:103EB000000EC36E000EC46E9D8C1200000E396E93
:103EC000000E386E010E3C6E800EC16E0E0E45EC7B
:103ED0001FF01200000E396E000E386E010E3D6E9E
:103EE000800EC16E010E45EC1FF01200C450046E2E
:103EF000036AC3500324016E000E0420026E1200F8
:103F0000620ED36E040ED26E000E9B6E1200D09E17
:103F10009F9A9F9C9F909F9812001C6E1C505AEC79
:083F20001EF01200CD8012001A
:020000040020DA
:08000000FFFFFFFFFFFFFFFF00
:020000040030CA
:0E000000FF081F3CFFBF81FF0FC00FE00F4045
:00000001FF
