:0400000054EF00F0C9
:10000800FACF4AF0FBCF4BF0E9CF4CF0EACF4DF0F6
:10001800E1CF4EF0E2CF4FF0D9CF50F0DACF51F028
:10002800F3CF52F0F4CF53F0F6CF54F0F7CF55F0AA
:10003800F8CF56F0F5CF57F09DBA9EAA03D087ECBB
:1000480001F011D09DBC9EAC03D056EC00F00BD053
:100058009DB09EA003D0CCEC01F005D09DB89EA821
:1000680002D06FEC01F057C0F5FF56C0F8FF55C03D
:10007800F7FF54C0F6FF53C0F4FF52C0F3FF51C05E
:10008800DAFF50C0D9FF4FC0E2FF4EC0E1FF4DC0BC
:10009800EAFF4CC0E9FF4BC0FBFF4AC0FAFF110062
:1000A8009DEF01F09E9C000E496E000E486E3B507D
:1000B800D8B464D0F2EC01F042C048F043C049F033
:1000C800010E466E000E476ED8903934D96E3A3418
:1000D800DA6E4650D9264750DA2248C0DEFF49C0BA
:1000E800DDFF394A3A2A26D0030ED9EC01F046D072
:1000F800040ED9EC01F042D0050ED9EC01F03ED047
:10010800180ED9EC01F03AD01A0ED9EC01F036D01D
:100118001B0ED9EC01F032D0080ED9EC01F02ED02C
:100128000B0ED9EC01F02AD0000E3B6E0D0ED9EC67
:1001380001F024D039C046F03AC047F04750000AD1
:10014800D8A41CD04650010AD8B4CED7030AD8B4D4
:10015800CFD7010AD8B4D0D7070AD8B4D1D7010A63
:10016800D8B4D2D7030AD8B4D3D7010AD8B4D4D7CD
:100178000F0AD8B4D5D7010AD8B4D6D73C50D8B4CA
:100188001200F2EC01F042C048F043C049F0010E01
:10019800466E000E476ED8903934D96E3A34DA6E0E
:1001A8004650D9264750DA2248C0DEFF49C0DDFF55
:1001B800394A3A2A26D0030ED9EC01F01200040E6F
:1001C800D9EC01F01200050ED9EC01F01200180E5E
:1001D800D9EC01F012001A0ED9EC01F012001B0E36
:1001E800D9EC01F01200080ED9EC01F012000B0E48
:1001F800D9EC01F01200000E3C6E0D0ED9EC01F0A6
:10020800120039C046F03AC047F04750000AD8A457
:1002180012004650010AD8B4CED7030AD8B4CFD7B3
:10022800010AD8B4D0D7070AD8B4D1D7010AD8B4AC
:10023800D2D7030AD8B4D3D7010AD8B4D4D70F0A6F
:10024800D8B4D5D7010AD8A41200D5D7000E896E24
:10025800BE0E926E2E0E0F01386F000E8A6EF40ECF
:10026800936E340E0F01396F000E616E080E8B6E9F
:10027800C40E946E040E0F013A6F000E8C6ED10EF0
:10028800956ED10E0F013B6F000E8D6E050E966EAA
:10029800050E0F013C6FF18E12009D9A9D98480E35
:1002A800B86E980EAB6E260EAC6E220EAF6E000EB8
:1002B800B06E000EAD6E000EAE6E000E406E000EFB
:1002C800416E080E5F6E000E3E6E000E3F6E000E11
:1002D8003D6E9D8A1200080E5F5CD8B012D0415066
:1002E800010D310EF324D96E000EF420DA6EDF50C2
:1002F800AD6E412A070E416402D0000E416E5F2A9E
:1003080012009D981200ABA202D0AB98AB883E5069
:10031800010D290EF324D96E000EF420DA6EAECF4B
:10032800DFFF3E2A070E3E6402D0000E3E6E3D2AD5
:10033800120000EE60F0140EEE6AE806FDE100EE31
:1003480001F0410EEE6AE806FDE1000EF86E0001CC
:1003580009EF02F0000ECD6E000ECC6EB10ECF6E1E
:10036800E00ECE6ECECF5DF0CFCF5EF09E909D803A
:100378000EEC02F01200FCEC01F02AEC01F003ECA8
:1003880002F0E6EC01F051EC01F0AEEC01F01200E5
:100398009E905EC042F042C043F0446A4350CF6E24
:1003A8005DC0CEFF10EC02F01200436E43C042F075
:1003B80042464246C2504218830B4218C26EC2805F
:1003C800C2821200010EC26E810EC16E0A0EC06E8C
:1003D800000EC36E000EC46E9D8C1200C450456E94
:1003E800446AC3504424426E000E4520436E1200F6
:1003F800620ED36E040ED26E000E9B6E1200D09E5B
:100408009F9A9F9C9F909F981200BFEC01F0F28EDC
:0A041800F28CFFD7CD801200120015
:020000040020DA
:08000000FFFFFFFFFFFFFFFF00
:020000040030CA
:0E000000FF081F3CFFBF81FF0FC00FE00F4045
:00000001FF
