:020000040000fa
:080000000002040000000000f2
:020000040000fa
:10000800aa020000aa020000aa020000aa02000038
:10001800aa020000aa020000aa020000aa02000028
:10002800aa020000aa020000aa020000aa02000018
:10003800aa020000aa020000aa020000aa02000008
:10004800aa020000aa020000aa020000460e000050
:100058006c0e0000aa020000aa020000aa0200001a
:10006800aa020000aa020000aa020000aa020000d8
:10007800aa020000aa020000aa020000aa020000c8
:10008800aa020000aa020000aa020000aa020000b8
:10009800aa020000aa020000aa020000aa020000a8
:1000a800aa020000aa020000aa020000aa02000098
:1000b800aa020000aa020000aa020000aa02000088
:1000c800aa020000aa020000aa020000aa02000078
:1000d800aa020000aa020000aa020000aa02000068
:1000e800aa020000aa020000aa020000aa02000058
:1000f800aa020000aa020000aa020000aa02000048
:10010800aa020000aa020000aa020000aa02000037
:10011800aa020000aa020000aa020000aa02000027
:10012800aa020000aa020000aa020000aa02000017
:10013800aa020000aa020000aa020000aa02000007
:10014800aa020000aa020000aa020000aa020000f7
:10015800aa020000aa020000aa020000aa020000e7
:10016800aa020000aa020000aa020000aa020000d7
:10017800aa020000aa020000aa020000aa020000c7
:10018800aa020000aa020000aa020000aa020000b7
:10019800aa020000aa020000aa020000aa020000a7
:1001a800aa020000aa020000aa020000aa02000097
:1001b800aa020000aa020000aa020000aa02000087
:1001c800aa020000aa020000aa020000aa02000077
:1001d800aa020000aa020000aa020000aa02000067
:1001e800aa020000aa020000aa020000aa02000057
:0801f800aa020000aa020000a7
:020000040000fa
:10020800aa020000aa020000aa020000aa02000036
:10021800aa020000aa020000aa020000aa02000026
:10022800aa020000aa020000aa020000aa02000016
:10023800aa020000aa020000aa020000aa02000006
:10024800aa020000aa020000aa020000460e00004e
:100258006c0e0000aa020000aa020000aa02000018
:10026800aa020000aa020000aa020000aa020000d6
:10027800aa020000aa020000aa020000aa020000c6
:10028800aa020000aa020000aa020000aa020000b6
:10029800aa020000aa020000aa020000aa020000a6
:1002a800aa020000aa020000aa020000aa02000096
:1002b800aa020000aa020000aa020000aa02000086
:1002c800aa020000aa020000aa020000aa02000076
:1002d800aa020000aa020000aa020000aa02000066
:1002e800aa020000aa020000aa020000aa02000056
:1002f800aa020000aa020000aa020000aa02000046
:10030800aa020000aa020000aa020000aa02000035
:10031800aa020000aa020000aa020000aa02000025
:10032800aa020000aa020000aa020000aa02000015
:10033800aa020000aa020000aa020000aa02000005
:10034800aa020000aa020000aa020000aa020000f5
:10035800aa020000aa020000aa020000aa020000e5
:10036800aa020000aa020000aa020000aa020000d5
:10037800aa020000aa020000aa020000aa020000c5
:10038800aa020000aa020000aa020000aa020000b5
:10039800aa020000aa020000aa020000aa020000a5
:1003a800aa020000aa020000aa020000aa02000095
:1003b800aa020000aa020000aa020000aa02000085
:1003c800aa020000aa020000aa020000aa02000075
:1003d800aa020000aa020000aa020000aa02000065
:1003e800aa020000aa020000aa020000aa02000055
:0803f800aa020000aa020000a5
:020000040000fa
:10040000efcc20000e7f24000e01880000000000c9
:10041000000020000000e000020032000001200087
:10042000200288000c000700201521000100200098
:1004300011000700000020000000e0000200320070
:1004400000000200000000000c110200000000008b
:100450000040da000000fe004440a9000000200037
:100460000000e0000300320000002000a00188002e
:100470004440a80000000600910188008000780038
:100480000000eb0015003700e280400032a0b4000d
:100490009101ba00e280400032a0b4009102ba009b
:1004a000e280400032a0b4000002eb00472bde00e7
:1004b000f507b200602ce10004003a000059eb009f
:1004c0008301e900fdff3e00040037006128e100e0
:1004d000010032000082eb00040007001101ba00a5
:1004e0000200e000e8ff3a00000006003159ba00bf
:1004f0008301e9000c0032002159ba008301e900b0
:10050000080032000400e00003003a00e2804000ee
:1005100032a0b400f5ff370011d9ba008301e90019
:10052000faff3a008100e800e180400032a0b40008
:1005300000000600f40d040000000000020e04009c
:1005400000000000100e0400000000001e0e040059
:10055000000000000040da000000fe00889fbe009e
:1005600080047800c0568000e00f500004003a007c
:100570000e0007000084eb00e00f5000080035007b
:10058000c8568000e08f5400050032000900440086
:1005900006000700e00f500001003d000084eb0062
:1005a000080078004f04be0000000600e00f500075
:1005b00004003a00a4ad2000c45688000002780070
:1005c000060037000082eb00e5cc2000850f5000cc
:1005d00002003e00c05688000002eb0004007800d4
:1005e00000000600040024000602ab00feff3a00f3
:1005f0000642ab00fcff3a000662ab00faff3a008d
:100600000622ab00f8ff3a000682ab00f6ff3a0084
:100610004610800086026200f3ff3a0000000600e8
:10062000881f780000047800060037000d000700de
:10063000e14f4000080032000802ab00feff3a0024
:10064000e8ff070038407800e04f5000f7ff3a001d
:100650000000eb0001003700d0ff2f004f047800ae
:10066000000006000080fb001010880000c0eb00b6
:1006700008e2ab0009003a000400240046108000a4
:1006800086026200fdff3a00d6ff07000000280046
:100690000802b60001003200e0cfb30000000600ff
:1006a0000602a800000006000642a800000006009e
:1006b00084ac2000e487470045568000889fbe0038
:1006c0008a9fbe008c9fbe008e1f7800e08f520074
:1006d0000b003a0024029800e4024200a45688006d
:1006e00045568800b5568800a44290000504a00035
:1006f00025429800e44290000504a000654298005d
:1007000067044000a4ad2000250020004244de0024
:10071000e9cc20004244dd008484540005074400f5
:10072000110009008504d8001ccd2000a2568000cd
:100730000406560080bf9f000e0747000003eb0031
:10074000e4054400080646000200370016002000b9
:100750000d01780022429000610262000200320026
:100760000a003700150978009202780025429000af
:1007700061026200fbff320008024100848f5200d8
:1007800002003900e00f54003f003d00920678005f
:100790000d00a100828f5600edff3e00e10f5300d7
:1007a000eaff3a000fba9700840f540002003600a7
:1007b000890f540010003900614ab900b0ff2f00c2
:1007c000010020006143b8000402500085825800f7
:1007d000840f5300858f5b00020035000b05780005
:1007e00006003700110009000986d8000982b90007
:1007f00004057800010037000e0578000a00780033
:1008000056ff0700e10f400005003a000b05780095
:100810000b00780051ff0700e10f40002b00320071
:10082000b4568000000a7800b45680006403420089
:10083000a4429000860f5000020032000504a00080
:10084000010037000504a100254298006405550009
:1008500084ac20000a0540000a087800ba568800d7
:10086000040d7800b55680000003eb00254290008f
:100870000404a000a4429800204290000404a100b7
:1008800024409800b2ff3700a4568800848f52009d
:10089000070036001403be008042eb008656880035
:1008a00097568800120a7800a456800025429800c6
:1008b00022429000a75680000404a0000709780097
:1008c0002441980064004100010037000000eb0063
:1008d0004f0778004f06be004f05be004f04be0014
:1008e0004f00b10000000600e00f50000800320089
:1008f00064005000a4568000840f500001003100b5
:10090000a0568800204290000404a10024409800d2
:1009100000000600889fbe00000478008a9fbe0089
:1009200081047800e08f540005003a00e00f540085
:100930003200320008007800ebff0700300037007b
:10094000e00f540004003a000900780058ff070047
:10095000800478002a00370064025400940578006f
:1009600068fa970061026200020032000800780015
:10097000ddff0700090078004dff070080047800c4
:10098000e08f54001e003200888f54001b0032009c
:1009900069bd97008885550009055500c2ddde0058
:1009a00042d5de000a0178008b0f550001003600a9
:1009b0000b0178004211dd00880078000900780002
:1009c00013000700888f54000d0031004255dd00f0
:1009d0000a854400880f55000900360008045500b8
:1009e000845680009556800042c4de004244dd00fb
:1009f00008844400048cbe0001003700880478009d
:100a0000090078004f05be004f04be00000006003c
:100a10000002780002003700315a78000201e90034
:100a2000e00f5100fcff3a000000060000027800d1
:100a300002003700015a78000201e900e00f51007e
:080a4000fcff3a000000060073
:020000040000fa
:100a48000e00fa00000f78002147980032479800fe
:100a580043479800340798004507980056079800c0
:100a6800670798001e027800a44e88003e43900055
:100a7800159d2000864a78003e029000244e88008a
:100a8800de029000454e88006e039000564e8800a6
:100a98004e029000344e88002e4290000482fb00e3
:100aa8000402d1000442780004437800359d2000f8
:100ab800864a7800449e2000b44e8800ce429000ba
:100ac800849d2000054a78000002eb00d44e88007f
:100ad8000080fa00000006000800fa0020079800cd
:100ae800614798000042eb00044f7800200037006f
:100af8002e02900094427800154798002e0290002c
:100b08000402e8002407980084c0b3002447980032
:100b1800140037001e4290001e426a0061426200c3
:100b2800344798009e4278000582fb000402d100f9
:100b3800044f78003e429000e04f5200020032001d
:100b4800c4c8b3001e4f6a001e4290000482fb0016
:100b58000402d100144798002e4290000442e90094
:100b6800244798002e429000e04f5200e9ff3a00d7
:100b78006e4290000482fb000402ea004f22de006d
:100b880004427800ee4290008542e90065479800eb
:100b9800e04f5200d6ff3a001e4278000440780029
:100ba8000080fa00000006000600fa00404798009e
:100bb800ca02a8008455800084427800b44e8000a0
:100bc8008540780004007800c3ff070000427800e1
:100bd80024479800244e800060c0b3000400010040
:100be800244e800050c8b30004000100244e800049
:100bf8004e40900004000100254e8000149d200006
:100c0800144278000440780005000100254e800059
:100c180084558000044278000440780005000100f3
:100c28000002eb00040f780008003700254e800012
:100c3800b64e80001e027800040243001442780079
:100c480004407800050001001e0fe800845580006c
:100c58009e0f5200f5ff3c00244e80002e4090006d
:100c68000400010010002000f2040700ca02a900d5
:100c78008041eb002e419000ce40900040ab200018
:100c88004b02070011002000409e2000f0010700e1
:100c98000080fa00000006000c00fa00889fbe00e1
:100ca800f49c200014427800e04f520050003a00b3
:100cb800444e80000400010000027800e40f520056
:100cc8004b0034000a003700d44e80000402e800cc
:100cd800d44e8800444e80000400010000027800d1
:100ce800e40f520002003c000042eb0064013700b0
:100cf800344e80000400010000427800e64f5200a4
:100d0800f1ff3a00344e80000400010000427800f0
:100d180055c8b300854f520035003a00344e800064
:100d2800040001000042780004437800259e20005a
:100d3800864a7800344e80000400010000427800a2
:100d480004437800259d2000864a7800344e8000b0
:100d5800040001000042780004437800f59c20005c
:100d6800864a7800259e200095427800149d200030
:100d78001442780084cf520015003200f44e8000ef
:100d88000402e800f44e88000002eb00040f78002b
:100d980003003700344e8000040001001e0fe800f5
:100da800f49c2000144278000482fb000402e8004e
:100db8009e0f5200f7ff3d000042eb00044378000d
:100dc800f59c2000864a78000042eb002c01370091
:100dd800f49c2000144278000482fb000402e8001e
:100de8000400780030fe070000027800644e880096
:100df800f49c200014427800e04f52001f0132009a
:100e0800e49c200014427800e04f520028003a0089
:100e180000000000444e8000040001000002780039
:100e2800e00f5200fbff3400544e80000400010024
:100e380000427800e14f42001f003a005e020700be
:100e48000042eb0004437800f59c2000864a7800b5
:100e58000042eb0004437800e59c2000864a7800b5
:100e6800644e8000040078009dfe07008aff07009a
:100e78000042780002013700654e8000e89c20009f
:100e8800184478000882fb0084844200344e8000b5
:100e98000400010000427800844c78000842e80011
:100ea80004437800e59c2000864a78000300370058
:100eb800000000000100370000000000444e8000e0
:100ec8000400010000027800e00f52000600320022
:100ed800e59c200095427800f49c2000144278009c
:100ee80084cf5200e4ff3600f49c200014427800be
:100ef8008482fb00e49c2000144278000482fb00fa
:100f08000402e900848f5200dc003a00f59c2000be
:100f180095427800644e800085407800040078008f
:100f2800edfe07000042780004437800059d20008c
:100f3800864a7800654e8000e49c200014427800c0
:100f48000482fb000402e900048242009442780013
:100f5800049d20001442780084cf52007b003a00a0
:100f68000002eb001407980029003700654e800046
:100f78001e0290000482420094427800349d2000b2
:100f88001442780084cf52001b003100654e800067
:100f98001e0290000402e800048242001442780015
:100fa8000443780025ab2000864a7800654e80000f
:100fb8001e0290000482e800048242001442780075
:100fc8000443780035ab2000864a7800a54e80009f
:100fd800664e80001e02900004024300144278000e
:100fe8000482fb00040242000482420095558000fe
:100ff800050a780003003700044f80000402e80067
:10100800044f88001e0290006302420014079800f3
:10101800f49c2000144278008482fb001e02900099
:10102800848f5200d1ff3c00849d20001442780038
:10103800e04f52003800320000c2eb0064479800cd
:1010480014c0b30074479800654e8000e49c2000eb
:10105800144278000482fb000402e9000482420082
:1010680014427800044f98006602470031c0b3006c
:101078000400780098fe0700004278004447980072
:10108800244e800060c0b30004000100244e80009c
:1010980050c8b30004000100254e8000249d2000a4
:1010a800144278000440780005000100254e8000b5
:1010b800149d2000144278000440780005000100c7
:1010c800244e800030c0b30004000100244e80008c
:1010d80000c0eb0004000100244e800010c0b300e3
:1010e80004000100254e8000664e8000e49c20002c
:1010f800144278000482fb000402e9000402430061
:10110800144278000440780005000100244e800055
:101118004e409000040001000042eb0004437800b8
:10112800f59c2000864a78000042eb0004437800d2
:10113800e59c2000864a7800644e80000400780010
:10114800e7fd070014c0b3004d003700e44e8000ef
:101158000402e800e44e8800849d200014427800d0
:10116800e04f52003800320000c2eb00144f9800e4
:1011780024c0b300244f9800654e8000e49c2000f2
:10118800144278000482fb000402e9000482420051
:1011980014427800344f98006902470031c0b30008
:1011a800040078004cfe070000427800544798007d
:1011b800244e800060c0b30004000100244e80006b
:1011c80050c8b30004000100254e8000249d200073
:1011d800144278000440780005000100254e800084
:1011e800149d200014427800044078000500010096
:1011f800244e800030c0b30004000100244e80005b
:1012080000c0eb0004000100244e800020c0b300a1
:1012180004000100254e8000664e8000e49c2000fa
:10122800144278000482fb000402e900040243002f
:10123800144278000440780005000100244e800024
:101248005e409000040001000042eb000443780077
:10125800f59c2000864a78000042eb0004437800a1
:10126800e59c2000864a7800644e800004007800df
:101278009bfd07000042eb00010037000042eb0035
:10128800044078004f04be000080fa000000060009
:101298000400fa00004f7800110798001e01900022
:1012a8009e407800409e2000020007000080fa005f
:1012b800000006000600fa00000f78002147980099
:1012c800220798002e029000945588001e0278008c
:1012d800e4a29000440c2000848f52003b003c00a4
:1012e8001e02780044a290009e0278002e439000cf
:1012f80086727a001e02780044a29000810c2000b9
:101308000400780068000700000278008402780072
:101318001e02780045a298001e02780064a2900080
:101328008402e8001e02780065a298001e02780078
:1013380044a2900026ab2000164378009e02780055
:1013480086727a001e02780044a29000810c200068
:101358000400780054000700000278008402780036
:101368001e02780045a298001e02780064a2900030
:101378008402e8001e02780065a298001e02780028
:1013880044a2900036ab2000164378009e027800f5
:1013980086727a001e02780044a29000810c200018
:1013a80004007800400007000002780084027800fa
:1013b8001e02780045a298001e02780064a29000e0
:1013c8008402e8001e02780065a298000080fa00f6
:1013d800000006000400fa00100798001e029000a2
:1013e80064a29000e00f5200130034001e02900027
:1013f80054a290009e029000654f7a001e02900051
:1014080054a29000810c20000400780026000700f8
:1014180000027800840278001e02900055a298000d
:101428001e02900064a290008402e9001e0290004f
:1014380065a29800020037000042eb00044f7800d4
:101448001e427800044078000080fa000000060080
:101458000400fa00000f7800110798001e027800b7
:101468008002eb0065a298001e0278008002eb0063
:1014780045a298001e0278008002eb0055a2980051
:101488001e029000e00f5200050032001e02780094
:10149800820c20008000eb000400780061fd07004a
:1014a8000080fa00000006000600fa001007980005
:1014b800210798001e029000040fe8002e029000f9
:1014c8009e027800848f5200020039000002eb006f
:1014d800040f78001e027800040078000080fa00eb
:1014e800000006000400fa00204798000002eb0004
:1014f800040f7800130037001e02780004427800b9
:101508000041eb008440780040ab20007b000700de
:1015180000427800ae429000854f520008003a0021
:101528001e0278000442780022c0b300844078008c
:1015380040ab20007100070000427800050037002a
:101548001e0fe8001e027800e40f5200eaff340084
:1015580044c0b300044078000080fa000000060090
:101568000000fa00d44e8000040078000080fa00e1
:10157800000006000000fa00e44e80000400780035
:101588000080fa00000006000000fa00f44e800017
:10159800040078000080fa00000006000000fa004d
:1015a800044f8000040078000080fa000000060064
:1015b8000600fa00000f780021479800324798008b
:1015c800434798001e027800040a90009e027800a3
:1015d8002e43900086727a001e027800040a90005a
:1015e8008402e8001e027800050a98001e027800ae
:1015f800040a90009e0278003e43900086727a00aa
:101608001e027800040a90008402e8001e02780096
:10161800050a98001e027800040a90009e027800cd
:101628004e43900086727a001e027800040a9000e9
:101638008402e8001e027800050a98001e0278005d
:10164800040a9000ee0f5200030034001e027800d6
:101658008002eb00050a98000080fa0000000600ee
:101668000600fa0010079800414798005247980072
:101678004e429000e44f52000200360044c0b300ce
:10168800444798004e4290000442e80044479800be
:101698004e4290000482fb006322b90004027800e5
:1016a800040f78001e029000040a90009e0f52005a
:1016b80009003d001e029000040a90001e0252001c
:1016c8006f0f42001e82e8009e0290005e43900069
:1016d80086727a00070037001e029000040a900004
:1016e8001e0252000482e8009e0290005e439000b1
:1016f80086727a000080fa00000006000600fa00f0
:101708001007980041479800524798004e429000b1
:10171800e44f52000200360044c0b300444798002a
:101728005e429000e24f52000200360024c0b3002f
:10173800544798004e4290000442e80044479800fd
:101748004e4290000482fb006322b9000402780034
:10175800040f78001e029000040a90009e0f5200a9
:101768000a003d001e029000040a90001e0252006a
:101778006f0f42005e4290000482fb001e0242008e
:101788009e02900065427a00080037001e02900011
:10179800040a90009e0252005e4290000482fb0000
:1017a800048242009e02900065427a00044078005c
:1017b8000080fa00000006000800fa00881f780080
:1017c80000000000444e8000040001000002780080
:1017d800e30f5200fbff3400344e80000400010088
:1017e8000042780044479800344e8000040001000d
:1017f8000042780054479800344e800004000100ed
:101808000042780064479800344e800004000100cc
:1018180000427800244798006402470031c0b300b2
:1018280004007800acfc07000042780034479800b8
:10183800ae4290003e42900084cf520032003a00ff
:101848000002eb00040f78002b0037001e0278001e
:10185800044278000041eb008440780040ab20004f
:10186800a6ff070000427800259d200095427800d9
:10187800854f52001f003a006e4490001e02780007
:101888000442780012c0b3008440780040ab2000c6
:101898009aff070000427800844f540015003a0070
:1018a8005e429000e14f520007003a001e027800a5
:1018b8000442780012c0b3008440780040ab200096
:1018c80067ff0700130037005e429000e24f5200a6
:1018d80008003a001e0278000442780022c0b300d3
:1018e8008440780040ab20005dff07000000000046
:1018f800080037001e0fe8001e027800e40f5200af
:10190800d2ff340003003700e44e80000402e800f0
:10191800e44e88004f0478000080fa0000000600ba
:101928000000fa002002a900041180000410a100a0
:101938000420a1000411880020a2a900940320001b
:1019480044118800141180000460a0000470a100f4
:1019580014118800141180000460a1000470a10013
:10196800141188008560a9008580a9009560a800e9
:101978009580a80021e2a8002342a800008020004a
:1019880006000700e08c20000400070021e2a80000
:101998002342a8000080fa00000006000200fa00b6
:1019a800000f7800e20c20008000eb001e00780099
:1019b8001cfc07000080fa00000006000400fa0082
:1019c800000f7800214798001e027800e4a29000da
:1019d800740c2000848f520014003c001e02780012
:1019e80044a290009e0278002e43900086727a00ee
:1019f8001e02780044a29000810c200004007800a8
:101a08005f00070000027800840278001e02780058
:101a180045a298001e02780064a290008402e800a3
:101a28001e02780065a29800170037001e02780091
:101a380044a290009e0278002e43900086727a009d
:101a48001e02780044a29000810c20000400780057
:101a58004b00070000027800840278001e0278001c
:101a680045a298001e02780054a29000810c200024
:101a78000400780042000700000278008402780021
:101a88001e02780055a298000080fa0000000600a7
:101a98000400fa00100798001e02900064a290004b
:101aa800e00f5200130034001e02900054a2900070
:101ab8009e029000654f7a001e02900054a290008a
:101ac800810c2000040078002d0007000002780037
:101ad800840278001e02900055a298001e02900011
:101ae80064a290008402e9001e02900065a298009a
:101af800020037000042eb00044f78001e427800d5
:101b0800044078000080fa00000006000400fa0093
:101b1800000f7800110798001e0278008002eb0081
:101b280065a298001e0278008002eb0045a298008a
:101b38001e0278008002eb0055a298001e02900059
:101b4800e00f5200050032001e027800820c2000cf
:101b58008000eb0004007800b2fb07000080fa0068
:101b6800000006000200fa00000f78001e0278004c
:101b780064a29000040078000080fa0000000600cb
:101b88000600fa0010079800210798001e0290002e
:101b9800040fe8002e0290009e027800848f520005
:101ba800020039000002eb00040f78001e027800e2
:101bb800040078000080fa00000006000200fa0025
:101bc800000f78001e02780054a290009e02780050
:101bd80065427a00044078000080fa0000000600a0
:101be8000000fa0000802000f4ff0700004278009f
:101bf800044078000080fa00000006000000fa00a7
:101c080000802000d7ff0700000278000400780059
:101c18000080fa00000006000000fa0000802000a2
:101c28009bff070000427800044078000080fa001b
:101c3800000006000200fa00004f78009e4078007d
:101c4800e08c20005dff070064ac2000144278009f
:101c5800e04f5200090032000042eb0004437800d4
:101c680065ac2000864a7800e08c200088ff0700d9
:101c7800004278000482fb00241188000080fa00ea
:101c8800000006003600f800809fbe00829fbe005c
:101c9800849fbe00869fbe000200fa0034118000b7
:101ca800044f78009e4078000080200043ff070022
:101cb8008560a9000080fa004f03be004f02be00f5
:101cc8004f01be004f00be003600f900004006007c
:101cd8003600f800809fbe00829fbe00849fbe0031
:101ce800869fbe000000fa00e08c20009dff0700e0
:101cf80000027800e00f520006003400e08c20005b
:101d080063ff0700004278000482fb00241188006a
:101d18000400370014c0b3000443780065ac200009
:101d2800864a78008580a9000080fa004f03be002b
:101d38004f02be004f01be004f00be003600f90042
:101d4800004006000200fa00000f78000200370089
:101d580000000000000000001e0fe9001e027800cd
:101d6800e00f5200faff3a000080fa000000060077
:101d78001800fa002057980031579800220f980051
:101d8800330f98000002eb00140798000002eb00e4
:101d9800240798003e0a9000040f78003efa0700d6
:101da8000efa07003e529000e04f52000600320043
:101db8002e529000044242000440780027fa07009f
:101dc80006fa0700190037002e5290000402fb00a3
:101dd80004024200044278000404a0000440780091
:101de8001efa0700fdf90700100037001e029000d8
:101df800ae0a900004824200144278009e029000cd
:101e08008502e800150798000440780013fa0700d7
:101e1800f2f907001e0fe9004510800004002800b1
:101e280004826200e00f520004003a001e027800ab
:101e3800e00f5200edff3a000100370000000000fb
:101e48002e009000f4f9070000027800644798001b
:101e58006e429000e34f420001003a00ffff370056
:101e68000ffa0700ddf90700a0002000b5ff070002
:101e780009fa0700d9f907007e429000044078006b
:101e8800f6f90700d5f9070045108000040028007e
:101e980004826200e00f520004003a0000fa0700d2
:101ea800cef907000080fa0000000600fcf90700e0
:101eb800caf90700ecff37000000fa00842520006b
:101ec8002410880004202100341088000002eb0050
:101ed800041088000002eb00141088000420290078
:101ee800341088000080fa00000006000000fa00a4
:101ef800253a800004fe2f0004826200243a8800fc
:101f0800243a800004c0a10004d0a10004e0a1008c
:101f1800243a880064012000343a8800243a80007a
:101f28000460a1000470a100243a880000000000a9
:101f3800153a80000402200004826200e00f52007b
:101f4800fbff3200153a8000f40b20000483620086
:101f5800640420007505200027742000844b780055
:101f6800854b7800864b780035368000f40f2e00bc
:101f78008482620004502000050272003436880012
:101f880025368000f40f2e00848262000420210090
:101f980005027200243688003535800004fe2f00c3
:101fa800048262006400b30034358800c5368000be
:101fb80004fe2f00048262003400b300c436880097
:101fc8002535800004fe2f00048262009401b300ce
:101fd80024358800153a80000404200005037200a7
:101fe800640420007505200027742000844b7800c5
:101ff800854b7800864b780049fe070047df2000b4
:1020080026e0200005e12000e4e120008041eb000b
:1020180062c0b30081c2b300c099200088fa0700eb
:10202800a5ff070012000700180007000080fa004b
:10203800000006000400fa00100798000002eb00f8
:10204800040f78000400370000ca280001002000af
:10205800ac0007001e0fe8001e0290009e027800e8
:10206800848f5200f8ff35000080fa000000060057
:102078000000fa00c822a900c8a2a900c9a2a900a4
:10208800cda2a9000080fa00000006000000fa00b6
:1020980024000700240c80000400a1000410a10003
:1020a8000420a100240c8800f4002000140c8800ef
:1020b800f4002000040c88008461a900f4002000ca
:1020c800140c8800240c80000400a1000410a00057
:1020d8000420a000240c8800540c80000400a100f7
:1020e8000410a1000420a100540c8800f400200072
:1020f800440c8800f4002000340c88008a61a90090
:10210800f4002000440c8800540c80000400a10056
:102118000410a0000420a000540c88000080fa00dd
:10212800000006000000fa0011e1a9001021a90032
:1021380010c1a900840880000440a1000450a10037
:10214800840888000002eb003408880074cf20005f
:102158006408880011e1a8000080fa000000060069
:102168000200fa00000f7800440620009e02780062
:10217800848f52000200340044062000040f7800c7
:102188001e027800e00f520002003d000002eb0042
:10219800040f78009e0278003402200004aab900d7
:1021a80004027800040f78001e027800040c8800ee
:1021b8000080fa00000006000200fa00000f780014
:1021c800440620009e027800848f520002003400ea
:1021d80044062000040f78001e027800e00f520029
:1021e80002003d000002eb00040f78009e02780018
:1021f8003402200004aab90004027800040f780011
:102208001e027800340c88000080fa0000000600e6
:102218000400fa00000f78001107980033ff070048
:1022280001003700000000009bfa07000042780018
:10223800e04f5200fbff3200cda2a8006100200051
:102248000040eb0012fc07004000200079ff070067
:1022580010c0b30054fa07005000200075ff0700b3
:10226800cda2a900641680000402d1006142620078
:102278000404a200614262000482fb006102620061
:102288000402420066168000d5ff2f008502630015
:0c2298000502720064168800e3ff3700a6
:020000040000fa
:1022a4009c0900002a010000000000000008000052
:1022b4009c01000000000000c60a000002000000ab
:1022c4000200000001000000c80a0000080000002d
:1022d40000000000d40a000002000000000000001a
:1022e400d60a00000200000000000000d00a00002e
:1022f4000400000000000000d80a000002000000f2
:082304000000000000000000d1
:020000040000fa
:10230c00f03fb1000180b10006003500ee0309007a
:10231c0000000000403fb1000180b100fbff3d0018
:10232c001000b000203fb000020035000080090012
:08233c00000000000000060093
:020000040000fa
:0200000401f009
:04000000ffff0000fe
:020000040000fa
:0200000401f009
:04000400ffff0000fa
:020000040000fa
:0200000401f009
:04000800ffff0000f6
:020000040000fa
:0200000401f009
:04000c00830000006d
:020000040000fa
:0200000401f009
:0400100001000000eb
:020000040000fa
:0200000401f009
:04001400df00000009
:020000040000fa
:0200000401f009
:04001800f7000000ed
:020000040000fa
:0200000401f009
:04001c00dfff000002
:00000001FF
